{
	"contracts/Shope.sol": {
		"Store": {
			"abi": [
				{
					"inputs": [],
					"stateMutability": "nonpayable",
					"type": "constructor"
				},
				{
					"inputs": [],
					"name": "IdAlreadyExist",
					"type": "error"
				},
				{
					"inputs": [],
					"name": "IdDoesNotExist",
					"type": "error"
				},
				{
					"inputs": [],
					"name": "NotEnoughtFunds",
					"type": "error"
				},
				{
					"inputs": [],
					"name": "OutOfStock",
					"type": "error"
				},
				{
					"inputs": [
						{
							"internalType": "address",
							"name": "owner",
							"type": "address"
						}
					],
					"name": "OwnableInvalidOwner",
					"type": "error"
				},
				{
					"inputs": [
						{
							"internalType": "address",
							"name": "account",
							"type": "address"
						}
					],
					"name": "OwnableUnauthorizedAccount",
					"type": "error"
				},
				{
					"inputs": [],
					"name": "QuantityCantBeZero",
					"type": "error"
				},
				{
					"anonymous": false,
					"inputs": [
						{
							"indexed": true,
							"internalType": "address",
							"name": "previousOwner",
							"type": "address"
						},
						{
							"indexed": true,
							"internalType": "address",
							"name": "newOwner",
							"type": "address"
						}
					],
					"name": "OwnershipTransferred",
					"type": "event"
				},
				{
					"anonymous": false,
					"inputs": [
						{
							"indexed": false,
							"internalType": "address",
							"name": "buyer",
							"type": "address"
						},
						{
							"indexed": false,
							"internalType": "uint256",
							"name": "id",
							"type": "uint256"
						},
						{
							"indexed": false,
							"internalType": "uint256",
							"name": "quantity",
							"type": "uint256"
						}
					],
					"name": "Purchase",
					"type": "event"
				},
				{
					"inputs": [
						{
							"internalType": "string",
							"name": "_name",
							"type": "string"
						},
						{
							"internalType": "uint256",
							"name": "_id",
							"type": "uint256"
						},
						{
							"internalType": "uint256",
							"name": "_stock",
							"type": "uint256"
						},
						{
							"internalType": "uint256",
							"name": "_price",
							"type": "uint256"
						}
					],
					"name": "addProduct",
					"outputs": [],
					"stateMutability": "nonpayable",
					"type": "function"
				},
				{
					"inputs": [
						{
							"internalType": "uint256[]",
							"name": "_ids",
							"type": "uint256[]"
						},
						{
							"internalType": "uint256[]",
							"name": "_quantitys",
							"type": "uint256[]"
						}
					],
					"name": "batchBuy",
					"outputs": [],
					"stateMutability": "payable",
					"type": "function"
				},
				{
					"inputs": [
						{
							"internalType": "uint256",
							"name": "_id",
							"type": "uint256"
						},
						{
							"internalType": "uint256",
							"name": "_quantity",
							"type": "uint256"
						}
					],
					"name": "buy",
					"outputs": [],
					"stateMutability": "payable",
					"type": "function"
				},
				{
					"inputs": [
						{
							"internalType": "uint256",
							"name": "_id",
							"type": "uint256"
						}
					],
					"name": "deleteProduct",
					"outputs": [],
					"stateMutability": "nonpayable",
					"type": "function"
				},
				{
					"inputs": [
						{
							"internalType": "uint256",
							"name": "_id",
							"type": "uint256"
						}
					],
					"name": "getPrice",
					"outputs": [
						{
							"internalType": "uint256",
							"name": "",
							"type": "uint256"
						}
					],
					"stateMutability": "view",
					"type": "function"
				},
				{
					"inputs": [],
					"name": "getProducts",
					"outputs": [
						{
							"components": [
								{
									"internalType": "string",
									"name": "name",
									"type": "string"
								},
								{
									"internalType": "uint256",
									"name": "id",
									"type": "uint256"
								},
								{
									"internalType": "uint256",
									"name": "stock",
									"type": "uint256"
								},
								{
									"internalType": "uint256",
									"name": "price",
									"type": "uint256"
								}
							],
							"internalType": "struct Store.Product[]",
							"name": "",
							"type": "tuple[]"
						}
					],
					"stateMutability": "view",
					"type": "function"
				},
				{
					"inputs": [
						{
							"internalType": "uint256",
							"name": "_id",
							"type": "uint256"
						}
					],
					"name": "getStock",
					"outputs": [
						{
							"internalType": "uint256",
							"name": "",
							"type": "uint256"
						}
					],
					"stateMutability": "view",
					"type": "function"
				},
				{
					"inputs": [],
					"name": "getTotalRevenue",
					"outputs": [
						{
							"internalType": "uint256",
							"name": "",
							"type": "uint256"
						}
					],
					"stateMutability": "view",
					"type": "function"
				},
				{
					"inputs": [
						{
							"internalType": "address",
							"name": "_buyer",
							"type": "address"
						}
					],
					"name": "getUserPurchase",
					"outputs": [],
					"stateMutability": "nonpayable",
					"type": "function"
				},
				{
					"inputs": [],
					"name": "owner",
					"outputs": [
						{
							"internalType": "address",
							"name": "",
							"type": "address"
						}
					],
					"stateMutability": "view",
					"type": "function"
				},
				{
					"inputs": [
						{
							"internalType": "uint256",
							"name": "",
							"type": "uint256"
						}
					],
					"name": "productsPurchase",
					"outputs": [
						{
							"internalType": "uint256",
							"name": "",
							"type": "uint256"
						}
					],
					"stateMutability": "view",
					"type": "function"
				},
				{
					"inputs": [
						{
							"internalType": "uint256",
							"name": "",
							"type": "uint256"
						}
					],
					"name": "purchases",
					"outputs": [
						{
							"internalType": "address",
							"name": "buyer",
							"type": "address"
						},
						{
							"internalType": "uint256",
							"name": "purchaseId",
							"type": "uint256"
						},
						{
							"internalType": "uint256",
							"name": "totalAmount",
							"type": "uint256"
						}
					],
					"stateMutability": "view",
					"type": "function"
				},
				{
					"inputs": [
						{
							"internalType": "uint256",
							"name": "",
							"type": "uint256"
						}
					],
					"name": "purchasesForCurrentBuyer",
					"outputs": [
						{
							"internalType": "address",
							"name": "buyer",
							"type": "address"
						},
						{
							"internalType": "uint256",
							"name": "purchaseId",
							"type": "uint256"
						},
						{
							"internalType": "uint256",
							"name": "totalAmount",
							"type": "uint256"
						}
					],
					"stateMutability": "view",
					"type": "function"
				},
				{
					"inputs": [
						{
							"internalType": "address",
							"name": "_buyer",
							"type": "address"
						}
					],
					"name": "refund",
					"outputs": [],
					"stateMutability": "payable",
					"type": "function"
				},
				{
					"inputs": [],
					"name": "renounceOwnership",
					"outputs": [],
					"stateMutability": "nonpayable",
					"type": "function"
				},
				{
					"inputs": [
						{
							"internalType": "address",
							"name": "newOwner",
							"type": "address"
						}
					],
					"name": "transferOwnership",
					"outputs": [],
					"stateMutability": "nonpayable",
					"type": "function"
				},
				{
					"inputs": [
						{
							"internalType": "uint256",
							"name": "_id",
							"type": "uint256"
						},
						{
							"internalType": "uint256",
							"name": "_price",
							"type": "uint256"
						}
					],
					"name": "updatePrice",
					"outputs": [],
					"stateMutability": "nonpayable",
					"type": "function"
				},
				{
					"inputs": [
						{
							"internalType": "uint256",
							"name": "_id",
							"type": "uint256"
						},
						{
							"internalType": "uint256",
							"name": "_stock",
							"type": "uint256"
						}
					],
					"name": "updateStock",
					"outputs": [],
					"stateMutability": "nonpayable",
					"type": "function"
				},
				{
					"inputs": [
						{
							"internalType": "address",
							"name": "",
							"type": "address"
						},
						{
							"internalType": "uint256",
							"name": "",
							"type": "uint256"
						}
					],
					"name": "userPurchase",
					"outputs": [
						{
							"internalType": "address",
							"name": "buyer",
							"type": "address"
						},
						{
							"internalType": "uint256",
							"name": "purchaseId",
							"type": "uint256"
						},
						{
							"internalType": "uint256",
							"name": "totalAmount",
							"type": "uint256"
						}
					],
					"stateMutability": "view",
					"type": "function"
				},
				{
					"inputs": [],
					"name": "withdraw",
					"outputs": [],
					"stateMutability": "nonpayable",
					"type": "function"
				}
			],
			"devdoc": {
				"errors": {
					"OwnableInvalidOwner(address)": [
						{
							"details": "The owner is not a valid owner account. (eg. `address(0)`)"
						}
					],
					"OwnableUnauthorizedAccount(address)": [
						{
							"details": "The caller account is not authorized to perform an operation."
						}
					]
				},
				"kind": "dev",
				"methods": {
					"owner()": {
						"details": "Returns the address of the current owner."
					},
					"refund(address)": {
						"params": {
							"_buyer": "Buyer"
						}
					},
					"renounceOwnership()": {
						"details": "Leaves the contract without owner. It will not be possible to call `onlyOwner` functions. Can only be called by the current owner. NOTE: Renouncing ownership will leave the contract without an owner, thereby disabling any functionality that is only available to the owner."
					},
					"transferOwnership(address)": {
						"details": "Transfers ownership of the contract to a new account (`newOwner`). Can only be called by the current owner."
					}
				},
				"version": 1
			},
			"evm": {
				"assembly": "    /* \"contracts/Shope.sol\":127:7146  contract Store is Ownable {... */\n  mstore(0x40, 0x80)\n    /* \"contracts/Shope.sol\":1041:1077  constructor() Ownable(msg.sender) {} */\n  callvalue\n  dup1\n  iszero\n  tag_1\n  jumpi\n  revert(0x00, 0x00)\ntag_1:\n  pop\n    /* \"contracts/Shope.sol\":1063:1073  msg.sender */\n  caller\n    /* \"@openzeppelin/contracts/access/Ownable.sol\":1297:1298  0 */\n  0x00\n    /* \"@openzeppelin/contracts/access/Ownable.sol\":1273:1299  initialOwner == address(0) */\n  0xffffffffffffffffffffffffffffffffffffffff\n  and\n    /* \"@openzeppelin/contracts/access/Ownable.sol\":1273:1285  initialOwner */\n  dup2\n    /* \"@openzeppelin/contracts/access/Ownable.sol\":1273:1299  initialOwner == address(0) */\n  0xffffffffffffffffffffffffffffffffffffffff\n  and\n  sub\n    /* \"@openzeppelin/contracts/access/Ownable.sol\":1269:1364  if (initialOwner == address(0)) {... */\n  tag_5\n  jumpi\n    /* \"@openzeppelin/contracts/access/Ownable.sol\":1350:1351  0 */\n  0x00\n    /* \"@openzeppelin/contracts/access/Ownable.sol\":1322:1353  OwnableInvalidOwner(address(0)) */\n  mload(0x40)\n  0x1e4fbdf700000000000000000000000000000000000000000000000000000000\n  dup2\n  mstore\n  0x04\n  add\n  tag_6\n  swap2\n  swap1\n  tag_7\n  jump\t// in\ntag_6:\n  mload(0x40)\n  dup1\n  swap2\n  sub\n  swap1\n  revert\n    /* \"@openzeppelin/contracts/access/Ownable.sol\":1269:1364  if (initialOwner == address(0)) {... */\ntag_5:\n    /* \"@openzeppelin/contracts/access/Ownable.sol\":1373:1405  _transferOwnership(initialOwner) */\n  tag_8\n    /* \"@openzeppelin/contracts/access/Ownable.sol\":1392:1404  initialOwner */\n  dup2\n    /* \"@openzeppelin/contracts/access/Ownable.sol\":1373:1391  _transferOwnership */\n  shl(0x20, tag_9)\n    /* \"@openzeppelin/contracts/access/Ownable.sol\":1373:1405  _transferOwnership(initialOwner) */\n  0x20\n  shr\n  jump\t// in\ntag_8:\n    /* \"@openzeppelin/contracts/access/Ownable.sol\":1225:1412  constructor(address initialOwner) {... */\n  pop\n    /* \"contracts/Shope.sol\":127:7146  contract Store is Ownable {... */\n  jump(tag_11)\n    /* \"@openzeppelin/contracts/access/Ownable.sol\":2912:3099  function _transferOwnership(address newOwner) internal virtual {... */\ntag_9:\n    /* \"@openzeppelin/contracts/access/Ownable.sol\":2985:3001  address oldOwner */\n  0x00\n    /* \"@openzeppelin/contracts/access/Ownable.sol\":3004:3010  _owner */\n  0x00\n  0x00\n  swap1\n  sload\n  swap1\n  0x0100\n  exp\n  swap1\n  div\n  0xffffffffffffffffffffffffffffffffffffffff\n  and\n    /* \"@openzeppelin/contracts/access/Ownable.sol\":2985:3010  address oldOwner = _owner */\n  swap1\n  pop\n    /* \"@openzeppelin/contracts/access/Ownable.sol\":3029:3037  newOwner */\n  dup2\n    /* \"@openzeppelin/contracts/access/Ownable.sol\":3020:3026  _owner */\n  0x00\n  0x00\n    /* \"@openzeppelin/contracts/access/Ownable.sol\":3020:3037  _owner = newOwner */\n  0x0100\n  exp\n  dup2\n  sload\n  dup2\n  0xffffffffffffffffffffffffffffffffffffffff\n  mul\n  not\n  and\n  swap1\n  dup4\n  0xffffffffffffffffffffffffffffffffffffffff\n  and\n  mul\n  or\n  swap1\n  sstore\n  pop\n    /* \"@openzeppelin/contracts/access/Ownable.sol\":3083:3091  newOwner */\n  dup2\n    /* \"@openzeppelin/contracts/access/Ownable.sol\":3052:3092  OwnershipTransferred(oldOwner, newOwner) */\n  0xffffffffffffffffffffffffffffffffffffffff\n  and\n    /* \"@openzeppelin/contracts/access/Ownable.sol\":3073:3081  oldOwner */\n  dup2\n    /* \"@openzeppelin/contracts/access/Ownable.sol\":3052:3092  OwnershipTransferred(oldOwner, newOwner) */\n  0xffffffffffffffffffffffffffffffffffffffff\n  and\n  0x8be0079c531659141344cd1fd0a4f28419497f9722a3daafe3b4186f6b6457e0\n  mload(0x40)\n  mload(0x40)\n  dup1\n  swap2\n  sub\n  swap1\n  log3\n    /* \"@openzeppelin/contracts/access/Ownable.sol\":2975:3099  {... */\n  pop\n    /* \"@openzeppelin/contracts/access/Ownable.sol\":2912:3099  function _transferOwnership(address newOwner) internal virtual {... */\n  pop\n  jump\t// out\n    /* \"#utility.yul\":7:133   */\ntag_13:\n    /* \"#utility.yul\":44:51   */\n  0x00\n    /* \"#utility.yul\":84:126   */\n  0xffffffffffffffffffffffffffffffffffffffff\n    /* \"#utility.yul\":77:82   */\n  dup3\n    /* \"#utility.yul\":73:127   */\n  and\n    /* \"#utility.yul\":62:127   */\n  swap1\n  pop\n    /* \"#utility.yul\":7:133   */\n  swap2\n  swap1\n  pop\n  jump\t// out\n    /* \"#utility.yul\":139:235   */\ntag_14:\n    /* \"#utility.yul\":176:183   */\n  0x00\n    /* \"#utility.yul\":205:229   */\n  tag_19\n    /* \"#utility.yul\":223:228   */\n  dup3\n    /* \"#utility.yul\":205:229   */\n  tag_13\n  jump\t// in\ntag_19:\n    /* \"#utility.yul\":194:229   */\n  swap1\n  pop\n    /* \"#utility.yul\":139:235   */\n  swap2\n  swap1\n  pop\n  jump\t// out\n    /* \"#utility.yul\":241:359   */\ntag_15:\n    /* \"#utility.yul\":328:352   */\n  tag_21\n    /* \"#utility.yul\":346:351   */\n  dup2\n    /* \"#utility.yul\":328:352   */\n  tag_14\n  jump\t// in\ntag_21:\n    /* \"#utility.yul\":323:326   */\n  dup3\n    /* \"#utility.yul\":316:353   */\n  mstore\n    /* \"#utility.yul\":241:359   */\n  pop\n  pop\n  jump\t// out\n    /* \"#utility.yul\":365:587   */\ntag_7:\n    /* \"#utility.yul\":458:462   */\n  0x00\n    /* \"#utility.yul\":496:498   */\n  0x20\n    /* \"#utility.yul\":485:494   */\n  dup3\n    /* \"#utility.yul\":481:499   */\n  add\n    /* \"#utility.yul\":473:499   */\n  swap1\n  pop\n    /* \"#utility.yul\":509:580   */\n  tag_23\n    /* \"#utility.yul\":577:578   */\n  0x00\n    /* \"#utility.yul\":566:575   */\n  dup4\n    /* \"#utility.yul\":562:579   */\n  add\n    /* \"#utility.yul\":553:559   */\n  dup5\n    /* \"#utility.yul\":509:580   */\n  tag_15\n  jump\t// in\ntag_23:\n    /* \"#utility.yul\":365:587   */\n  swap3\n  swap2\n  pop\n  pop\n  jump\t// out\n    /* \"contracts/Shope.sol\":127:7146  contract Store is Ownable {... */\ntag_11:\n  dataSize(sub_0)\n  dup1\n  dataOffset(sub_0)\n  0x00\n  codecopy\n  0x00\n  return\nstop\n\nsub_0: assembly {\n        /* \"contracts/Shope.sol\":127:7146  contract Store is Ownable {... */\n      mstore(0x40, 0x80)\n      jumpi(tag_1, lt(calldatasize, 0x04))\n      shr(0xe0, calldataload(0x00))\n      dup1\n      0x957fae96\n      gt\n      tag_22\n      jumpi\n      dup1\n      0xd6febde8\n      gt\n      tag_23\n      jumpi\n      dup1\n      0xd6febde8\n      eq\n      tag_17\n      jumpi\n      dup1\n      0xe7572230\n      eq\n      tag_18\n      jumpi\n      dup1\n      0xed90c7b7\n      eq\n      tag_19\n      jumpi\n      dup1\n      0xf2fde38b\n      eq\n      tag_20\n      jumpi\n      dup1\n      0xfa89401a\n      eq\n      tag_21\n      jumpi\n      jump(tag_1)\n    tag_23:\n      dup1\n      0x957fae96\n      eq\n      tag_12\n      jumpi\n      dup1\n      0x9dfc3dd1\n      eq\n      tag_13\n      jumpi\n      dup1\n      0xbda235da\n      eq\n      tag_14\n      jumpi\n      dup1\n      0xc29b2f20\n      eq\n      tag_15\n      jumpi\n      dup1\n      0xce4df381\n      eq\n      tag_16\n      jumpi\n      jump(tag_1)\n    tag_22:\n      dup1\n      0x715018a6\n      gt\n      tag_24\n      jumpi\n      dup1\n      0x715018a6\n      eq\n      tag_7\n      jumpi\n      dup1\n      0x723cdb1d\n      eq\n      tag_8\n      jumpi\n      dup1\n      0x82367b2d\n      eq\n      tag_9\n      jumpi\n      dup1\n      0x8392fe31\n      eq\n      tag_10\n      jumpi\n      dup1\n      0x8da5cb5b\n      eq\n      tag_11\n      jumpi\n      jump(tag_1)\n    tag_24:\n      dup1\n      0x094455c4\n      eq\n      tag_2\n      jumpi\n      dup1\n      0x3ab7d09a\n      eq\n      tag_3\n      jumpi\n      dup1\n      0x3ccfd60b\n      eq\n      tag_4\n      jumpi\n      dup1\n      0x58025212\n      eq\n      tag_5\n      jumpi\n      dup1\n      0x6038d0cf\n      eq\n      tag_6\n      jumpi\n    tag_1:\n      revert(0x00, 0x00)\n        /* \"contracts/Shope.sol\":3006:3270  function addProduct(... */\n    tag_2:\n      callvalue\n      dup1\n      iszero\n      tag_25\n      jumpi\n      revert(0x00, 0x00)\n    tag_25:\n      pop\n      tag_26\n      0x04\n      dup1\n      calldatasize\n      sub\n      dup2\n      add\n      swap1\n      tag_27\n      swap2\n      swap1\n      tag_28\n      jump\t// in\n    tag_27:\n      tag_29\n      jump\t// in\n    tag_26:\n      stop\n        /* \"contracts/Shope.sol\":4116:4266  function getStock(uint256 _id) public view returns (uint256) {... */\n    tag_3:\n      callvalue\n      dup1\n      iszero\n      tag_30\n      jumpi\n      revert(0x00, 0x00)\n    tag_30:\n      pop\n      tag_31\n      0x04\n      dup1\n      calldatasize\n      sub\n      dup2\n      add\n      swap1\n      tag_32\n      swap2\n      swap1\n      tag_33\n      jump\t// in\n    tag_32:\n      tag_34\n      jump\t// in\n    tag_31:\n      mload(0x40)\n      tag_35\n      swap2\n      swap1\n      tag_36\n      jump\t// in\n    tag_35:\n      mload(0x40)\n      dup1\n      swap2\n      sub\n      swap1\n      return\n        /* \"contracts/Shope.sol\":2809:3000  function withdraw() external onlyOwner {... */\n    tag_4:\n      callvalue\n      dup1\n      iszero\n      tag_37\n      jumpi\n      revert(0x00, 0x00)\n    tag_37:\n      pop\n      tag_38\n      tag_39\n      jump\t// in\n    tag_38:\n      stop\n        /* \"contracts/Shope.sol\":671:720  PurchaseHistory[] public purchasesForCurrentBuyer */\n    tag_5:\n      callvalue\n      dup1\n      iszero\n      tag_40\n      jumpi\n      revert(0x00, 0x00)\n    tag_40:\n      pop\n      tag_41\n      0x04\n      dup1\n      calldatasize\n      sub\n      dup2\n      add\n      swap1\n      tag_42\n      swap2\n      swap1\n      tag_33\n      jump\t// in\n    tag_42:\n      tag_43\n      jump\t// in\n    tag_41:\n      mload(0x40)\n      tag_44\n      swap4\n      swap3\n      swap2\n      swap1\n      tag_45\n      jump\t// in\n    tag_44:\n      mload(0x40)\n      dup1\n      swap2\n      sub\n      swap1\n      return\n        /* \"contracts/Shope.sol\":207:264  mapping(address => PurchaseHistory[]) public userPurchase */\n    tag_6:\n      callvalue\n      dup1\n      iszero\n      tag_46\n      jumpi\n      revert(0x00, 0x00)\n    tag_46:\n      pop\n      tag_47\n      0x04\n      dup1\n      calldatasize\n      sub\n      dup2\n      add\n      swap1\n      tag_48\n      swap2\n      swap1\n      tag_49\n      jump\t// in\n    tag_48:\n      tag_50\n      jump\t// in\n    tag_47:\n      mload(0x40)\n      tag_51\n      swap4\n      swap3\n      swap2\n      swap1\n      tag_45\n      jump\t// in\n    tag_51:\n      mload(0x40)\n      dup1\n      swap2\n      sub\n      swap1\n      return\n        /* \"@openzeppelin/contracts/access/Ownable.sol\":2293:2394  function renounceOwnership() public virtual onlyOwner {... */\n    tag_7:\n      callvalue\n      dup1\n      iszero\n      tag_52\n      jumpi\n      revert(0x00, 0x00)\n    tag_52:\n      pop\n      tag_53\n      tag_54\n      jump\t// in\n    tag_53:\n      stop\n        /* \"contracts/Shope.sol\":1568:2441  function batchBuy(uint256[] calldata _ids, uint256[] calldata _quantitys)... */\n    tag_8:\n      tag_55\n      0x04\n      dup1\n      calldatasize\n      sub\n      dup2\n      add\n      swap1\n      tag_56\n      swap2\n      swap1\n      tag_57\n      jump\t// in\n    tag_56:\n      tag_58\n      jump\t// in\n    tag_55:\n      stop\n        /* \"contracts/Shope.sol\":3528:3688  function updatePrice(uint256 _id, uint256 _price) external onlyOwner {... */\n    tag_9:\n      callvalue\n      dup1\n      iszero\n      tag_59\n      jumpi\n      revert(0x00, 0x00)\n    tag_59:\n      pop\n      tag_60\n      0x04\n      dup1\n      calldatasize\n      sub\n      dup2\n      add\n      swap1\n      tag_61\n      swap2\n      swap1\n      tag_62\n      jump\t// in\n    tag_61:\n      tag_63\n      jump\t// in\n    tag_60:\n      stop\n        /* \"contracts/Shope.sol\":759:793  PurchaseHistory[] public purchases */\n    tag_10:\n      callvalue\n      dup1\n      iszero\n      tag_64\n      jumpi\n      revert(0x00, 0x00)\n    tag_64:\n      pop\n      tag_65\n      0x04\n      dup1\n      calldatasize\n      sub\n      dup2\n      add\n      swap1\n      tag_66\n      swap2\n      swap1\n      tag_33\n      jump\t// in\n    tag_66:\n      tag_67\n      jump\t// in\n    tag_65:\n      mload(0x40)\n      tag_68\n      swap4\n      swap3\n      swap2\n      swap1\n      tag_45\n      jump\t// in\n    tag_68:\n      mload(0x40)\n      dup1\n      swap2\n      sub\n      swap1\n      return\n        /* \"@openzeppelin/contracts/access/Ownable.sol\":1638:1723  function owner() public view virtual returns (address) {... */\n    tag_11:\n      callvalue\n      dup1\n      iszero\n      tag_69\n      jumpi\n      revert(0x00, 0x00)\n    tag_69:\n      pop\n      tag_70\n      tag_71\n      jump\t// in\n    tag_70:\n      mload(0x40)\n      tag_72\n      swap2\n      swap1\n      tag_73\n      jump\t// in\n    tag_72:\n      mload(0x40)\n      dup1\n      swap2\n      sub\n      swap1\n      return\n        /* \"contracts/Shope.sol\":6431:6676  function getTotalRevenue() public view returns (uint256) {... */\n    tag_12:\n      callvalue\n      dup1\n      iszero\n      tag_74\n      jumpi\n      revert(0x00, 0x00)\n    tag_74:\n      pop\n      tag_75\n      tag_76\n      jump\t// in\n    tag_75:\n      mload(0x40)\n      tag_77\n      swap2\n      swap1\n      tag_36\n      jump\t// in\n    tag_77:\n      mload(0x40)\n      dup1\n      swap2\n      sub\n      swap1\n      return\n        /* \"contracts/Shope.sol\":3694:3854  function updateStock(uint256 _id, uint256 _stock) external onlyOwner {... */\n    tag_13:\n      callvalue\n      dup1\n      iszero\n      tag_78\n      jumpi\n      revert(0x00, 0x00)\n    tag_78:\n      pop\n      tag_79\n      0x04\n      dup1\n      calldatasize\n      sub\n      dup2\n      add\n      swap1\n      tag_80\n      swap2\n      swap1\n      tag_62\n      jump\t// in\n    tag_80:\n      tag_81\n      jump\t// in\n    tag_79:\n      stop\n        /* \"contracts/Shope.sol\":6830:7144  function getUserPurchase(address _buyer)... */\n    tag_14:\n      callvalue\n      dup1\n      iszero\n      tag_82\n      jumpi\n      revert(0x00, 0x00)\n    tag_82:\n      pop\n      tag_83\n      0x04\n      dup1\n      calldatasize\n      sub\n      dup2\n      add\n      swap1\n      tag_84\n      swap2\n      swap1\n      tag_85\n      jump\t// in\n    tag_84:\n      tag_86\n      jump\t// in\n    tag_83:\n      stop\n        /* \"contracts/Shope.sol\":3860:3954  function getProducts() public view returns (Product[] memory) {... */\n    tag_15:\n      callvalue\n      dup1\n      iszero\n      tag_87\n      jumpi\n      revert(0x00, 0x00)\n    tag_87:\n      pop\n      tag_88\n      tag_89\n      jump\t// in\n    tag_88:\n      mload(0x40)\n      tag_90\n      swap2\n      swap1\n      tag_91\n      jump\t// in\n    tag_90:\n      mload(0x40)\n      dup1\n      swap2\n      sub\n      swap1\n      return\n        /* \"contracts/Shope.sol\":309:360  mapping(uint256 => uint256) public productsPurchase */\n    tag_16:\n      callvalue\n      dup1\n      iszero\n      tag_92\n      jumpi\n      revert(0x00, 0x00)\n    tag_92:\n      pop\n      tag_93\n      0x04\n      dup1\n      calldatasize\n      sub\n      dup2\n      add\n      swap1\n      tag_94\n      swap2\n      swap1\n      tag_33\n      jump\t// in\n    tag_94:\n      tag_95\n      jump\t// in\n    tag_93:\n      mload(0x40)\n      tag_96\n      swap2\n      swap1\n      tag_36\n      jump\t// in\n    tag_96:\n      mload(0x40)\n      dup1\n      swap2\n      sub\n      swap1\n      return\n        /* \"contracts/Shope.sol\":1083:1562  function buy(uint256 _id, uint256 _quantity) external payable {... */\n    tag_17:\n      tag_97\n      0x04\n      dup1\n      calldatasize\n      sub\n      dup2\n      add\n      swap1\n      tag_98\n      swap2\n      swap1\n      tag_62\n      jump\t// in\n    tag_98:\n      tag_99\n      jump\t// in\n    tag_97:\n      stop\n        /* \"contracts/Shope.sol\":3960:4110  function getPrice(uint256 _id) public view returns (uint256) {... */\n    tag_18:\n      callvalue\n      dup1\n      iszero\n      tag_100\n      jumpi\n      revert(0x00, 0x00)\n    tag_100:\n      pop\n      tag_101\n      0x04\n      dup1\n      calldatasize\n      sub\n      dup2\n      add\n      swap1\n      tag_102\n      swap2\n      swap1\n      tag_33\n      jump\t// in\n    tag_102:\n      tag_103\n      jump\t// in\n    tag_101:\n      mload(0x40)\n      tag_104\n      swap2\n      swap1\n      tag_36\n      jump\t// in\n    tag_104:\n      mload(0x40)\n      dup1\n      swap2\n      sub\n      swap1\n      return\n        /* \"contracts/Shope.sol\":3276:3522  function deleteProduct(uint256 _id) external onlyOwner {... */\n    tag_19:\n      callvalue\n      dup1\n      iszero\n      tag_105\n      jumpi\n      revert(0x00, 0x00)\n    tag_105:\n      pop\n      tag_106\n      0x04\n      dup1\n      calldatasize\n      sub\n      dup2\n      add\n      swap1\n      tag_107\n      swap2\n      swap1\n      tag_33\n      jump\t// in\n    tag_107:\n      tag_108\n      jump\t// in\n    tag_106:\n      stop\n        /* \"@openzeppelin/contracts/access/Ownable.sol\":2543:2758  function transferOwnership(address newOwner) public virtual onlyOwner {... */\n    tag_20:\n      callvalue\n      dup1\n      iszero\n      tag_109\n      jumpi\n      revert(0x00, 0x00)\n    tag_109:\n      pop\n      tag_110\n      0x04\n      dup1\n      calldatasize\n      sub\n      dup2\n      add\n      swap1\n      tag_111\n      swap2\n      swap1\n      tag_85\n      jump\t// in\n    tag_111:\n      tag_112\n      jump\t// in\n    tag_110:\n      stop\n        /* \"contracts/Shope.sol\":5662:5977  function refund(address _buyer) public payable {... */\n    tag_21:\n      tag_113\n      0x04\n      dup1\n      calldatasize\n      sub\n      dup2\n      add\n      swap1\n      tag_114\n      swap2\n      swap1\n      tag_85\n      jump\t// in\n    tag_114:\n      tag_115\n      jump\t// in\n    tag_113:\n      stop\n        /* \"contracts/Shope.sol\":3006:3270  function addProduct(... */\n    tag_29:\n        /* \"@openzeppelin/contracts/access/Ownable.sol\":1531:1544  _checkOwner() */\n      tag_117\n        /* \"@openzeppelin/contracts/access/Ownable.sol\":1531:1542  _checkOwner */\n      tag_118\n        /* \"@openzeppelin/contracts/access/Ownable.sol\":1531:1544  _checkOwner() */\n      jump\t// in\n    tag_117:\n        /* \"contracts/Shope.sol\":3170:3184  isIdExist(_id) */\n      tag_120\n        /* \"contracts/Shope.sol\":3180:3183  _id */\n      dup4\n        /* \"contracts/Shope.sol\":3170:3179  isIdExist */\n      tag_121\n        /* \"contracts/Shope.sol\":3170:3184  isIdExist(_id) */\n      jump\t// in\n    tag_120:\n        /* \"contracts/Shope.sol\":3169:3184  !isIdExist(_id) */\n      iszero\n        /* \"contracts/Shope.sol\":3161:3203  require(!isIdExist(_id), IdAlreadyExist()) */\n      tag_122\n      jumpi\n      mload(0x40)\n      0xf270498400000000000000000000000000000000000000000000000000000000\n      dup2\n      mstore\n      0x04\n      add\n      mload(0x40)\n      dup1\n      swap2\n      sub\n      swap1\n      revert\n    tag_122:\n        /* \"contracts/Shope.sol\":3213:3221  products */\n      0x04\n        /* \"contracts/Shope.sol\":3227:3262  Product(_name, _id, _stock, _price) */\n      mload(0x40)\n      dup1\n      0x80\n      add\n      0x40\n      mstore\n      dup1\n        /* \"contracts/Shope.sol\":3235:3240  _name */\n      dup8\n      dup8\n        /* \"contracts/Shope.sol\":3227:3262  Product(_name, _id, _stock, _price) */\n      dup1\n      dup1\n      0x1f\n      add\n      0x20\n      dup1\n      swap2\n      div\n      mul\n      0x20\n      add\n      mload(0x40)\n      swap1\n      dup2\n      add\n      0x40\n      mstore\n      dup1\n      swap4\n      swap3\n      swap2\n      swap1\n      dup2\n      dup2\n      mstore\n      0x20\n      add\n      dup4\n      dup4\n      dup1\n      dup3\n      dup5\n      calldatacopy\n      0x00\n      dup2\n      dup5\n      add\n      mstore\n      not(0x1f)\n      0x1f\n      dup3\n      add\n      and\n      swap1\n      pop\n      dup1\n      dup4\n      add\n      swap3\n      pop\n      pop\n      pop\n      pop\n      pop\n      pop\n      pop\n      dup2\n      mstore\n      0x20\n      add\n        /* \"contracts/Shope.sol\":3242:3245  _id */\n      dup6\n        /* \"contracts/Shope.sol\":3227:3262  Product(_name, _id, _stock, _price) */\n      dup2\n      mstore\n      0x20\n      add\n        /* \"contracts/Shope.sol\":3247:3253  _stock */\n      dup5\n        /* \"contracts/Shope.sol\":3227:3262  Product(_name, _id, _stock, _price) */\n      dup2\n      mstore\n      0x20\n      add\n        /* \"contracts/Shope.sol\":3255:3261  _price */\n      dup4\n        /* \"contracts/Shope.sol\":3227:3262  Product(_name, _id, _stock, _price) */\n      dup2\n      mstore\n      pop\n        /* \"contracts/Shope.sol\":3213:3263  products.push(Product(_name, _id, _stock, _price)) */\n      swap1\n      dup1\n      0x01\n      dup2\n      sload\n      add\n      dup1\n      dup3\n      sstore\n      dup1\n      swap2\n      pop\n      pop\n      0x01\n      swap1\n      sub\n      swap1\n      0x00\n      mstore\n      keccak256(0x00, 0x20)\n      swap1\n      0x04\n      mul\n      add\n      0x00\n      swap1\n      swap2\n      swap1\n      swap2\n      swap1\n      swap2\n      pop\n      0x00\n      dup3\n      add\n      mload\n      dup2\n      0x00\n      add\n      swap1\n      dup2\n      tag_124\n      swap2\n      swap1\n      tag_125\n      jump\t// in\n    tag_124:\n      pop\n      0x20\n      dup3\n      add\n      mload\n      dup2\n      0x01\n      add\n      sstore\n      0x40\n      dup3\n      add\n      mload\n      dup2\n      0x02\n      add\n      sstore\n      0x60\n      dup3\n      add\n      mload\n      dup2\n      0x03\n      add\n      sstore\n      pop\n      pop\n        /* \"contracts/Shope.sol\":3006:3270  function addProduct(... */\n      pop\n      pop\n      pop\n      pop\n      pop\n      jump\t// out\n        /* \"contracts/Shope.sol\":4116:4266  function getStock(uint256 _id) public view returns (uint256) {... */\n    tag_34:\n        /* \"contracts/Shope.sol\":4168:4175  uint256 */\n      0x00\n        /* \"contracts/Shope.sol\":4187:4210  Product storage product */\n      0x00\n        /* \"contracts/Shope.sol\":4213:4229  findProduct(_id) */\n      tag_127\n        /* \"contracts/Shope.sol\":4225:4228  _id */\n      dup4\n        /* \"contracts/Shope.sol\":4213:4224  findProduct */\n      tag_128\n        /* \"contracts/Shope.sol\":4213:4229  findProduct(_id) */\n      jump\t// in\n    tag_127:\n        /* \"contracts/Shope.sol\":4187:4229  Product storage product = findProduct(_id) */\n      swap1\n      pop\n        /* \"contracts/Shope.sol\":4246:4253  product */\n      dup1\n        /* \"contracts/Shope.sol\":4246:4259  product.stock */\n      0x02\n      add\n      sload\n        /* \"contracts/Shope.sol\":4239:4259  return product.stock */\n      swap2\n      pop\n      pop\n        /* \"contracts/Shope.sol\":4116:4266  function getStock(uint256 _id) public view returns (uint256) {... */\n      swap2\n      swap1\n      pop\n      jump\t// out\n        /* \"contracts/Shope.sol\":2809:3000  function withdraw() external onlyOwner {... */\n    tag_39:\n        /* \"@openzeppelin/contracts/access/Ownable.sol\":1531:1544  _checkOwner() */\n      tag_130\n        /* \"@openzeppelin/contracts/access/Ownable.sol\":1531:1542  _checkOwner */\n      tag_118\n        /* \"@openzeppelin/contracts/access/Ownable.sol\":1531:1544  _checkOwner() */\n      jump\t// in\n    tag_130:\n        /* \"contracts/Shope.sol\":2858:2873  uint256 balance */\n      0x00\n        /* \"contracts/Shope.sol\":2876:2897  address(this).balance */\n      selfbalance\n        /* \"contracts/Shope.sol\":2858:2897  uint256 balance = address(this).balance */\n      swap1\n      pop\n        /* \"contracts/Shope.sol\":2925:2926  0 */\n      0x00\n        /* \"contracts/Shope.sol\":2915:2922  balance */\n      dup2\n        /* \"contracts/Shope.sol\":2915:2926  balance > 0 */\n      gt\n        /* \"contracts/Shope.sol\":2907:2948  require(balance > 0, \"Not enought money\") */\n      tag_132\n      jumpi\n      mload(0x40)\n      0x08c379a000000000000000000000000000000000000000000000000000000000\n      dup2\n      mstore\n      0x04\n      add\n      tag_133\n      swap1\n      tag_134\n      jump\t// in\n    tag_133:\n      mload(0x40)\n      dup1\n      swap2\n      sub\n      swap1\n      revert\n    tag_132:\n        /* \"contracts/Shope.sol\":2967:2974  owner() */\n      tag_135\n        /* \"contracts/Shope.sol\":2967:2972  owner */\n      tag_71\n        /* \"contracts/Shope.sol\":2967:2974  owner() */\n      jump\t// in\n    tag_135:\n        /* \"contracts/Shope.sol\":2959:2984  payable(owner()).transfer */\n      0xffffffffffffffffffffffffffffffffffffffff\n      and\n        /* \"contracts/Shope.sol\":2959:2993  payable(owner()).transfer(balance) */\n      0x08fc\n        /* \"contracts/Shope.sol\":2985:2992  balance */\n      dup3\n        /* \"contracts/Shope.sol\":2959:2993  payable(owner()).transfer(balance) */\n      swap1\n      dup2\n      iszero\n      mul\n      swap1\n      mload(0x40)\n      0x00\n      mload(0x40)\n      dup1\n      dup4\n      sub\n      dup2\n      dup6\n      dup9\n      dup9\n      call\n      swap4\n      pop\n      pop\n      pop\n      pop\n      iszero\n      dup1\n      iszero\n      tag_137\n      jumpi\n      returndatacopy(0x00, 0x00, returndatasize)\n      revert(0x00, returndatasize)\n    tag_137:\n      pop\n        /* \"contracts/Shope.sol\":2848:3000  {... */\n      pop\n        /* \"contracts/Shope.sol\":2809:3000  function withdraw() external onlyOwner {... */\n      jump\t// out\n        /* \"contracts/Shope.sol\":671:720  PurchaseHistory[] public purchasesForCurrentBuyer */\n    tag_43:\n      0x03\n      dup2\n      dup2\n      sload\n      dup2\n      lt\n      tag_138\n      jumpi\n      0x00\n      dup1\n      revert\n    tag_138:\n      swap1\n      0x00\n      mstore\n      keccak256(0x00, 0x20)\n      swap1\n      0x03\n      mul\n      add\n      0x00\n      swap2\n      pop\n      swap1\n      pop\n      dup1\n      0x00\n      add\n      0x00\n      swap1\n      sload\n      swap1\n      0x0100\n      exp\n      swap1\n      div\n      0xffffffffffffffffffffffffffffffffffffffff\n      and\n      swap1\n      dup1\n      0x01\n      add\n      sload\n      swap1\n      dup1\n      0x02\n      add\n      sload\n      swap1\n      pop\n      dup4\n      jump\t// out\n        /* \"contracts/Shope.sol\":207:264  mapping(address => PurchaseHistory[]) public userPurchase */\n    tag_50:\n      mstore(0x20, 0x01)\n      dup2\n      0x00\n      mstore\n      keccak256(0x00, 0x40)\n      dup2\n      dup2\n      sload\n      dup2\n      lt\n      tag_140\n      jumpi\n      0x00\n      dup1\n      revert\n    tag_140:\n      swap1\n      0x00\n      mstore\n      keccak256(0x00, 0x20)\n      swap1\n      0x03\n      mul\n      add\n      0x00\n      swap2\n      pop\n      swap2\n      pop\n      pop\n      dup1\n      0x00\n      add\n      0x00\n      swap1\n      sload\n      swap1\n      0x0100\n      exp\n      swap1\n      div\n      0xffffffffffffffffffffffffffffffffffffffff\n      and\n      swap1\n      dup1\n      0x01\n      add\n      sload\n      swap1\n      dup1\n      0x02\n      add\n      sload\n      swap1\n      pop\n      dup4\n      jump\t// out\n        /* \"@openzeppelin/contracts/access/Ownable.sol\":2293:2394  function renounceOwnership() public virtual onlyOwner {... */\n    tag_54:\n        /* \"@openzeppelin/contracts/access/Ownable.sol\":1531:1544  _checkOwner() */\n      tag_143\n        /* \"@openzeppelin/contracts/access/Ownable.sol\":1531:1542  _checkOwner */\n      tag_118\n        /* \"@openzeppelin/contracts/access/Ownable.sol\":1531:1544  _checkOwner() */\n      jump\t// in\n    tag_143:\n        /* \"@openzeppelin/contracts/access/Ownable.sol\":2357:2387  _transferOwnership(address(0)) */\n      tag_145\n        /* \"@openzeppelin/contracts/access/Ownable.sol\":2384:2385  0 */\n      0x00\n        /* \"@openzeppelin/contracts/access/Ownable.sol\":2357:2375  _transferOwnership */\n      tag_146\n        /* \"@openzeppelin/contracts/access/Ownable.sol\":2357:2387  _transferOwnership(address(0)) */\n      jump\t// in\n    tag_145:\n        /* \"@openzeppelin/contracts/access/Ownable.sol\":2293:2394  function renounceOwnership() public virtual onlyOwner {... */\n      jump\t// out\n        /* \"contracts/Shope.sol\":1568:2441  function batchBuy(uint256[] calldata _ids, uint256[] calldata _quantitys)... */\n    tag_58:\n        /* \"contracts/Shope.sol\":1712:1722  _quantitys */\n      dup2\n      dup2\n        /* \"contracts/Shope.sol\":1712:1729  _quantitys.length */\n      swap1\n      pop\n        /* \"contracts/Shope.sol\":1697:1701  _ids */\n      dup5\n      dup5\n        /* \"contracts/Shope.sol\":1697:1708  _ids.length */\n      swap1\n      pop\n        /* \"contracts/Shope.sol\":1697:1729  _ids.length == _quantitys.length */\n      eq\n        /* \"contracts/Shope.sol\":1689:1757  require(_ids.length == _quantitys.length, \"arrays lenghts mismatch\") */\n      tag_148\n      jumpi\n      mload(0x40)\n      0x08c379a000000000000000000000000000000000000000000000000000000000\n      dup2\n      mstore\n      0x04\n      add\n      tag_149\n      swap1\n      tag_150\n      jump\t// in\n    tag_149:\n      mload(0x40)\n      dup1\n      swap2\n      sub\n      swap1\n      revert\n    tag_148:\n        /* \"contracts/Shope.sol\":1768:1786  uint256 totalPrice */\n      0x00\n        /* \"contracts/Shope.sol\":1789:1790  0 */\n      0x00\n        /* \"contracts/Shope.sol\":1768:1790  uint256 totalPrice = 0 */\n      swap1\n      pop\n        /* \"contracts/Shope.sol\":1806:1815  uint256 i */\n      0x00\n        /* \"contracts/Shope.sol\":1818:1819  0 */\n      0x00\n        /* \"contracts/Shope.sol\":1806:1819  uint256 i = 0 */\n      swap1\n      pop\n        /* \"contracts/Shope.sol\":1801:2077  for (uint256 i = 0; i < _ids.length; i++) {... */\n    tag_151:\n        /* \"contracts/Shope.sol\":1825:1829  _ids */\n      dup6\n      dup6\n        /* \"contracts/Shope.sol\":1825:1836  _ids.length */\n      swap1\n      pop\n        /* \"contracts/Shope.sol\":1821:1822  i */\n      dup2\n        /* \"contracts/Shope.sol\":1821:1836  i < _ids.length */\n      lt\n        /* \"contracts/Shope.sol\":1801:2077  for (uint256 i = 0; i < _ids.length; i++) {... */\n      iszero\n      tag_152\n      jumpi\n        /* \"contracts/Shope.sol\":1857:1866  uint256 q */\n      0x00\n        /* \"contracts/Shope.sol\":1869:1879  _quantitys */\n      dup5\n      dup5\n        /* \"contracts/Shope.sol\":1880:1881  i */\n      dup4\n        /* \"contracts/Shope.sol\":1869:1882  _quantitys[i] */\n      dup2\n      dup2\n      lt\n      tag_154\n      jumpi\n      tag_155\n      tag_156\n      jump\t// in\n    tag_155:\n    tag_154:\n      swap1\n      pop\n      0x20\n      mul\n      add\n      calldataload\n        /* \"contracts/Shope.sol\":1857:1882  uint256 q = _quantitys[i] */\n      swap1\n      pop\n        /* \"contracts/Shope.sol\":1896:1906  uint256 id */\n      0x00\n        /* \"contracts/Shope.sol\":1909:1913  _ids */\n      dup8\n      dup8\n        /* \"contracts/Shope.sol\":1914:1915  i */\n      dup5\n        /* \"contracts/Shope.sol\":1909:1916  _ids[i] */\n      dup2\n      dup2\n      lt\n      tag_157\n      jumpi\n      tag_158\n      tag_156\n      jump\t// in\n    tag_158:\n    tag_157:\n      swap1\n      pop\n      0x20\n      mul\n      add\n      calldataload\n        /* \"contracts/Shope.sol\":1896:1916  uint256 id = _ids[i] */\n      swap1\n      pop\n        /* \"contracts/Shope.sol\":1943:1944  0 */\n      0x00\n        /* \"contracts/Shope.sol\":1939:1940  q */\n      dup3\n        /* \"contracts/Shope.sol\":1939:1944  q > 0 */\n      gt\n        /* \"contracts/Shope.sol\":1931:1967  require(q > 0, QuantityCantBeZero()) */\n      tag_159\n      jumpi\n      mload(0x40)\n      0x02e9794a00000000000000000000000000000000000000000000000000000000\n      dup2\n      mstore\n      0x04\n      add\n      mload(0x40)\n      dup1\n      swap2\n      sub\n      swap1\n      revert\n    tag_159:\n        /* \"contracts/Shope.sol\":2005:2006  q */\n      dup2\n        /* \"contracts/Shope.sol\":1989:2001  getStock(id) */\n      tag_160\n        /* \"contracts/Shope.sol\":1998:2000  id */\n      dup3\n        /* \"contracts/Shope.sol\":1989:1997  getStock */\n      tag_34\n        /* \"contracts/Shope.sol\":1989:2001  getStock(id) */\n      jump\t// in\n    tag_160:\n        /* \"contracts/Shope.sol\":1989:2006  getStock(id) >= q */\n      lt\n      iszero\n        /* \"contracts/Shope.sol\":1981:2021  require(getStock(id) >= q, OutOfStock()) */\n      tag_161\n      jumpi\n      mload(0x40)\n      0xade1cb4100000000000000000000000000000000000000000000000000000000\n      dup2\n      mstore\n      0x04\n      add\n      mload(0x40)\n      dup1\n      swap2\n      sub\n      swap1\n      revert\n    tag_161:\n        /* \"contracts/Shope.sol\":2065:2066  q */\n      dup2\n        /* \"contracts/Shope.sol\":2050:2062  getPrice(id) */\n      tag_162\n        /* \"contracts/Shope.sol\":2059:2061  id */\n      dup3\n        /* \"contracts/Shope.sol\":2050:2058  getPrice */\n      tag_103\n        /* \"contracts/Shope.sol\":2050:2062  getPrice(id) */\n      jump\t// in\n    tag_162:\n        /* \"contracts/Shope.sol\":2050:2066  getPrice(id) * q */\n      tag_163\n      swap2\n      swap1\n      tag_164\n      jump\t// in\n    tag_163:\n        /* \"contracts/Shope.sol\":2036:2066  totalPrice += getPrice(id) * q */\n      dup5\n      tag_165\n      swap2\n      swap1\n      tag_166\n      jump\t// in\n    tag_165:\n      swap4\n      pop\n        /* \"contracts/Shope.sol\":1843:2077  {... */\n      pop\n      pop\n        /* \"contracts/Shope.sol\":1838:1841  i++ */\n      dup1\n      dup1\n      0x01\n      add\n      swap2\n      pop\n      pop\n        /* \"contracts/Shope.sol\":1801:2077  for (uint256 i = 0; i < _ids.length; i++) {... */\n      jump(tag_151)\n    tag_152:\n      pop\n        /* \"contracts/Shope.sol\":2108:2118  totalPrice */\n      dup1\n        /* \"contracts/Shope.sol\":2095:2104  msg.value */\n      callvalue\n        /* \"contracts/Shope.sol\":2095:2118  msg.value >= totalPrice */\n      lt\n      iszero\n        /* \"contracts/Shope.sol\":2087:2138  require(msg.value >= totalPrice, NotEnoughtFunds()) */\n      tag_167\n      jumpi\n      mload(0x40)\n      0xc1463a4000000000000000000000000000000000000000000000000000000000\n      dup2\n      mstore\n      0x04\n      add\n      mload(0x40)\n      dup1\n      swap2\n      sub\n      swap1\n      revert\n    tag_167:\n        /* \"contracts/Shope.sol\":2154:2163  uint256 i */\n      0x00\n        /* \"contracts/Shope.sol\":2166:2167  0 */\n      0x00\n        /* \"contracts/Shope.sol\":2154:2167  uint256 i = 0 */\n      swap1\n      pop\n        /* \"contracts/Shope.sol\":2149:2320  for (uint256 i = 0; i < _ids.length; i++) {... */\n    tag_168:\n        /* \"contracts/Shope.sol\":2173:2177  _ids */\n      dup6\n      dup6\n        /* \"contracts/Shope.sol\":2173:2184  _ids.length */\n      swap1\n      pop\n        /* \"contracts/Shope.sol\":2169:2170  i */\n      dup2\n        /* \"contracts/Shope.sol\":2169:2184  i < _ids.length */\n      lt\n        /* \"contracts/Shope.sol\":2149:2320  for (uint256 i = 0; i < _ids.length; i++) {... */\n      iszero\n      tag_169\n      jumpi\n        /* \"contracts/Shope.sol\":2205:2214  uint256 q */\n      0x00\n        /* \"contracts/Shope.sol\":2217:2227  _quantitys */\n      dup5\n      dup5\n        /* \"contracts/Shope.sol\":2228:2229  i */\n      dup4\n        /* \"contracts/Shope.sol\":2217:2230  _quantitys[i] */\n      dup2\n      dup2\n      lt\n      tag_171\n      jumpi\n      tag_172\n      tag_156\n      jump\t// in\n    tag_172:\n    tag_171:\n      swap1\n      pop\n      0x20\n      mul\n      add\n      calldataload\n        /* \"contracts/Shope.sol\":2205:2230  uint256 q = _quantitys[i] */\n      swap1\n      pop\n        /* \"contracts/Shope.sol\":2244:2254  uint256 id */\n      0x00\n        /* \"contracts/Shope.sol\":2257:2261  _ids */\n      dup8\n      dup8\n        /* \"contracts/Shope.sol\":2262:2263  i */\n      dup5\n        /* \"contracts/Shope.sol\":2257:2264  _ids[i] */\n      dup2\n      dup2\n      lt\n      tag_173\n      jumpi\n      tag_174\n      tag_156\n      jump\t// in\n    tag_174:\n    tag_173:\n      swap1\n      pop\n      0x20\n      mul\n      add\n      calldataload\n        /* \"contracts/Shope.sol\":2244:2264  uint256 id = _ids[i] */\n      swap1\n      pop\n        /* \"contracts/Shope.sol\":2279:2309  _buyProcess(msg.sender, id, q) */\n      tag_175\n        /* \"contracts/Shope.sol\":2291:2301  msg.sender */\n      caller\n        /* \"contracts/Shope.sol\":2303:2305  id */\n      dup3\n        /* \"contracts/Shope.sol\":2307:2308  q */\n      dup5\n        /* \"contracts/Shope.sol\":2279:2290  _buyProcess */\n      tag_176\n        /* \"contracts/Shope.sol\":2279:2309  _buyProcess(msg.sender, id, q) */\n      jump\t// in\n    tag_175:\n        /* \"contracts/Shope.sol\":2191:2320  {... */\n      pop\n      pop\n        /* \"contracts/Shope.sol\":2186:2189  i++ */\n      dup1\n      dup1\n      0x01\n      add\n      swap2\n      pop\n      pop\n        /* \"contracts/Shope.sol\":2149:2320  for (uint256 i = 0; i < _ids.length; i++) {... */\n      jump(tag_168)\n    tag_169:\n      pop\n        /* \"contracts/Shope.sol\":2346:2356  totalPrice */\n      dup1\n        /* \"contracts/Shope.sol\":2334:2343  msg.value */\n      callvalue\n        /* \"contracts/Shope.sol\":2334:2356  msg.value > totalPrice */\n      gt\n        /* \"contracts/Shope.sol\":2330:2435  if (msg.value > totalPrice) {... */\n      iszero\n      tag_177\n      jumpi\n        /* \"contracts/Shope.sol\":2380:2390  msg.sender */\n      caller\n        /* \"contracts/Shope.sol\":2372:2400  payable(msg.sender).transfer */\n      0xffffffffffffffffffffffffffffffffffffffff\n      and\n        /* \"contracts/Shope.sol\":2372:2424  payable(msg.sender).transfer(msg.value - totalPrice) */\n      0x08fc\n        /* \"contracts/Shope.sol\":2413:2423  totalPrice */\n      dup3\n        /* \"contracts/Shope.sol\":2401:2410  msg.value */\n      callvalue\n        /* \"contracts/Shope.sol\":2401:2423  msg.value - totalPrice */\n      tag_178\n      swap2\n      swap1\n      tag_179\n      jump\t// in\n    tag_178:\n        /* \"contracts/Shope.sol\":2372:2424  payable(msg.sender).transfer(msg.value - totalPrice) */\n      swap1\n      dup2\n      iszero\n      mul\n      swap1\n      mload(0x40)\n      0x00\n      mload(0x40)\n      dup1\n      dup4\n      sub\n      dup2\n      dup6\n      dup9\n      dup9\n      call\n      swap4\n      pop\n      pop\n      pop\n      pop\n      iszero\n      dup1\n      iszero\n      tag_181\n      jumpi\n      returndatacopy(0x00, 0x00, returndatasize)\n      revert(0x00, returndatasize)\n    tag_181:\n      pop\n        /* \"contracts/Shope.sol\":2330:2435  if (msg.value > totalPrice) {... */\n    tag_177:\n        /* \"contracts/Shope.sol\":1679:2441  {... */\n      pop\n        /* \"contracts/Shope.sol\":1568:2441  function batchBuy(uint256[] calldata _ids, uint256[] calldata _quantitys)... */\n      pop\n      pop\n      pop\n      pop\n      jump\t// out\n        /* \"contracts/Shope.sol\":3528:3688  function updatePrice(uint256 _id, uint256 _price) external onlyOwner {... */\n    tag_63:\n        /* \"@openzeppelin/contracts/access/Ownable.sol\":1531:1544  _checkOwner() */\n      tag_183\n        /* \"@openzeppelin/contracts/access/Ownable.sol\":1531:1542  _checkOwner */\n      tag_118\n        /* \"@openzeppelin/contracts/access/Ownable.sol\":1531:1544  _checkOwner() */\n      jump\t// in\n    tag_183:\n        /* \"contracts/Shope.sol\":3607:3630  Product storage product */\n      0x00\n        /* \"contracts/Shope.sol\":3633:3649  findProduct(_id) */\n      tag_185\n        /* \"contracts/Shope.sol\":3645:3648  _id */\n      dup4\n        /* \"contracts/Shope.sol\":3633:3644  findProduct */\n      tag_128\n        /* \"contracts/Shope.sol\":3633:3649  findProduct(_id) */\n      jump\t// in\n    tag_185:\n        /* \"contracts/Shope.sol\":3607:3649  Product storage product = findProduct(_id) */\n      swap1\n      pop\n        /* \"contracts/Shope.sol\":3675:3681  _price */\n      dup2\n        /* \"contracts/Shope.sol\":3659:3666  product */\n      dup2\n        /* \"contracts/Shope.sol\":3659:3672  product.price */\n      0x03\n      add\n        /* \"contracts/Shope.sol\":3659:3681  product.price = _price */\n      dup2\n      swap1\n      sstore\n      pop\n        /* \"contracts/Shope.sol\":3597:3688  {... */\n      pop\n        /* \"contracts/Shope.sol\":3528:3688  function updatePrice(uint256 _id, uint256 _price) external onlyOwner {... */\n      pop\n      pop\n      jump\t// out\n        /* \"contracts/Shope.sol\":759:793  PurchaseHistory[] public purchases */\n    tag_67:\n      0x05\n      dup2\n      dup2\n      sload\n      dup2\n      lt\n      tag_186\n      jumpi\n      0x00\n      dup1\n      revert\n    tag_186:\n      swap1\n      0x00\n      mstore\n      keccak256(0x00, 0x20)\n      swap1\n      0x03\n      mul\n      add\n      0x00\n      swap2\n      pop\n      swap1\n      pop\n      dup1\n      0x00\n      add\n      0x00\n      swap1\n      sload\n      swap1\n      0x0100\n      exp\n      swap1\n      div\n      0xffffffffffffffffffffffffffffffffffffffff\n      and\n      swap1\n      dup1\n      0x01\n      add\n      sload\n      swap1\n      dup1\n      0x02\n      add\n      sload\n      swap1\n      pop\n      dup4\n      jump\t// out\n        /* \"@openzeppelin/contracts/access/Ownable.sol\":1638:1723  function owner() public view virtual returns (address) {... */\n    tag_71:\n        /* \"@openzeppelin/contracts/access/Ownable.sol\":1684:1691  address */\n      0x00\n        /* \"@openzeppelin/contracts/access/Ownable.sol\":1710:1716  _owner */\n      0x00\n      0x00\n      swap1\n      sload\n      swap1\n      0x0100\n      exp\n      swap1\n      div\n      0xffffffffffffffffffffffffffffffffffffffff\n      and\n        /* \"@openzeppelin/contracts/access/Ownable.sol\":1703:1716  return _owner */\n      swap1\n      pop\n        /* \"@openzeppelin/contracts/access/Ownable.sol\":1638:1723  function owner() public view virtual returns (address) {... */\n      swap1\n      jump\t// out\n        /* \"contracts/Shope.sol\":6431:6676  function getTotalRevenue() public view returns (uint256) {... */\n    tag_76:\n        /* \"contracts/Shope.sol\":6479:6486  uint256 */\n      0x00\n        /* \"contracts/Shope.sol\":6498:6518  uint256 totalRevenue */\n      0x00\n        /* \"contracts/Shope.sol\":6534:6543  uint256 i */\n      0x00\n        /* \"contracts/Shope.sol\":6546:6547  0 */\n      0x00\n        /* \"contracts/Shope.sol\":6534:6547  uint256 i = 0 */\n      swap1\n      pop\n        /* \"contracts/Shope.sol\":6529:6641  for (uint256 i = 0; i < purchases.length; i++) {... */\n    tag_190:\n        /* \"contracts/Shope.sol\":6553:6562  purchases */\n      0x05\n        /* \"contracts/Shope.sol\":6553:6569  purchases.length */\n      dup1\n      sload\n      swap1\n      pop\n        /* \"contracts/Shope.sol\":6549:6550  i */\n      dup2\n        /* \"contracts/Shope.sol\":6549:6569  i < purchases.length */\n      lt\n        /* \"contracts/Shope.sol\":6529:6641  for (uint256 i = 0; i < purchases.length; i++) {... */\n      iszero\n      tag_191\n      jumpi\n        /* \"contracts/Shope.sol\":6606:6615  purchases */\n      0x05\n        /* \"contracts/Shope.sol\":6616:6617  i */\n      dup2\n        /* \"contracts/Shope.sol\":6606:6618  purchases[i] */\n      dup2\n      sload\n      dup2\n      lt\n      tag_193\n      jumpi\n      tag_194\n      tag_156\n      jump\t// in\n    tag_194:\n    tag_193:\n      swap1\n      0x00\n      mstore\n      keccak256(0x00, 0x20)\n      swap1\n      0x03\n      mul\n      add\n        /* \"contracts/Shope.sol\":6606:6630  purchases[i].totalAmount */\n      0x02\n      add\n      sload\n        /* \"contracts/Shope.sol\":6590:6630  totalRevenue += purchases[i].totalAmount */\n      dup3\n      tag_196\n      swap2\n      swap1\n      tag_166\n      jump\t// in\n    tag_196:\n      swap2\n      pop\n        /* \"contracts/Shope.sol\":6571:6574  i++ */\n      dup1\n      dup1\n      0x01\n      add\n      swap2\n      pop\n      pop\n        /* \"contracts/Shope.sol\":6529:6641  for (uint256 i = 0; i < purchases.length; i++) {... */\n      jump(tag_190)\n    tag_191:\n      pop\n        /* \"contracts/Shope.sol\":6657:6669  totalRevenue */\n      dup1\n        /* \"contracts/Shope.sol\":6650:6669  return totalRevenue */\n      swap2\n      pop\n      pop\n        /* \"contracts/Shope.sol\":6431:6676  function getTotalRevenue() public view returns (uint256) {... */\n      swap1\n      jump\t// out\n        /* \"contracts/Shope.sol\":3694:3854  function updateStock(uint256 _id, uint256 _stock) external onlyOwner {... */\n    tag_81:\n        /* \"@openzeppelin/contracts/access/Ownable.sol\":1531:1544  _checkOwner() */\n      tag_198\n        /* \"@openzeppelin/contracts/access/Ownable.sol\":1531:1542  _checkOwner */\n      tag_118\n        /* \"@openzeppelin/contracts/access/Ownable.sol\":1531:1544  _checkOwner() */\n      jump\t// in\n    tag_198:\n        /* \"contracts/Shope.sol\":3773:3796  Product storage product */\n      0x00\n        /* \"contracts/Shope.sol\":3799:3815  findProduct(_id) */\n      tag_200\n        /* \"contracts/Shope.sol\":3811:3814  _id */\n      dup4\n        /* \"contracts/Shope.sol\":3799:3810  findProduct */\n      tag_128\n        /* \"contracts/Shope.sol\":3799:3815  findProduct(_id) */\n      jump\t// in\n    tag_200:\n        /* \"contracts/Shope.sol\":3773:3815  Product storage product = findProduct(_id) */\n      swap1\n      pop\n        /* \"contracts/Shope.sol\":3841:3847  _stock */\n      dup2\n        /* \"contracts/Shope.sol\":3825:3832  product */\n      dup2\n        /* \"contracts/Shope.sol\":3825:3838  product.stock */\n      0x02\n      add\n        /* \"contracts/Shope.sol\":3825:3847  product.stock = _stock */\n      dup2\n      swap1\n      sstore\n      pop\n        /* \"contracts/Shope.sol\":3763:3854  {... */\n      pop\n        /* \"contracts/Shope.sol\":3694:3854  function updateStock(uint256 _id, uint256 _stock) external onlyOwner {... */\n      pop\n      pop\n      jump\t// out\n        /* \"contracts/Shope.sol\":6830:7144  function getUserPurchase(address _buyer)... */\n    tag_86:\n        /* \"contracts/Shope.sol\":6905:6914  uint256 i */\n      0x00\n        /* \"contracts/Shope.sol\":6917:6918  0 */\n      0x00\n        /* \"contracts/Shope.sol\":6905:6918  uint256 i = 0 */\n      swap1\n      pop\n        /* \"contracts/Shope.sol\":6900:7081  for (uint256 i = 0; i < purchases.length; i++) {... */\n    tag_202:\n        /* \"contracts/Shope.sol\":6924:6933  purchases */\n      0x05\n        /* \"contracts/Shope.sol\":6924:6940  purchases.length */\n      dup1\n      sload\n      swap1\n      pop\n        /* \"contracts/Shope.sol\":6920:6921  i */\n      dup2\n        /* \"contracts/Shope.sol\":6920:6940  i < purchases.length */\n      lt\n        /* \"contracts/Shope.sol\":6900:7081  for (uint256 i = 0; i < purchases.length; i++) {... */\n      iszero\n      tag_203\n      jumpi\n        /* \"contracts/Shope.sol\":6987:6993  _buyer */\n      dup2\n        /* \"contracts/Shope.sol\":6965:6993  purchases[i].buyer == _buyer */\n      0xffffffffffffffffffffffffffffffffffffffff\n      and\n        /* \"contracts/Shope.sol\":6965:6974  purchases */\n      0x05\n        /* \"contracts/Shope.sol\":6975:6976  i */\n      dup3\n        /* \"contracts/Shope.sol\":6965:6977  purchases[i] */\n      dup2\n      sload\n      dup2\n      lt\n      tag_205\n      jumpi\n      tag_206\n      tag_156\n      jump\t// in\n    tag_206:\n    tag_205:\n      swap1\n      0x00\n      mstore\n      keccak256(0x00, 0x20)\n      swap1\n      0x03\n      mul\n      add\n        /* \"contracts/Shope.sol\":6965:6983  purchases[i].buyer */\n      0x00\n      add\n      0x00\n      swap1\n      sload\n      swap1\n      0x0100\n      exp\n      swap1\n      div\n      0xffffffffffffffffffffffffffffffffffffffff\n      and\n        /* \"contracts/Shope.sol\":6965:6993  purchases[i].buyer == _buyer */\n      0xffffffffffffffffffffffffffffffffffffffff\n      and\n      sub\n        /* \"contracts/Shope.sol\":6961:7071  if (purchases[i].buyer == _buyer) {... */\n      tag_208\n      jumpi\n        /* \"contracts/Shope.sol\":7013:7037  purchasesForCurrentBuyer */\n      0x03\n        /* \"contracts/Shope.sol\":7043:7052  purchases */\n      0x05\n        /* \"contracts/Shope.sol\":7053:7054  i */\n      dup3\n        /* \"contracts/Shope.sol\":7043:7055  purchases[i] */\n      dup2\n      sload\n      dup2\n      lt\n      tag_209\n      jumpi\n      tag_210\n      tag_156\n      jump\t// in\n    tag_210:\n    tag_209:\n      swap1\n      0x00\n      mstore\n      keccak256(0x00, 0x20)\n      swap1\n      0x03\n      mul\n      add\n        /* \"contracts/Shope.sol\":7013:7056  purchasesForCurrentBuyer.push(purchases[i]) */\n      swap1\n      dup1\n      0x01\n      dup2\n      sload\n      add\n      dup1\n      dup3\n      sstore\n      dup1\n      swap2\n      pop\n      pop\n      0x01\n      swap1\n      sub\n      swap1\n      0x00\n      mstore\n      keccak256(0x00, 0x20)\n      swap1\n      0x03\n      mul\n      add\n      0x00\n      swap1\n      swap2\n      swap1\n      swap2\n      swap1\n      swap2\n      pop\n      0x00\n      dup3\n      add\n      0x00\n      swap1\n      sload\n      swap1\n      0x0100\n      exp\n      swap1\n      div\n      0xffffffffffffffffffffffffffffffffffffffff\n      and\n      dup2\n      0x00\n      add\n      exp(0x0100, 0x00)\n      dup2\n      sload\n      dup2\n      0xffffffffffffffffffffffffffffffffffffffff\n      mul\n      not\n      and\n      swap1\n      dup4\n      0xffffffffffffffffffffffffffffffffffffffff\n      and\n      mul\n      or\n      swap1\n      sstore\n      pop\n      0x01\n      dup3\n      add\n      sload\n      dup2\n      0x01\n      add\n      sstore\n      0x02\n      dup3\n      add\n      sload\n      dup2\n      0x02\n      add\n      sstore\n      pop\n      pop\n        /* \"contracts/Shope.sol\":6961:7071  if (purchases[i].buyer == _buyer) {... */\n    tag_208:\n        /* \"contracts/Shope.sol\":6942:6945  i++ */\n      dup1\n      dup1\n      0x01\n      add\n      swap2\n      pop\n      pop\n        /* \"contracts/Shope.sol\":6900:7081  for (uint256 i = 0; i < purchases.length; i++) {... */\n      jump(tag_202)\n    tag_203:\n      pop\n        /* \"contracts/Shope.sol\":7113:7137  purchasesForCurrentBuyer */\n      0x03\n        /* \"contracts/Shope.sol\":7090:7102  userPurchase */\n      0x01\n        /* \"contracts/Shope.sol\":7090:7110  userPurchase[_buyer] */\n      0x00\n        /* \"contracts/Shope.sol\":7103:7109  _buyer */\n      dup4\n        /* \"contracts/Shope.sol\":7090:7110  userPurchase[_buyer] */\n      0xffffffffffffffffffffffffffffffffffffffff\n      and\n      0xffffffffffffffffffffffffffffffffffffffff\n      and\n      dup2\n      mstore\n      0x20\n      add\n      swap1\n      dup2\n      mstore\n      0x20\n      add\n      0x00\n      keccak256\n        /* \"contracts/Shope.sol\":7090:7137  userPurchase[_buyer] = purchasesForCurrentBuyer */\n      swap1\n      dup1\n      sload\n      tag_213\n      swap3\n      swap2\n      swap1\n      tag_214\n      jump\t// in\n    tag_213:\n      pop\n        /* \"contracts/Shope.sol\":6830:7144  function getUserPurchase(address _buyer)... */\n      pop\n      jump\t// out\n        /* \"contracts/Shope.sol\":3860:3954  function getProducts() public view returns (Product[] memory) {... */\n    tag_89:\n        /* \"contracts/Shope.sol\":3904:3920  Product[] memory */\n      0x60\n        /* \"contracts/Shope.sol\":3939:3947  products */\n      0x04\n        /* \"contracts/Shope.sol\":3932:3947  return products */\n      dup1\n      sload\n      dup1\n      0x20\n      mul\n      0x20\n      add\n      mload(0x40)\n      swap1\n      dup2\n      add\n      0x40\n      mstore\n      dup1\n      swap3\n      swap2\n      swap1\n      dup2\n      dup2\n      mstore\n      0x20\n      add\n      0x00\n      swap1\n    tag_216:\n      dup3\n      dup3\n      lt\n      iszero\n      tag_217\n      jumpi\n      dup4\n      dup3\n      swap1\n      0x00\n      mstore\n      keccak256(0x00, 0x20)\n      swap1\n      0x04\n      mul\n      add\n      mload(0x40)\n      dup1\n      0x80\n      add\n      0x40\n      mstore\n      swap1\n      dup2\n      0x00\n      dup3\n      add\n      dup1\n      sload\n      tag_219\n      swap1\n      tag_220\n      jump\t// in\n    tag_219:\n      dup1\n      0x1f\n      add\n      0x20\n      dup1\n      swap2\n      div\n      mul\n      0x20\n      add\n      mload(0x40)\n      swap1\n      dup2\n      add\n      0x40\n      mstore\n      dup1\n      swap3\n      swap2\n      swap1\n      dup2\n      dup2\n      mstore\n      0x20\n      add\n      dup3\n      dup1\n      sload\n      tag_221\n      swap1\n      tag_220\n      jump\t// in\n    tag_221:\n      dup1\n      iszero\n      tag_222\n      jumpi\n      dup1\n      0x1f\n      lt\n      tag_223\n      jumpi\n      0x0100\n      dup1\n      dup4\n      sload\n      div\n      mul\n      dup4\n      mstore\n      swap2\n      0x20\n      add\n      swap2\n      jump(tag_222)\n    tag_223:\n      dup3\n      add\n      swap2\n      swap1\n      0x00\n      mstore\n      keccak256(0x00, 0x20)\n      swap1\n    tag_224:\n      dup2\n      sload\n      dup2\n      mstore\n      swap1\n      0x01\n      add\n      swap1\n      0x20\n      add\n      dup1\n      dup4\n      gt\n      tag_224\n      jumpi\n      dup3\n      swap1\n      sub\n      0x1f\n      and\n      dup3\n      add\n      swap2\n    tag_222:\n      pop\n      pop\n      pop\n      pop\n      pop\n      dup2\n      mstore\n      0x20\n      add\n      0x01\n      dup3\n      add\n      sload\n      dup2\n      mstore\n      0x20\n      add\n      0x02\n      dup3\n      add\n      sload\n      dup2\n      mstore\n      0x20\n      add\n      0x03\n      dup3\n      add\n      sload\n      dup2\n      mstore\n      pop\n      pop\n      dup2\n      mstore\n      0x20\n      add\n      swap1\n      0x01\n      add\n      swap1\n      jump(tag_216)\n    tag_217:\n      pop\n      pop\n      pop\n      pop\n      swap1\n      pop\n        /* \"contracts/Shope.sol\":3860:3954  function getProducts() public view returns (Product[] memory) {... */\n      swap1\n      jump\t// out\n        /* \"contracts/Shope.sol\":309:360  mapping(uint256 => uint256) public productsPurchase */\n    tag_95:\n      mstore(0x20, 0x02)\n      dup1\n      0x00\n      mstore\n      keccak256(0x00, 0x40)\n      0x00\n      swap2\n      pop\n      swap1\n      pop\n      sload\n      dup2\n      jump\t// out\n        /* \"contracts/Shope.sol\":1083:1562  function buy(uint256 _id, uint256 _quantity) external payable {... */\n    tag_99:\n        /* \"contracts/Shope.sol\":1175:1176  0 */\n      0x00\n        /* \"contracts/Shope.sol\":1163:1172  _quantity */\n      dup2\n        /* \"contracts/Shope.sol\":1163:1176  _quantity > 0 */\n      gt\n        /* \"contracts/Shope.sol\":1155:1199  require(_quantity > 0, QuantityCantBeZero()) */\n      tag_226\n      jumpi\n      mload(0x40)\n      0x02e9794a00000000000000000000000000000000000000000000000000000000\n      dup2\n      mstore\n      0x04\n      add\n      mload(0x40)\n      dup1\n      swap2\n      sub\n      swap1\n      revert\n    tag_226:\n        /* \"contracts/Shope.sol\":1234:1243  _quantity */\n      dup1\n        /* \"contracts/Shope.sol\":1217:1230  getStock(_id) */\n      tag_227\n        /* \"contracts/Shope.sol\":1226:1229  _id */\n      dup4\n        /* \"contracts/Shope.sol\":1217:1225  getStock */\n      tag_34\n        /* \"contracts/Shope.sol\":1217:1230  getStock(_id) */\n      jump\t// in\n    tag_227:\n        /* \"contracts/Shope.sol\":1217:1243  getStock(_id) >= _quantity */\n      lt\n      iszero\n        /* \"contracts/Shope.sol\":1209:1258  require(getStock(_id) >= _quantity, OutOfStock()) */\n      tag_228\n      jumpi\n      mload(0x40)\n      0xade1cb4100000000000000000000000000000000000000000000000000000000\n      dup2\n      mstore\n      0x04\n      add\n      mload(0x40)\n      dup1\n      swap2\n      sub\n      swap1\n      revert\n    tag_228:\n        /* \"contracts/Shope.sol\":1269:1287  uint256 totalPrice */\n      0x00\n        /* \"contracts/Shope.sol\":1306:1315  _quantity */\n      dup2\n        /* \"contracts/Shope.sol\":1290:1303  getPrice(_id) */\n      tag_229\n        /* \"contracts/Shope.sol\":1299:1302  _id */\n      dup5\n        /* \"contracts/Shope.sol\":1290:1298  getPrice */\n      tag_103\n        /* \"contracts/Shope.sol\":1290:1303  getPrice(_id) */\n      jump\t// in\n    tag_229:\n        /* \"contracts/Shope.sol\":1290:1315  getPrice(_id) * _quantity */\n      tag_230\n      swap2\n      swap1\n      tag_164\n      jump\t// in\n    tag_230:\n        /* \"contracts/Shope.sol\":1269:1315  uint256 totalPrice = getPrice(_id) * _quantity */\n      swap1\n      pop\n        /* \"contracts/Shope.sol\":1346:1356  totalPrice */\n      dup1\n        /* \"contracts/Shope.sol\":1333:1342  msg.value */\n      callvalue\n        /* \"contracts/Shope.sol\":1333:1356  msg.value >= totalPrice */\n      lt\n      iszero\n        /* \"contracts/Shope.sol\":1325:1376  require(msg.value >= totalPrice, NotEnoughtFunds()) */\n      tag_231\n      jumpi\n      mload(0x40)\n      0xc1463a4000000000000000000000000000000000000000000000000000000000\n      dup2\n      mstore\n      0x04\n      add\n      mload(0x40)\n      dup1\n      swap2\n      sub\n      swap1\n      revert\n    tag_231:\n        /* \"contracts/Shope.sol\":1401:1440  _buyProcess(msg.sender, _id, _quantity) */\n      tag_232\n        /* \"contracts/Shope.sol\":1413:1423  msg.sender */\n      caller\n        /* \"contracts/Shope.sol\":1425:1428  _id */\n      dup5\n        /* \"contracts/Shope.sol\":1430:1439  _quantity */\n      dup5\n        /* \"contracts/Shope.sol\":1401:1412  _buyProcess */\n      tag_176\n        /* \"contracts/Shope.sol\":1401:1440  _buyProcess(msg.sender, _id, _quantity) */\n      jump\t// in\n    tag_232:\n        /* \"contracts/Shope.sol\":1467:1477  totalPrice */\n      dup1\n        /* \"contracts/Shope.sol\":1455:1464  msg.value */\n      callvalue\n        /* \"contracts/Shope.sol\":1455:1477  msg.value > totalPrice */\n      gt\n        /* \"contracts/Shope.sol\":1451:1556  if (msg.value > totalPrice) {... */\n      iszero\n      tag_233\n      jumpi\n        /* \"contracts/Shope.sol\":1501:1511  msg.sender */\n      caller\n        /* \"contracts/Shope.sol\":1493:1521  payable(msg.sender).transfer */\n      0xffffffffffffffffffffffffffffffffffffffff\n      and\n        /* \"contracts/Shope.sol\":1493:1545  payable(msg.sender).transfer(msg.value - totalPrice) */\n      0x08fc\n        /* \"contracts/Shope.sol\":1534:1544  totalPrice */\n      dup3\n        /* \"contracts/Shope.sol\":1522:1531  msg.value */\n      callvalue\n        /* \"contracts/Shope.sol\":1522:1544  msg.value - totalPrice */\n      tag_234\n      swap2\n      swap1\n      tag_179\n      jump\t// in\n    tag_234:\n        /* \"contracts/Shope.sol\":1493:1545  payable(msg.sender).transfer(msg.value - totalPrice) */\n      swap1\n      dup2\n      iszero\n      mul\n      swap1\n      mload(0x40)\n      0x00\n      mload(0x40)\n      dup1\n      dup4\n      sub\n      dup2\n      dup6\n      dup9\n      dup9\n      call\n      swap4\n      pop\n      pop\n      pop\n      pop\n      iszero\n      dup1\n      iszero\n      tag_236\n      jumpi\n      returndatacopy(0x00, 0x00, returndatasize)\n      revert(0x00, returndatasize)\n    tag_236:\n      pop\n        /* \"contracts/Shope.sol\":1451:1556  if (msg.value > totalPrice) {... */\n    tag_233:\n        /* \"contracts/Shope.sol\":1145:1562  {... */\n      pop\n        /* \"contracts/Shope.sol\":1083:1562  function buy(uint256 _id, uint256 _quantity) external payable {... */\n      pop\n      pop\n      jump\t// out\n        /* \"contracts/Shope.sol\":3960:4110  function getPrice(uint256 _id) public view returns (uint256) {... */\n    tag_103:\n        /* \"contracts/Shope.sol\":4012:4019  uint256 */\n      0x00\n        /* \"contracts/Shope.sol\":4031:4054  Product storage product */\n      0x00\n        /* \"contracts/Shope.sol\":4057:4073  findProduct(_id) */\n      tag_238\n        /* \"contracts/Shope.sol\":4069:4072  _id */\n      dup4\n        /* \"contracts/Shope.sol\":4057:4068  findProduct */\n      tag_128\n        /* \"contracts/Shope.sol\":4057:4073  findProduct(_id) */\n      jump\t// in\n    tag_238:\n        /* \"contracts/Shope.sol\":4031:4073  Product storage product = findProduct(_id) */\n      swap1\n      pop\n        /* \"contracts/Shope.sol\":4090:4097  product */\n      dup1\n        /* \"contracts/Shope.sol\":4090:4103  product.price */\n      0x03\n      add\n      sload\n        /* \"contracts/Shope.sol\":4083:4103  return product.price */\n      swap2\n      pop\n      pop\n        /* \"contracts/Shope.sol\":3960:4110  function getPrice(uint256 _id) public view returns (uint256) {... */\n      swap2\n      swap1\n      pop\n      jump\t// out\n        /* \"contracts/Shope.sol\":3276:3522  function deleteProduct(uint256 _id) external onlyOwner {... */\n    tag_108:\n        /* \"@openzeppelin/contracts/access/Ownable.sol\":1531:1544  _checkOwner() */\n      tag_240\n        /* \"@openzeppelin/contracts/access/Ownable.sol\":1531:1542  _checkOwner */\n      tag_118\n        /* \"@openzeppelin/contracts/access/Ownable.sol\":1531:1544  _checkOwner() */\n      jump\t// in\n    tag_240:\n        /* \"contracts/Shope.sol\":3342:3353  bool status */\n      0x00\n        /* \"contracts/Shope.sol\":3355:3368  uint256 index */\n      0x00\n        /* \"contracts/Shope.sol\":3372:3390  findIndexById(_id) */\n      tag_242\n        /* \"contracts/Shope.sol\":3386:3389  _id */\n      dup4\n        /* \"contracts/Shope.sol\":3372:3385  findIndexById */\n      tag_243\n        /* \"contracts/Shope.sol\":3372:3390  findIndexById(_id) */\n      jump\t// in\n    tag_242:\n        /* \"contracts/Shope.sol\":3341:3390  (bool status, uint256 index) = findIndexById(_id) */\n      swap2\n      pop\n      swap2\n      pop\n        /* \"contracts/Shope.sol\":3408:3414  status */\n      dup2\n        /* \"contracts/Shope.sol\":3400:3433  require(status, IdDoesNotExist()) */\n      tag_244\n      jumpi\n      mload(0x40)\n      0xc270964900000000000000000000000000000000000000000000000000000000\n      dup2\n      mstore\n      0x04\n      add\n      mload(0x40)\n      dup1\n      swap2\n      sub\n      swap1\n      revert\n    tag_244:\n        /* \"contracts/Shope.sol\":3462:3470  products */\n      0x04\n        /* \"contracts/Shope.sol\":3489:3490  1 */\n      0x01\n        /* \"contracts/Shope.sol\":3471:3479  products */\n      0x04\n        /* \"contracts/Shope.sol\":3471:3486  products.length */\n      dup1\n      sload\n      swap1\n      pop\n        /* \"contracts/Shope.sol\":3471:3490  products.length - 1 */\n      tag_245\n      swap2\n      swap1\n      tag_179\n      jump\t// in\n    tag_245:\n        /* \"contracts/Shope.sol\":3462:3491  products[products.length - 1] */\n      dup2\n      sload\n      dup2\n      lt\n      tag_246\n      jumpi\n      tag_247\n      tag_156\n      jump\t// in\n    tag_247:\n    tag_246:\n      swap1\n      0x00\n      mstore\n      keccak256(0x00, 0x20)\n      swap1\n      0x04\n      mul\n      add\n        /* \"contracts/Shope.sol\":3444:3452  products */\n      0x04\n        /* \"contracts/Shope.sol\":3453:3458  index */\n      dup3\n        /* \"contracts/Shope.sol\":3444:3459  products[index] */\n      dup2\n      sload\n      dup2\n      lt\n      tag_249\n      jumpi\n      tag_250\n      tag_156\n      jump\t// in\n    tag_250:\n    tag_249:\n      swap1\n      0x00\n      mstore\n      keccak256(0x00, 0x20)\n      swap1\n      0x04\n      mul\n      add\n        /* \"contracts/Shope.sol\":3444:3491  products[index] = products[products.length - 1] */\n      0x00\n      dup3\n      add\n      dup2\n      0x00\n      add\n      swap1\n      dup2\n      tag_252\n      swap2\n      swap1\n      tag_253\n      jump\t// in\n    tag_252:\n      pop\n      0x01\n      dup3\n      add\n      sload\n      dup2\n      0x01\n      add\n      sstore\n      0x02\n      dup3\n      add\n      sload\n      dup2\n      0x02\n      add\n      sstore\n      0x03\n      dup3\n      add\n      sload\n      dup2\n      0x03\n      add\n      sstore\n      swap1\n      pop\n      pop\n        /* \"contracts/Shope.sol\":3501:3509  products */\n      0x04\n        /* \"contracts/Shope.sol\":3501:3515  products.pop() */\n      dup1\n      sload\n      dup1\n      tag_254\n      jumpi\n      tag_255\n      tag_256\n      jump\t// in\n    tag_255:\n    tag_254:\n      0x01\n      swap1\n      sub\n      dup2\n      dup2\n      swap1\n      0x00\n      mstore\n      keccak256(0x00, 0x20)\n      swap1\n      0x04\n      mul\n      add\n      0x00\n      0x00\n      dup3\n      add\n      0x00\n      tag_258\n      swap2\n      swap1\n      tag_259\n      jump\t// in\n    tag_258:\n      0x01\n      dup3\n      add\n      0x00\n      swap1\n      sstore\n      0x02\n      dup3\n      add\n      0x00\n      swap1\n      sstore\n      0x03\n      dup3\n      add\n      0x00\n      swap1\n      sstore\n      pop\n      pop\n      swap1\n      sstore\n        /* \"contracts/Shope.sol\":3331:3522  {... */\n      pop\n      pop\n        /* \"contracts/Shope.sol\":3276:3522  function deleteProduct(uint256 _id) external onlyOwner {... */\n      pop\n      jump\t// out\n        /* \"@openzeppelin/contracts/access/Ownable.sol\":2543:2758  function transferOwnership(address newOwner) public virtual onlyOwner {... */\n    tag_112:\n        /* \"@openzeppelin/contracts/access/Ownable.sol\":1531:1544  _checkOwner() */\n      tag_261\n        /* \"@openzeppelin/contracts/access/Ownable.sol\":1531:1542  _checkOwner */\n      tag_118\n        /* \"@openzeppelin/contracts/access/Ownable.sol\":1531:1544  _checkOwner() */\n      jump\t// in\n    tag_261:\n        /* \"@openzeppelin/contracts/access/Ownable.sol\":2647:2648  0 */\n      0x00\n        /* \"@openzeppelin/contracts/access/Ownable.sol\":2627:2649  newOwner == address(0) */\n      0xffffffffffffffffffffffffffffffffffffffff\n      and\n        /* \"@openzeppelin/contracts/access/Ownable.sol\":2627:2635  newOwner */\n      dup2\n        /* \"@openzeppelin/contracts/access/Ownable.sol\":2627:2649  newOwner == address(0) */\n      0xffffffffffffffffffffffffffffffffffffffff\n      and\n      sub\n        /* \"@openzeppelin/contracts/access/Ownable.sol\":2623:2714  if (newOwner == address(0)) {... */\n      tag_263\n      jumpi\n        /* \"@openzeppelin/contracts/access/Ownable.sol\":2700:2701  0 */\n      0x00\n        /* \"@openzeppelin/contracts/access/Ownable.sol\":2672:2703  OwnableInvalidOwner(address(0)) */\n      mload(0x40)\n      0x1e4fbdf700000000000000000000000000000000000000000000000000000000\n      dup2\n      mstore\n      0x04\n      add\n      tag_264\n      swap2\n      swap1\n      tag_73\n      jump\t// in\n    tag_264:\n      mload(0x40)\n      dup1\n      swap2\n      sub\n      swap1\n      revert\n        /* \"@openzeppelin/contracts/access/Ownable.sol\":2623:2714  if (newOwner == address(0)) {... */\n    tag_263:\n        /* \"@openzeppelin/contracts/access/Ownable.sol\":2723:2751  _transferOwnership(newOwner) */\n      tag_265\n        /* \"@openzeppelin/contracts/access/Ownable.sol\":2742:2750  newOwner */\n      dup2\n        /* \"@openzeppelin/contracts/access/Ownable.sol\":2723:2741  _transferOwnership */\n      tag_146\n        /* \"@openzeppelin/contracts/access/Ownable.sol\":2723:2751  _transferOwnership(newOwner) */\n      jump\t// in\n    tag_265:\n        /* \"@openzeppelin/contracts/access/Ownable.sol\":2543:2758  function transferOwnership(address newOwner) public virtual onlyOwner {... */\n      pop\n      jump\t// out\n        /* \"contracts/Shope.sol\":5662:5977  function refund(address _buyer) public payable {... */\n    tag_115:\n        /* \"contracts/Shope.sol\":5719:5754  PurchaseHistory memory lastPurchase */\n      0x00\n        /* \"contracts/Shope.sol\":5757:5780  getLastPurchase(_buyer) */\n      tag_267\n        /* \"contracts/Shope.sol\":5773:5779  _buyer */\n      dup3\n        /* \"contracts/Shope.sol\":5757:5772  getLastPurchase */\n      tag_268\n        /* \"contracts/Shope.sol\":5757:5780  getLastPurchase(_buyer) */\n      jump\t// in\n    tag_267:\n        /* \"contracts/Shope.sol\":5719:5780  PurchaseHistory memory lastPurchase = getLastPurchase(_buyer) */\n      swap1\n      pop\n        /* \"contracts/Shope.sol\":5790:5805  uint256 balance */\n      0x00\n        /* \"contracts/Shope.sol\":5832:5844  lastPurchase */\n      dup2\n        /* \"contracts/Shope.sol\":5832:5856  lastPurchase.totalAmount */\n      0x40\n      add\n      mload\n        /* \"contracts/Shope.sol\":5808:5829  address(this).balance */\n      selfbalance\n        /* \"contracts/Shope.sol\":5808:5856  address(this).balance + lastPurchase.totalAmount */\n      tag_269\n      swap2\n      swap1\n      tag_166\n      jump\t// in\n    tag_269:\n        /* \"contracts/Shope.sol\":5790:5856  uint256 balance = address(this).balance + lastPurchase.totalAmount */\n      swap1\n      pop\n        /* \"contracts/Shope.sol\":5885:5886  0 */\n      0x00\n        /* \"contracts/Shope.sol\":5875:5882  balance */\n      dup2\n        /* \"contracts/Shope.sol\":5875:5886  balance > 0 */\n      gt\n        /* \"contracts/Shope.sol\":5867:5908  require(balance > 0, \"Not enought money\") */\n      tag_270\n      jumpi\n      mload(0x40)\n      0x08c379a000000000000000000000000000000000000000000000000000000000\n      dup2\n      mstore\n      0x04\n      add\n      tag_271\n      swap1\n      tag_134\n      jump\t// in\n    tag_271:\n      mload(0x40)\n      dup1\n      swap2\n      sub\n      swap1\n      revert\n    tag_270:\n        /* \"contracts/Shope.sol\":5927:5934  owner() */\n      tag_272\n        /* \"contracts/Shope.sol\":5927:5932  owner */\n      tag_71\n        /* \"contracts/Shope.sol\":5927:5934  owner() */\n      jump\t// in\n    tag_272:\n        /* \"contracts/Shope.sol\":5919:5944  payable(owner()).transfer */\n      0xffffffffffffffffffffffffffffffffffffffff\n      and\n        /* \"contracts/Shope.sol\":5919:5970  payable(owner()).transfer(lastPurchase.totalAmount) */\n      0x08fc\n        /* \"contracts/Shope.sol\":5945:5957  lastPurchase */\n      dup4\n        /* \"contracts/Shope.sol\":5945:5969  lastPurchase.totalAmount */\n      0x40\n      add\n      mload\n        /* \"contracts/Shope.sol\":5919:5970  payable(owner()).transfer(lastPurchase.totalAmount) */\n      swap1\n      dup2\n      iszero\n      mul\n      swap1\n      mload(0x40)\n      0x00\n      mload(0x40)\n      dup1\n      dup4\n      sub\n      dup2\n      dup6\n      dup9\n      dup9\n      call\n      swap4\n      pop\n      pop\n      pop\n      pop\n      iszero\n      dup1\n      iszero\n      tag_274\n      jumpi\n      returndatacopy(0x00, 0x00, returndatasize)\n      revert(0x00, returndatasize)\n    tag_274:\n      pop\n        /* \"contracts/Shope.sol\":5709:5977  {... */\n      pop\n      pop\n        /* \"contracts/Shope.sol\":5662:5977  function refund(address _buyer) public payable {... */\n      pop\n      jump\t// out\n        /* \"@openzeppelin/contracts/access/Ownable.sol\":1796:1958  function _checkOwner() internal view virtual {... */\n    tag_118:\n        /* \"@openzeppelin/contracts/access/Ownable.sol\":1866:1878  _msgSender() */\n      tag_276\n        /* \"@openzeppelin/contracts/access/Ownable.sol\":1866:1876  _msgSender */\n      tag_277\n        /* \"@openzeppelin/contracts/access/Ownable.sol\":1866:1878  _msgSender() */\n      jump\t// in\n    tag_276:\n        /* \"@openzeppelin/contracts/access/Ownable.sol\":1855:1878  owner() != _msgSender() */\n      0xffffffffffffffffffffffffffffffffffffffff\n      and\n        /* \"@openzeppelin/contracts/access/Ownable.sol\":1855:1862  owner() */\n      tag_278\n        /* \"@openzeppelin/contracts/access/Ownable.sol\":1855:1860  owner */\n      tag_71\n        /* \"@openzeppelin/contracts/access/Ownable.sol\":1855:1862  owner() */\n      jump\t// in\n    tag_278:\n        /* \"@openzeppelin/contracts/access/Ownable.sol\":1855:1878  owner() != _msgSender() */\n      0xffffffffffffffffffffffffffffffffffffffff\n      and\n      eq\n        /* \"@openzeppelin/contracts/access/Ownable.sol\":1851:1952  if (owner() != _msgSender()) {... */\n      tag_279\n      jumpi\n        /* \"@openzeppelin/contracts/access/Ownable.sol\":1928:1940  _msgSender() */\n      tag_280\n        /* \"@openzeppelin/contracts/access/Ownable.sol\":1928:1938  _msgSender */\n      tag_277\n        /* \"@openzeppelin/contracts/access/Ownable.sol\":1928:1940  _msgSender() */\n      jump\t// in\n    tag_280:\n        /* \"@openzeppelin/contracts/access/Ownable.sol\":1901:1941  OwnableUnauthorizedAccount(_msgSender()) */\n      mload(0x40)\n      0x118cdaa700000000000000000000000000000000000000000000000000000000\n      dup2\n      mstore\n      0x04\n      add\n      tag_281\n      swap2\n      swap1\n      tag_73\n      jump\t// in\n    tag_281:\n      mload(0x40)\n      dup1\n      swap2\n      sub\n      swap1\n      revert\n        /* \"@openzeppelin/contracts/access/Ownable.sol\":1851:1952  if (owner() != _msgSender()) {... */\n    tag_279:\n        /* \"@openzeppelin/contracts/access/Ownable.sol\":1796:1958  function _checkOwner() internal view virtual {... */\n      jump\t// out\n        /* \"contracts/Shope.sol\":4585:4825  function isIdExist(uint256 _id) internal view returns (bool) {... */\n    tag_121:\n        /* \"contracts/Shope.sol\":4640:4644  bool */\n      0x00\n        /* \"contracts/Shope.sol\":4661:4670  uint256 i */\n      0x00\n        /* \"contracts/Shope.sol\":4673:4674  0 */\n      0x00\n        /* \"contracts/Shope.sol\":4661:4674  uint256 i = 0 */\n      swap1\n      pop\n        /* \"contracts/Shope.sol\":4656:4797  for (uint256 i = 0; i < products.length; i++) {... */\n    tag_283:\n        /* \"contracts/Shope.sol\":4680:4688  products */\n      0x04\n        /* \"contracts/Shope.sol\":4680:4695  products.length */\n      dup1\n      sload\n      swap1\n      pop\n        /* \"contracts/Shope.sol\":4676:4677  i */\n      dup2\n        /* \"contracts/Shope.sol\":4676:4695  i < products.length */\n      lt\n        /* \"contracts/Shope.sol\":4656:4797  for (uint256 i = 0; i < products.length; i++) {... */\n      iszero\n      tag_284\n      jumpi\n        /* \"contracts/Shope.sol\":4738:4741  _id */\n      dup3\n        /* \"contracts/Shope.sol\":4720:4728  products */\n      0x04\n        /* \"contracts/Shope.sol\":4729:4730  i */\n      dup3\n        /* \"contracts/Shope.sol\":4720:4731  products[i] */\n      dup2\n      sload\n      dup2\n      lt\n      tag_286\n      jumpi\n      tag_287\n      tag_156\n      jump\t// in\n    tag_287:\n    tag_286:\n      swap1\n      0x00\n      mstore\n      keccak256(0x00, 0x20)\n      swap1\n      0x04\n      mul\n      add\n        /* \"contracts/Shope.sol\":4720:4734  products[i].id */\n      0x01\n      add\n      sload\n        /* \"contracts/Shope.sol\":4720:4741  products[i].id == _id */\n      sub\n        /* \"contracts/Shope.sol\":4716:4787  if (products[i].id == _id) {... */\n      tag_289\n      jumpi\n        /* \"contracts/Shope.sol\":4768:4772  true */\n      0x01\n        /* \"contracts/Shope.sol\":4761:4772  return true */\n      swap2\n      pop\n      pop\n      jump(tag_282)\n        /* \"contracts/Shope.sol\":4716:4787  if (products[i].id == _id) {... */\n    tag_289:\n        /* \"contracts/Shope.sol\":4697:4700  i++ */\n      dup1\n      dup1\n      0x01\n      add\n      swap2\n      pop\n      pop\n        /* \"contracts/Shope.sol\":4656:4797  for (uint256 i = 0; i < products.length; i++) {... */\n      jump(tag_283)\n    tag_284:\n      pop\n        /* \"contracts/Shope.sol\":4813:4818  false */\n      0x00\n        /* \"contracts/Shope.sol\":4806:4818  return false */\n      swap1\n      pop\n        /* \"contracts/Shope.sol\":4585:4825  function isIdExist(uint256 _id) internal view returns (bool) {... */\n    tag_282:\n      swap2\n      swap1\n      pop\n      jump\t// out\n        /* \"contracts/Shope.sol\":4272:4579  function findProduct(uint256 _id)... */\n    tag_128:\n        /* \"contracts/Shope.sol\":4353:4376  Product storage product */\n      0x00\n        /* \"contracts/Shope.sol\":4397:4406  uint256 i */\n      0x00\n        /* \"contracts/Shope.sol\":4409:4410  0 */\n      0x00\n        /* \"contracts/Shope.sol\":4397:4410  uint256 i = 0 */\n      swap1\n      pop\n        /* \"contracts/Shope.sol\":4392:4540  for (uint256 i = 0; i < products.length; i++) {... */\n    tag_291:\n        /* \"contracts/Shope.sol\":4416:4424  products */\n      0x04\n        /* \"contracts/Shope.sol\":4416:4431  products.length */\n      dup1\n      sload\n      swap1\n      pop\n        /* \"contracts/Shope.sol\":4412:4413  i */\n      dup2\n        /* \"contracts/Shope.sol\":4412:4431  i < products.length */\n      lt\n        /* \"contracts/Shope.sol\":4392:4540  for (uint256 i = 0; i < products.length; i++) {... */\n      iszero\n      tag_292\n      jumpi\n        /* \"contracts/Shope.sol\":4474:4477  _id */\n      dup3\n        /* \"contracts/Shope.sol\":4456:4464  products */\n      0x04\n        /* \"contracts/Shope.sol\":4465:4466  i */\n      dup3\n        /* \"contracts/Shope.sol\":4456:4467  products[i] */\n      dup2\n      sload\n      dup2\n      lt\n      tag_294\n      jumpi\n      tag_295\n      tag_156\n      jump\t// in\n    tag_295:\n    tag_294:\n      swap1\n      0x00\n      mstore\n      keccak256(0x00, 0x20)\n      swap1\n      0x04\n      mul\n      add\n        /* \"contracts/Shope.sol\":4456:4470  products[i].id */\n      0x01\n      add\n      sload\n        /* \"contracts/Shope.sol\":4456:4477  products[i].id == _id */\n      sub\n        /* \"contracts/Shope.sol\":4452:4530  if (products[i].id == _id) {... */\n      tag_297\n      jumpi\n        /* \"contracts/Shope.sol\":4504:4512  products */\n      0x04\n        /* \"contracts/Shope.sol\":4513:4514  i */\n      dup2\n        /* \"contracts/Shope.sol\":4504:4515  products[i] */\n      dup2\n      sload\n      dup2\n      lt\n      tag_298\n      jumpi\n      tag_299\n      tag_156\n      jump\t// in\n    tag_299:\n    tag_298:\n      swap1\n      0x00\n      mstore\n      keccak256(0x00, 0x20)\n      swap1\n      0x04\n      mul\n      add\n        /* \"contracts/Shope.sol\":4497:4515  return products[i] */\n      swap2\n      pop\n      pop\n      jump(tag_290)\n        /* \"contracts/Shope.sol\":4452:4530  if (products[i].id == _id) {... */\n    tag_297:\n        /* \"contracts/Shope.sol\":4433:4436  i++ */\n      dup1\n      dup1\n      0x01\n      add\n      swap2\n      pop\n      pop\n        /* \"contracts/Shope.sol\":4392:4540  for (uint256 i = 0; i < products.length; i++) {... */\n      jump(tag_291)\n    tag_292:\n      pop\n        /* \"contracts/Shope.sol\":4556:4572  IdDoesNotExist() */\n      mload(0x40)\n      0xc270964900000000000000000000000000000000000000000000000000000000\n      dup2\n      mstore\n      0x04\n      add\n      mload(0x40)\n      dup1\n      swap2\n      sub\n      swap1\n      revert\n        /* \"contracts/Shope.sol\":4272:4579  function findProduct(uint256 _id)... */\n    tag_290:\n      swap2\n      swap1\n      pop\n      jump\t// out\n        /* \"@openzeppelin/contracts/access/Ownable.sol\":2912:3099  function _transferOwnership(address newOwner) internal virtual {... */\n    tag_146:\n        /* \"@openzeppelin/contracts/access/Ownable.sol\":2985:3001  address oldOwner */\n      0x00\n        /* \"@openzeppelin/contracts/access/Ownable.sol\":3004:3010  _owner */\n      0x00\n      0x00\n      swap1\n      sload\n      swap1\n      0x0100\n      exp\n      swap1\n      div\n      0xffffffffffffffffffffffffffffffffffffffff\n      and\n        /* \"@openzeppelin/contracts/access/Ownable.sol\":2985:3010  address oldOwner = _owner */\n      swap1\n      pop\n        /* \"@openzeppelin/contracts/access/Ownable.sol\":3029:3037  newOwner */\n      dup2\n        /* \"@openzeppelin/contracts/access/Ownable.sol\":3020:3026  _owner */\n      0x00\n      0x00\n        /* \"@openzeppelin/contracts/access/Ownable.sol\":3020:3037  _owner = newOwner */\n      0x0100\n      exp\n      dup2\n      sload\n      dup2\n      0xffffffffffffffffffffffffffffffffffffffff\n      mul\n      not\n      and\n      swap1\n      dup4\n      0xffffffffffffffffffffffffffffffffffffffff\n      and\n      mul\n      or\n      swap1\n      sstore\n      pop\n        /* \"@openzeppelin/contracts/access/Ownable.sol\":3083:3091  newOwner */\n      dup2\n        /* \"@openzeppelin/contracts/access/Ownable.sol\":3052:3092  OwnershipTransferred(oldOwner, newOwner) */\n      0xffffffffffffffffffffffffffffffffffffffff\n      and\n        /* \"@openzeppelin/contracts/access/Ownable.sol\":3073:3081  oldOwner */\n      dup2\n        /* \"@openzeppelin/contracts/access/Ownable.sol\":3052:3092  OwnershipTransferred(oldOwner, newOwner) */\n      0xffffffffffffffffffffffffffffffffffffffff\n      and\n      0x8be0079c531659141344cd1fd0a4f28419497f9722a3daafe3b4186f6b6457e0\n      mload(0x40)\n      mload(0x40)\n      dup1\n      swap2\n      sub\n      swap1\n      log3\n        /* \"@openzeppelin/contracts/access/Ownable.sol\":2975:3099  {... */\n      pop\n        /* \"@openzeppelin/contracts/access/Ownable.sol\":2912:3099  function _transferOwnership(address newOwner) internal virtual {... */\n      pop\n      jump\t// out\n        /* \"contracts/Shope.sol\":2447:2803  function _buyProcess(... */\n    tag_176:\n        /* \"contracts/Shope.sol\":2564:2587  Product storage product */\n      0x00\n        /* \"contracts/Shope.sol\":2590:2606  findProduct(_id) */\n      tag_303\n        /* \"contracts/Shope.sol\":2602:2605  _id */\n      dup4\n        /* \"contracts/Shope.sol\":2590:2601  findProduct */\n      tag_128\n        /* \"contracts/Shope.sol\":2590:2606  findProduct(_id) */\n      jump\t// in\n    tag_303:\n        /* \"contracts/Shope.sol\":2564:2606  Product storage product = findProduct(_id) */\n      swap1\n      pop\n        /* \"contracts/Shope.sol\":2633:2642  _quantity */\n      dup2\n        /* \"contracts/Shope.sol\":2616:2623  product */\n      dup2\n        /* \"contracts/Shope.sol\":2616:2629  product.stock */\n      0x02\n      add\n      0x00\n        /* \"contracts/Shope.sol\":2616:2642  product.stock -= _quantity */\n      dup3\n      dup3\n      sload\n      tag_304\n      swap2\n      swap1\n      tag_179\n      jump\t// in\n    tag_304:\n      swap3\n      pop\n      pop\n      dup2\n      swap1\n      sstore\n      pop\n        /* \"contracts/Shope.sol\":2678:2687  _quantity */\n      dup2\n        /* \"contracts/Shope.sol\":2653:2669  productsPurchase */\n      0x02\n        /* \"contracts/Shope.sol\":2653:2674  productsPurchase[_id] */\n      0x00\n        /* \"contracts/Shope.sol\":2670:2673  _id */\n      dup6\n        /* \"contracts/Shope.sol\":2653:2674  productsPurchase[_id] */\n      dup2\n      mstore\n      0x20\n      add\n      swap1\n      dup2\n      mstore\n      0x20\n      add\n      0x00\n      keccak256\n      0x00\n        /* \"contracts/Shope.sol\":2653:2687  productsPurchase[_id] += _quantity */\n      dup3\n      dup3\n      sload\n      tag_305\n      swap2\n      swap1\n      tag_166\n      jump\t// in\n    tag_305:\n      swap3\n      pop\n      pop\n      dup2\n      swap1\n      sstore\n      pop\n        /* \"contracts/Shope.sol\":2698:2750  setPurchaseHistory(buyer, product.price * _quantity) */\n      tag_306\n        /* \"contracts/Shope.sol\":2717:2722  buyer */\n      dup5\n        /* \"contracts/Shope.sol\":2740:2749  _quantity */\n      dup4\n        /* \"contracts/Shope.sol\":2724:2731  product */\n      dup4\n        /* \"contracts/Shope.sol\":2724:2737  product.price */\n      0x03\n      add\n      sload\n        /* \"contracts/Shope.sol\":2724:2749  product.price * _quantity */\n      tag_307\n      swap2\n      swap1\n      tag_164\n      jump\t// in\n    tag_307:\n        /* \"contracts/Shope.sol\":2698:2716  setPurchaseHistory */\n      tag_308\n        /* \"contracts/Shope.sol\":2698:2750  setPurchaseHistory(buyer, product.price * _quantity) */\n      jump\t// in\n    tag_306:\n        /* \"contracts/Shope.sol\":2765:2796  Purchase(buyer, _id, _quantity) */\n      0x12cb4648cf3058b17ceeb33e579f8b0bc269fe0843f3900b8e24b6c54871703c\n        /* \"contracts/Shope.sol\":2774:2779  buyer */\n      dup5\n        /* \"contracts/Shope.sol\":2781:2784  _id */\n      dup5\n        /* \"contracts/Shope.sol\":2786:2795  _quantity */\n      dup5\n        /* \"contracts/Shope.sol\":2765:2796  Purchase(buyer, _id, _quantity) */\n      mload(0x40)\n      tag_309\n      swap4\n      swap3\n      swap2\n      swap1\n      tag_45\n      jump\t// in\n    tag_309:\n      mload(0x40)\n      dup1\n      swap2\n      sub\n      swap1\n      log1\n        /* \"contracts/Shope.sol\":2554:2803  {... */\n      pop\n        /* \"contracts/Shope.sol\":2447:2803  function _buyProcess(... */\n      pop\n      pop\n      pop\n      jump\t// out\n        /* \"contracts/Shope.sol\":4831:5094  function findIndexById(uint256 _id) internal view returns (bool, uint256) {... */\n    tag_243:\n        /* \"contracts/Shope.sol\":4890:4894  bool */\n      0x00\n        /* \"contracts/Shope.sol\":4896:4903  uint256 */\n      0x00\n        /* \"contracts/Shope.sol\":4920:4929  uint256 i */\n      0x00\n        /* \"contracts/Shope.sol\":4932:4933  0 */\n      0x00\n        /* \"contracts/Shope.sol\":4920:4933  uint256 i = 0 */\n      swap1\n      pop\n        /* \"contracts/Shope.sol\":4915:5061  for (uint256 i = 0; i < products.length; i++) {... */\n    tag_311:\n        /* \"contracts/Shope.sol\":4939:4947  products */\n      0x04\n        /* \"contracts/Shope.sol\":4939:4954  products.length */\n      dup1\n      sload\n      swap1\n      pop\n        /* \"contracts/Shope.sol\":4935:4936  i */\n      dup2\n        /* \"contracts/Shope.sol\":4935:4954  i < products.length */\n      lt\n        /* \"contracts/Shope.sol\":4915:5061  for (uint256 i = 0; i < products.length; i++) {... */\n      iszero\n      tag_312\n      jumpi\n        /* \"contracts/Shope.sol\":4997:5000  _id */\n      dup4\n        /* \"contracts/Shope.sol\":4979:4987  products */\n      0x04\n        /* \"contracts/Shope.sol\":4988:4989  i */\n      dup3\n        /* \"contracts/Shope.sol\":4979:4990  products[i] */\n      dup2\n      sload\n      dup2\n      lt\n      tag_314\n      jumpi\n      tag_315\n      tag_156\n      jump\t// in\n    tag_315:\n    tag_314:\n      swap1\n      0x00\n      mstore\n      keccak256(0x00, 0x20)\n      swap1\n      0x04\n      mul\n      add\n        /* \"contracts/Shope.sol\":4979:4993  products[i].id */\n      0x01\n      add\n      sload\n        /* \"contracts/Shope.sol\":4979:5000  products[i].id == _id */\n      sub\n        /* \"contracts/Shope.sol\":4975:5051  if (products[i].id == _id) {... */\n      tag_317\n      jumpi\n        /* \"contracts/Shope.sol\":5028:5032  true */\n      0x01\n        /* \"contracts/Shope.sol\":5034:5035  i */\n      dup2\n        /* \"contracts/Shope.sol\":5020:5036  return (true, i) */\n      swap3\n      pop\n      swap3\n      pop\n      pop\n      jump(tag_310)\n        /* \"contracts/Shope.sol\":4975:5051  if (products[i].id == _id) {... */\n    tag_317:\n        /* \"contracts/Shope.sol\":4956:4959  i++ */\n      dup1\n      dup1\n      0x01\n      add\n      swap2\n      pop\n      pop\n        /* \"contracts/Shope.sol\":4915:5061  for (uint256 i = 0; i < products.length; i++) {... */\n      jump(tag_311)\n    tag_312:\n      pop\n        /* \"contracts/Shope.sol\":5078:5083  false */\n      0x00\n        /* \"contracts/Shope.sol\":5085:5086  0 */\n      0x00\n        /* \"contracts/Shope.sol\":5070:5087  return (false, 0) */\n      swap2\n      pop\n      swap2\n      pop\n        /* \"contracts/Shope.sol\":4831:5094  function findIndexById(uint256 _id) internal view returns (bool, uint256) {... */\n    tag_310:\n      swap2\n      pop\n      swap2\n      jump\t// out\n        /* \"contracts/Shope.sol\":6124:6371  function getLastPurchase(address _buyer)... */\n    tag_268:\n        /* \"contracts/Shope.sol\":6212:6234  PurchaseHistory memory */\n      tag_318\n      tag_319\n      jump\t// in\n    tag_318:\n        /* \"contracts/Shope.sol\":6250:6287  PurchaseHistory[] memory currentBuyer */\n      0x00\n        /* \"contracts/Shope.sol\":6290:6302  userPurchase */\n      0x01\n        /* \"contracts/Shope.sol\":6290:6310  userPurchase[_buyer] */\n      0x00\n        /* \"contracts/Shope.sol\":6303:6309  _buyer */\n      dup5\n        /* \"contracts/Shope.sol\":6290:6310  userPurchase[_buyer] */\n      0xffffffffffffffffffffffffffffffffffffffff\n      and\n      0xffffffffffffffffffffffffffffffffffffffff\n      and\n      dup2\n      mstore\n      0x20\n      add\n      swap1\n      dup2\n      mstore\n      0x20\n      add\n      0x00\n      keccak256\n        /* \"contracts/Shope.sol\":6250:6310  PurchaseHistory[] memory currentBuyer = userPurchase[_buyer] */\n      dup1\n      sload\n      dup1\n      0x20\n      mul\n      0x20\n      add\n      mload(0x40)\n      swap1\n      dup2\n      add\n      0x40\n      mstore\n      dup1\n      swap3\n      swap2\n      swap1\n      dup2\n      dup2\n      mstore\n      0x20\n      add\n      0x00\n      swap1\n    tag_321:\n      dup3\n      dup3\n      lt\n      iszero\n      tag_322\n      jumpi\n      dup4\n      dup3\n      swap1\n      0x00\n      mstore\n      keccak256(0x00, 0x20)\n      swap1\n      0x03\n      mul\n      add\n      mload(0x40)\n      dup1\n      0x60\n      add\n      0x40\n      mstore\n      swap1\n      dup2\n      0x00\n      dup3\n      add\n      0x00\n      swap1\n      sload\n      swap1\n      0x0100\n      exp\n      swap1\n      div\n      0xffffffffffffffffffffffffffffffffffffffff\n      and\n      0xffffffffffffffffffffffffffffffffffffffff\n      and\n      0xffffffffffffffffffffffffffffffffffffffff\n      and\n      dup2\n      mstore\n      0x20\n      add\n      0x01\n      dup3\n      add\n      sload\n      dup2\n      mstore\n      0x20\n      add\n      0x02\n      dup3\n      add\n      sload\n      dup2\n      mstore\n      pop\n      pop\n      dup2\n      mstore\n      0x20\n      add\n      swap1\n      0x01\n      add\n      swap1\n      jump(tag_321)\n    tag_322:\n      pop\n      pop\n      pop\n      pop\n      swap1\n      pop\n        /* \"contracts/Shope.sol\":6327:6339  currentBuyer */\n      dup1\n        /* \"contracts/Shope.sol\":6362:6363  1 */\n      0x01\n        /* \"contracts/Shope.sol\":6340:6352  currentBuyer */\n      dup3\n        /* \"contracts/Shope.sol\":6340:6359  currentBuyer.length */\n      mload\n        /* \"contracts/Shope.sol\":6340:6363  currentBuyer.length - 1 */\n      tag_324\n      swap2\n      swap1\n      tag_179\n      jump\t// in\n    tag_324:\n        /* \"contracts/Shope.sol\":6327:6364  currentBuyer[currentBuyer.length - 1] */\n      dup2\n      mload\n      dup2\n      lt\n      tag_325\n      jumpi\n      tag_326\n      tag_156\n      jump\t// in\n    tag_326:\n    tag_325:\n      0x20\n      mul\n      0x20\n      add\n      add\n      mload\n        /* \"contracts/Shope.sol\":6320:6364  return currentBuyer[currentBuyer.length - 1] */\n      swap2\n      pop\n      pop\n        /* \"contracts/Shope.sol\":6124:6371  function getLastPurchase(address _buyer)... */\n      swap2\n      swap1\n      pop\n      jump\t// out\n        /* \"@openzeppelin/contracts/utils/Context.sol\":656:752  function _msgSender() internal view virtual returns (address) {... */\n    tag_277:\n        /* \"@openzeppelin/contracts/utils/Context.sol\":709:716  address */\n      0x00\n        /* \"@openzeppelin/contracts/utils/Context.sol\":735:745  msg.sender */\n      caller\n        /* \"@openzeppelin/contracts/utils/Context.sol\":728:745  return msg.sender */\n      swap1\n      pop\n        /* \"@openzeppelin/contracts/utils/Context.sol\":656:752  function _msgSender() internal view virtual returns (address) {... */\n      swap1\n      jump\t// out\n        /* \"contracts/Shope.sol\":5265:5440  function setPurchaseHistory(address buyer, uint256 _totalAmout) internal {... */\n    tag_308:\n        /* \"contracts/Shope.sol\":5348:5358  purchaseId */\n      0x06\n      0x00\n        /* \"contracts/Shope.sol\":5348:5360  purchaseId++ */\n      dup2\n      sload\n      dup1\n      swap3\n      swap2\n      swap1\n      tag_329\n      swap1\n      tag_330\n      jump\t// in\n    tag_329:\n      swap2\n      swap1\n      pop\n      sstore\n      pop\n        /* \"contracts/Shope.sol\":5370:5379  purchases */\n      0x05\n        /* \"contracts/Shope.sol\":5385:5432  PurchaseHistory(buyer, purchaseId, _totalAmout) */\n      mload(0x40)\n      dup1\n      0x60\n      add\n      0x40\n      mstore\n      dup1\n        /* \"contracts/Shope.sol\":5401:5406  buyer */\n      dup5\n        /* \"contracts/Shope.sol\":5385:5432  PurchaseHistory(buyer, purchaseId, _totalAmout) */\n      0xffffffffffffffffffffffffffffffffffffffff\n      and\n      dup2\n      mstore\n      0x20\n      add\n        /* \"contracts/Shope.sol\":5408:5418  purchaseId */\n      sload(0x06)\n        /* \"contracts/Shope.sol\":5385:5432  PurchaseHistory(buyer, purchaseId, _totalAmout) */\n      dup2\n      mstore\n      0x20\n      add\n        /* \"contracts/Shope.sol\":5420:5431  _totalAmout */\n      dup4\n        /* \"contracts/Shope.sol\":5385:5432  PurchaseHistory(buyer, purchaseId, _totalAmout) */\n      dup2\n      mstore\n      pop\n        /* \"contracts/Shope.sol\":5370:5433  purchases.push(PurchaseHistory(buyer, purchaseId, _totalAmout)) */\n      swap1\n      dup1\n      0x01\n      dup2\n      sload\n      add\n      dup1\n      dup3\n      sstore\n      dup1\n      swap2\n      pop\n      pop\n      0x01\n      swap1\n      sub\n      swap1\n      0x00\n      mstore\n      keccak256(0x00, 0x20)\n      swap1\n      0x03\n      mul\n      add\n      0x00\n      swap1\n      swap2\n      swap1\n      swap2\n      swap1\n      swap2\n      pop\n      0x00\n      dup3\n      add\n      mload\n      dup2\n      0x00\n      add\n      exp(0x0100, 0x00)\n      dup2\n      sload\n      dup2\n      0xffffffffffffffffffffffffffffffffffffffff\n      mul\n      not\n      and\n      swap1\n      dup4\n      0xffffffffffffffffffffffffffffffffffffffff\n      and\n      mul\n      or\n      swap1\n      sstore\n      pop\n      0x20\n      dup3\n      add\n      mload\n      dup2\n      0x01\n      add\n      sstore\n      0x40\n      dup3\n      add\n      mload\n      dup2\n      0x02\n      add\n      sstore\n      pop\n      pop\n        /* \"contracts/Shope.sol\":5265:5440  function setPurchaseHistory(address buyer, uint256 _totalAmout) internal {... */\n      pop\n      pop\n      jump\t// out\n    tag_214:\n      dup3\n      dup1\n      sload\n      dup3\n      dup3\n      sstore\n      swap1\n      0x00\n      mstore\n      keccak256(0x00, 0x20)\n      swap1\n      0x03\n      mul\n      dup2\n      add\n      swap3\n      dup3\n      iszero\n      tag_332\n      jumpi\n      0x00\n      mstore\n      keccak256(0x00, 0x20)\n      swap2\n      0x03\n      mul\n      dup3\n      add\n    tag_333:\n      dup3\n      dup2\n      gt\n      iszero\n      tag_334\n      jumpi\n      dup3\n      dup3\n      0x00\n      dup3\n      add\n      0x00\n      swap1\n      sload\n      swap1\n      0x0100\n      exp\n      swap1\n      div\n      0xffffffffffffffffffffffffffffffffffffffff\n      and\n      dup2\n      0x00\n      add\n      exp(0x0100, 0x00)\n      dup2\n      sload\n      dup2\n      0xffffffffffffffffffffffffffffffffffffffff\n      mul\n      not\n      and\n      swap1\n      dup4\n      0xffffffffffffffffffffffffffffffffffffffff\n      and\n      mul\n      or\n      swap1\n      sstore\n      pop\n      0x01\n      dup3\n      add\n      sload\n      dup2\n      0x01\n      add\n      sstore\n      0x02\n      dup3\n      add\n      sload\n      dup2\n      0x02\n      add\n      sstore\n      pop\n      pop\n      swap2\n      0x03\n      add\n      swap2\n      swap1\n      0x03\n      add\n      swap1\n      jump(tag_333)\n    tag_334:\n    tag_332:\n      pop\n      swap1\n      pop\n      tag_335\n      swap2\n      swap1\n      tag_336\n      jump\t// in\n    tag_335:\n      pop\n      swap1\n      jump\t// out\n    tag_259:\n      pop\n      dup1\n      sload\n      tag_337\n      swap1\n      tag_220\n      jump\t// in\n    tag_337:\n      0x00\n      dup3\n      sstore\n      dup1\n      0x1f\n      lt\n      tag_339\n      jumpi\n      pop\n      jump(tag_338)\n    tag_339:\n      0x1f\n      add\n      0x20\n      swap1\n      div\n      swap1\n      0x00\n      mstore\n      keccak256(0x00, 0x20)\n      swap1\n      dup2\n      add\n      swap1\n      tag_340\n      swap2\n      swap1\n      tag_341\n      jump\t// in\n    tag_340:\n    tag_338:\n      pop\n      jump\t// out\n    tag_319:\n      mload(0x40)\n      dup1\n      0x60\n      add\n      0x40\n      mstore\n      dup1\n      and(0xffffffffffffffffffffffffffffffffffffffff, 0x00)\n      dup2\n      mstore\n      0x20\n      add\n      0x00\n      dup2\n      mstore\n      0x20\n      add\n      0x00\n      dup2\n      mstore\n      pop\n      swap1\n      jump\t// out\n    tag_336:\n    tag_342:\n      dup1\n      dup3\n      gt\n      iszero\n      tag_343\n      jumpi\n      0x00\n      0x00\n      dup3\n      add\n      exp(0x0100, 0x00)\n      dup2\n      sload\n      swap1\n      0xffffffffffffffffffffffffffffffffffffffff\n      mul\n      not\n      and\n      swap1\n      sstore\n      0x01\n      dup3\n      add\n      0x00\n      swap1\n      sstore\n      0x02\n      dup3\n      add\n      0x00\n      swap1\n      sstore\n      pop\n      0x03\n      add\n      jump(tag_342)\n    tag_343:\n      pop\n      swap1\n      jump\t// out\n    tag_341:\n    tag_344:\n      dup1\n      dup3\n      gt\n      iszero\n      tag_345\n      jumpi\n      0x00\n      dup2\n      0x00\n      swap1\n      sstore\n      pop\n      0x01\n      add\n      jump(tag_344)\n    tag_345:\n      pop\n      swap1\n      jump\t// out\n        /* \"#utility.yul\":88:205   */\n    tag_347:\n        /* \"#utility.yul\":197:198   */\n      0x00\n        /* \"#utility.yul\":194:195   */\n      0x00\n        /* \"#utility.yul\":187:199   */\n      revert\n        /* \"#utility.yul\":211:328   */\n    tag_348:\n        /* \"#utility.yul\":320:321   */\n      0x00\n        /* \"#utility.yul\":317:318   */\n      0x00\n        /* \"#utility.yul\":310:322   */\n      revert\n        /* \"#utility.yul\":334:451   */\n    tag_349:\n        /* \"#utility.yul\":443:444   */\n      0x00\n        /* \"#utility.yul\":440:441   */\n      0x00\n        /* \"#utility.yul\":433:445   */\n      revert\n        /* \"#utility.yul\":457:574   */\n    tag_350:\n        /* \"#utility.yul\":566:567   */\n      0x00\n        /* \"#utility.yul\":563:564   */\n      0x00\n        /* \"#utility.yul\":556:568   */\n      revert\n        /* \"#utility.yul\":580:697   */\n    tag_351:\n        /* \"#utility.yul\":689:690   */\n      0x00\n        /* \"#utility.yul\":686:687   */\n      0x00\n        /* \"#utility.yul\":679:691   */\n      revert\n        /* \"#utility.yul\":717:1270   */\n    tag_352:\n        /* \"#utility.yul\":775:783   */\n      0x00\n        /* \"#utility.yul\":785:791   */\n      0x00\n        /* \"#utility.yul\":835:838   */\n      dup4\n        /* \"#utility.yul\":828:832   */\n      0x1f\n        /* \"#utility.yul\":820:826   */\n      dup5\n        /* \"#utility.yul\":816:833   */\n      add\n        /* \"#utility.yul\":812:839   */\n      slt\n        /* \"#utility.yul\":802:924   */\n      tag_408\n      jumpi\n        /* \"#utility.yul\":843:922   */\n      tag_409\n      tag_349\n      jump\t// in\n    tag_409:\n        /* \"#utility.yul\":802:924   */\n    tag_408:\n        /* \"#utility.yul\":956:962   */\n      dup3\n        /* \"#utility.yul\":943:963   */\n      calldataload\n        /* \"#utility.yul\":933:963   */\n      swap1\n      pop\n        /* \"#utility.yul\":986:1004   */\n      0xffffffffffffffff\n        /* \"#utility.yul\":978:984   */\n      dup2\n        /* \"#utility.yul\":975:1005   */\n      gt\n        /* \"#utility.yul\":972:1089   */\n      iszero\n      tag_410\n      jumpi\n        /* \"#utility.yul\":1008:1087   */\n      tag_411\n      tag_350\n      jump\t// in\n    tag_411:\n        /* \"#utility.yul\":972:1089   */\n    tag_410:\n        /* \"#utility.yul\":1122:1126   */\n      0x20\n        /* \"#utility.yul\":1114:1120   */\n      dup4\n        /* \"#utility.yul\":1110:1127   */\n      add\n        /* \"#utility.yul\":1098:1127   */\n      swap2\n      pop\n        /* \"#utility.yul\":1176:1179   */\n      dup4\n        /* \"#utility.yul\":1168:1172   */\n      0x01\n        /* \"#utility.yul\":1160:1166   */\n      dup3\n        /* \"#utility.yul\":1156:1173   */\n      mul\n        /* \"#utility.yul\":1146:1154   */\n      dup4\n        /* \"#utility.yul\":1142:1174   */\n      add\n        /* \"#utility.yul\":1139:1180   */\n      gt\n        /* \"#utility.yul\":1136:1264   */\n      iszero\n      tag_412\n      jumpi\n        /* \"#utility.yul\":1183:1262   */\n      tag_413\n      tag_351\n      jump\t// in\n    tag_413:\n        /* \"#utility.yul\":1136:1264   */\n    tag_412:\n        /* \"#utility.yul\":717:1270   */\n      swap3\n      pop\n      swap3\n      swap1\n      pop\n      jump\t// out\n        /* \"#utility.yul\":1276:1353   */\n    tag_353:\n        /* \"#utility.yul\":1313:1320   */\n      0x00\n        /* \"#utility.yul\":1342:1347   */\n      dup2\n        /* \"#utility.yul\":1331:1347   */\n      swap1\n      pop\n        /* \"#utility.yul\":1276:1353   */\n      swap2\n      swap1\n      pop\n      jump\t// out\n        /* \"#utility.yul\":1359:1481   */\n    tag_354:\n        /* \"#utility.yul\":1432:1456   */\n      tag_416\n        /* \"#utility.yul\":1450:1455   */\n      dup2\n        /* \"#utility.yul\":1432:1456   */\n      tag_353\n      jump\t// in\n    tag_416:\n        /* \"#utility.yul\":1425:1430   */\n      dup2\n        /* \"#utility.yul\":1422:1457   */\n      eq\n        /* \"#utility.yul\":1412:1475   */\n      tag_417\n      jumpi\n        /* \"#utility.yul\":1471:1472   */\n      0x00\n        /* \"#utility.yul\":1468:1469   */\n      0x00\n        /* \"#utility.yul\":1461:1473   */\n      revert\n        /* \"#utility.yul\":1412:1475   */\n    tag_417:\n        /* \"#utility.yul\":1359:1481   */\n      pop\n      jump\t// out\n        /* \"#utility.yul\":1487:1626   */\n    tag_355:\n        /* \"#utility.yul\":1533:1538   */\n      0x00\n        /* \"#utility.yul\":1571:1577   */\n      dup2\n        /* \"#utility.yul\":1558:1578   */\n      calldataload\n        /* \"#utility.yul\":1549:1578   */\n      swap1\n      pop\n        /* \"#utility.yul\":1587:1620   */\n      tag_419\n        /* \"#utility.yul\":1614:1619   */\n      dup2\n        /* \"#utility.yul\":1587:1620   */\n      tag_354\n      jump\t// in\n    tag_419:\n        /* \"#utility.yul\":1487:1626   */\n      swap3\n      swap2\n      pop\n      pop\n      jump\t// out\n        /* \"#utility.yul\":1632:2597   */\n    tag_28:\n        /* \"#utility.yul\":1730:1736   */\n      0x00\n        /* \"#utility.yul\":1738:1744   */\n      0x00\n        /* \"#utility.yul\":1746:1752   */\n      0x00\n        /* \"#utility.yul\":1754:1760   */\n      0x00\n        /* \"#utility.yul\":1762:1768   */\n      0x00\n        /* \"#utility.yul\":1811:1814   */\n      0x80\n        /* \"#utility.yul\":1799:1808   */\n      dup7\n        /* \"#utility.yul\":1790:1797   */\n      dup9\n        /* \"#utility.yul\":1786:1809   */\n      sub\n        /* \"#utility.yul\":1782:1815   */\n      slt\n        /* \"#utility.yul\":1779:1899   */\n      iszero\n      tag_421\n      jumpi\n        /* \"#utility.yul\":1818:1897   */\n      tag_422\n      tag_347\n      jump\t// in\n    tag_422:\n        /* \"#utility.yul\":1779:1899   */\n    tag_421:\n        /* \"#utility.yul\":1966:1967   */\n      0x00\n        /* \"#utility.yul\":1955:1964   */\n      dup7\n        /* \"#utility.yul\":1951:1968   */\n      add\n        /* \"#utility.yul\":1938:1969   */\n      calldataload\n        /* \"#utility.yul\":1996:2014   */\n      0xffffffffffffffff\n        /* \"#utility.yul\":1988:1994   */\n      dup2\n        /* \"#utility.yul\":1985:2015   */\n      gt\n        /* \"#utility.yul\":1982:2099   */\n      iszero\n      tag_423\n      jumpi\n        /* \"#utility.yul\":2018:2097   */\n      tag_424\n      tag_348\n      jump\t// in\n    tag_424:\n        /* \"#utility.yul\":1982:2099   */\n    tag_423:\n        /* \"#utility.yul\":2131:2196   */\n      tag_425\n        /* \"#utility.yul\":2188:2195   */\n      dup9\n        /* \"#utility.yul\":2179:2185   */\n      dup3\n        /* \"#utility.yul\":2168:2177   */\n      dup10\n        /* \"#utility.yul\":2164:2186   */\n      add\n        /* \"#utility.yul\":2131:2196   */\n      tag_352\n      jump\t// in\n    tag_425:\n        /* \"#utility.yul\":2113:2196   */\n      swap6\n      pop\n      swap6\n      pop\n        /* \"#utility.yul\":1909:2206   */\n      pop\n        /* \"#utility.yul\":2245:2247   */\n      0x20\n        /* \"#utility.yul\":2271:2324   */\n      tag_426\n        /* \"#utility.yul\":2316:2323   */\n      dup9\n        /* \"#utility.yul\":2307:2313   */\n      dup3\n        /* \"#utility.yul\":2296:2305   */\n      dup10\n        /* \"#utility.yul\":2292:2314   */\n      add\n        /* \"#utility.yul\":2271:2324   */\n      tag_355\n      jump\t// in\n    tag_426:\n        /* \"#utility.yul\":2261:2324   */\n      swap4\n      pop\n        /* \"#utility.yul\":2216:2334   */\n      pop\n        /* \"#utility.yul\":2373:2375   */\n      0x40\n        /* \"#utility.yul\":2399:2452   */\n      tag_427\n        /* \"#utility.yul\":2444:2451   */\n      dup9\n        /* \"#utility.yul\":2435:2441   */\n      dup3\n        /* \"#utility.yul\":2424:2433   */\n      dup10\n        /* \"#utility.yul\":2420:2442   */\n      add\n        /* \"#utility.yul\":2399:2452   */\n      tag_355\n      jump\t// in\n    tag_427:\n        /* \"#utility.yul\":2389:2452   */\n      swap3\n      pop\n        /* \"#utility.yul\":2344:2462   */\n      pop\n        /* \"#utility.yul\":2501:2503   */\n      0x60\n        /* \"#utility.yul\":2527:2580   */\n      tag_428\n        /* \"#utility.yul\":2572:2579   */\n      dup9\n        /* \"#utility.yul\":2563:2569   */\n      dup3\n        /* \"#utility.yul\":2552:2561   */\n      dup10\n        /* \"#utility.yul\":2548:2570   */\n      add\n        /* \"#utility.yul\":2527:2580   */\n      tag_355\n      jump\t// in\n    tag_428:\n        /* \"#utility.yul\":2517:2580   */\n      swap2\n      pop\n        /* \"#utility.yul\":2472:2590   */\n      pop\n        /* \"#utility.yul\":1632:2597   */\n      swap3\n      swap6\n      pop\n      swap3\n      swap6\n      swap1\n      swap4\n      pop\n      jump\t// out\n        /* \"#utility.yul\":2603:2932   */\n    tag_33:\n        /* \"#utility.yul\":2662:2668   */\n      0x00\n        /* \"#utility.yul\":2711:2713   */\n      0x20\n        /* \"#utility.yul\":2699:2708   */\n      dup3\n        /* \"#utility.yul\":2690:2697   */\n      dup5\n        /* \"#utility.yul\":2686:2709   */\n      sub\n        /* \"#utility.yul\":2682:2714   */\n      slt\n        /* \"#utility.yul\":2679:2798   */\n      iszero\n      tag_430\n      jumpi\n        /* \"#utility.yul\":2717:2796   */\n      tag_431\n      tag_347\n      jump\t// in\n    tag_431:\n        /* \"#utility.yul\":2679:2798   */\n    tag_430:\n        /* \"#utility.yul\":2837:2838   */\n      0x00\n        /* \"#utility.yul\":2862:2915   */\n      tag_432\n        /* \"#utility.yul\":2907:2914   */\n      dup5\n        /* \"#utility.yul\":2898:2904   */\n      dup3\n        /* \"#utility.yul\":2887:2896   */\n      dup6\n        /* \"#utility.yul\":2883:2905   */\n      add\n        /* \"#utility.yul\":2862:2915   */\n      tag_355\n      jump\t// in\n    tag_432:\n        /* \"#utility.yul\":2852:2915   */\n      swap2\n      pop\n        /* \"#utility.yul\":2808:2925   */\n      pop\n        /* \"#utility.yul\":2603:2932   */\n      swap3\n      swap2\n      pop\n      pop\n      jump\t// out\n        /* \"#utility.yul\":2938:3056   */\n    tag_356:\n        /* \"#utility.yul\":3025:3049   */\n      tag_434\n        /* \"#utility.yul\":3043:3048   */\n      dup2\n        /* \"#utility.yul\":3025:3049   */\n      tag_353\n      jump\t// in\n    tag_434:\n        /* \"#utility.yul\":3020:3023   */\n      dup3\n        /* \"#utility.yul\":3013:3050   */\n      mstore\n        /* \"#utility.yul\":2938:3056   */\n      pop\n      pop\n      jump\t// out\n        /* \"#utility.yul\":3062:3284   */\n    tag_36:\n        /* \"#utility.yul\":3155:3159   */\n      0x00\n        /* \"#utility.yul\":3193:3195   */\n      0x20\n        /* \"#utility.yul\":3182:3191   */\n      dup3\n        /* \"#utility.yul\":3178:3196   */\n      add\n        /* \"#utility.yul\":3170:3196   */\n      swap1\n      pop\n        /* \"#utility.yul\":3206:3277   */\n      tag_436\n        /* \"#utility.yul\":3274:3275   */\n      0x00\n        /* \"#utility.yul\":3263:3272   */\n      dup4\n        /* \"#utility.yul\":3259:3276   */\n      add\n        /* \"#utility.yul\":3250:3256   */\n      dup5\n        /* \"#utility.yul\":3206:3277   */\n      tag_356\n      jump\t// in\n    tag_436:\n        /* \"#utility.yul\":3062:3284   */\n      swap3\n      swap2\n      pop\n      pop\n      jump\t// out\n        /* \"#utility.yul\":3290:3416   */\n    tag_357:\n        /* \"#utility.yul\":3327:3334   */\n      0x00\n        /* \"#utility.yul\":3367:3409   */\n      0xffffffffffffffffffffffffffffffffffffffff\n        /* \"#utility.yul\":3360:3365   */\n      dup3\n        /* \"#utility.yul\":3356:3410   */\n      and\n        /* \"#utility.yul\":3345:3410   */\n      swap1\n      pop\n        /* \"#utility.yul\":3290:3416   */\n      swap2\n      swap1\n      pop\n      jump\t// out\n        /* \"#utility.yul\":3422:3518   */\n    tag_358:\n        /* \"#utility.yul\":3459:3466   */\n      0x00\n        /* \"#utility.yul\":3488:3512   */\n      tag_439\n        /* \"#utility.yul\":3506:3511   */\n      dup3\n        /* \"#utility.yul\":3488:3512   */\n      tag_357\n      jump\t// in\n    tag_439:\n        /* \"#utility.yul\":3477:3512   */\n      swap1\n      pop\n        /* \"#utility.yul\":3422:3518   */\n      swap2\n      swap1\n      pop\n      jump\t// out\n        /* \"#utility.yul\":3524:3642   */\n    tag_359:\n        /* \"#utility.yul\":3611:3635   */\n      tag_441\n        /* \"#utility.yul\":3629:3634   */\n      dup2\n        /* \"#utility.yul\":3611:3635   */\n      tag_358\n      jump\t// in\n    tag_441:\n        /* \"#utility.yul\":3606:3609   */\n      dup3\n        /* \"#utility.yul\":3599:3636   */\n      mstore\n        /* \"#utility.yul\":3524:3642   */\n      pop\n      pop\n      jump\t// out\n        /* \"#utility.yul\":3648:4090   */\n    tag_45:\n        /* \"#utility.yul\":3797:3801   */\n      0x00\n        /* \"#utility.yul\":3835:3837   */\n      0x60\n        /* \"#utility.yul\":3824:3833   */\n      dup3\n        /* \"#utility.yul\":3820:3838   */\n      add\n        /* \"#utility.yul\":3812:3838   */\n      swap1\n      pop\n        /* \"#utility.yul\":3848:3919   */\n      tag_443\n        /* \"#utility.yul\":3916:3917   */\n      0x00\n        /* \"#utility.yul\":3905:3914   */\n      dup4\n        /* \"#utility.yul\":3901:3918   */\n      add\n        /* \"#utility.yul\":3892:3898   */\n      dup7\n        /* \"#utility.yul\":3848:3919   */\n      tag_359\n      jump\t// in\n    tag_443:\n        /* \"#utility.yul\":3929:4001   */\n      tag_444\n        /* \"#utility.yul\":3997:3999   */\n      0x20\n        /* \"#utility.yul\":3986:3995   */\n      dup4\n        /* \"#utility.yul\":3982:4000   */\n      add\n        /* \"#utility.yul\":3973:3979   */\n      dup6\n        /* \"#utility.yul\":3929:4001   */\n      tag_356\n      jump\t// in\n    tag_444:\n        /* \"#utility.yul\":4011:4083   */\n      tag_445\n        /* \"#utility.yul\":4079:4081   */\n      0x40\n        /* \"#utility.yul\":4068:4077   */\n      dup4\n        /* \"#utility.yul\":4064:4082   */\n      add\n        /* \"#utility.yul\":4055:4061   */\n      dup5\n        /* \"#utility.yul\":4011:4083   */\n      tag_356\n      jump\t// in\n    tag_445:\n        /* \"#utility.yul\":3648:4090   */\n      swap5\n      swap4\n      pop\n      pop\n      pop\n      pop\n      jump\t// out\n        /* \"#utility.yul\":4096:4218   */\n    tag_360:\n        /* \"#utility.yul\":4169:4193   */\n      tag_447\n        /* \"#utility.yul\":4187:4192   */\n      dup2\n        /* \"#utility.yul\":4169:4193   */\n      tag_358\n      jump\t// in\n    tag_447:\n        /* \"#utility.yul\":4162:4167   */\n      dup2\n        /* \"#utility.yul\":4159:4194   */\n      eq\n        /* \"#utility.yul\":4149:4212   */\n      tag_448\n      jumpi\n        /* \"#utility.yul\":4208:4209   */\n      0x00\n        /* \"#utility.yul\":4205:4206   */\n      0x00\n        /* \"#utility.yul\":4198:4210   */\n      revert\n        /* \"#utility.yul\":4149:4212   */\n    tag_448:\n        /* \"#utility.yul\":4096:4218   */\n      pop\n      jump\t// out\n        /* \"#utility.yul\":4224:4363   */\n    tag_361:\n        /* \"#utility.yul\":4270:4275   */\n      0x00\n        /* \"#utility.yul\":4308:4314   */\n      dup2\n        /* \"#utility.yul\":4295:4315   */\n      calldataload\n        /* \"#utility.yul\":4286:4315   */\n      swap1\n      pop\n        /* \"#utility.yul\":4324:4357   */\n      tag_450\n        /* \"#utility.yul\":4351:4356   */\n      dup2\n        /* \"#utility.yul\":4324:4357   */\n      tag_360\n      jump\t// in\n    tag_450:\n        /* \"#utility.yul\":4224:4363   */\n      swap3\n      swap2\n      pop\n      pop\n      jump\t// out\n        /* \"#utility.yul\":4369:4843   */\n    tag_49:\n        /* \"#utility.yul\":4437:4443   */\n      0x00\n        /* \"#utility.yul\":4445:4451   */\n      0x00\n        /* \"#utility.yul\":4494:4496   */\n      0x40\n        /* \"#utility.yul\":4482:4491   */\n      dup4\n        /* \"#utility.yul\":4473:4480   */\n      dup6\n        /* \"#utility.yul\":4469:4492   */\n      sub\n        /* \"#utility.yul\":4465:4497   */\n      slt\n        /* \"#utility.yul\":4462:4581   */\n      iszero\n      tag_452\n      jumpi\n        /* \"#utility.yul\":4500:4579   */\n      tag_453\n      tag_347\n      jump\t// in\n    tag_453:\n        /* \"#utility.yul\":4462:4581   */\n    tag_452:\n        /* \"#utility.yul\":4620:4621   */\n      0x00\n        /* \"#utility.yul\":4645:4698   */\n      tag_454\n        /* \"#utility.yul\":4690:4697   */\n      dup6\n        /* \"#utility.yul\":4681:4687   */\n      dup3\n        /* \"#utility.yul\":4670:4679   */\n      dup7\n        /* \"#utility.yul\":4666:4688   */\n      add\n        /* \"#utility.yul\":4645:4698   */\n      tag_361\n      jump\t// in\n    tag_454:\n        /* \"#utility.yul\":4635:4698   */\n      swap3\n      pop\n        /* \"#utility.yul\":4591:4708   */\n      pop\n        /* \"#utility.yul\":4747:4749   */\n      0x20\n        /* \"#utility.yul\":4773:4826   */\n      tag_455\n        /* \"#utility.yul\":4818:4825   */\n      dup6\n        /* \"#utility.yul\":4809:4815   */\n      dup3\n        /* \"#utility.yul\":4798:4807   */\n      dup7\n        /* \"#utility.yul\":4794:4816   */\n      add\n        /* \"#utility.yul\":4773:4826   */\n      tag_355\n      jump\t// in\n    tag_455:\n        /* \"#utility.yul\":4763:4826   */\n      swap2\n      pop\n        /* \"#utility.yul\":4718:4836   */\n      pop\n        /* \"#utility.yul\":4369:4843   */\n      swap3\n      pop\n      swap3\n      swap1\n      pop\n      jump\t// out\n        /* \"#utility.yul\":4866:5434   */\n    tag_362:\n        /* \"#utility.yul\":4939:4947   */\n      0x00\n        /* \"#utility.yul\":4949:4955   */\n      0x00\n        /* \"#utility.yul\":4999:5002   */\n      dup4\n        /* \"#utility.yul\":4992:4996   */\n      0x1f\n        /* \"#utility.yul\":4984:4990   */\n      dup5\n        /* \"#utility.yul\":4980:4997   */\n      add\n        /* \"#utility.yul\":4976:5003   */\n      slt\n        /* \"#utility.yul\":4966:5088   */\n      tag_457\n      jumpi\n        /* \"#utility.yul\":5007:5086   */\n      tag_458\n      tag_349\n      jump\t// in\n    tag_458:\n        /* \"#utility.yul\":4966:5088   */\n    tag_457:\n        /* \"#utility.yul\":5120:5126   */\n      dup3\n        /* \"#utility.yul\":5107:5127   */\n      calldataload\n        /* \"#utility.yul\":5097:5127   */\n      swap1\n      pop\n        /* \"#utility.yul\":5150:5168   */\n      0xffffffffffffffff\n        /* \"#utility.yul\":5142:5148   */\n      dup2\n        /* \"#utility.yul\":5139:5169   */\n      gt\n        /* \"#utility.yul\":5136:5253   */\n      iszero\n      tag_459\n      jumpi\n        /* \"#utility.yul\":5172:5251   */\n      tag_460\n      tag_350\n      jump\t// in\n    tag_460:\n        /* \"#utility.yul\":5136:5253   */\n    tag_459:\n        /* \"#utility.yul\":5286:5290   */\n      0x20\n        /* \"#utility.yul\":5278:5284   */\n      dup4\n        /* \"#utility.yul\":5274:5291   */\n      add\n        /* \"#utility.yul\":5262:5291   */\n      swap2\n      pop\n        /* \"#utility.yul\":5340:5343   */\n      dup4\n        /* \"#utility.yul\":5332:5336   */\n      0x20\n        /* \"#utility.yul\":5324:5330   */\n      dup3\n        /* \"#utility.yul\":5320:5337   */\n      mul\n        /* \"#utility.yul\":5310:5318   */\n      dup4\n        /* \"#utility.yul\":5306:5338   */\n      add\n        /* \"#utility.yul\":5303:5344   */\n      gt\n        /* \"#utility.yul\":5300:5428   */\n      iszero\n      tag_461\n      jumpi\n        /* \"#utility.yul\":5347:5426   */\n      tag_462\n      tag_351\n      jump\t// in\n    tag_462:\n        /* \"#utility.yul\":5300:5428   */\n    tag_461:\n        /* \"#utility.yul\":4866:5434   */\n      swap3\n      pop\n      swap3\n      swap1\n      pop\n      jump\t// out\n        /* \"#utility.yul\":5440:6374   */\n    tag_57:\n        /* \"#utility.yul\":5562:5568   */\n      0x00\n        /* \"#utility.yul\":5570:5576   */\n      0x00\n        /* \"#utility.yul\":5578:5584   */\n      0x00\n        /* \"#utility.yul\":5586:5592   */\n      0x00\n        /* \"#utility.yul\":5635:5637   */\n      0x40\n        /* \"#utility.yul\":5623:5632   */\n      dup6\n        /* \"#utility.yul\":5614:5621   */\n      dup8\n        /* \"#utility.yul\":5610:5633   */\n      sub\n        /* \"#utility.yul\":5606:5638   */\n      slt\n        /* \"#utility.yul\":5603:5722   */\n      iszero\n      tag_464\n      jumpi\n        /* \"#utility.yul\":5641:5720   */\n      tag_465\n      tag_347\n      jump\t// in\n    tag_465:\n        /* \"#utility.yul\":5603:5722   */\n    tag_464:\n        /* \"#utility.yul\":5789:5790   */\n      0x00\n        /* \"#utility.yul\":5778:5787   */\n      dup6\n        /* \"#utility.yul\":5774:5791   */\n      add\n        /* \"#utility.yul\":5761:5792   */\n      calldataload\n        /* \"#utility.yul\":5819:5837   */\n      0xffffffffffffffff\n        /* \"#utility.yul\":5811:5817   */\n      dup2\n        /* \"#utility.yul\":5808:5838   */\n      gt\n        /* \"#utility.yul\":5805:5922   */\n      iszero\n      tag_466\n      jumpi\n        /* \"#utility.yul\":5841:5920   */\n      tag_467\n      tag_348\n      jump\t// in\n    tag_467:\n        /* \"#utility.yul\":5805:5922   */\n    tag_466:\n        /* \"#utility.yul\":5954:6034   */\n      tag_468\n        /* \"#utility.yul\":6026:6033   */\n      dup8\n        /* \"#utility.yul\":6017:6023   */\n      dup3\n        /* \"#utility.yul\":6006:6015   */\n      dup9\n        /* \"#utility.yul\":6002:6024   */\n      add\n        /* \"#utility.yul\":5954:6034   */\n      tag_362\n      jump\t// in\n    tag_468:\n        /* \"#utility.yul\":5936:6034   */\n      swap5\n      pop\n      swap5\n      pop\n        /* \"#utility.yul\":5732:6044   */\n      pop\n        /* \"#utility.yul\":6111:6113   */\n      0x20\n        /* \"#utility.yul\":6100:6109   */\n      dup6\n        /* \"#utility.yul\":6096:6114   */\n      add\n        /* \"#utility.yul\":6083:6115   */\n      calldataload\n        /* \"#utility.yul\":6142:6160   */\n      0xffffffffffffffff\n        /* \"#utility.yul\":6134:6140   */\n      dup2\n        /* \"#utility.yul\":6131:6161   */\n      gt\n        /* \"#utility.yul\":6128:6245   */\n      iszero\n      tag_469\n      jumpi\n        /* \"#utility.yul\":6164:6243   */\n      tag_470\n      tag_348\n      jump\t// in\n    tag_470:\n        /* \"#utility.yul\":6128:6245   */\n    tag_469:\n        /* \"#utility.yul\":6277:6357   */\n      tag_471\n        /* \"#utility.yul\":6349:6356   */\n      dup8\n        /* \"#utility.yul\":6340:6346   */\n      dup3\n        /* \"#utility.yul\":6329:6338   */\n      dup9\n        /* \"#utility.yul\":6325:6347   */\n      add\n        /* \"#utility.yul\":6277:6357   */\n      tag_362\n      jump\t// in\n    tag_471:\n        /* \"#utility.yul\":6259:6357   */\n      swap3\n      pop\n      swap3\n      pop\n        /* \"#utility.yul\":6054:6367   */\n      pop\n        /* \"#utility.yul\":5440:6374   */\n      swap3\n      swap6\n      swap2\n      swap5\n      pop\n      swap3\n      pop\n      jump\t// out\n        /* \"#utility.yul\":6380:6854   */\n    tag_62:\n        /* \"#utility.yul\":6448:6454   */\n      0x00\n        /* \"#utility.yul\":6456:6462   */\n      0x00\n        /* \"#utility.yul\":6505:6507   */\n      0x40\n        /* \"#utility.yul\":6493:6502   */\n      dup4\n        /* \"#utility.yul\":6484:6491   */\n      dup6\n        /* \"#utility.yul\":6480:6503   */\n      sub\n        /* \"#utility.yul\":6476:6508   */\n      slt\n        /* \"#utility.yul\":6473:6592   */\n      iszero\n      tag_473\n      jumpi\n        /* \"#utility.yul\":6511:6590   */\n      tag_474\n      tag_347\n      jump\t// in\n    tag_474:\n        /* \"#utility.yul\":6473:6592   */\n    tag_473:\n        /* \"#utility.yul\":6631:6632   */\n      0x00\n        /* \"#utility.yul\":6656:6709   */\n      tag_475\n        /* \"#utility.yul\":6701:6708   */\n      dup6\n        /* \"#utility.yul\":6692:6698   */\n      dup3\n        /* \"#utility.yul\":6681:6690   */\n      dup7\n        /* \"#utility.yul\":6677:6699   */\n      add\n        /* \"#utility.yul\":6656:6709   */\n      tag_355\n      jump\t// in\n    tag_475:\n        /* \"#utility.yul\":6646:6709   */\n      swap3\n      pop\n        /* \"#utility.yul\":6602:6719   */\n      pop\n        /* \"#utility.yul\":6758:6760   */\n      0x20\n        /* \"#utility.yul\":6784:6837   */\n      tag_476\n        /* \"#utility.yul\":6829:6836   */\n      dup6\n        /* \"#utility.yul\":6820:6826   */\n      dup3\n        /* \"#utility.yul\":6809:6818   */\n      dup7\n        /* \"#utility.yul\":6805:6827   */\n      add\n        /* \"#utility.yul\":6784:6837   */\n      tag_355\n      jump\t// in\n    tag_476:\n        /* \"#utility.yul\":6774:6837   */\n      swap2\n      pop\n        /* \"#utility.yul\":6729:6847   */\n      pop\n        /* \"#utility.yul\":6380:6854   */\n      swap3\n      pop\n      swap3\n      swap1\n      pop\n      jump\t// out\n        /* \"#utility.yul\":6860:7082   */\n    tag_73:\n        /* \"#utility.yul\":6953:6957   */\n      0x00\n        /* \"#utility.yul\":6991:6993   */\n      0x20\n        /* \"#utility.yul\":6980:6989   */\n      dup3\n        /* \"#utility.yul\":6976:6994   */\n      add\n        /* \"#utility.yul\":6968:6994   */\n      swap1\n      pop\n        /* \"#utility.yul\":7004:7075   */\n      tag_478\n        /* \"#utility.yul\":7072:7073   */\n      0x00\n        /* \"#utility.yul\":7061:7070   */\n      dup4\n        /* \"#utility.yul\":7057:7074   */\n      add\n        /* \"#utility.yul\":7048:7054   */\n      dup5\n        /* \"#utility.yul\":7004:7075   */\n      tag_359\n      jump\t// in\n    tag_478:\n        /* \"#utility.yul\":6860:7082   */\n      swap3\n      swap2\n      pop\n      pop\n      jump\t// out\n        /* \"#utility.yul\":7088:7417   */\n    tag_85:\n        /* \"#utility.yul\":7147:7153   */\n      0x00\n        /* \"#utility.yul\":7196:7198   */\n      0x20\n        /* \"#utility.yul\":7184:7193   */\n      dup3\n        /* \"#utility.yul\":7175:7182   */\n      dup5\n        /* \"#utility.yul\":7171:7194   */\n      sub\n        /* \"#utility.yul\":7167:7199   */\n      slt\n        /* \"#utility.yul\":7164:7283   */\n      iszero\n      tag_480\n      jumpi\n        /* \"#utility.yul\":7202:7281   */\n      tag_481\n      tag_347\n      jump\t// in\n    tag_481:\n        /* \"#utility.yul\":7164:7283   */\n    tag_480:\n        /* \"#utility.yul\":7322:7323   */\n      0x00\n        /* \"#utility.yul\":7347:7400   */\n      tag_482\n        /* \"#utility.yul\":7392:7399   */\n      dup5\n        /* \"#utility.yul\":7383:7389   */\n      dup3\n        /* \"#utility.yul\":7372:7381   */\n      dup6\n        /* \"#utility.yul\":7368:7390   */\n      add\n        /* \"#utility.yul\":7347:7400   */\n      tag_361\n      jump\t// in\n    tag_482:\n        /* \"#utility.yul\":7337:7400   */\n      swap2\n      pop\n        /* \"#utility.yul\":7293:7410   */\n      pop\n        /* \"#utility.yul\":7088:7417   */\n      swap3\n      swap2\n      pop\n      pop\n      jump\t// out\n        /* \"#utility.yul\":7423:7561   */\n    tag_363:\n        /* \"#utility.yul\":7514:7520   */\n      0x00\n        /* \"#utility.yul\":7548:7553   */\n      dup2\n        /* \"#utility.yul\":7542:7554   */\n      mload\n        /* \"#utility.yul\":7532:7554   */\n      swap1\n      pop\n        /* \"#utility.yul\":7423:7561   */\n      swap2\n      swap1\n      pop\n      jump\t// out\n        /* \"#utility.yul\":7567:7775   */\n    tag_364:\n        /* \"#utility.yul\":7690:7701   */\n      0x00\n        /* \"#utility.yul\":7724:7730   */\n      dup3\n        /* \"#utility.yul\":7719:7722   */\n      dup3\n        /* \"#utility.yul\":7712:7731   */\n      mstore\n        /* \"#utility.yul\":7764:7768   */\n      0x20\n        /* \"#utility.yul\":7759:7762   */\n      dup3\n        /* \"#utility.yul\":7755:7769   */\n      add\n        /* \"#utility.yul\":7740:7769   */\n      swap1\n      pop\n        /* \"#utility.yul\":7567:7775   */\n      swap3\n      swap2\n      pop\n      pop\n      jump\t// out\n        /* \"#utility.yul\":7781:7937   */\n    tag_365:\n        /* \"#utility.yul\":7872:7876   */\n      0x00\n        /* \"#utility.yul\":7895:7898   */\n      dup2\n        /* \"#utility.yul\":7887:7898   */\n      swap1\n      pop\n        /* \"#utility.yul\":7925:7929   */\n      0x20\n        /* \"#utility.yul\":7920:7923   */\n      dup3\n        /* \"#utility.yul\":7916:7930   */\n      add\n        /* \"#utility.yul\":7908:7930   */\n      swap1\n      pop\n        /* \"#utility.yul\":7781:7937   */\n      swap2\n      swap1\n      pop\n      jump\t// out\n        /* \"#utility.yul\":7943:8042   */\n    tag_366:\n        /* \"#utility.yul\":7995:8001   */\n      0x00\n        /* \"#utility.yul\":8029:8034   */\n      dup2\n        /* \"#utility.yul\":8023:8035   */\n      mload\n        /* \"#utility.yul\":8013:8035   */\n      swap1\n      pop\n        /* \"#utility.yul\":7943:8042   */\n      swap2\n      swap1\n      pop\n      jump\t// out\n        /* \"#utility.yul\":8048:8207   */\n    tag_367:\n        /* \"#utility.yul\":8122:8133   */\n      0x00\n        /* \"#utility.yul\":8156:8162   */\n      dup3\n        /* \"#utility.yul\":8151:8154   */\n      dup3\n        /* \"#utility.yul\":8144:8163   */\n      mstore\n        /* \"#utility.yul\":8196:8200   */\n      0x20\n        /* \"#utility.yul\":8191:8194   */\n      dup3\n        /* \"#utility.yul\":8187:8201   */\n      add\n        /* \"#utility.yul\":8172:8201   */\n      swap1\n      pop\n        /* \"#utility.yul\":8048:8207   */\n      swap3\n      swap2\n      pop\n      pop\n      jump\t// out\n        /* \"#utility.yul\":8213:8352   */\n    tag_368:\n        /* \"#utility.yul\":8302:8308   */\n      dup3\n        /* \"#utility.yul\":8297:8300   */\n      dup2\n        /* \"#utility.yul\":8292:8295   */\n      dup4\n        /* \"#utility.yul\":8286:8309   */\n      mcopy\n        /* \"#utility.yul\":8343:8344   */\n      0x00\n        /* \"#utility.yul\":8334:8340   */\n      dup4\n        /* \"#utility.yul\":8329:8332   */\n      dup4\n        /* \"#utility.yul\":8325:8341   */\n      add\n        /* \"#utility.yul\":8318:8345   */\n      mstore\n        /* \"#utility.yul\":8213:8352   */\n      pop\n      pop\n      pop\n      jump\t// out\n        /* \"#utility.yul\":8358:8460   */\n    tag_369:\n        /* \"#utility.yul\":8399:8405   */\n      0x00\n        /* \"#utility.yul\":8450:8452   */\n      0x1f\n        /* \"#utility.yul\":8446:8453   */\n      not\n        /* \"#utility.yul\":8441:8443   */\n      0x1f\n        /* \"#utility.yul\":8434:8439   */\n      dup4\n        /* \"#utility.yul\":8430:8444   */\n      add\n        /* \"#utility.yul\":8426:8454   */\n      and\n        /* \"#utility.yul\":8416:8454   */\n      swap1\n      pop\n        /* \"#utility.yul\":8358:8460   */\n      swap2\n      swap1\n      pop\n      jump\t// out\n        /* \"#utility.yul\":8466:8823   */\n    tag_370:\n        /* \"#utility.yul\":8544:8547   */\n      0x00\n        /* \"#utility.yul\":8572:8611   */\n      tag_491\n        /* \"#utility.yul\":8605:8610   */\n      dup3\n        /* \"#utility.yul\":8572:8611   */\n      tag_366\n      jump\t// in\n    tag_491:\n        /* \"#utility.yul\":8627:8688   */\n      tag_492\n        /* \"#utility.yul\":8681:8687   */\n      dup2\n        /* \"#utility.yul\":8676:8679   */\n      dup6\n        /* \"#utility.yul\":8627:8688   */\n      tag_367\n      jump\t// in\n    tag_492:\n        /* \"#utility.yul\":8620:8688   */\n      swap4\n      pop\n        /* \"#utility.yul\":8697:8762   */\n      tag_493\n        /* \"#utility.yul\":8755:8761   */\n      dup2\n        /* \"#utility.yul\":8750:8753   */\n      dup6\n        /* \"#utility.yul\":8743:8747   */\n      0x20\n        /* \"#utility.yul\":8736:8741   */\n      dup7\n        /* \"#utility.yul\":8732:8748   */\n      add\n        /* \"#utility.yul\":8697:8762   */\n      tag_368\n      jump\t// in\n    tag_493:\n        /* \"#utility.yul\":8787:8816   */\n      tag_494\n        /* \"#utility.yul\":8809:8815   */\n      dup2\n        /* \"#utility.yul\":8787:8816   */\n      tag_369\n      jump\t// in\n    tag_494:\n        /* \"#utility.yul\":8782:8785   */\n      dup5\n        /* \"#utility.yul\":8778:8817   */\n      add\n        /* \"#utility.yul\":8771:8817   */\n      swap2\n      pop\n        /* \"#utility.yul\":8548:8823   */\n      pop\n        /* \"#utility.yul\":8466:8823   */\n      swap3\n      swap2\n      pop\n      pop\n      jump\t// out\n        /* \"#utility.yul\":8829:8937   */\n    tag_371:\n        /* \"#utility.yul\":8906:8930   */\n      tag_496\n        /* \"#utility.yul\":8924:8929   */\n      dup2\n        /* \"#utility.yul\":8906:8930   */\n      tag_353\n      jump\t// in\n    tag_496:\n        /* \"#utility.yul\":8901:8904   */\n      dup3\n        /* \"#utility.yul\":8894:8931   */\n      mstore\n        /* \"#utility.yul\":8829:8937   */\n      pop\n      pop\n      jump\t// out\n        /* \"#utility.yul\":8995:9937   */\n    tag_372:\n        /* \"#utility.yul\":9102:9105   */\n      0x00\n        /* \"#utility.yul\":9138:9142   */\n      0x80\n        /* \"#utility.yul\":9133:9136   */\n      dup4\n        /* \"#utility.yul\":9129:9143   */\n      add\n        /* \"#utility.yul\":9225:9229   */\n      0x00\n        /* \"#utility.yul\":9218:9223   */\n      dup4\n        /* \"#utility.yul\":9214:9230   */\n      add\n        /* \"#utility.yul\":9208:9231   */\n      mload\n        /* \"#utility.yul\":9278:9281   */\n      dup5\n        /* \"#utility.yul\":9272:9276   */\n      dup3\n        /* \"#utility.yul\":9268:9282   */\n      sub\n        /* \"#utility.yul\":9261:9265   */\n      0x00\n        /* \"#utility.yul\":9256:9259   */\n      dup7\n        /* \"#utility.yul\":9252:9266   */\n      add\n        /* \"#utility.yul\":9245:9283   */\n      mstore\n        /* \"#utility.yul\":9304:9377   */\n      tag_498\n        /* \"#utility.yul\":9372:9376   */\n      dup3\n        /* \"#utility.yul\":9358:9370   */\n      dup3\n        /* \"#utility.yul\":9304:9377   */\n      tag_370\n      jump\t// in\n    tag_498:\n        /* \"#utility.yul\":9296:9377   */\n      swap2\n      pop\n        /* \"#utility.yul\":9153:9388   */\n      pop\n        /* \"#utility.yul\":9468:9472   */\n      0x20\n        /* \"#utility.yul\":9461:9466   */\n      dup4\n        /* \"#utility.yul\":9457:9473   */\n      add\n        /* \"#utility.yul\":9451:9474   */\n      mload\n        /* \"#utility.yul\":9487:9550   */\n      tag_499\n        /* \"#utility.yul\":9544:9548   */\n      0x20\n        /* \"#utility.yul\":9539:9542   */\n      dup7\n        /* \"#utility.yul\":9535:9549   */\n      add\n        /* \"#utility.yul\":9521:9533   */\n      dup3\n        /* \"#utility.yul\":9487:9550   */\n      tag_371\n      jump\t// in\n    tag_499:\n        /* \"#utility.yul\":9398:9560   */\n      pop\n        /* \"#utility.yul\":9643:9647   */\n      0x40\n        /* \"#utility.yul\":9636:9641   */\n      dup4\n        /* \"#utility.yul\":9632:9648   */\n      add\n        /* \"#utility.yul\":9626:9649   */\n      mload\n        /* \"#utility.yul\":9662:9725   */\n      tag_500\n        /* \"#utility.yul\":9719:9723   */\n      0x40\n        /* \"#utility.yul\":9714:9717   */\n      dup7\n        /* \"#utility.yul\":9710:9724   */\n      add\n        /* \"#utility.yul\":9696:9708   */\n      dup3\n        /* \"#utility.yul\":9662:9725   */\n      tag_371\n      jump\t// in\n    tag_500:\n        /* \"#utility.yul\":9570:9735   */\n      pop\n        /* \"#utility.yul\":9818:9822   */\n      0x60\n        /* \"#utility.yul\":9811:9816   */\n      dup4\n        /* \"#utility.yul\":9807:9823   */\n      add\n        /* \"#utility.yul\":9801:9824   */\n      mload\n        /* \"#utility.yul\":9837:9900   */\n      tag_501\n        /* \"#utility.yul\":9894:9898   */\n      0x60\n        /* \"#utility.yul\":9889:9892   */\n      dup7\n        /* \"#utility.yul\":9885:9899   */\n      add\n        /* \"#utility.yul\":9871:9883   */\n      dup3\n        /* \"#utility.yul\":9837:9900   */\n      tag_371\n      jump\t// in\n    tag_501:\n        /* \"#utility.yul\":9745:9910   */\n      pop\n        /* \"#utility.yul\":9927:9931   */\n      dup1\n        /* \"#utility.yul\":9920:9931   */\n      swap2\n      pop\n        /* \"#utility.yul\":9107:9937   */\n      pop\n        /* \"#utility.yul\":8995:9937   */\n      swap3\n      swap2\n      pop\n      pop\n      jump\t// out\n        /* \"#utility.yul\":9943:10195   */\n    tag_373:\n        /* \"#utility.yul\":10060:10070   */\n      0x00\n        /* \"#utility.yul\":10095:10189   */\n      tag_503\n        /* \"#utility.yul\":10185:10188   */\n      dup4\n        /* \"#utility.yul\":10177:10183   */\n      dup4\n        /* \"#utility.yul\":10095:10189   */\n      tag_372\n      jump\t// in\n    tag_503:\n        /* \"#utility.yul\":10081:10189   */\n      swap1\n      pop\n        /* \"#utility.yul\":9943:10195   */\n      swap3\n      swap2\n      pop\n      pop\n      jump\t// out\n        /* \"#utility.yul\":10201:10338   */\n    tag_374:\n        /* \"#utility.yul\":10295:10299   */\n      0x00\n        /* \"#utility.yul\":10327:10331   */\n      0x20\n        /* \"#utility.yul\":10322:10325   */\n      dup3\n        /* \"#utility.yul\":10318:10332   */\n      add\n        /* \"#utility.yul\":10310:10332   */\n      swap1\n      pop\n        /* \"#utility.yul\":10201:10338   */\n      swap2\n      swap1\n      pop\n      jump\t// out\n        /* \"#utility.yul\":10400:11503   */\n    tag_375:\n        /* \"#utility.yul\":10567:10570   */\n      0x00\n        /* \"#utility.yul\":10596:10674   */\n      tag_506\n        /* \"#utility.yul\":10668:10673   */\n      dup3\n        /* \"#utility.yul\":10596:10674   */\n      tag_363\n      jump\t// in\n    tag_506:\n        /* \"#utility.yul\":10690:10800   */\n      tag_507\n        /* \"#utility.yul\":10793:10799   */\n      dup2\n        /* \"#utility.yul\":10788:10791   */\n      dup6\n        /* \"#utility.yul\":10690:10800   */\n      tag_364\n      jump\t// in\n    tag_507:\n        /* \"#utility.yul\":10683:10800   */\n      swap4\n      pop\n        /* \"#utility.yul\":10826:10829   */\n      dup4\n        /* \"#utility.yul\":10871:10875   */\n      0x20\n        /* \"#utility.yul\":10863:10869   */\n      dup3\n        /* \"#utility.yul\":10859:10876   */\n      mul\n        /* \"#utility.yul\":10854:10857   */\n      dup6\n        /* \"#utility.yul\":10850:10877   */\n      add\n        /* \"#utility.yul\":10901:10981   */\n      tag_508\n        /* \"#utility.yul\":10975:10980   */\n      dup6\n        /* \"#utility.yul\":10901:10981   */\n      tag_365\n      jump\t// in\n    tag_508:\n        /* \"#utility.yul\":11004:11011   */\n      dup1\n        /* \"#utility.yul\":11035:11036   */\n      0x00\n        /* \"#utility.yul\":11020:11458   */\n    tag_509:\n        /* \"#utility.yul\":11045:11051   */\n      dup6\n        /* \"#utility.yul\":11042:11043   */\n      dup2\n        /* \"#utility.yul\":11039:11052   */\n      lt\n        /* \"#utility.yul\":11020:11458   */\n      iszero\n      tag_511\n      jumpi\n        /* \"#utility.yul\":11116:11125   */\n      dup5\n        /* \"#utility.yul\":11110:11114   */\n      dup5\n        /* \"#utility.yul\":11106:11126   */\n      sub\n        /* \"#utility.yul\":11101:11104   */\n      dup10\n        /* \"#utility.yul\":11094:11127   */\n      mstore\n        /* \"#utility.yul\":11167:11173   */\n      dup2\n        /* \"#utility.yul\":11161:11174   */\n      mload\n        /* \"#utility.yul\":11195:11307   */\n      tag_512\n        /* \"#utility.yul\":11302:11306   */\n      dup6\n        /* \"#utility.yul\":11287:11300   */\n      dup3\n        /* \"#utility.yul\":11195:11307   */\n      tag_373\n      jump\t// in\n    tag_512:\n        /* \"#utility.yul\":11187:11307   */\n      swap5\n      pop\n        /* \"#utility.yul\":11330:11414   */\n      tag_513\n        /* \"#utility.yul\":11407:11413   */\n      dup4\n        /* \"#utility.yul\":11330:11414   */\n      tag_374\n      jump\t// in\n    tag_513:\n        /* \"#utility.yul\":11320:11414   */\n      swap3\n      pop\n        /* \"#utility.yul\":11443:11447   */\n      0x20\n        /* \"#utility.yul\":11438:11441   */\n      dup11\n        /* \"#utility.yul\":11434:11448   */\n      add\n        /* \"#utility.yul\":11427:11448   */\n      swap10\n      pop\n        /* \"#utility.yul\":11080:11458   */\n      pop\n        /* \"#utility.yul\":11067:11068   */\n      0x01\n        /* \"#utility.yul\":11064:11065   */\n      dup2\n        /* \"#utility.yul\":11060:11069   */\n      add\n        /* \"#utility.yul\":11055:11069   */\n      swap1\n      pop\n        /* \"#utility.yul\":11020:11458   */\n      jump(tag_509)\n    tag_511:\n        /* \"#utility.yul\":11024:11038   */\n      pop\n        /* \"#utility.yul\":11474:11478   */\n      dup3\n        /* \"#utility.yul\":11467:11478   */\n      swap8\n      pop\n        /* \"#utility.yul\":11494:11497   */\n      dup8\n        /* \"#utility.yul\":11487:11497   */\n      swap6\n      pop\n        /* \"#utility.yul\":10572:11503   */\n      pop\n      pop\n      pop\n      pop\n      pop\n        /* \"#utility.yul\":10400:11503   */\n      swap3\n      swap2\n      pop\n      pop\n      jump\t// out\n        /* \"#utility.yul\":11509:11978   */\n    tag_91:\n        /* \"#utility.yul\":11700:11704   */\n      0x00\n        /* \"#utility.yul\":11738:11740   */\n      0x20\n        /* \"#utility.yul\":11727:11736   */\n      dup3\n        /* \"#utility.yul\":11723:11741   */\n      add\n        /* \"#utility.yul\":11715:11741   */\n      swap1\n      pop\n        /* \"#utility.yul\":11787:11796   */\n      dup2\n        /* \"#utility.yul\":11781:11785   */\n      dup2\n        /* \"#utility.yul\":11777:11797   */\n      sub\n        /* \"#utility.yul\":11773:11774   */\n      0x00\n        /* \"#utility.yul\":11762:11771   */\n      dup4\n        /* \"#utility.yul\":11758:11775   */\n      add\n        /* \"#utility.yul\":11751:11798   */\n      mstore\n        /* \"#utility.yul\":11815:11971   */\n      tag_515\n        /* \"#utility.yul\":11966:11970   */\n      dup2\n        /* \"#utility.yul\":11957:11963   */\n      dup5\n        /* \"#utility.yul\":11815:11971   */\n      tag_375\n      jump\t// in\n    tag_515:\n        /* \"#utility.yul\":11807:11971   */\n      swap1\n      pop\n        /* \"#utility.yul\":11509:11978   */\n      swap3\n      swap2\n      pop\n      pop\n      jump\t// out\n        /* \"#utility.yul\":11984:12164   */\n    tag_376:\n        /* \"#utility.yul\":12032:12109   */\n      0x4e487b7100000000000000000000000000000000000000000000000000000000\n        /* \"#utility.yul\":12029:12030   */\n      0x00\n        /* \"#utility.yul\":12022:12110   */\n      mstore\n        /* \"#utility.yul\":12129:12133   */\n      0x41\n        /* \"#utility.yul\":12126:12127   */\n      0x04\n        /* \"#utility.yul\":12119:12134   */\n      mstore\n        /* \"#utility.yul\":12153:12157   */\n      0x24\n        /* \"#utility.yul\":12150:12151   */\n      0x00\n        /* \"#utility.yul\":12143:12158   */\n      revert\n        /* \"#utility.yul\":12170:12350   */\n    tag_377:\n        /* \"#utility.yul\":12218:12295   */\n      0x4e487b7100000000000000000000000000000000000000000000000000000000\n        /* \"#utility.yul\":12215:12216   */\n      0x00\n        /* \"#utility.yul\":12208:12296   */\n      mstore\n        /* \"#utility.yul\":12315:12319   */\n      0x22\n        /* \"#utility.yul\":12312:12313   */\n      0x04\n        /* \"#utility.yul\":12305:12320   */\n      mstore\n        /* \"#utility.yul\":12339:12343   */\n      0x24\n        /* \"#utility.yul\":12336:12337   */\n      0x00\n        /* \"#utility.yul\":12329:12344   */\n      revert\n        /* \"#utility.yul\":12356:12676   */\n    tag_220:\n        /* \"#utility.yul\":12400:12406   */\n      0x00\n        /* \"#utility.yul\":12437:12438   */\n      0x02\n        /* \"#utility.yul\":12431:12435   */\n      dup3\n        /* \"#utility.yul\":12427:12439   */\n      div\n        /* \"#utility.yul\":12417:12439   */\n      swap1\n      pop\n        /* \"#utility.yul\":12484:12485   */\n      0x01\n        /* \"#utility.yul\":12478:12482   */\n      dup3\n        /* \"#utility.yul\":12474:12486   */\n      and\n        /* \"#utility.yul\":12505:12523   */\n      dup1\n        /* \"#utility.yul\":12495:12576   */\n      tag_519\n      jumpi\n        /* \"#utility.yul\":12561:12565   */\n      0x7f\n        /* \"#utility.yul\":12553:12559   */\n      dup3\n        /* \"#utility.yul\":12549:12566   */\n      and\n        /* \"#utility.yul\":12539:12566   */\n      swap2\n      pop\n        /* \"#utility.yul\":12495:12576   */\n    tag_519:\n        /* \"#utility.yul\":12623:12625   */\n      0x20\n        /* \"#utility.yul\":12615:12621   */\n      dup3\n        /* \"#utility.yul\":12612:12626   */\n      lt\n        /* \"#utility.yul\":12592:12610   */\n      dup2\n        /* \"#utility.yul\":12589:12627   */\n      sub\n        /* \"#utility.yul\":12586:12670   */\n      tag_520\n      jumpi\n        /* \"#utility.yul\":12642:12660   */\n      tag_521\n      tag_377\n      jump\t// in\n    tag_521:\n        /* \"#utility.yul\":12586:12670   */\n    tag_520:\n        /* \"#utility.yul\":12407:12676   */\n      pop\n        /* \"#utility.yul\":12356:12676   */\n      swap2\n      swap1\n      pop\n      jump\t// out\n        /* \"#utility.yul\":12682:12823   */\n    tag_378:\n        /* \"#utility.yul\":12731:12735   */\n      0x00\n        /* \"#utility.yul\":12754:12757   */\n      dup2\n        /* \"#utility.yul\":12746:12757   */\n      swap1\n      pop\n        /* \"#utility.yul\":12777:12780   */\n      dup2\n        /* \"#utility.yul\":12774:12775   */\n      0x00\n        /* \"#utility.yul\":12767:12781   */\n      mstore\n        /* \"#utility.yul\":12811:12815   */\n      0x20\n        /* \"#utility.yul\":12808:12809   */\n      0x00\n        /* \"#utility.yul\":12798:12816   */\n      keccak256\n        /* \"#utility.yul\":12790:12816   */\n      swap1\n      pop\n        /* \"#utility.yul\":12682:12823   */\n      swap2\n      swap1\n      pop\n      jump\t// out\n        /* \"#utility.yul\":12829:12922   */\n    tag_379:\n        /* \"#utility.yul\":12866:12872   */\n      0x00\n        /* \"#utility.yul\":12913:12915   */\n      0x20\n        /* \"#utility.yul\":12908:12910   */\n      0x1f\n        /* \"#utility.yul\":12901:12906   */\n      dup4\n        /* \"#utility.yul\":12897:12911   */\n      add\n        /* \"#utility.yul\":12893:12916   */\n      div\n        /* \"#utility.yul\":12883:12916   */\n      swap1\n      pop\n        /* \"#utility.yul\":12829:12922   */\n      swap2\n      swap1\n      pop\n      jump\t// out\n        /* \"#utility.yul\":12928:13035   */\n    tag_380:\n        /* \"#utility.yul\":12972:12980   */\n      0x00\n        /* \"#utility.yul\":13022:13027   */\n      dup3\n        /* \"#utility.yul\":13016:13020   */\n      dup3\n        /* \"#utility.yul\":13012:13028   */\n      shl\n        /* \"#utility.yul\":12991:13028   */\n      swap1\n      pop\n        /* \"#utility.yul\":12928:13035   */\n      swap3\n      swap2\n      pop\n      pop\n      jump\t// out\n        /* \"#utility.yul\":13041:13434   */\n    tag_381:\n        /* \"#utility.yul\":13110:13116   */\n      0x00\n        /* \"#utility.yul\":13160:13161   */\n      0x08\n        /* \"#utility.yul\":13148:13158   */\n      dup4\n        /* \"#utility.yul\":13144:13162   */\n      mul\n        /* \"#utility.yul\":13183:13280   */\n      tag_526\n        /* \"#utility.yul\":13213:13279   */\n      0xffffffffffffffffffffffffffffffffffffffffffffffffffffffffffffffff\n        /* \"#utility.yul\":13202:13211   */\n      dup3\n        /* \"#utility.yul\":13183:13280   */\n      tag_380\n      jump\t// in\n    tag_526:\n        /* \"#utility.yul\":13301:13340   */\n      tag_527\n        /* \"#utility.yul\":13331:13339   */\n      dup7\n        /* \"#utility.yul\":13320:13329   */\n      dup4\n        /* \"#utility.yul\":13301:13340   */\n      tag_380\n      jump\t// in\n    tag_527:\n        /* \"#utility.yul\":13289:13340   */\n      swap6\n      pop\n        /* \"#utility.yul\":13373:13377   */\n      dup1\n        /* \"#utility.yul\":13369:13378   */\n      not\n        /* \"#utility.yul\":13362:13367   */\n      dup5\n        /* \"#utility.yul\":13358:13379   */\n      and\n        /* \"#utility.yul\":13349:13379   */\n      swap4\n      pop\n        /* \"#utility.yul\":13422:13426   */\n      dup1\n        /* \"#utility.yul\":13412:13420   */\n      dup7\n        /* \"#utility.yul\":13408:13427   */\n      and\n        /* \"#utility.yul\":13401:13406   */\n      dup5\n        /* \"#utility.yul\":13398:13428   */\n      or\n        /* \"#utility.yul\":13388:13428   */\n      swap3\n      pop\n        /* \"#utility.yul\":13117:13434   */\n      pop\n      pop\n        /* \"#utility.yul\":13041:13434   */\n      swap4\n      swap3\n      pop\n      pop\n      pop\n      jump\t// out\n        /* \"#utility.yul\":13440:13500   */\n    tag_382:\n        /* \"#utility.yul\":13468:13471   */\n      0x00\n        /* \"#utility.yul\":13489:13494   */\n      dup2\n        /* \"#utility.yul\":13482:13494   */\n      swap1\n      pop\n        /* \"#utility.yul\":13440:13500   */\n      swap2\n      swap1\n      pop\n      jump\t// out\n        /* \"#utility.yul\":13506:13648   */\n    tag_383:\n        /* \"#utility.yul\":13556:13565   */\n      0x00\n        /* \"#utility.yul\":13589:13642   */\n      tag_530\n        /* \"#utility.yul\":13607:13641   */\n      tag_531\n        /* \"#utility.yul\":13616:13640   */\n      tag_532\n        /* \"#utility.yul\":13634:13639   */\n      dup5\n        /* \"#utility.yul\":13616:13640   */\n      tag_353\n      jump\t// in\n    tag_532:\n        /* \"#utility.yul\":13607:13641   */\n      tag_382\n      jump\t// in\n    tag_531:\n        /* \"#utility.yul\":13589:13642   */\n      tag_353\n      jump\t// in\n    tag_530:\n        /* \"#utility.yul\":13576:13642   */\n      swap1\n      pop\n        /* \"#utility.yul\":13506:13648   */\n      swap2\n      swap1\n      pop\n      jump\t// out\n        /* \"#utility.yul\":13654:13729   */\n    tag_384:\n        /* \"#utility.yul\":13697:13700   */\n      0x00\n        /* \"#utility.yul\":13718:13723   */\n      dup2\n        /* \"#utility.yul\":13711:13723   */\n      swap1\n      pop\n        /* \"#utility.yul\":13654:13729   */\n      swap2\n      swap1\n      pop\n      jump\t// out\n        /* \"#utility.yul\":13735:14004   */\n    tag_385:\n        /* \"#utility.yul\":13845:13884   */\n      tag_535\n        /* \"#utility.yul\":13876:13883   */\n      dup4\n        /* \"#utility.yul\":13845:13884   */\n      tag_383\n      jump\t// in\n    tag_535:\n        /* \"#utility.yul\":13906:13997   */\n      tag_536\n        /* \"#utility.yul\":13955:13996   */\n      tag_537\n        /* \"#utility.yul\":13979:13995   */\n      dup3\n        /* \"#utility.yul\":13955:13996   */\n      tag_384\n      jump\t// in\n    tag_537:\n        /* \"#utility.yul\":13947:13953   */\n      dup5\n        /* \"#utility.yul\":13940:13944   */\n      dup5\n        /* \"#utility.yul\":13934:13945   */\n      sload\n        /* \"#utility.yul\":13906:13997   */\n      tag_381\n      jump\t// in\n    tag_536:\n        /* \"#utility.yul\":13900:13904   */\n      dup3\n        /* \"#utility.yul\":13893:13998   */\n      sstore\n        /* \"#utility.yul\":13811:14004   */\n      pop\n        /* \"#utility.yul\":13735:14004   */\n      pop\n      pop\n      pop\n      jump\t// out\n        /* \"#utility.yul\":14010:14083   */\n    tag_386:\n        /* \"#utility.yul\":14055:14058   */\n      0x00\n        /* \"#utility.yul\":14076:14077   */\n      0x00\n        /* \"#utility.yul\":14069:14077   */\n      swap1\n      pop\n        /* \"#utility.yul\":14010:14083   */\n      swap1\n      jump\t// out\n        /* \"#utility.yul\":14089:14278   */\n    tag_387:\n        /* \"#utility.yul\":14166:14198   */\n      tag_540\n      tag_386\n      jump\t// in\n    tag_540:\n        /* \"#utility.yul\":14207:14272   */\n      tag_541\n        /* \"#utility.yul\":14265:14271   */\n      dup2\n        /* \"#utility.yul\":14257:14263   */\n      dup5\n        /* \"#utility.yul\":14251:14255   */\n      dup5\n        /* \"#utility.yul\":14207:14272   */\n      tag_385\n      jump\t// in\n    tag_541:\n        /* \"#utility.yul\":14142:14278   */\n      pop\n        /* \"#utility.yul\":14089:14278   */\n      pop\n      pop\n      jump\t// out\n        /* \"#utility.yul\":14284:14470   */\n    tag_388:\n        /* \"#utility.yul\":14344:14464   */\n    tag_543:\n        /* \"#utility.yul\":14361:14364   */\n      dup2\n        /* \"#utility.yul\":14354:14359   */\n      dup2\n        /* \"#utility.yul\":14351:14365   */\n      lt\n        /* \"#utility.yul\":14344:14464   */\n      iszero\n      tag_545\n      jumpi\n        /* \"#utility.yul\":14415:14454   */\n      tag_546\n        /* \"#utility.yul\":14452:14453   */\n      0x00\n        /* \"#utility.yul\":14445:14450   */\n      dup3\n        /* \"#utility.yul\":14415:14454   */\n      tag_387\n      jump\t// in\n    tag_546:\n        /* \"#utility.yul\":14388:14389   */\n      0x01\n        /* \"#utility.yul\":14381:14386   */\n      dup2\n        /* \"#utility.yul\":14377:14390   */\n      add\n        /* \"#utility.yul\":14368:14390   */\n      swap1\n      pop\n        /* \"#utility.yul\":14344:14464   */\n      jump(tag_543)\n    tag_545:\n        /* \"#utility.yul\":14284:14470   */\n      pop\n      pop\n      jump\t// out\n        /* \"#utility.yul\":14476:15019   */\n    tag_389:\n        /* \"#utility.yul\":14577:14579   */\n      0x1f\n        /* \"#utility.yul\":14572:14575   */\n      dup3\n        /* \"#utility.yul\":14569:14580   */\n      gt\n        /* \"#utility.yul\":14566:15012   */\n      iszero\n      tag_548\n      jumpi\n        /* \"#utility.yul\":14611:14649   */\n      tag_549\n        /* \"#utility.yul\":14643:14648   */\n      dup2\n        /* \"#utility.yul\":14611:14649   */\n      tag_378\n      jump\t// in\n    tag_549:\n        /* \"#utility.yul\":14695:14724   */\n      tag_550\n        /* \"#utility.yul\":14713:14723   */\n      dup5\n        /* \"#utility.yul\":14695:14724   */\n      tag_379\n      jump\t// in\n    tag_550:\n        /* \"#utility.yul\":14685:14693   */\n      dup2\n        /* \"#utility.yul\":14681:14725   */\n      add\n        /* \"#utility.yul\":14878:14880   */\n      0x20\n        /* \"#utility.yul\":14866:14876   */\n      dup6\n        /* \"#utility.yul\":14863:14881   */\n      lt\n        /* \"#utility.yul\":14860:14909   */\n      iszero\n      tag_551\n      jumpi\n        /* \"#utility.yul\":14899:14907   */\n      dup2\n        /* \"#utility.yul\":14884:14907   */\n      swap1\n      pop\n        /* \"#utility.yul\":14860:14909   */\n    tag_551:\n        /* \"#utility.yul\":14922:15002   */\n      tag_552\n        /* \"#utility.yul\":14978:15000   */\n      tag_553\n        /* \"#utility.yul\":14996:14999   */\n      dup6\n        /* \"#utility.yul\":14978:15000   */\n      tag_379\n      jump\t// in\n    tag_553:\n        /* \"#utility.yul\":14968:14976   */\n      dup4\n        /* \"#utility.yul\":14964:15001   */\n      add\n        /* \"#utility.yul\":14951:14962   */\n      dup3\n        /* \"#utility.yul\":14922:15002   */\n      tag_388\n      jump\t// in\n    tag_552:\n        /* \"#utility.yul\":14581:15012   */\n      pop\n      pop\n        /* \"#utility.yul\":14566:15012   */\n    tag_548:\n        /* \"#utility.yul\":14476:15019   */\n      pop\n      pop\n      pop\n      jump\t// out\n        /* \"#utility.yul\":15025:15142   */\n    tag_390:\n        /* \"#utility.yul\":15079:15087   */\n      0x00\n        /* \"#utility.yul\":15129:15134   */\n      dup3\n        /* \"#utility.yul\":15123:15127   */\n      dup3\n        /* \"#utility.yul\":15119:15135   */\n      shr\n        /* \"#utility.yul\":15098:15135   */\n      swap1\n      pop\n        /* \"#utility.yul\":15025:15142   */\n      swap3\n      swap2\n      pop\n      pop\n      jump\t// out\n        /* \"#utility.yul\":15148:15317   */\n    tag_391:\n        /* \"#utility.yul\":15192:15198   */\n      0x00\n        /* \"#utility.yul\":15225:15276   */\n      tag_556\n        /* \"#utility.yul\":15273:15274   */\n      0x00\n        /* \"#utility.yul\":15269:15275   */\n      not\n        /* \"#utility.yul\":15261:15266   */\n      dup5\n        /* \"#utility.yul\":15258:15259   */\n      0x08\n        /* \"#utility.yul\":15254:15267   */\n      mul\n        /* \"#utility.yul\":15225:15276   */\n      tag_390\n      jump\t// in\n    tag_556:\n        /* \"#utility.yul\":15221:15277   */\n      not\n        /* \"#utility.yul\":15306:15310   */\n      dup1\n        /* \"#utility.yul\":15300:15304   */\n      dup4\n        /* \"#utility.yul\":15296:15311   */\n      and\n        /* \"#utility.yul\":15286:15311   */\n      swap2\n      pop\n        /* \"#utility.yul\":15199:15317   */\n      pop\n        /* \"#utility.yul\":15148:15317   */\n      swap3\n      swap2\n      pop\n      pop\n      jump\t// out\n        /* \"#utility.yul\":15322:15617   */\n    tag_392:\n        /* \"#utility.yul\":15398:15402   */\n      0x00\n        /* \"#utility.yul\":15544:15573   */\n      tag_558\n        /* \"#utility.yul\":15569:15572   */\n      dup4\n        /* \"#utility.yul\":15563:15567   */\n      dup4\n        /* \"#utility.yul\":15544:15573   */\n      tag_391\n      jump\t// in\n    tag_558:\n        /* \"#utility.yul\":15536:15573   */\n      swap2\n      pop\n        /* \"#utility.yul\":15606:15609   */\n      dup3\n        /* \"#utility.yul\":15603:15604   */\n      0x02\n        /* \"#utility.yul\":15599:15610   */\n      mul\n        /* \"#utility.yul\":15593:15597   */\n      dup3\n        /* \"#utility.yul\":15590:15611   */\n      or\n        /* \"#utility.yul\":15582:15611   */\n      swap1\n      pop\n        /* \"#utility.yul\":15322:15617   */\n      swap3\n      swap2\n      pop\n      pop\n      jump\t// out\n        /* \"#utility.yul\":15622:17017   */\n    tag_125:\n        /* \"#utility.yul\":15739:15776   */\n      tag_560\n        /* \"#utility.yul\":15772:15775   */\n      dup3\n        /* \"#utility.yul\":15739:15776   */\n      tag_366\n      jump\t// in\n    tag_560:\n        /* \"#utility.yul\":15841:15859   */\n      0xffffffffffffffff\n        /* \"#utility.yul\":15833:15839   */\n      dup2\n        /* \"#utility.yul\":15830:15860   */\n      gt\n        /* \"#utility.yul\":15827:15883   */\n      iszero\n      tag_561\n      jumpi\n        /* \"#utility.yul\":15863:15881   */\n      tag_562\n      tag_376\n      jump\t// in\n    tag_562:\n        /* \"#utility.yul\":15827:15883   */\n    tag_561:\n        /* \"#utility.yul\":15907:15945   */\n      tag_563\n        /* \"#utility.yul\":15939:15943   */\n      dup3\n        /* \"#utility.yul\":15933:15944   */\n      sload\n        /* \"#utility.yul\":15907:15945   */\n      tag_220\n      jump\t// in\n    tag_563:\n        /* \"#utility.yul\":15992:16059   */\n      tag_564\n        /* \"#utility.yul\":16052:16058   */\n      dup3\n        /* \"#utility.yul\":16044:16050   */\n      dup3\n        /* \"#utility.yul\":16038:16042   */\n      dup6\n        /* \"#utility.yul\":15992:16059   */\n      tag_389\n      jump\t// in\n    tag_564:\n        /* \"#utility.yul\":16086:16087   */\n      0x00\n        /* \"#utility.yul\":16110:16114   */\n      0x20\n        /* \"#utility.yul\":16097:16114   */\n      swap1\n      pop\n        /* \"#utility.yul\":16142:16144   */\n      0x1f\n        /* \"#utility.yul\":16134:16140   */\n      dup4\n        /* \"#utility.yul\":16131:16145   */\n      gt\n        /* \"#utility.yul\":16159:16160   */\n      0x01\n        /* \"#utility.yul\":16154:16772   */\n      dup2\n      eq\n      tag_566\n      jumpi\n        /* \"#utility.yul\":16816:16817   */\n      0x00\n        /* \"#utility.yul\":16833:16839   */\n      dup5\n        /* \"#utility.yul\":16830:16907   */\n      iszero\n      tag_567\n      jumpi\n        /* \"#utility.yul\":16882:16891   */\n      dup3\n        /* \"#utility.yul\":16877:16880   */\n      dup8\n        /* \"#utility.yul\":16873:16892   */\n      add\n        /* \"#utility.yul\":16867:16893   */\n      mload\n        /* \"#utility.yul\":16858:16893   */\n      swap1\n      pop\n        /* \"#utility.yul\":16830:16907   */\n    tag_567:\n        /* \"#utility.yul\":16933:17000   */\n      tag_568\n        /* \"#utility.yul\":16993:16999   */\n      dup6\n        /* \"#utility.yul\":16986:16991   */\n      dup3\n        /* \"#utility.yul\":16933:17000   */\n      tag_392\n      jump\t// in\n    tag_568:\n        /* \"#utility.yul\":16927:16931   */\n      dup7\n        /* \"#utility.yul\":16920:17001   */\n      sstore\n        /* \"#utility.yul\":16789:17011   */\n      pop\n        /* \"#utility.yul\":16124:17011   */\n      jump(tag_565)\n        /* \"#utility.yul\":16154:16772   */\n    tag_566:\n        /* \"#utility.yul\":16206:16210   */\n      0x1f\n        /* \"#utility.yul\":16202:16211   */\n      not\n        /* \"#utility.yul\":16194:16200   */\n      dup5\n        /* \"#utility.yul\":16190:16212   */\n      and\n        /* \"#utility.yul\":16240:16277   */\n      tag_569\n        /* \"#utility.yul\":16272:16276   */\n      dup7\n        /* \"#utility.yul\":16240:16277   */\n      tag_378\n      jump\t// in\n    tag_569:\n        /* \"#utility.yul\":16299:16300   */\n      0x00\n        /* \"#utility.yul\":16313:16521   */\n    tag_570:\n        /* \"#utility.yul\":16327:16334   */\n      dup3\n        /* \"#utility.yul\":16324:16325   */\n      dup2\n        /* \"#utility.yul\":16321:16335   */\n      lt\n        /* \"#utility.yul\":16313:16521   */\n      iszero\n      tag_572\n      jumpi\n        /* \"#utility.yul\":16406:16415   */\n      dup5\n        /* \"#utility.yul\":16401:16404   */\n      dup10\n        /* \"#utility.yul\":16397:16416   */\n      add\n        /* \"#utility.yul\":16391:16417   */\n      mload\n        /* \"#utility.yul\":16383:16389   */\n      dup3\n        /* \"#utility.yul\":16376:16418   */\n      sstore\n        /* \"#utility.yul\":16457:16458   */\n      0x01\n        /* \"#utility.yul\":16449:16455   */\n      dup3\n        /* \"#utility.yul\":16445:16459   */\n      add\n        /* \"#utility.yul\":16435:16459   */\n      swap2\n      pop\n        /* \"#utility.yul\":16504:16506   */\n      0x20\n        /* \"#utility.yul\":16493:16502   */\n      dup6\n        /* \"#utility.yul\":16489:16507   */\n      add\n        /* \"#utility.yul\":16476:16507   */\n      swap5\n      pop\n        /* \"#utility.yul\":16350:16354   */\n      0x20\n        /* \"#utility.yul\":16347:16348   */\n      dup2\n        /* \"#utility.yul\":16343:16355   */\n      add\n        /* \"#utility.yul\":16338:16355   */\n      swap1\n      pop\n        /* \"#utility.yul\":16313:16521   */\n      jump(tag_570)\n    tag_572:\n        /* \"#utility.yul\":16549:16555   */\n      dup7\n        /* \"#utility.yul\":16540:16547   */\n      dup4\n        /* \"#utility.yul\":16537:16556   */\n      lt\n        /* \"#utility.yul\":16534:16713   */\n      iszero\n      tag_573\n      jumpi\n        /* \"#utility.yul\":16607:16616   */\n      dup5\n        /* \"#utility.yul\":16602:16605   */\n      dup10\n        /* \"#utility.yul\":16598:16617   */\n      add\n        /* \"#utility.yul\":16592:16618   */\n      mload\n        /* \"#utility.yul\":16650:16698   */\n      tag_574\n        /* \"#utility.yul\":16692:16696   */\n      0x1f\n        /* \"#utility.yul\":16684:16690   */\n      dup10\n        /* \"#utility.yul\":16680:16697   */\n      and\n        /* \"#utility.yul\":16669:16678   */\n      dup3\n        /* \"#utility.yul\":16650:16698   */\n      tag_391\n      jump\t// in\n    tag_574:\n        /* \"#utility.yul\":16642:16648   */\n      dup4\n        /* \"#utility.yul\":16635:16699   */\n      sstore\n        /* \"#utility.yul\":16557:16713   */\n      pop\n        /* \"#utility.yul\":16534:16713   */\n    tag_573:\n        /* \"#utility.yul\":16759:16760   */\n      0x01\n        /* \"#utility.yul\":16755:16756   */\n      0x02\n        /* \"#utility.yul\":16747:16753   */\n      dup9\n        /* \"#utility.yul\":16743:16757   */\n      mul\n        /* \"#utility.yul\":16739:16761   */\n      add\n        /* \"#utility.yul\":16733:16737   */\n      dup9\n        /* \"#utility.yul\":16726:16762   */\n      sstore\n        /* \"#utility.yul\":16161:16772   */\n      pop\n      pop\n      pop\n        /* \"#utility.yul\":16124:17011   */\n    tag_565:\n      pop\n        /* \"#utility.yul\":15714:17017   */\n      pop\n      pop\n      pop\n        /* \"#utility.yul\":15622:17017   */\n      pop\n      pop\n      jump\t// out\n        /* \"#utility.yul\":17023:17192   */\n    tag_393:\n        /* \"#utility.yul\":17107:17118   */\n      0x00\n        /* \"#utility.yul\":17141:17147   */\n      dup3\n        /* \"#utility.yul\":17136:17139   */\n      dup3\n        /* \"#utility.yul\":17129:17148   */\n      mstore\n        /* \"#utility.yul\":17181:17185   */\n      0x20\n        /* \"#utility.yul\":17176:17179   */\n      dup3\n        /* \"#utility.yul\":17172:17186   */\n      add\n        /* \"#utility.yul\":17157:17186   */\n      swap1\n      pop\n        /* \"#utility.yul\":17023:17192   */\n      swap3\n      swap2\n      pop\n      pop\n      jump\t// out\n        /* \"#utility.yul\":17198:17365   */\n    tag_394:\n        /* \"#utility.yul\":17338:17357   */\n      0x4e6f7420656e6f75676874206d6f6e6579000000000000000000000000000000\n        /* \"#utility.yul\":17334:17335   */\n      0x00\n        /* \"#utility.yul\":17326:17332   */\n      dup3\n        /* \"#utility.yul\":17322:17336   */\n      add\n        /* \"#utility.yul\":17315:17358   */\n      mstore\n        /* \"#utility.yul\":17198:17365   */\n      pop\n      jump\t// out\n        /* \"#utility.yul\":17371:17737   */\n    tag_395:\n        /* \"#utility.yul\":17513:17516   */\n      0x00\n        /* \"#utility.yul\":17534:17601   */\n      tag_578\n        /* \"#utility.yul\":17598:17600   */\n      0x11\n        /* \"#utility.yul\":17593:17596   */\n      dup4\n        /* \"#utility.yul\":17534:17601   */\n      tag_393\n      jump\t// in\n    tag_578:\n        /* \"#utility.yul\":17527:17601   */\n      swap2\n      pop\n        /* \"#utility.yul\":17610:17703   */\n      tag_579\n        /* \"#utility.yul\":17699:17702   */\n      dup3\n        /* \"#utility.yul\":17610:17703   */\n      tag_394\n      jump\t// in\n    tag_579:\n        /* \"#utility.yul\":17728:17730   */\n      0x20\n        /* \"#utility.yul\":17723:17726   */\n      dup3\n        /* \"#utility.yul\":17719:17731   */\n      add\n        /* \"#utility.yul\":17712:17731   */\n      swap1\n      pop\n        /* \"#utility.yul\":17371:17737   */\n      swap2\n      swap1\n      pop\n      jump\t// out\n        /* \"#utility.yul\":17743:18162   */\n    tag_134:\n        /* \"#utility.yul\":17909:17913   */\n      0x00\n        /* \"#utility.yul\":17947:17949   */\n      0x20\n        /* \"#utility.yul\":17936:17945   */\n      dup3\n        /* \"#utility.yul\":17932:17950   */\n      add\n        /* \"#utility.yul\":17924:17950   */\n      swap1\n      pop\n        /* \"#utility.yul\":17996:18005   */\n      dup2\n        /* \"#utility.yul\":17990:17994   */\n      dup2\n        /* \"#utility.yul\":17986:18006   */\n      sub\n        /* \"#utility.yul\":17982:17983   */\n      0x00\n        /* \"#utility.yul\":17971:17980   */\n      dup4\n        /* \"#utility.yul\":17967:17984   */\n      add\n        /* \"#utility.yul\":17960:18007   */\n      mstore\n        /* \"#utility.yul\":18024:18155   */\n      tag_581\n        /* \"#utility.yul\":18150:18154   */\n      dup2\n        /* \"#utility.yul\":18024:18155   */\n      tag_395\n      jump\t// in\n    tag_581:\n        /* \"#utility.yul\":18016:18155   */\n      swap1\n      pop\n        /* \"#utility.yul\":17743:18162   */\n      swap2\n      swap1\n      pop\n      jump\t// out\n        /* \"#utility.yul\":18168:18341   */\n    tag_396:\n        /* \"#utility.yul\":18308:18333   */\n      0x617272617973206c656e67687473206d69736d61746368000000000000000000\n        /* \"#utility.yul\":18304:18305   */\n      0x00\n        /* \"#utility.yul\":18296:18302   */\n      dup3\n        /* \"#utility.yul\":18292:18306   */\n      add\n        /* \"#utility.yul\":18285:18334   */\n      mstore\n        /* \"#utility.yul\":18168:18341   */\n      pop\n      jump\t// out\n        /* \"#utility.yul\":18347:18713   */\n    tag_397:\n        /* \"#utility.yul\":18489:18492   */\n      0x00\n        /* \"#utility.yul\":18510:18577   */\n      tag_584\n        /* \"#utility.yul\":18574:18576   */\n      0x17\n        /* \"#utility.yul\":18569:18572   */\n      dup4\n        /* \"#utility.yul\":18510:18577   */\n      tag_393\n      jump\t// in\n    tag_584:\n        /* \"#utility.yul\":18503:18577   */\n      swap2\n      pop\n        /* \"#utility.yul\":18586:18679   */\n      tag_585\n        /* \"#utility.yul\":18675:18678   */\n      dup3\n        /* \"#utility.yul\":18586:18679   */\n      tag_396\n      jump\t// in\n    tag_585:\n        /* \"#utility.yul\":18704:18706   */\n      0x20\n        /* \"#utility.yul\":18699:18702   */\n      dup3\n        /* \"#utility.yul\":18695:18707   */\n      add\n        /* \"#utility.yul\":18688:18707   */\n      swap1\n      pop\n        /* \"#utility.yul\":18347:18713   */\n      swap2\n      swap1\n      pop\n      jump\t// out\n        /* \"#utility.yul\":18719:19138   */\n    tag_150:\n        /* \"#utility.yul\":18885:18889   */\n      0x00\n        /* \"#utility.yul\":18923:18925   */\n      0x20\n        /* \"#utility.yul\":18912:18921   */\n      dup3\n        /* \"#utility.yul\":18908:18926   */\n      add\n        /* \"#utility.yul\":18900:18926   */\n      swap1\n      pop\n        /* \"#utility.yul\":18972:18981   */\n      dup2\n        /* \"#utility.yul\":18966:18970   */\n      dup2\n        /* \"#utility.yul\":18962:18982   */\n      sub\n        /* \"#utility.yul\":18958:18959   */\n      0x00\n        /* \"#utility.yul\":18947:18956   */\n      dup4\n        /* \"#utility.yul\":18943:18960   */\n      add\n        /* \"#utility.yul\":18936:18983   */\n      mstore\n        /* \"#utility.yul\":19000:19131   */\n      tag_587\n        /* \"#utility.yul\":19126:19130   */\n      dup2\n        /* \"#utility.yul\":19000:19131   */\n      tag_397\n      jump\t// in\n    tag_587:\n        /* \"#utility.yul\":18992:19131   */\n      swap1\n      pop\n        /* \"#utility.yul\":18719:19138   */\n      swap2\n      swap1\n      pop\n      jump\t// out\n        /* \"#utility.yul\":19144:19324   */\n    tag_156:\n        /* \"#utility.yul\":19192:19269   */\n      0x4e487b7100000000000000000000000000000000000000000000000000000000\n        /* \"#utility.yul\":19189:19190   */\n      0x00\n        /* \"#utility.yul\":19182:19270   */\n      mstore\n        /* \"#utility.yul\":19289:19293   */\n      0x32\n        /* \"#utility.yul\":19286:19287   */\n      0x04\n        /* \"#utility.yul\":19279:19294   */\n      mstore\n        /* \"#utility.yul\":19313:19317   */\n      0x24\n        /* \"#utility.yul\":19310:19311   */\n      0x00\n        /* \"#utility.yul\":19303:19318   */\n      revert\n        /* \"#utility.yul\":19330:19510   */\n    tag_398:\n        /* \"#utility.yul\":19378:19455   */\n      0x4e487b7100000000000000000000000000000000000000000000000000000000\n        /* \"#utility.yul\":19375:19376   */\n      0x00\n        /* \"#utility.yul\":19368:19456   */\n      mstore\n        /* \"#utility.yul\":19475:19479   */\n      0x11\n        /* \"#utility.yul\":19472:19473   */\n      0x04\n        /* \"#utility.yul\":19465:19480   */\n      mstore\n        /* \"#utility.yul\":19499:19503   */\n      0x24\n        /* \"#utility.yul\":19496:19497   */\n      0x00\n        /* \"#utility.yul\":19489:19504   */\n      revert\n        /* \"#utility.yul\":19516:19926   */\n    tag_164:\n        /* \"#utility.yul\":19556:19563   */\n      0x00\n        /* \"#utility.yul\":19579:19599   */\n      tag_591\n        /* \"#utility.yul\":19597:19598   */\n      dup3\n        /* \"#utility.yul\":19579:19599   */\n      tag_353\n      jump\t// in\n    tag_591:\n        /* \"#utility.yul\":19574:19599   */\n      swap2\n      pop\n        /* \"#utility.yul\":19613:19633   */\n      tag_592\n        /* \"#utility.yul\":19631:19632   */\n      dup4\n        /* \"#utility.yul\":19613:19633   */\n      tag_353\n      jump\t// in\n    tag_592:\n        /* \"#utility.yul\":19608:19633   */\n      swap3\n      pop\n        /* \"#utility.yul\":19668:19669   */\n      dup3\n        /* \"#utility.yul\":19665:19666   */\n      dup3\n        /* \"#utility.yul\":19661:19670   */\n      mul\n        /* \"#utility.yul\":19690:19720   */\n      tag_593\n        /* \"#utility.yul\":19708:19719   */\n      dup2\n        /* \"#utility.yul\":19690:19720   */\n      tag_353\n      jump\t// in\n    tag_593:\n        /* \"#utility.yul\":19679:19720   */\n      swap2\n      pop\n        /* \"#utility.yul\":19869:19870   */\n      dup3\n        /* \"#utility.yul\":19860:19867   */\n      dup3\n        /* \"#utility.yul\":19856:19871   */\n      div\n        /* \"#utility.yul\":19853:19854   */\n      dup5\n        /* \"#utility.yul\":19850:19872   */\n      eq\n        /* \"#utility.yul\":19830:19831   */\n      dup4\n        /* \"#utility.yul\":19823:19832   */\n      iszero\n        /* \"#utility.yul\":19803:19886   */\n      or\n        /* \"#utility.yul\":19780:19919   */\n      tag_594\n      jumpi\n        /* \"#utility.yul\":19899:19917   */\n      tag_595\n      tag_398\n      jump\t// in\n    tag_595:\n        /* \"#utility.yul\":19780:19919   */\n    tag_594:\n        /* \"#utility.yul\":19564:19926   */\n      pop\n        /* \"#utility.yul\":19516:19926   */\n      swap3\n      swap2\n      pop\n      pop\n      jump\t// out\n        /* \"#utility.yul\":19932:20123   */\n    tag_166:\n        /* \"#utility.yul\":19972:19975   */\n      0x00\n        /* \"#utility.yul\":19991:20011   */\n      tag_597\n        /* \"#utility.yul\":20009:20010   */\n      dup3\n        /* \"#utility.yul\":19991:20011   */\n      tag_353\n      jump\t// in\n    tag_597:\n        /* \"#utility.yul\":19986:20011   */\n      swap2\n      pop\n        /* \"#utility.yul\":20025:20045   */\n      tag_598\n        /* \"#utility.yul\":20043:20044   */\n      dup4\n        /* \"#utility.yul\":20025:20045   */\n      tag_353\n      jump\t// in\n    tag_598:\n        /* \"#utility.yul\":20020:20045   */\n      swap3\n      pop\n        /* \"#utility.yul\":20068:20069   */\n      dup3\n        /* \"#utility.yul\":20065:20066   */\n      dup3\n        /* \"#utility.yul\":20061:20070   */\n      add\n        /* \"#utility.yul\":20054:20070   */\n      swap1\n      pop\n        /* \"#utility.yul\":20089:20092   */\n      dup1\n        /* \"#utility.yul\":20086:20087   */\n      dup3\n        /* \"#utility.yul\":20083:20093   */\n      gt\n        /* \"#utility.yul\":20080:20116   */\n      iszero\n      tag_599\n      jumpi\n        /* \"#utility.yul\":20096:20114   */\n      tag_600\n      tag_398\n      jump\t// in\n    tag_600:\n        /* \"#utility.yul\":20080:20116   */\n    tag_599:\n        /* \"#utility.yul\":19932:20123   */\n      swap3\n      swap2\n      pop\n      pop\n      jump\t// out\n        /* \"#utility.yul\":20129:20323   */\n    tag_179:\n        /* \"#utility.yul\":20169:20173   */\n      0x00\n        /* \"#utility.yul\":20189:20209   */\n      tag_602\n        /* \"#utility.yul\":20207:20208   */\n      dup3\n        /* \"#utility.yul\":20189:20209   */\n      tag_353\n      jump\t// in\n    tag_602:\n        /* \"#utility.yul\":20184:20209   */\n      swap2\n      pop\n        /* \"#utility.yul\":20223:20243   */\n      tag_603\n        /* \"#utility.yul\":20241:20242   */\n      dup4\n        /* \"#utility.yul\":20223:20243   */\n      tag_353\n      jump\t// in\n    tag_603:\n        /* \"#utility.yul\":20218:20243   */\n      swap3\n      pop\n        /* \"#utility.yul\":20267:20268   */\n      dup3\n        /* \"#utility.yul\":20264:20265   */\n      dup3\n        /* \"#utility.yul\":20260:20269   */\n      sub\n        /* \"#utility.yul\":20252:20269   */\n      swap1\n      pop\n        /* \"#utility.yul\":20291:20292   */\n      dup2\n        /* \"#utility.yul\":20285:20289   */\n      dup2\n        /* \"#utility.yul\":20282:20293   */\n      gt\n        /* \"#utility.yul\":20279:20316   */\n      iszero\n      tag_604\n      jumpi\n        /* \"#utility.yul\":20296:20314   */\n      tag_605\n      tag_398\n      jump\t// in\n    tag_605:\n        /* \"#utility.yul\":20279:20316   */\n    tag_604:\n        /* \"#utility.yul\":20129:20323   */\n      swap3\n      swap2\n      pop\n      pop\n      jump\t// out\n        /* \"#utility.yul\":20329:20478   */\n    tag_399:\n        /* \"#utility.yul\":20378:20384   */\n      0x00\n        /* \"#utility.yul\":20412:20417   */\n      dup2\n        /* \"#utility.yul\":20406:20418   */\n      sload\n        /* \"#utility.yul\":20396:20418   */\n      swap1\n      pop\n        /* \"#utility.yul\":20438:20471   */\n      tag_607\n        /* \"#utility.yul\":20464:20470   */\n      dup2\n        /* \"#utility.yul\":20438:20471   */\n      tag_220\n      jump\t// in\n    tag_607:\n        /* \"#utility.yul\":20428:20471   */\n      swap1\n      pop\n        /* \"#utility.yul\":20329:20478   */\n      swap2\n      swap1\n      pop\n      jump\t// out\n        /* \"#utility.yul\":20484:21935   */\n    tag_253:\n        /* \"#utility.yul\":20595:20598   */\n      dup2\n        /* \"#utility.yul\":20589:20593   */\n      dup2\n        /* \"#utility.yul\":20586:20599   */\n      sub\n        /* \"#utility.yul\":20583:20609   */\n      tag_609\n      jumpi\n        /* \"#utility.yul\":20602:20607   */\n      pop\n      pop\n      jump(tag_608)\n        /* \"#utility.yul\":20583:20609   */\n    tag_609:\n        /* \"#utility.yul\":20633:20667   */\n      tag_610\n        /* \"#utility.yul\":20663:20666   */\n      dup3\n        /* \"#utility.yul\":20633:20667   */\n      tag_399\n      jump\t// in\n    tag_610:\n        /* \"#utility.yul\":20732:20750   */\n      0xffffffffffffffff\n        /* \"#utility.yul\":20724:20730   */\n      dup2\n        /* \"#utility.yul\":20721:20751   */\n      gt\n        /* \"#utility.yul\":20718:20774   */\n      iszero\n      tag_611\n      jumpi\n        /* \"#utility.yul\":20754:20772   */\n      tag_612\n      tag_376\n      jump\t// in\n    tag_612:\n        /* \"#utility.yul\":20718:20774   */\n    tag_611:\n        /* \"#utility.yul\":20798:20836   */\n      tag_613\n        /* \"#utility.yul\":20830:20834   */\n      dup3\n        /* \"#utility.yul\":20824:20835   */\n      sload\n        /* \"#utility.yul\":20798:20836   */\n      tag_220\n      jump\t// in\n    tag_613:\n        /* \"#utility.yul\":20883:20950   */\n      tag_614\n        /* \"#utility.yul\":20943:20949   */\n      dup3\n        /* \"#utility.yul\":20935:20941   */\n      dup3\n        /* \"#utility.yul\":20929:20933   */\n      dup6\n        /* \"#utility.yul\":20883:20950   */\n      tag_389\n      jump\t// in\n    tag_614:\n        /* \"#utility.yul\":20977:20978   */\n      0x00\n        /* \"#utility.yul\":21006:21008   */\n      0x1f\n        /* \"#utility.yul\":20998:21004   */\n      dup4\n        /* \"#utility.yul\":20995:21009   */\n      gt\n        /* \"#utility.yul\":21023:21024   */\n      0x01\n        /* \"#utility.yul\":21018:21690   */\n      dup2\n      eq\n      tag_616\n      jumpi\n        /* \"#utility.yul\":21734:21735   */\n      0x00\n        /* \"#utility.yul\":21751:21757   */\n      dup5\n        /* \"#utility.yul\":21748:21825   */\n      iszero\n      tag_617\n      jumpi\n        /* \"#utility.yul\":21800:21809   */\n      dup3\n        /* \"#utility.yul\":21795:21798   */\n      dup8\n        /* \"#utility.yul\":21791:21810   */\n      add\n        /* \"#utility.yul\":21785:21811   */\n      sload\n        /* \"#utility.yul\":21776:21811   */\n      swap1\n      pop\n        /* \"#utility.yul\":21748:21825   */\n    tag_617:\n        /* \"#utility.yul\":21851:21918   */\n      tag_618\n        /* \"#utility.yul\":21911:21917   */\n      dup6\n        /* \"#utility.yul\":21904:21909   */\n      dup3\n        /* \"#utility.yul\":21851:21918   */\n      tag_392\n      jump\t// in\n    tag_618:\n        /* \"#utility.yul\":21845:21849   */\n      dup7\n        /* \"#utility.yul\":21838:21919   */\n      sstore\n        /* \"#utility.yul\":21707:21929   */\n      pop\n        /* \"#utility.yul\":20988:21929   */\n      jump(tag_615)\n        /* \"#utility.yul\":21018:21690   */\n    tag_616:\n        /* \"#utility.yul\":21070:21074   */\n      0x1f\n        /* \"#utility.yul\":21066:21075   */\n      not\n        /* \"#utility.yul\":21058:21064   */\n      dup5\n        /* \"#utility.yul\":21054:21076   */\n      and\n        /* \"#utility.yul\":21096:21132   */\n      tag_619\n        /* \"#utility.yul\":21128:21131   */\n      dup8\n        /* \"#utility.yul\":21096:21132   */\n      tag_378\n      jump\t// in\n    tag_619:\n        /* \"#utility.yul\":21089:21132   */\n      swap7\n      pop\n        /* \"#utility.yul\":21159:21196   */\n      tag_620\n        /* \"#utility.yul\":21191:21195   */\n      dup7\n        /* \"#utility.yul\":21159:21196   */\n      tag_378\n      jump\t// in\n    tag_620:\n        /* \"#utility.yul\":21218:21219   */\n      0x00\n        /* \"#utility.yul\":21232:21439   */\n    tag_621:\n        /* \"#utility.yul\":21246:21253   */\n      dup3\n        /* \"#utility.yul\":21243:21244   */\n      dup2\n        /* \"#utility.yul\":21240:21254   */\n      lt\n        /* \"#utility.yul\":21232:21439   */\n      iszero\n      tag_623\n      jumpi\n        /* \"#utility.yul\":21325:21334   */\n      dup5\n        /* \"#utility.yul\":21320:21323   */\n      dup10\n        /* \"#utility.yul\":21316:21335   */\n      add\n        /* \"#utility.yul\":21310:21336   */\n      sload\n        /* \"#utility.yul\":21302:21308   */\n      dup3\n        /* \"#utility.yul\":21295:21337   */\n      sstore\n        /* \"#utility.yul\":21376:21377   */\n      0x01\n        /* \"#utility.yul\":21368:21374   */\n      dup3\n        /* \"#utility.yul\":21364:21378   */\n      add\n        /* \"#utility.yul\":21354:21378   */\n      swap2\n      pop\n        /* \"#utility.yul\":21423:21424   */\n      0x01\n        /* \"#utility.yul\":21412:21421   */\n      dup6\n        /* \"#utility.yul\":21408:21425   */\n      add\n        /* \"#utility.yul\":21395:21425   */\n      swap5\n      pop\n        /* \"#utility.yul\":21269:21273   */\n      0x20\n        /* \"#utility.yul\":21266:21267   */\n      dup2\n        /* \"#utility.yul\":21262:21274   */\n      add\n        /* \"#utility.yul\":21257:21274   */\n      swap1\n      pop\n        /* \"#utility.yul\":21232:21439   */\n      jump(tag_621)\n    tag_623:\n        /* \"#utility.yul\":21467:21473   */\n      dup7\n        /* \"#utility.yul\":21458:21465   */\n      dup4\n        /* \"#utility.yul\":21455:21474   */\n      lt\n        /* \"#utility.yul\":21452:21631   */\n      iszero\n      tag_624\n      jumpi\n        /* \"#utility.yul\":21525:21534   */\n      dup5\n        /* \"#utility.yul\":21520:21523   */\n      dup10\n        /* \"#utility.yul\":21516:21535   */\n      add\n        /* \"#utility.yul\":21510:21536   */\n      sload\n        /* \"#utility.yul\":21568:21616   */\n      tag_625\n        /* \"#utility.yul\":21610:21614   */\n      0x1f\n        /* \"#utility.yul\":21602:21608   */\n      dup10\n        /* \"#utility.yul\":21598:21615   */\n      and\n        /* \"#utility.yul\":21587:21596   */\n      dup3\n        /* \"#utility.yul\":21568:21616   */\n      tag_391\n      jump\t// in\n    tag_625:\n        /* \"#utility.yul\":21560:21566   */\n      dup4\n        /* \"#utility.yul\":21553:21617   */\n      sstore\n        /* \"#utility.yul\":21475:21631   */\n      pop\n        /* \"#utility.yul\":21452:21631   */\n    tag_624:\n        /* \"#utility.yul\":21677:21678   */\n      0x01\n        /* \"#utility.yul\":21673:21674   */\n      0x02\n        /* \"#utility.yul\":21665:21671   */\n      dup9\n        /* \"#utility.yul\":21661:21675   */\n      mul\n        /* \"#utility.yul\":21657:21679   */\n      add\n        /* \"#utility.yul\":21651:21655   */\n      dup9\n        /* \"#utility.yul\":21644:21680   */\n      sstore\n        /* \"#utility.yul\":21025:21690   */\n      pop\n      pop\n      pop\n        /* \"#utility.yul\":20988:21929   */\n    tag_615:\n      pop\n        /* \"#utility.yul\":20573:21935   */\n      pop\n      pop\n      pop\n        /* \"#utility.yul\":20484:21935   */\n      pop\n      pop\n    tag_608:\n      jump\t// out\n        /* \"#utility.yul\":21941:22121   */\n    tag_256:\n        /* \"#utility.yul\":21989:22066   */\n      0x4e487b7100000000000000000000000000000000000000000000000000000000\n        /* \"#utility.yul\":21986:21987   */\n      0x00\n        /* \"#utility.yul\":21979:22067   */\n      mstore\n        /* \"#utility.yul\":22086:22090   */\n      0x31\n        /* \"#utility.yul\":22083:22084   */\n      0x04\n        /* \"#utility.yul\":22076:22091   */\n      mstore\n        /* \"#utility.yul\":22110:22114   */\n      0x24\n        /* \"#utility.yul\":22107:22108   */\n      0x00\n        /* \"#utility.yul\":22100:22115   */\n      revert\n        /* \"#utility.yul\":22127:22360   */\n    tag_330:\n        /* \"#utility.yul\":22166:22169   */\n      0x00\n        /* \"#utility.yul\":22189:22213   */\n      tag_628\n        /* \"#utility.yul\":22207:22212   */\n      dup3\n        /* \"#utility.yul\":22189:22213   */\n      tag_353\n      jump\t// in\n    tag_628:\n        /* \"#utility.yul\":22180:22213   */\n      swap2\n      pop\n        /* \"#utility.yul\":22235:22301   */\n      0xffffffffffffffffffffffffffffffffffffffffffffffffffffffffffffffff\n        /* \"#utility.yul\":22228:22233   */\n      dup3\n        /* \"#utility.yul\":22225:22302   */\n      sub\n        /* \"#utility.yul\":22222:22325   */\n      tag_629\n      jumpi\n        /* \"#utility.yul\":22305:22323   */\n      tag_630\n      tag_398\n      jump\t// in\n    tag_630:\n        /* \"#utility.yul\":22222:22325   */\n    tag_629:\n        /* \"#utility.yul\":22352:22353   */\n      0x01\n        /* \"#utility.yul\":22345:22350   */\n      dup3\n        /* \"#utility.yul\":22341:22354   */\n      add\n        /* \"#utility.yul\":22334:22354   */\n      swap1\n      pop\n        /* \"#utility.yul\":22127:22360   */\n      swap2\n      swap1\n      pop\n      jump\t// out\n\n    auxdata: 0xa2646970667358221220888d7284c236e40e17e0de0aa18e186729ba9fdd77fd315027f3c702ab687ac964736f6c634300081e0033\n}\n",
				"bytecode": {
					"linkReferences": {},
					"object": "608060405234801561000f575f5ffd5b50335f73ffffffffffffffffffffffffffffffffffffffff168173ffffffffffffffffffffffffffffffffffffffff1603610081575f6040517f1e4fbdf70000000000000000000000000000000000000000000000000000000081526004016100789190610196565b60405180910390fd5b6100908161009660201b60201c565b506101af565b5f5f5f9054906101000a900473ffffffffffffffffffffffffffffffffffffffff169050815f5f6101000a81548173ffffffffffffffffffffffffffffffffffffffff021916908373ffffffffffffffffffffffffffffffffffffffff1602179055508173ffffffffffffffffffffffffffffffffffffffff168173ffffffffffffffffffffffffffffffffffffffff167f8be0079c531659141344cd1fd0a4f28419497f9722a3daafe3b4186f6b6457e060405160405180910390a35050565b5f73ffffffffffffffffffffffffffffffffffffffff82169050919050565b5f61018082610157565b9050919050565b61019081610176565b82525050565b5f6020820190506101a95f830184610187565b92915050565b6123b5806101bc5f395ff3fe60806040526004361061011e575f3560e01c8063957fae961161009f578063d6febde811610063578063d6febde8146103ba578063e7572230146103d6578063ed90c7b714610412578063f2fde38b1461043a578063fa89401a146104625761011e565b8063957fae96146102da5780639dfc3dd114610304578063bda235da1461032c578063c29b2f2014610354578063ce4df3811461037e5761011e565b8063715018a6116100e6578063715018a614610218578063723cdb1d1461022e57806382367b2d1461024a5780638392fe31146102725780638da5cb5b146102b05761011e565b8063094455c4146101225780633ab7d09a1461014a5780633ccfd60b14610186578063580252121461019c5780636038d0cf146101da575b5f5ffd5b34801561012d575f5ffd5b5061014860048036038101906101439190611875565b61047e565b005b348015610155575f5ffd5b50610170600480360381019061016b91906118f9565b61058d565b60405161017d9190611933565b60405180910390f35b348015610191575f5ffd5b5061019a6105a7565b005b3480156101a7575f5ffd5b506101c260048036038101906101bd91906118f9565b610643565b6040516101d19392919061198b565b60405180910390f35b3480156101e5575f5ffd5b5061020060048036038101906101fb91906119ea565b610697565b60405161020f9392919061198b565b60405180910390f35b348015610223575f5ffd5b5061022c6106f6565b005b61024860048036038101906102439190611a7d565b610709565b005b348015610255575f5ffd5b50610270600480360381019061026b9190611afb565b610949565b005b34801561027d575f5ffd5b50610298600480360381019061029391906118f9565b61096b565b6040516102a79392919061198b565b60405180910390f35b3480156102bb575f5ffd5b506102c46109bf565b6040516102d19190611b39565b60405180910390f35b3480156102e5575f5ffd5b506102ee6109e6565b6040516102fb9190611933565b60405180910390f35b34801561030f575f5ffd5b5061032a60048036038101906103259190611afb565b610a40565b005b348015610337575f5ffd5b50610352600480360381019061034d9190611b52565b610a62565b005b34801561035f575f5ffd5b50610368610c09565b6040516103759190611d17565b60405180910390f35b348015610389575f5ffd5b506103a4600480360381019061039f91906118f9565b610d12565b6040516103b19190611933565b60405180910390f35b6103d460048036038101906103cf9190611afb565b610d27565b005b3480156103e1575f5ffd5b506103fc60048036038101906103f791906118f9565b610e5b565b6040516104099190611933565b60405180910390f35b34801561041d575f5ffd5b50610438600480360381019061043391906118f9565b610e75565b005b348015610445575f5ffd5b50610460600480360381019061045b9190611b52565b610f99565b005b61047c60048036038101906104779190611b52565b61101d565b005b6104866110d2565b61048f83611159565b156104c6576040517ff270498400000000000000000000000000000000000000000000000000000000815260040160405180910390fd5b6004604051806080016040528087878080601f0160208091040260200160405190810160405280939291908181526020018383808284375f81840152601f19601f82011690508083019250505050505050815260200185815260200184815260200183815250908060018154018082558091505060019003905f5260205f2090600402015f909190919091505f820151815f0190816105659190611f61565b5060208201518160010155604082015181600201556060820151816003015550505050505050565b5f5f610598836111b7565b90508060020154915050919050565b6105af6110d2565b5f4790505f81116105f5576040517f08c379a00000000000000000000000000000000000000000000000000000000081526004016105ec9061208a565b60405180910390fd5b6105fd6109bf565b73ffffffffffffffffffffffffffffffffffffffff166108fc8290811502906040515f60405180830381858888f1935050505015801561063f573d5f5f3e3d5ffd5b5050565b60038181548110610652575f80fd5b905f5260205f2090600302015f91509050805f015f9054906101000a900473ffffffffffffffffffffffffffffffffffffffff16908060010154908060020154905083565b6001602052815f5260405f2081815481106106b0575f80fd5b905f5260205f2090600302015f9150915050805f015f9054906101000a900473ffffffffffffffffffffffffffffffffffffffff16908060010154908060020154905083565b6106fe6110d2565b6107075f611261565b565b818190508484905014610751576040517f08c379a0000000000000000000000000000000000000000000000000000000008152600401610748906120f2565b60405180910390fd5b5f5f90505f5f90505b8585905081101561084a575f84848381811061077957610778612110565b5b9050602002013590505f87878481811061079657610795612110565b5b9050602002013590505f82116107d8576040517f02e9794a00000000000000000000000000000000000000000000000000000000815260040160405180910390fd5b816107e28261058d565b101561081a576040517fade1cb4100000000000000000000000000000000000000000000000000000000815260040160405180910390fd5b8161082482610e5b565b61082e919061216a565b8461083991906121ab565b93505050808060010191505061075a565b5080341015610885576040517fc1463a4000000000000000000000000000000000000000000000000000000000815260040160405180910390fd5b5f5f90505b858590508110156108e9575f8484838181106108a9576108a8612110565b5b9050602002013590505f8787848181106108c6576108c5612110565b5b9050602002013590506108da338284611322565b5050808060010191505061088a565b5080341115610942573373ffffffffffffffffffffffffffffffffffffffff166108fc823461091891906121de565b90811502906040515f60405180830381858888f19350505050158015610940573d5f5f3e3d5ffd5b505b5050505050565b6109516110d2565b5f61095b836111b7565b9050818160030181905550505050565b6005818154811061097a575f80fd5b905f5260205f2090600302015f91509050805f015f9054906101000a900473ffffffffffffffffffffffffffffffffffffffff16908060010154908060020154905083565b5f5f5f9054906101000a900473ffffffffffffffffffffffffffffffffffffffff16905090565b5f5f5f5f90505b600580549050811015610a385760058181548110610a0e57610a0d612110565b5b905f5260205f2090600302016002015482610a2991906121ab565b915080806001019150506109ed565b508091505090565b610a486110d2565b5f610a52836111b7565b9050818160020181905550505050565b5f5f90505b600580549050811015610bb7578173ffffffffffffffffffffffffffffffffffffffff1660058281548110610a9f57610a9e612110565b5b905f5260205f2090600302015f015f9054906101000a900473ffffffffffffffffffffffffffffffffffffffff1673ffffffffffffffffffffffffffffffffffffffff1603610baa57600360058281548110610afe57610afd612110565b5b905f5260205f209060030201908060018154018082558091505060019003905f5260205f2090600302015f909190919091505f82015f9054906101000a900473ffffffffffffffffffffffffffffffffffffffff16815f015f6101000a81548173ffffffffffffffffffffffffffffffffffffffff021916908373ffffffffffffffffffffffffffffffffffffffff160217905550600182015481600101556002820154816002015550505b8080600101915050610a67565b50600360015f8373ffffffffffffffffffffffffffffffffffffffff1673ffffffffffffffffffffffffffffffffffffffff1681526020019081526020015f20908054610c05929190611638565b5050565b60606004805480602002602001604051908101604052809291908181526020015f905b82821015610d09578382905f5260205f2090600402016040518060800160405290815f82018054610c5c90611d91565b80601f0160208091040260200160405190810160405280929190818152602001828054610c8890611d91565b8015610cd35780601f10610caa57610100808354040283529160200191610cd3565b820191905f5260205f20905b815481529060010190602001808311610cb657829003601f168201915b50505050508152602001600182015481526020016002820154815260200160038201548152505081526020019060010190610c2c565b50505050905090565b6002602052805f5260405f205f915090505481565b5f8111610d60576040517f02e9794a00000000000000000000000000000000000000000000000000000000815260040160405180910390fd5b80610d6a8361058d565b1015610da2576040517fade1cb4100000000000000000000000000000000000000000000000000000000815260040160405180910390fd5b5f81610dad84610e5b565b610db7919061216a565b905080341015610df3576040517fc1463a4000000000000000000000000000000000000000000000000000000000815260040160405180910390fd5b610dfe338484611322565b80341115610e56573373ffffffffffffffffffffffffffffffffffffffff166108fc8234610e2c91906121de565b90811502906040515f60405180830381858888f19350505050158015610e54573d5f5f3e3d5ffd5b505b505050565b5f5f610e66836111b7565b90508060030154915050919050565b610e7d6110d2565b5f5f610e88836113c9565b9150915081610ec3576040517fc270964900000000000000000000000000000000000000000000000000000000815260040160405180910390fd5b60046001600480549050610ed791906121de565b81548110610ee857610ee7612110565b5b905f5260205f20906004020160048281548110610f0857610f07612110565b5b905f5260205f2090600402015f8201815f019081610f269190612226565b506001820154816001015560028201548160020155600382015481600301559050506004805480610f5a57610f5961230b565b5b600190038181905f5260205f2090600402015f5f82015f610f7b9190611703565b600182015f9055600282015f9055600382015f905550509055505050565b610fa16110d2565b5f73ffffffffffffffffffffffffffffffffffffffff168173ffffffffffffffffffffffffffffffffffffffff1603611011575f6040517f1e4fbdf70000000000000000000000000000000000000000000000000000000081526004016110089190611b39565b60405180910390fd5b61101a81611261565b50565b5f6110278261142e565b90505f81604001514761103a91906121ab565b90505f811161107e576040517f08c379a00000000000000000000000000000000000000000000000000000000081526004016110759061208a565b60405180910390fd5b6110866109bf565b73ffffffffffffffffffffffffffffffffffffffff166108fc836040015190811502906040515f60405180830381858888f193505050501580156110cc573d5f5f3e3d5ffd5b50505050565b6110da611561565b73ffffffffffffffffffffffffffffffffffffffff166110f86109bf565b73ffffffffffffffffffffffffffffffffffffffff16146111575761111b611561565b6040517f118cdaa700000000000000000000000000000000000000000000000000000000815260040161114e9190611b39565b60405180910390fd5b565b5f5f5f90505b6004805490508110156111ad57826004828154811061118157611180612110565b5b905f5260205f20906004020160010154036111a05760019150506111b2565b808060010191505061115f565b505f90505b919050565b5f5f5f90505b6004805490508110156112295782600482815481106111df576111de612110565b5b905f5260205f209060040201600101540361121c576004818154811061120857611207612110565b5b905f5260205f20906004020191505061125c565b80806001019150506111bd565b506040517fc270964900000000000000000000000000000000000000000000000000000000815260040160405180910390fd5b919050565b5f5f5f9054906101000a900473ffffffffffffffffffffffffffffffffffffffff169050815f5f6101000a81548173ffffffffffffffffffffffffffffffffffffffff021916908373ffffffffffffffffffffffffffffffffffffffff1602179055508173ffffffffffffffffffffffffffffffffffffffff168173ffffffffffffffffffffffffffffffffffffffff167f8be0079c531659141344cd1fd0a4f28419497f9722a3daafe3b4186f6b6457e060405160405180910390a35050565b5f61132c836111b7565b905081816002015f82825461134191906121de565b925050819055508160025f8581526020019081526020015f205f82825461136891906121ab565b9250508190555061138884838360030154611383919061216a565b611568565b7f12cb4648cf3058b17ceeb33e579f8b0bc269fe0843f3900b8e24b6c54871703c8484846040516113bb9392919061198b565b60405180910390a150505050565b5f5f5f5f90505b6004805490508110156114215783600482815481106113f2576113f1612110565b5b905f5260205f2090600402016001015403611414576001819250925050611429565b80806001019150506113d0565b505f5f915091505b915091565b611436611740565b5f60015f8473ffffffffffffffffffffffffffffffffffffffff1673ffffffffffffffffffffffffffffffffffffffff1681526020019081526020015f20805480602002602001604051908101604052809291908181526020015f905b8282101561152b578382905f5260205f2090600302016040518060600160405290815f82015f9054906101000a900473ffffffffffffffffffffffffffffffffffffffff1673ffffffffffffffffffffffffffffffffffffffff1673ffffffffffffffffffffffffffffffffffffffff1681526020016001820154815260200160028201548152505081526020019060010190611493565b505050509050806001825161154091906121de565b8151811061155157611550612110565b5b6020026020010151915050919050565b5f33905090565b60065f81548092919061157a90612338565b9190505550600560405180606001604052808473ffffffffffffffffffffffffffffffffffffffff168152602001600654815260200183815250908060018154018082558091505060019003905f5260205f2090600302015f909190919091505f820151815f015f6101000a81548173ffffffffffffffffffffffffffffffffffffffff021916908373ffffffffffffffffffffffffffffffffffffffff160217905550602082015181600101556040820151816002015550505050565b828054828255905f5260205f209060030281019282156116f2575f5260205f209160030282015b828111156116f15782825f82015f9054906101000a900473ffffffffffffffffffffffffffffffffffffffff16815f015f6101000a81548173ffffffffffffffffffffffffffffffffffffffff021916908373ffffffffffffffffffffffffffffffffffffffff160217905550600182015481600101556002820154816002015550509160030191906003019061165f565b5b5090506116ff9190611774565b5090565b50805461170f90611d91565b5f825580601f10611720575061173d565b601f0160209004905f5260205f209081019061173c91906117be565b5b50565b60405180606001604052805f73ffffffffffffffffffffffffffffffffffffffff1681526020015f81526020015f81525090565b5b808211156117ba575f5f82015f6101000a81549073ffffffffffffffffffffffffffffffffffffffff0219169055600182015f9055600282015f905550600301611775565b5090565b5b808211156117d5575f815f9055506001016117bf565b5090565b5f5ffd5b5f5ffd5b5f5ffd5b5f5ffd5b5f5ffd5b5f5f83601f840112611802576118016117e1565b5b8235905067ffffffffffffffff81111561181f5761181e6117e5565b5b60208301915083600182028301111561183b5761183a6117e9565b5b9250929050565b5f819050919050565b61185481611842565b811461185e575f5ffd5b50565b5f8135905061186f8161184b565b92915050565b5f5f5f5f5f6080868803121561188e5761188d6117d9565b5b5f86013567ffffffffffffffff8111156118ab576118aa6117dd565b5b6118b7888289016117ed565b955095505060206118ca88828901611861565b93505060406118db88828901611861565b92505060606118ec88828901611861565b9150509295509295909350565b5f6020828403121561190e5761190d6117d9565b5b5f61191b84828501611861565b91505092915050565b61192d81611842565b82525050565b5f6020820190506119465f830184611924565b92915050565b5f73ffffffffffffffffffffffffffffffffffffffff82169050919050565b5f6119758261194c565b9050919050565b6119858161196b565b82525050565b5f60608201905061199e5f83018661197c565b6119ab6020830185611924565b6119b86040830184611924565b949350505050565b6119c98161196b565b81146119d3575f5ffd5b50565b5f813590506119e4816119c0565b92915050565b5f5f60408385031215611a00576119ff6117d9565b5b5f611a0d858286016119d6565b9250506020611a1e85828601611861565b9150509250929050565b5f5f83601f840112611a3d57611a3c6117e1565b5b8235905067ffffffffffffffff811115611a5a57611a596117e5565b5b602083019150836020820283011115611a7657611a756117e9565b5b9250929050565b5f5f5f5f60408587031215611a9557611a946117d9565b5b5f85013567ffffffffffffffff811115611ab257611ab16117dd565b5b611abe87828801611a28565b9450945050602085013567ffffffffffffffff811115611ae157611ae06117dd565b5b611aed87828801611a28565b925092505092959194509250565b5f5f60408385031215611b1157611b106117d9565b5b5f611b1e85828601611861565b9250506020611b2f85828601611861565b9150509250929050565b5f602082019050611b4c5f83018461197c565b92915050565b5f60208284031215611b6757611b666117d9565b5b5f611b74848285016119d6565b91505092915050565b5f81519050919050565b5f82825260208201905092915050565b5f819050602082019050919050565b5f81519050919050565b5f82825260208201905092915050565b8281835e5f83830152505050565b5f601f19601f8301169050919050565b5f611be882611ba6565b611bf28185611bb0565b9350611c02818560208601611bc0565b611c0b81611bce565b840191505092915050565b611c1f81611842565b82525050565b5f608083015f8301518482035f860152611c3f8282611bde565b9150506020830151611c546020860182611c16565b506040830151611c676040860182611c16565b506060830151611c7a6060860182611c16565b508091505092915050565b5f611c908383611c25565b905092915050565b5f602082019050919050565b5f611cae82611b7d565b611cb88185611b87565b935083602082028501611cca85611b97565b805f5b85811015611d055784840389528151611ce68582611c85565b9450611cf183611c98565b925060208a01995050600181019050611ccd565b50829750879550505050505092915050565b5f6020820190508181035f830152611d2f8184611ca4565b905092915050565b7f4e487b71000000000000000000000000000000000000000000000000000000005f52604160045260245ffd5b7f4e487b71000000000000000000000000000000000000000000000000000000005f52602260045260245ffd5b5f6002820490506001821680611da857607f821691505b602082108103611dbb57611dba611d64565b5b50919050565b5f819050815f5260205f209050919050565b5f6020601f8301049050919050565b5f82821b905092915050565b5f60088302611e1d7fffffffffffffffffffffffffffffffffffffffffffffffffffffffffffffffff82611de2565b611e278683611de2565b95508019841693508086168417925050509392505050565b5f819050919050565b5f611e62611e5d611e5884611842565b611e3f565b611842565b9050919050565b5f819050919050565b611e7b83611e48565b611e8f611e8782611e69565b848454611dee565b825550505050565b5f5f905090565b611ea6611e97565b611eb1818484611e72565b505050565b5b81811015611ed457611ec95f82611e9e565b600181019050611eb7565b5050565b601f821115611f1957611eea81611dc1565b611ef384611dd3565b81016020851015611f02578190505b611f16611f0e85611dd3565b830182611eb6565b50505b505050565b5f82821c905092915050565b5f611f395f1984600802611f1e565b1980831691505092915050565b5f611f518383611f2a565b9150826002028217905092915050565b611f6a82611ba6565b67ffffffffffffffff811115611f8357611f82611d37565b5b611f8d8254611d91565b611f98828285611ed8565b5f60209050601f831160018114611fc9575f8415611fb7578287015190505b611fc18582611f46565b865550612028565b601f198416611fd786611dc1565b5f5b82811015611ffe57848901518255600182019150602085019450602081019050611fd9565b8683101561201b5784890151612017601f891682611f2a565b8355505b6001600288020188555050505b505050505050565b5f82825260208201905092915050565b7f4e6f7420656e6f75676874206d6f6e65790000000000000000000000000000005f82015250565b5f612074601183612030565b915061207f82612040565b602082019050919050565b5f6020820190508181035f8301526120a181612068565b9050919050565b7f617272617973206c656e67687473206d69736d617463680000000000000000005f82015250565b5f6120dc601783612030565b91506120e7826120a8565b602082019050919050565b5f6020820190508181035f830152612109816120d0565b9050919050565b7f4e487b71000000000000000000000000000000000000000000000000000000005f52603260045260245ffd5b7f4e487b71000000000000000000000000000000000000000000000000000000005f52601160045260245ffd5b5f61217482611842565b915061217f83611842565b925082820261218d81611842565b915082820484148315176121a4576121a361213d565b5b5092915050565b5f6121b582611842565b91506121c083611842565b92508282019050808211156121d8576121d761213d565b5b92915050565b5f6121e882611842565b91506121f383611842565b925082820390508181111561220b5761220a61213d565b5b92915050565b5f8154905061221f81611d91565b9050919050565b818103612234575050612309565b61223d82612211565b67ffffffffffffffff81111561225657612255611d37565b5b6122608254611d91565b61226b828285611ed8565b5f601f831160018114612298575f8415612286578287015490505b6122908582611f46565b865550612302565b601f1984166122a687611dc1565b96506122b186611dc1565b5f5b828110156122d8578489015482556001820191506001850194506020810190506122b3565b868310156122f557848901546122f1601f891682611f2a565b8355505b6001600288020188555050505b5050505050505b565b7f4e487b71000000000000000000000000000000000000000000000000000000005f52603160045260245ffd5b5f61234282611842565b91507fffffffffffffffffffffffffffffffffffffffffffffffffffffffffffffffff82036123745761237361213d565b5b60018201905091905056fea2646970667358221220888d7284c236e40e17e0de0aa18e186729ba9fdd77fd315027f3c702ab687ac964736f6c634300081e0033",
					"opcodes": "PUSH1 0x80 PUSH1 0x40 MSTORE CALLVALUE DUP1 ISZERO PUSH2 0xF JUMPI PUSH0 PUSH0 REVERT JUMPDEST POP CALLER PUSH0 PUSH20 0xFFFFFFFFFFFFFFFFFFFFFFFFFFFFFFFFFFFFFFFF AND DUP2 PUSH20 0xFFFFFFFFFFFFFFFFFFFFFFFFFFFFFFFFFFFFFFFF AND SUB PUSH2 0x81 JUMPI PUSH0 PUSH1 0x40 MLOAD PUSH32 0x1E4FBDF700000000000000000000000000000000000000000000000000000000 DUP2 MSTORE PUSH1 0x4 ADD PUSH2 0x78 SWAP2 SWAP1 PUSH2 0x196 JUMP JUMPDEST PUSH1 0x40 MLOAD DUP1 SWAP2 SUB SWAP1 REVERT JUMPDEST PUSH2 0x90 DUP2 PUSH2 0x96 PUSH1 0x20 SHL PUSH1 0x20 SHR JUMP JUMPDEST POP PUSH2 0x1AF JUMP JUMPDEST PUSH0 PUSH0 PUSH0 SWAP1 SLOAD SWAP1 PUSH2 0x100 EXP SWAP1 DIV PUSH20 0xFFFFFFFFFFFFFFFFFFFFFFFFFFFFFFFFFFFFFFFF AND SWAP1 POP DUP2 PUSH0 PUSH0 PUSH2 0x100 EXP DUP2 SLOAD DUP2 PUSH20 0xFFFFFFFFFFFFFFFFFFFFFFFFFFFFFFFFFFFFFFFF MUL NOT AND SWAP1 DUP4 PUSH20 0xFFFFFFFFFFFFFFFFFFFFFFFFFFFFFFFFFFFFFFFF AND MUL OR SWAP1 SSTORE POP DUP2 PUSH20 0xFFFFFFFFFFFFFFFFFFFFFFFFFFFFFFFFFFFFFFFF AND DUP2 PUSH20 0xFFFFFFFFFFFFFFFFFFFFFFFFFFFFFFFFFFFFFFFF AND PUSH32 0x8BE0079C531659141344CD1FD0A4F28419497F9722A3DAAFE3B4186F6B6457E0 PUSH1 0x40 MLOAD PUSH1 0x40 MLOAD DUP1 SWAP2 SUB SWAP1 LOG3 POP POP JUMP JUMPDEST PUSH0 PUSH20 0xFFFFFFFFFFFFFFFFFFFFFFFFFFFFFFFFFFFFFFFF DUP3 AND SWAP1 POP SWAP2 SWAP1 POP JUMP JUMPDEST PUSH0 PUSH2 0x180 DUP3 PUSH2 0x157 JUMP JUMPDEST SWAP1 POP SWAP2 SWAP1 POP JUMP JUMPDEST PUSH2 0x190 DUP2 PUSH2 0x176 JUMP JUMPDEST DUP3 MSTORE POP POP JUMP JUMPDEST PUSH0 PUSH1 0x20 DUP3 ADD SWAP1 POP PUSH2 0x1A9 PUSH0 DUP4 ADD DUP5 PUSH2 0x187 JUMP JUMPDEST SWAP3 SWAP2 POP POP JUMP JUMPDEST PUSH2 0x23B5 DUP1 PUSH2 0x1BC PUSH0 CODECOPY PUSH0 RETURN INVALID PUSH1 0x80 PUSH1 0x40 MSTORE PUSH1 0x4 CALLDATASIZE LT PUSH2 0x11E JUMPI PUSH0 CALLDATALOAD PUSH1 0xE0 SHR DUP1 PUSH4 0x957FAE96 GT PUSH2 0x9F JUMPI DUP1 PUSH4 0xD6FEBDE8 GT PUSH2 0x63 JUMPI DUP1 PUSH4 0xD6FEBDE8 EQ PUSH2 0x3BA JUMPI DUP1 PUSH4 0xE7572230 EQ PUSH2 0x3D6 JUMPI DUP1 PUSH4 0xED90C7B7 EQ PUSH2 0x412 JUMPI DUP1 PUSH4 0xF2FDE38B EQ PUSH2 0x43A JUMPI DUP1 PUSH4 0xFA89401A EQ PUSH2 0x462 JUMPI PUSH2 0x11E JUMP JUMPDEST DUP1 PUSH4 0x957FAE96 EQ PUSH2 0x2DA JUMPI DUP1 PUSH4 0x9DFC3DD1 EQ PUSH2 0x304 JUMPI DUP1 PUSH4 0xBDA235DA EQ PUSH2 0x32C JUMPI DUP1 PUSH4 0xC29B2F20 EQ PUSH2 0x354 JUMPI DUP1 PUSH4 0xCE4DF381 EQ PUSH2 0x37E JUMPI PUSH2 0x11E JUMP JUMPDEST DUP1 PUSH4 0x715018A6 GT PUSH2 0xE6 JUMPI DUP1 PUSH4 0x715018A6 EQ PUSH2 0x218 JUMPI DUP1 PUSH4 0x723CDB1D EQ PUSH2 0x22E JUMPI DUP1 PUSH4 0x82367B2D EQ PUSH2 0x24A JUMPI DUP1 PUSH4 0x8392FE31 EQ PUSH2 0x272 JUMPI DUP1 PUSH4 0x8DA5CB5B EQ PUSH2 0x2B0 JUMPI PUSH2 0x11E JUMP JUMPDEST DUP1 PUSH4 0x94455C4 EQ PUSH2 0x122 JUMPI DUP1 PUSH4 0x3AB7D09A EQ PUSH2 0x14A JUMPI DUP1 PUSH4 0x3CCFD60B EQ PUSH2 0x186 JUMPI DUP1 PUSH4 0x58025212 EQ PUSH2 0x19C JUMPI DUP1 PUSH4 0x6038D0CF EQ PUSH2 0x1DA JUMPI JUMPDEST PUSH0 PUSH0 REVERT JUMPDEST CALLVALUE DUP1 ISZERO PUSH2 0x12D JUMPI PUSH0 PUSH0 REVERT JUMPDEST POP PUSH2 0x148 PUSH1 0x4 DUP1 CALLDATASIZE SUB DUP2 ADD SWAP1 PUSH2 0x143 SWAP2 SWAP1 PUSH2 0x1875 JUMP JUMPDEST PUSH2 0x47E JUMP JUMPDEST STOP JUMPDEST CALLVALUE DUP1 ISZERO PUSH2 0x155 JUMPI PUSH0 PUSH0 REVERT JUMPDEST POP PUSH2 0x170 PUSH1 0x4 DUP1 CALLDATASIZE SUB DUP2 ADD SWAP1 PUSH2 0x16B SWAP2 SWAP1 PUSH2 0x18F9 JUMP JUMPDEST PUSH2 0x58D JUMP JUMPDEST PUSH1 0x40 MLOAD PUSH2 0x17D SWAP2 SWAP1 PUSH2 0x1933 JUMP JUMPDEST PUSH1 0x40 MLOAD DUP1 SWAP2 SUB SWAP1 RETURN JUMPDEST CALLVALUE DUP1 ISZERO PUSH2 0x191 JUMPI PUSH0 PUSH0 REVERT JUMPDEST POP PUSH2 0x19A PUSH2 0x5A7 JUMP JUMPDEST STOP JUMPDEST CALLVALUE DUP1 ISZERO PUSH2 0x1A7 JUMPI PUSH0 PUSH0 REVERT JUMPDEST POP PUSH2 0x1C2 PUSH1 0x4 DUP1 CALLDATASIZE SUB DUP2 ADD SWAP1 PUSH2 0x1BD SWAP2 SWAP1 PUSH2 0x18F9 JUMP JUMPDEST PUSH2 0x643 JUMP JUMPDEST PUSH1 0x40 MLOAD PUSH2 0x1D1 SWAP4 SWAP3 SWAP2 SWAP1 PUSH2 0x198B JUMP JUMPDEST PUSH1 0x40 MLOAD DUP1 SWAP2 SUB SWAP1 RETURN JUMPDEST CALLVALUE DUP1 ISZERO PUSH2 0x1E5 JUMPI PUSH0 PUSH0 REVERT JUMPDEST POP PUSH2 0x200 PUSH1 0x4 DUP1 CALLDATASIZE SUB DUP2 ADD SWAP1 PUSH2 0x1FB SWAP2 SWAP1 PUSH2 0x19EA JUMP JUMPDEST PUSH2 0x697 JUMP JUMPDEST PUSH1 0x40 MLOAD PUSH2 0x20F SWAP4 SWAP3 SWAP2 SWAP1 PUSH2 0x198B JUMP JUMPDEST PUSH1 0x40 MLOAD DUP1 SWAP2 SUB SWAP1 RETURN JUMPDEST CALLVALUE DUP1 ISZERO PUSH2 0x223 JUMPI PUSH0 PUSH0 REVERT JUMPDEST POP PUSH2 0x22C PUSH2 0x6F6 JUMP JUMPDEST STOP JUMPDEST PUSH2 0x248 PUSH1 0x4 DUP1 CALLDATASIZE SUB DUP2 ADD SWAP1 PUSH2 0x243 SWAP2 SWAP1 PUSH2 0x1A7D JUMP JUMPDEST PUSH2 0x709 JUMP JUMPDEST STOP JUMPDEST CALLVALUE DUP1 ISZERO PUSH2 0x255 JUMPI PUSH0 PUSH0 REVERT JUMPDEST POP PUSH2 0x270 PUSH1 0x4 DUP1 CALLDATASIZE SUB DUP2 ADD SWAP1 PUSH2 0x26B SWAP2 SWAP1 PUSH2 0x1AFB JUMP JUMPDEST PUSH2 0x949 JUMP JUMPDEST STOP JUMPDEST CALLVALUE DUP1 ISZERO PUSH2 0x27D JUMPI PUSH0 PUSH0 REVERT JUMPDEST POP PUSH2 0x298 PUSH1 0x4 DUP1 CALLDATASIZE SUB DUP2 ADD SWAP1 PUSH2 0x293 SWAP2 SWAP1 PUSH2 0x18F9 JUMP JUMPDEST PUSH2 0x96B JUMP JUMPDEST PUSH1 0x40 MLOAD PUSH2 0x2A7 SWAP4 SWAP3 SWAP2 SWAP1 PUSH2 0x198B JUMP JUMPDEST PUSH1 0x40 MLOAD DUP1 SWAP2 SUB SWAP1 RETURN JUMPDEST CALLVALUE DUP1 ISZERO PUSH2 0x2BB JUMPI PUSH0 PUSH0 REVERT JUMPDEST POP PUSH2 0x2C4 PUSH2 0x9BF JUMP JUMPDEST PUSH1 0x40 MLOAD PUSH2 0x2D1 SWAP2 SWAP1 PUSH2 0x1B39 JUMP JUMPDEST PUSH1 0x40 MLOAD DUP1 SWAP2 SUB SWAP1 RETURN JUMPDEST CALLVALUE DUP1 ISZERO PUSH2 0x2E5 JUMPI PUSH0 PUSH0 REVERT JUMPDEST POP PUSH2 0x2EE PUSH2 0x9E6 JUMP JUMPDEST PUSH1 0x40 MLOAD PUSH2 0x2FB SWAP2 SWAP1 PUSH2 0x1933 JUMP JUMPDEST PUSH1 0x40 MLOAD DUP1 SWAP2 SUB SWAP1 RETURN JUMPDEST CALLVALUE DUP1 ISZERO PUSH2 0x30F JUMPI PUSH0 PUSH0 REVERT JUMPDEST POP PUSH2 0x32A PUSH1 0x4 DUP1 CALLDATASIZE SUB DUP2 ADD SWAP1 PUSH2 0x325 SWAP2 SWAP1 PUSH2 0x1AFB JUMP JUMPDEST PUSH2 0xA40 JUMP JUMPDEST STOP JUMPDEST CALLVALUE DUP1 ISZERO PUSH2 0x337 JUMPI PUSH0 PUSH0 REVERT JUMPDEST POP PUSH2 0x352 PUSH1 0x4 DUP1 CALLDATASIZE SUB DUP2 ADD SWAP1 PUSH2 0x34D SWAP2 SWAP1 PUSH2 0x1B52 JUMP JUMPDEST PUSH2 0xA62 JUMP JUMPDEST STOP JUMPDEST CALLVALUE DUP1 ISZERO PUSH2 0x35F JUMPI PUSH0 PUSH0 REVERT JUMPDEST POP PUSH2 0x368 PUSH2 0xC09 JUMP JUMPDEST PUSH1 0x40 MLOAD PUSH2 0x375 SWAP2 SWAP1 PUSH2 0x1D17 JUMP JUMPDEST PUSH1 0x40 MLOAD DUP1 SWAP2 SUB SWAP1 RETURN JUMPDEST CALLVALUE DUP1 ISZERO PUSH2 0x389 JUMPI PUSH0 PUSH0 REVERT JUMPDEST POP PUSH2 0x3A4 PUSH1 0x4 DUP1 CALLDATASIZE SUB DUP2 ADD SWAP1 PUSH2 0x39F SWAP2 SWAP1 PUSH2 0x18F9 JUMP JUMPDEST PUSH2 0xD12 JUMP JUMPDEST PUSH1 0x40 MLOAD PUSH2 0x3B1 SWAP2 SWAP1 PUSH2 0x1933 JUMP JUMPDEST PUSH1 0x40 MLOAD DUP1 SWAP2 SUB SWAP1 RETURN JUMPDEST PUSH2 0x3D4 PUSH1 0x4 DUP1 CALLDATASIZE SUB DUP2 ADD SWAP1 PUSH2 0x3CF SWAP2 SWAP1 PUSH2 0x1AFB JUMP JUMPDEST PUSH2 0xD27 JUMP JUMPDEST STOP JUMPDEST CALLVALUE DUP1 ISZERO PUSH2 0x3E1 JUMPI PUSH0 PUSH0 REVERT JUMPDEST POP PUSH2 0x3FC PUSH1 0x4 DUP1 CALLDATASIZE SUB DUP2 ADD SWAP1 PUSH2 0x3F7 SWAP2 SWAP1 PUSH2 0x18F9 JUMP JUMPDEST PUSH2 0xE5B JUMP JUMPDEST PUSH1 0x40 MLOAD PUSH2 0x409 SWAP2 SWAP1 PUSH2 0x1933 JUMP JUMPDEST PUSH1 0x40 MLOAD DUP1 SWAP2 SUB SWAP1 RETURN JUMPDEST CALLVALUE DUP1 ISZERO PUSH2 0x41D JUMPI PUSH0 PUSH0 REVERT JUMPDEST POP PUSH2 0x438 PUSH1 0x4 DUP1 CALLDATASIZE SUB DUP2 ADD SWAP1 PUSH2 0x433 SWAP2 SWAP1 PUSH2 0x18F9 JUMP JUMPDEST PUSH2 0xE75 JUMP JUMPDEST STOP JUMPDEST CALLVALUE DUP1 ISZERO PUSH2 0x445 JUMPI PUSH0 PUSH0 REVERT JUMPDEST POP PUSH2 0x460 PUSH1 0x4 DUP1 CALLDATASIZE SUB DUP2 ADD SWAP1 PUSH2 0x45B SWAP2 SWAP1 PUSH2 0x1B52 JUMP JUMPDEST PUSH2 0xF99 JUMP JUMPDEST STOP JUMPDEST PUSH2 0x47C PUSH1 0x4 DUP1 CALLDATASIZE SUB DUP2 ADD SWAP1 PUSH2 0x477 SWAP2 SWAP1 PUSH2 0x1B52 JUMP JUMPDEST PUSH2 0x101D JUMP JUMPDEST STOP JUMPDEST PUSH2 0x486 PUSH2 0x10D2 JUMP JUMPDEST PUSH2 0x48F DUP4 PUSH2 0x1159 JUMP JUMPDEST ISZERO PUSH2 0x4C6 JUMPI PUSH1 0x40 MLOAD PUSH32 0xF270498400000000000000000000000000000000000000000000000000000000 DUP2 MSTORE PUSH1 0x4 ADD PUSH1 0x40 MLOAD DUP1 SWAP2 SUB SWAP1 REVERT JUMPDEST PUSH1 0x4 PUSH1 0x40 MLOAD DUP1 PUSH1 0x80 ADD PUSH1 0x40 MSTORE DUP1 DUP8 DUP8 DUP1 DUP1 PUSH1 0x1F ADD PUSH1 0x20 DUP1 SWAP2 DIV MUL PUSH1 0x20 ADD PUSH1 0x40 MLOAD SWAP1 DUP2 ADD PUSH1 0x40 MSTORE DUP1 SWAP4 SWAP3 SWAP2 SWAP1 DUP2 DUP2 MSTORE PUSH1 0x20 ADD DUP4 DUP4 DUP1 DUP3 DUP5 CALLDATACOPY PUSH0 DUP2 DUP5 ADD MSTORE PUSH1 0x1F NOT PUSH1 0x1F DUP3 ADD AND SWAP1 POP DUP1 DUP4 ADD SWAP3 POP POP POP POP POP POP POP DUP2 MSTORE PUSH1 0x20 ADD DUP6 DUP2 MSTORE PUSH1 0x20 ADD DUP5 DUP2 MSTORE PUSH1 0x20 ADD DUP4 DUP2 MSTORE POP SWAP1 DUP1 PUSH1 0x1 DUP2 SLOAD ADD DUP1 DUP3 SSTORE DUP1 SWAP2 POP POP PUSH1 0x1 SWAP1 SUB SWAP1 PUSH0 MSTORE PUSH1 0x20 PUSH0 KECCAK256 SWAP1 PUSH1 0x4 MUL ADD PUSH0 SWAP1 SWAP2 SWAP1 SWAP2 SWAP1 SWAP2 POP PUSH0 DUP3 ADD MLOAD DUP2 PUSH0 ADD SWAP1 DUP2 PUSH2 0x565 SWAP2 SWAP1 PUSH2 0x1F61 JUMP JUMPDEST POP PUSH1 0x20 DUP3 ADD MLOAD DUP2 PUSH1 0x1 ADD SSTORE PUSH1 0x40 DUP3 ADD MLOAD DUP2 PUSH1 0x2 ADD SSTORE PUSH1 0x60 DUP3 ADD MLOAD DUP2 PUSH1 0x3 ADD SSTORE POP POP POP POP POP POP POP JUMP JUMPDEST PUSH0 PUSH0 PUSH2 0x598 DUP4 PUSH2 0x11B7 JUMP JUMPDEST SWAP1 POP DUP1 PUSH1 0x2 ADD SLOAD SWAP2 POP POP SWAP2 SWAP1 POP JUMP JUMPDEST PUSH2 0x5AF PUSH2 0x10D2 JUMP JUMPDEST PUSH0 SELFBALANCE SWAP1 POP PUSH0 DUP2 GT PUSH2 0x5F5 JUMPI PUSH1 0x40 MLOAD PUSH32 0x8C379A000000000000000000000000000000000000000000000000000000000 DUP2 MSTORE PUSH1 0x4 ADD PUSH2 0x5EC SWAP1 PUSH2 0x208A JUMP JUMPDEST PUSH1 0x40 MLOAD DUP1 SWAP2 SUB SWAP1 REVERT JUMPDEST PUSH2 0x5FD PUSH2 0x9BF JUMP JUMPDEST PUSH20 0xFFFFFFFFFFFFFFFFFFFFFFFFFFFFFFFFFFFFFFFF AND PUSH2 0x8FC DUP3 SWAP1 DUP2 ISZERO MUL SWAP1 PUSH1 0x40 MLOAD PUSH0 PUSH1 0x40 MLOAD DUP1 DUP4 SUB DUP2 DUP6 DUP9 DUP9 CALL SWAP4 POP POP POP POP ISZERO DUP1 ISZERO PUSH2 0x63F JUMPI RETURNDATASIZE PUSH0 PUSH0 RETURNDATACOPY RETURNDATASIZE PUSH0 REVERT JUMPDEST POP POP JUMP JUMPDEST PUSH1 0x3 DUP2 DUP2 SLOAD DUP2 LT PUSH2 0x652 JUMPI PUSH0 DUP1 REVERT JUMPDEST SWAP1 PUSH0 MSTORE PUSH1 0x20 PUSH0 KECCAK256 SWAP1 PUSH1 0x3 MUL ADD PUSH0 SWAP2 POP SWAP1 POP DUP1 PUSH0 ADD PUSH0 SWAP1 SLOAD SWAP1 PUSH2 0x100 EXP SWAP1 DIV PUSH20 0xFFFFFFFFFFFFFFFFFFFFFFFFFFFFFFFFFFFFFFFF AND SWAP1 DUP1 PUSH1 0x1 ADD SLOAD SWAP1 DUP1 PUSH1 0x2 ADD SLOAD SWAP1 POP DUP4 JUMP JUMPDEST PUSH1 0x1 PUSH1 0x20 MSTORE DUP2 PUSH0 MSTORE PUSH1 0x40 PUSH0 KECCAK256 DUP2 DUP2 SLOAD DUP2 LT PUSH2 0x6B0 JUMPI PUSH0 DUP1 REVERT JUMPDEST SWAP1 PUSH0 MSTORE PUSH1 0x20 PUSH0 KECCAK256 SWAP1 PUSH1 0x3 MUL ADD PUSH0 SWAP2 POP SWAP2 POP POP DUP1 PUSH0 ADD PUSH0 SWAP1 SLOAD SWAP1 PUSH2 0x100 EXP SWAP1 DIV PUSH20 0xFFFFFFFFFFFFFFFFFFFFFFFFFFFFFFFFFFFFFFFF AND SWAP1 DUP1 PUSH1 0x1 ADD SLOAD SWAP1 DUP1 PUSH1 0x2 ADD SLOAD SWAP1 POP DUP4 JUMP JUMPDEST PUSH2 0x6FE PUSH2 0x10D2 JUMP JUMPDEST PUSH2 0x707 PUSH0 PUSH2 0x1261 JUMP JUMPDEST JUMP JUMPDEST DUP2 DUP2 SWAP1 POP DUP5 DUP5 SWAP1 POP EQ PUSH2 0x751 JUMPI PUSH1 0x40 MLOAD PUSH32 0x8C379A000000000000000000000000000000000000000000000000000000000 DUP2 MSTORE PUSH1 0x4 ADD PUSH2 0x748 SWAP1 PUSH2 0x20F2 JUMP JUMPDEST PUSH1 0x40 MLOAD DUP1 SWAP2 SUB SWAP1 REVERT JUMPDEST PUSH0 PUSH0 SWAP1 POP PUSH0 PUSH0 SWAP1 POP JUMPDEST DUP6 DUP6 SWAP1 POP DUP2 LT ISZERO PUSH2 0x84A JUMPI PUSH0 DUP5 DUP5 DUP4 DUP2 DUP2 LT PUSH2 0x779 JUMPI PUSH2 0x778 PUSH2 0x2110 JUMP JUMPDEST JUMPDEST SWAP1 POP PUSH1 0x20 MUL ADD CALLDATALOAD SWAP1 POP PUSH0 DUP8 DUP8 DUP5 DUP2 DUP2 LT PUSH2 0x796 JUMPI PUSH2 0x795 PUSH2 0x2110 JUMP JUMPDEST JUMPDEST SWAP1 POP PUSH1 0x20 MUL ADD CALLDATALOAD SWAP1 POP PUSH0 DUP3 GT PUSH2 0x7D8 JUMPI PUSH1 0x40 MLOAD PUSH32 0x2E9794A00000000000000000000000000000000000000000000000000000000 DUP2 MSTORE PUSH1 0x4 ADD PUSH1 0x40 MLOAD DUP1 SWAP2 SUB SWAP1 REVERT JUMPDEST DUP2 PUSH2 0x7E2 DUP3 PUSH2 0x58D JUMP JUMPDEST LT ISZERO PUSH2 0x81A JUMPI PUSH1 0x40 MLOAD PUSH32 0xADE1CB4100000000000000000000000000000000000000000000000000000000 DUP2 MSTORE PUSH1 0x4 ADD PUSH1 0x40 MLOAD DUP1 SWAP2 SUB SWAP1 REVERT JUMPDEST DUP2 PUSH2 0x824 DUP3 PUSH2 0xE5B JUMP JUMPDEST PUSH2 0x82E SWAP2 SWAP1 PUSH2 0x216A JUMP JUMPDEST DUP5 PUSH2 0x839 SWAP2 SWAP1 PUSH2 0x21AB JUMP JUMPDEST SWAP4 POP POP POP DUP1 DUP1 PUSH1 0x1 ADD SWAP2 POP POP PUSH2 0x75A JUMP JUMPDEST POP DUP1 CALLVALUE LT ISZERO PUSH2 0x885 JUMPI PUSH1 0x40 MLOAD PUSH32 0xC1463A4000000000000000000000000000000000000000000000000000000000 DUP2 MSTORE PUSH1 0x4 ADD PUSH1 0x40 MLOAD DUP1 SWAP2 SUB SWAP1 REVERT JUMPDEST PUSH0 PUSH0 SWAP1 POP JUMPDEST DUP6 DUP6 SWAP1 POP DUP2 LT ISZERO PUSH2 0x8E9 JUMPI PUSH0 DUP5 DUP5 DUP4 DUP2 DUP2 LT PUSH2 0x8A9 JUMPI PUSH2 0x8A8 PUSH2 0x2110 JUMP JUMPDEST JUMPDEST SWAP1 POP PUSH1 0x20 MUL ADD CALLDATALOAD SWAP1 POP PUSH0 DUP8 DUP8 DUP5 DUP2 DUP2 LT PUSH2 0x8C6 JUMPI PUSH2 0x8C5 PUSH2 0x2110 JUMP JUMPDEST JUMPDEST SWAP1 POP PUSH1 0x20 MUL ADD CALLDATALOAD SWAP1 POP PUSH2 0x8DA CALLER DUP3 DUP5 PUSH2 0x1322 JUMP JUMPDEST POP POP DUP1 DUP1 PUSH1 0x1 ADD SWAP2 POP POP PUSH2 0x88A JUMP JUMPDEST POP DUP1 CALLVALUE GT ISZERO PUSH2 0x942 JUMPI CALLER PUSH20 0xFFFFFFFFFFFFFFFFFFFFFFFFFFFFFFFFFFFFFFFF AND PUSH2 0x8FC DUP3 CALLVALUE PUSH2 0x918 SWAP2 SWAP1 PUSH2 0x21DE JUMP JUMPDEST SWAP1 DUP2 ISZERO MUL SWAP1 PUSH1 0x40 MLOAD PUSH0 PUSH1 0x40 MLOAD DUP1 DUP4 SUB DUP2 DUP6 DUP9 DUP9 CALL SWAP4 POP POP POP POP ISZERO DUP1 ISZERO PUSH2 0x940 JUMPI RETURNDATASIZE PUSH0 PUSH0 RETURNDATACOPY RETURNDATASIZE PUSH0 REVERT JUMPDEST POP JUMPDEST POP POP POP POP POP JUMP JUMPDEST PUSH2 0x951 PUSH2 0x10D2 JUMP JUMPDEST PUSH0 PUSH2 0x95B DUP4 PUSH2 0x11B7 JUMP JUMPDEST SWAP1 POP DUP2 DUP2 PUSH1 0x3 ADD DUP2 SWAP1 SSTORE POP POP POP POP JUMP JUMPDEST PUSH1 0x5 DUP2 DUP2 SLOAD DUP2 LT PUSH2 0x97A JUMPI PUSH0 DUP1 REVERT JUMPDEST SWAP1 PUSH0 MSTORE PUSH1 0x20 PUSH0 KECCAK256 SWAP1 PUSH1 0x3 MUL ADD PUSH0 SWAP2 POP SWAP1 POP DUP1 PUSH0 ADD PUSH0 SWAP1 SLOAD SWAP1 PUSH2 0x100 EXP SWAP1 DIV PUSH20 0xFFFFFFFFFFFFFFFFFFFFFFFFFFFFFFFFFFFFFFFF AND SWAP1 DUP1 PUSH1 0x1 ADD SLOAD SWAP1 DUP1 PUSH1 0x2 ADD SLOAD SWAP1 POP DUP4 JUMP JUMPDEST PUSH0 PUSH0 PUSH0 SWAP1 SLOAD SWAP1 PUSH2 0x100 EXP SWAP1 DIV PUSH20 0xFFFFFFFFFFFFFFFFFFFFFFFFFFFFFFFFFFFFFFFF AND SWAP1 POP SWAP1 JUMP JUMPDEST PUSH0 PUSH0 PUSH0 PUSH0 SWAP1 POP JUMPDEST PUSH1 0x5 DUP1 SLOAD SWAP1 POP DUP2 LT ISZERO PUSH2 0xA38 JUMPI PUSH1 0x5 DUP2 DUP2 SLOAD DUP2 LT PUSH2 0xA0E JUMPI PUSH2 0xA0D PUSH2 0x2110 JUMP JUMPDEST JUMPDEST SWAP1 PUSH0 MSTORE PUSH1 0x20 PUSH0 KECCAK256 SWAP1 PUSH1 0x3 MUL ADD PUSH1 0x2 ADD SLOAD DUP3 PUSH2 0xA29 SWAP2 SWAP1 PUSH2 0x21AB JUMP JUMPDEST SWAP2 POP DUP1 DUP1 PUSH1 0x1 ADD SWAP2 POP POP PUSH2 0x9ED JUMP JUMPDEST POP DUP1 SWAP2 POP POP SWAP1 JUMP JUMPDEST PUSH2 0xA48 PUSH2 0x10D2 JUMP JUMPDEST PUSH0 PUSH2 0xA52 DUP4 PUSH2 0x11B7 JUMP JUMPDEST SWAP1 POP DUP2 DUP2 PUSH1 0x2 ADD DUP2 SWAP1 SSTORE POP POP POP POP JUMP JUMPDEST PUSH0 PUSH0 SWAP1 POP JUMPDEST PUSH1 0x5 DUP1 SLOAD SWAP1 POP DUP2 LT ISZERO PUSH2 0xBB7 JUMPI DUP2 PUSH20 0xFFFFFFFFFFFFFFFFFFFFFFFFFFFFFFFFFFFFFFFF AND PUSH1 0x5 DUP3 DUP2 SLOAD DUP2 LT PUSH2 0xA9F JUMPI PUSH2 0xA9E PUSH2 0x2110 JUMP JUMPDEST JUMPDEST SWAP1 PUSH0 MSTORE PUSH1 0x20 PUSH0 KECCAK256 SWAP1 PUSH1 0x3 MUL ADD PUSH0 ADD PUSH0 SWAP1 SLOAD SWAP1 PUSH2 0x100 EXP SWAP1 DIV PUSH20 0xFFFFFFFFFFFFFFFFFFFFFFFFFFFFFFFFFFFFFFFF AND PUSH20 0xFFFFFFFFFFFFFFFFFFFFFFFFFFFFFFFFFFFFFFFF AND SUB PUSH2 0xBAA JUMPI PUSH1 0x3 PUSH1 0x5 DUP3 DUP2 SLOAD DUP2 LT PUSH2 0xAFE JUMPI PUSH2 0xAFD PUSH2 0x2110 JUMP JUMPDEST JUMPDEST SWAP1 PUSH0 MSTORE PUSH1 0x20 PUSH0 KECCAK256 SWAP1 PUSH1 0x3 MUL ADD SWAP1 DUP1 PUSH1 0x1 DUP2 SLOAD ADD DUP1 DUP3 SSTORE DUP1 SWAP2 POP POP PUSH1 0x1 SWAP1 SUB SWAP1 PUSH0 MSTORE PUSH1 0x20 PUSH0 KECCAK256 SWAP1 PUSH1 0x3 MUL ADD PUSH0 SWAP1 SWAP2 SWAP1 SWAP2 SWAP1 SWAP2 POP PUSH0 DUP3 ADD PUSH0 SWAP1 SLOAD SWAP1 PUSH2 0x100 EXP SWAP1 DIV PUSH20 0xFFFFFFFFFFFFFFFFFFFFFFFFFFFFFFFFFFFFFFFF AND DUP2 PUSH0 ADD PUSH0 PUSH2 0x100 EXP DUP2 SLOAD DUP2 PUSH20 0xFFFFFFFFFFFFFFFFFFFFFFFFFFFFFFFFFFFFFFFF MUL NOT AND SWAP1 DUP4 PUSH20 0xFFFFFFFFFFFFFFFFFFFFFFFFFFFFFFFFFFFFFFFF AND MUL OR SWAP1 SSTORE POP PUSH1 0x1 DUP3 ADD SLOAD DUP2 PUSH1 0x1 ADD SSTORE PUSH1 0x2 DUP3 ADD SLOAD DUP2 PUSH1 0x2 ADD SSTORE POP POP JUMPDEST DUP1 DUP1 PUSH1 0x1 ADD SWAP2 POP POP PUSH2 0xA67 JUMP JUMPDEST POP PUSH1 0x3 PUSH1 0x1 PUSH0 DUP4 PUSH20 0xFFFFFFFFFFFFFFFFFFFFFFFFFFFFFFFFFFFFFFFF AND PUSH20 0xFFFFFFFFFFFFFFFFFFFFFFFFFFFFFFFFFFFFFFFF AND DUP2 MSTORE PUSH1 0x20 ADD SWAP1 DUP2 MSTORE PUSH1 0x20 ADD PUSH0 KECCAK256 SWAP1 DUP1 SLOAD PUSH2 0xC05 SWAP3 SWAP2 SWAP1 PUSH2 0x1638 JUMP JUMPDEST POP POP JUMP JUMPDEST PUSH1 0x60 PUSH1 0x4 DUP1 SLOAD DUP1 PUSH1 0x20 MUL PUSH1 0x20 ADD PUSH1 0x40 MLOAD SWAP1 DUP2 ADD PUSH1 0x40 MSTORE DUP1 SWAP3 SWAP2 SWAP1 DUP2 DUP2 MSTORE PUSH1 0x20 ADD PUSH0 SWAP1 JUMPDEST DUP3 DUP3 LT ISZERO PUSH2 0xD09 JUMPI DUP4 DUP3 SWAP1 PUSH0 MSTORE PUSH1 0x20 PUSH0 KECCAK256 SWAP1 PUSH1 0x4 MUL ADD PUSH1 0x40 MLOAD DUP1 PUSH1 0x80 ADD PUSH1 0x40 MSTORE SWAP1 DUP2 PUSH0 DUP3 ADD DUP1 SLOAD PUSH2 0xC5C SWAP1 PUSH2 0x1D91 JUMP JUMPDEST DUP1 PUSH1 0x1F ADD PUSH1 0x20 DUP1 SWAP2 DIV MUL PUSH1 0x20 ADD PUSH1 0x40 MLOAD SWAP1 DUP2 ADD PUSH1 0x40 MSTORE DUP1 SWAP3 SWAP2 SWAP1 DUP2 DUP2 MSTORE PUSH1 0x20 ADD DUP3 DUP1 SLOAD PUSH2 0xC88 SWAP1 PUSH2 0x1D91 JUMP JUMPDEST DUP1 ISZERO PUSH2 0xCD3 JUMPI DUP1 PUSH1 0x1F LT PUSH2 0xCAA JUMPI PUSH2 0x100 DUP1 DUP4 SLOAD DIV MUL DUP4 MSTORE SWAP2 PUSH1 0x20 ADD SWAP2 PUSH2 0xCD3 JUMP JUMPDEST DUP3 ADD SWAP2 SWAP1 PUSH0 MSTORE PUSH1 0x20 PUSH0 KECCAK256 SWAP1 JUMPDEST DUP2 SLOAD DUP2 MSTORE SWAP1 PUSH1 0x1 ADD SWAP1 PUSH1 0x20 ADD DUP1 DUP4 GT PUSH2 0xCB6 JUMPI DUP3 SWAP1 SUB PUSH1 0x1F AND DUP3 ADD SWAP2 JUMPDEST POP POP POP POP POP DUP2 MSTORE PUSH1 0x20 ADD PUSH1 0x1 DUP3 ADD SLOAD DUP2 MSTORE PUSH1 0x20 ADD PUSH1 0x2 DUP3 ADD SLOAD DUP2 MSTORE PUSH1 0x20 ADD PUSH1 0x3 DUP3 ADD SLOAD DUP2 MSTORE POP POP DUP2 MSTORE PUSH1 0x20 ADD SWAP1 PUSH1 0x1 ADD SWAP1 PUSH2 0xC2C JUMP JUMPDEST POP POP POP POP SWAP1 POP SWAP1 JUMP JUMPDEST PUSH1 0x2 PUSH1 0x20 MSTORE DUP1 PUSH0 MSTORE PUSH1 0x40 PUSH0 KECCAK256 PUSH0 SWAP2 POP SWAP1 POP SLOAD DUP2 JUMP JUMPDEST PUSH0 DUP2 GT PUSH2 0xD60 JUMPI PUSH1 0x40 MLOAD PUSH32 0x2E9794A00000000000000000000000000000000000000000000000000000000 DUP2 MSTORE PUSH1 0x4 ADD PUSH1 0x40 MLOAD DUP1 SWAP2 SUB SWAP1 REVERT JUMPDEST DUP1 PUSH2 0xD6A DUP4 PUSH2 0x58D JUMP JUMPDEST LT ISZERO PUSH2 0xDA2 JUMPI PUSH1 0x40 MLOAD PUSH32 0xADE1CB4100000000000000000000000000000000000000000000000000000000 DUP2 MSTORE PUSH1 0x4 ADD PUSH1 0x40 MLOAD DUP1 SWAP2 SUB SWAP1 REVERT JUMPDEST PUSH0 DUP2 PUSH2 0xDAD DUP5 PUSH2 0xE5B JUMP JUMPDEST PUSH2 0xDB7 SWAP2 SWAP1 PUSH2 0x216A JUMP JUMPDEST SWAP1 POP DUP1 CALLVALUE LT ISZERO PUSH2 0xDF3 JUMPI PUSH1 0x40 MLOAD PUSH32 0xC1463A4000000000000000000000000000000000000000000000000000000000 DUP2 MSTORE PUSH1 0x4 ADD PUSH1 0x40 MLOAD DUP1 SWAP2 SUB SWAP1 REVERT JUMPDEST PUSH2 0xDFE CALLER DUP5 DUP5 PUSH2 0x1322 JUMP JUMPDEST DUP1 CALLVALUE GT ISZERO PUSH2 0xE56 JUMPI CALLER PUSH20 0xFFFFFFFFFFFFFFFFFFFFFFFFFFFFFFFFFFFFFFFF AND PUSH2 0x8FC DUP3 CALLVALUE PUSH2 0xE2C SWAP2 SWAP1 PUSH2 0x21DE JUMP JUMPDEST SWAP1 DUP2 ISZERO MUL SWAP1 PUSH1 0x40 MLOAD PUSH0 PUSH1 0x40 MLOAD DUP1 DUP4 SUB DUP2 DUP6 DUP9 DUP9 CALL SWAP4 POP POP POP POP ISZERO DUP1 ISZERO PUSH2 0xE54 JUMPI RETURNDATASIZE PUSH0 PUSH0 RETURNDATACOPY RETURNDATASIZE PUSH0 REVERT JUMPDEST POP JUMPDEST POP POP POP JUMP JUMPDEST PUSH0 PUSH0 PUSH2 0xE66 DUP4 PUSH2 0x11B7 JUMP JUMPDEST SWAP1 POP DUP1 PUSH1 0x3 ADD SLOAD SWAP2 POP POP SWAP2 SWAP1 POP JUMP JUMPDEST PUSH2 0xE7D PUSH2 0x10D2 JUMP JUMPDEST PUSH0 PUSH0 PUSH2 0xE88 DUP4 PUSH2 0x13C9 JUMP JUMPDEST SWAP2 POP SWAP2 POP DUP2 PUSH2 0xEC3 JUMPI PUSH1 0x40 MLOAD PUSH32 0xC270964900000000000000000000000000000000000000000000000000000000 DUP2 MSTORE PUSH1 0x4 ADD PUSH1 0x40 MLOAD DUP1 SWAP2 SUB SWAP1 REVERT JUMPDEST PUSH1 0x4 PUSH1 0x1 PUSH1 0x4 DUP1 SLOAD SWAP1 POP PUSH2 0xED7 SWAP2 SWAP1 PUSH2 0x21DE JUMP JUMPDEST DUP2 SLOAD DUP2 LT PUSH2 0xEE8 JUMPI PUSH2 0xEE7 PUSH2 0x2110 JUMP JUMPDEST JUMPDEST SWAP1 PUSH0 MSTORE PUSH1 0x20 PUSH0 KECCAK256 SWAP1 PUSH1 0x4 MUL ADD PUSH1 0x4 DUP3 DUP2 SLOAD DUP2 LT PUSH2 0xF08 JUMPI PUSH2 0xF07 PUSH2 0x2110 JUMP JUMPDEST JUMPDEST SWAP1 PUSH0 MSTORE PUSH1 0x20 PUSH0 KECCAK256 SWAP1 PUSH1 0x4 MUL ADD PUSH0 DUP3 ADD DUP2 PUSH0 ADD SWAP1 DUP2 PUSH2 0xF26 SWAP2 SWAP1 PUSH2 0x2226 JUMP JUMPDEST POP PUSH1 0x1 DUP3 ADD SLOAD DUP2 PUSH1 0x1 ADD SSTORE PUSH1 0x2 DUP3 ADD SLOAD DUP2 PUSH1 0x2 ADD SSTORE PUSH1 0x3 DUP3 ADD SLOAD DUP2 PUSH1 0x3 ADD SSTORE SWAP1 POP POP PUSH1 0x4 DUP1 SLOAD DUP1 PUSH2 0xF5A JUMPI PUSH2 0xF59 PUSH2 0x230B JUMP JUMPDEST JUMPDEST PUSH1 0x1 SWAP1 SUB DUP2 DUP2 SWAP1 PUSH0 MSTORE PUSH1 0x20 PUSH0 KECCAK256 SWAP1 PUSH1 0x4 MUL ADD PUSH0 PUSH0 DUP3 ADD PUSH0 PUSH2 0xF7B SWAP2 SWAP1 PUSH2 0x1703 JUMP JUMPDEST PUSH1 0x1 DUP3 ADD PUSH0 SWAP1 SSTORE PUSH1 0x2 DUP3 ADD PUSH0 SWAP1 SSTORE PUSH1 0x3 DUP3 ADD PUSH0 SWAP1 SSTORE POP POP SWAP1 SSTORE POP POP POP JUMP JUMPDEST PUSH2 0xFA1 PUSH2 0x10D2 JUMP JUMPDEST PUSH0 PUSH20 0xFFFFFFFFFFFFFFFFFFFFFFFFFFFFFFFFFFFFFFFF AND DUP2 PUSH20 0xFFFFFFFFFFFFFFFFFFFFFFFFFFFFFFFFFFFFFFFF AND SUB PUSH2 0x1011 JUMPI PUSH0 PUSH1 0x40 MLOAD PUSH32 0x1E4FBDF700000000000000000000000000000000000000000000000000000000 DUP2 MSTORE PUSH1 0x4 ADD PUSH2 0x1008 SWAP2 SWAP1 PUSH2 0x1B39 JUMP JUMPDEST PUSH1 0x40 MLOAD DUP1 SWAP2 SUB SWAP1 REVERT JUMPDEST PUSH2 0x101A DUP2 PUSH2 0x1261 JUMP JUMPDEST POP JUMP JUMPDEST PUSH0 PUSH2 0x1027 DUP3 PUSH2 0x142E JUMP JUMPDEST SWAP1 POP PUSH0 DUP2 PUSH1 0x40 ADD MLOAD SELFBALANCE PUSH2 0x103A SWAP2 SWAP1 PUSH2 0x21AB JUMP JUMPDEST SWAP1 POP PUSH0 DUP2 GT PUSH2 0x107E JUMPI PUSH1 0x40 MLOAD PUSH32 0x8C379A000000000000000000000000000000000000000000000000000000000 DUP2 MSTORE PUSH1 0x4 ADD PUSH2 0x1075 SWAP1 PUSH2 0x208A JUMP JUMPDEST PUSH1 0x40 MLOAD DUP1 SWAP2 SUB SWAP1 REVERT JUMPDEST PUSH2 0x1086 PUSH2 0x9BF JUMP JUMPDEST PUSH20 0xFFFFFFFFFFFFFFFFFFFFFFFFFFFFFFFFFFFFFFFF AND PUSH2 0x8FC DUP4 PUSH1 0x40 ADD MLOAD SWAP1 DUP2 ISZERO MUL SWAP1 PUSH1 0x40 MLOAD PUSH0 PUSH1 0x40 MLOAD DUP1 DUP4 SUB DUP2 DUP6 DUP9 DUP9 CALL SWAP4 POP POP POP POP ISZERO DUP1 ISZERO PUSH2 0x10CC JUMPI RETURNDATASIZE PUSH0 PUSH0 RETURNDATACOPY RETURNDATASIZE PUSH0 REVERT JUMPDEST POP POP POP POP JUMP JUMPDEST PUSH2 0x10DA PUSH2 0x1561 JUMP JUMPDEST PUSH20 0xFFFFFFFFFFFFFFFFFFFFFFFFFFFFFFFFFFFFFFFF AND PUSH2 0x10F8 PUSH2 0x9BF JUMP JUMPDEST PUSH20 0xFFFFFFFFFFFFFFFFFFFFFFFFFFFFFFFFFFFFFFFF AND EQ PUSH2 0x1157 JUMPI PUSH2 0x111B PUSH2 0x1561 JUMP JUMPDEST PUSH1 0x40 MLOAD PUSH32 0x118CDAA700000000000000000000000000000000000000000000000000000000 DUP2 MSTORE PUSH1 0x4 ADD PUSH2 0x114E SWAP2 SWAP1 PUSH2 0x1B39 JUMP JUMPDEST PUSH1 0x40 MLOAD DUP1 SWAP2 SUB SWAP1 REVERT JUMPDEST JUMP JUMPDEST PUSH0 PUSH0 PUSH0 SWAP1 POP JUMPDEST PUSH1 0x4 DUP1 SLOAD SWAP1 POP DUP2 LT ISZERO PUSH2 0x11AD JUMPI DUP3 PUSH1 0x4 DUP3 DUP2 SLOAD DUP2 LT PUSH2 0x1181 JUMPI PUSH2 0x1180 PUSH2 0x2110 JUMP JUMPDEST JUMPDEST SWAP1 PUSH0 MSTORE PUSH1 0x20 PUSH0 KECCAK256 SWAP1 PUSH1 0x4 MUL ADD PUSH1 0x1 ADD SLOAD SUB PUSH2 0x11A0 JUMPI PUSH1 0x1 SWAP2 POP POP PUSH2 0x11B2 JUMP JUMPDEST DUP1 DUP1 PUSH1 0x1 ADD SWAP2 POP POP PUSH2 0x115F JUMP JUMPDEST POP PUSH0 SWAP1 POP JUMPDEST SWAP2 SWAP1 POP JUMP JUMPDEST PUSH0 PUSH0 PUSH0 SWAP1 POP JUMPDEST PUSH1 0x4 DUP1 SLOAD SWAP1 POP DUP2 LT ISZERO PUSH2 0x1229 JUMPI DUP3 PUSH1 0x4 DUP3 DUP2 SLOAD DUP2 LT PUSH2 0x11DF JUMPI PUSH2 0x11DE PUSH2 0x2110 JUMP JUMPDEST JUMPDEST SWAP1 PUSH0 MSTORE PUSH1 0x20 PUSH0 KECCAK256 SWAP1 PUSH1 0x4 MUL ADD PUSH1 0x1 ADD SLOAD SUB PUSH2 0x121C JUMPI PUSH1 0x4 DUP2 DUP2 SLOAD DUP2 LT PUSH2 0x1208 JUMPI PUSH2 0x1207 PUSH2 0x2110 JUMP JUMPDEST JUMPDEST SWAP1 PUSH0 MSTORE PUSH1 0x20 PUSH0 KECCAK256 SWAP1 PUSH1 0x4 MUL ADD SWAP2 POP POP PUSH2 0x125C JUMP JUMPDEST DUP1 DUP1 PUSH1 0x1 ADD SWAP2 POP POP PUSH2 0x11BD JUMP JUMPDEST POP PUSH1 0x40 MLOAD PUSH32 0xC270964900000000000000000000000000000000000000000000000000000000 DUP2 MSTORE PUSH1 0x4 ADD PUSH1 0x40 MLOAD DUP1 SWAP2 SUB SWAP1 REVERT JUMPDEST SWAP2 SWAP1 POP JUMP JUMPDEST PUSH0 PUSH0 PUSH0 SWAP1 SLOAD SWAP1 PUSH2 0x100 EXP SWAP1 DIV PUSH20 0xFFFFFFFFFFFFFFFFFFFFFFFFFFFFFFFFFFFFFFFF AND SWAP1 POP DUP2 PUSH0 PUSH0 PUSH2 0x100 EXP DUP2 SLOAD DUP2 PUSH20 0xFFFFFFFFFFFFFFFFFFFFFFFFFFFFFFFFFFFFFFFF MUL NOT AND SWAP1 DUP4 PUSH20 0xFFFFFFFFFFFFFFFFFFFFFFFFFFFFFFFFFFFFFFFF AND MUL OR SWAP1 SSTORE POP DUP2 PUSH20 0xFFFFFFFFFFFFFFFFFFFFFFFFFFFFFFFFFFFFFFFF AND DUP2 PUSH20 0xFFFFFFFFFFFFFFFFFFFFFFFFFFFFFFFFFFFFFFFF AND PUSH32 0x8BE0079C531659141344CD1FD0A4F28419497F9722A3DAAFE3B4186F6B6457E0 PUSH1 0x40 MLOAD PUSH1 0x40 MLOAD DUP1 SWAP2 SUB SWAP1 LOG3 POP POP JUMP JUMPDEST PUSH0 PUSH2 0x132C DUP4 PUSH2 0x11B7 JUMP JUMPDEST SWAP1 POP DUP2 DUP2 PUSH1 0x2 ADD PUSH0 DUP3 DUP3 SLOAD PUSH2 0x1341 SWAP2 SWAP1 PUSH2 0x21DE JUMP JUMPDEST SWAP3 POP POP DUP2 SWAP1 SSTORE POP DUP2 PUSH1 0x2 PUSH0 DUP6 DUP2 MSTORE PUSH1 0x20 ADD SWAP1 DUP2 MSTORE PUSH1 0x20 ADD PUSH0 KECCAK256 PUSH0 DUP3 DUP3 SLOAD PUSH2 0x1368 SWAP2 SWAP1 PUSH2 0x21AB JUMP JUMPDEST SWAP3 POP POP DUP2 SWAP1 SSTORE POP PUSH2 0x1388 DUP5 DUP4 DUP4 PUSH1 0x3 ADD SLOAD PUSH2 0x1383 SWAP2 SWAP1 PUSH2 0x216A JUMP JUMPDEST PUSH2 0x1568 JUMP JUMPDEST PUSH32 0x12CB4648CF3058B17CEEB33E579F8B0BC269FE0843F3900B8E24B6C54871703C DUP5 DUP5 DUP5 PUSH1 0x40 MLOAD PUSH2 0x13BB SWAP4 SWAP3 SWAP2 SWAP1 PUSH2 0x198B JUMP JUMPDEST PUSH1 0x40 MLOAD DUP1 SWAP2 SUB SWAP1 LOG1 POP POP POP POP JUMP JUMPDEST PUSH0 PUSH0 PUSH0 PUSH0 SWAP1 POP JUMPDEST PUSH1 0x4 DUP1 SLOAD SWAP1 POP DUP2 LT ISZERO PUSH2 0x1421 JUMPI DUP4 PUSH1 0x4 DUP3 DUP2 SLOAD DUP2 LT PUSH2 0x13F2 JUMPI PUSH2 0x13F1 PUSH2 0x2110 JUMP JUMPDEST JUMPDEST SWAP1 PUSH0 MSTORE PUSH1 0x20 PUSH0 KECCAK256 SWAP1 PUSH1 0x4 MUL ADD PUSH1 0x1 ADD SLOAD SUB PUSH2 0x1414 JUMPI PUSH1 0x1 DUP2 SWAP3 POP SWAP3 POP POP PUSH2 0x1429 JUMP JUMPDEST DUP1 DUP1 PUSH1 0x1 ADD SWAP2 POP POP PUSH2 0x13D0 JUMP JUMPDEST POP PUSH0 PUSH0 SWAP2 POP SWAP2 POP JUMPDEST SWAP2 POP SWAP2 JUMP JUMPDEST PUSH2 0x1436 PUSH2 0x1740 JUMP JUMPDEST PUSH0 PUSH1 0x1 PUSH0 DUP5 PUSH20 0xFFFFFFFFFFFFFFFFFFFFFFFFFFFFFFFFFFFFFFFF AND PUSH20 0xFFFFFFFFFFFFFFFFFFFFFFFFFFFFFFFFFFFFFFFF AND DUP2 MSTORE PUSH1 0x20 ADD SWAP1 DUP2 MSTORE PUSH1 0x20 ADD PUSH0 KECCAK256 DUP1 SLOAD DUP1 PUSH1 0x20 MUL PUSH1 0x20 ADD PUSH1 0x40 MLOAD SWAP1 DUP2 ADD PUSH1 0x40 MSTORE DUP1 SWAP3 SWAP2 SWAP1 DUP2 DUP2 MSTORE PUSH1 0x20 ADD PUSH0 SWAP1 JUMPDEST DUP3 DUP3 LT ISZERO PUSH2 0x152B JUMPI DUP4 DUP3 SWAP1 PUSH0 MSTORE PUSH1 0x20 PUSH0 KECCAK256 SWAP1 PUSH1 0x3 MUL ADD PUSH1 0x40 MLOAD DUP1 PUSH1 0x60 ADD PUSH1 0x40 MSTORE SWAP1 DUP2 PUSH0 DUP3 ADD PUSH0 SWAP1 SLOAD SWAP1 PUSH2 0x100 EXP SWAP1 DIV PUSH20 0xFFFFFFFFFFFFFFFFFFFFFFFFFFFFFFFFFFFFFFFF AND PUSH20 0xFFFFFFFFFFFFFFFFFFFFFFFFFFFFFFFFFFFFFFFF AND PUSH20 0xFFFFFFFFFFFFFFFFFFFFFFFFFFFFFFFFFFFFFFFF AND DUP2 MSTORE PUSH1 0x20 ADD PUSH1 0x1 DUP3 ADD SLOAD DUP2 MSTORE PUSH1 0x20 ADD PUSH1 0x2 DUP3 ADD SLOAD DUP2 MSTORE POP POP DUP2 MSTORE PUSH1 0x20 ADD SWAP1 PUSH1 0x1 ADD SWAP1 PUSH2 0x1493 JUMP JUMPDEST POP POP POP POP SWAP1 POP DUP1 PUSH1 0x1 DUP3 MLOAD PUSH2 0x1540 SWAP2 SWAP1 PUSH2 0x21DE JUMP JUMPDEST DUP2 MLOAD DUP2 LT PUSH2 0x1551 JUMPI PUSH2 0x1550 PUSH2 0x2110 JUMP JUMPDEST JUMPDEST PUSH1 0x20 MUL PUSH1 0x20 ADD ADD MLOAD SWAP2 POP POP SWAP2 SWAP1 POP JUMP JUMPDEST PUSH0 CALLER SWAP1 POP SWAP1 JUMP JUMPDEST PUSH1 0x6 PUSH0 DUP2 SLOAD DUP1 SWAP3 SWAP2 SWAP1 PUSH2 0x157A SWAP1 PUSH2 0x2338 JUMP JUMPDEST SWAP2 SWAP1 POP SSTORE POP PUSH1 0x5 PUSH1 0x40 MLOAD DUP1 PUSH1 0x60 ADD PUSH1 0x40 MSTORE DUP1 DUP5 PUSH20 0xFFFFFFFFFFFFFFFFFFFFFFFFFFFFFFFFFFFFFFFF AND DUP2 MSTORE PUSH1 0x20 ADD PUSH1 0x6 SLOAD DUP2 MSTORE PUSH1 0x20 ADD DUP4 DUP2 MSTORE POP SWAP1 DUP1 PUSH1 0x1 DUP2 SLOAD ADD DUP1 DUP3 SSTORE DUP1 SWAP2 POP POP PUSH1 0x1 SWAP1 SUB SWAP1 PUSH0 MSTORE PUSH1 0x20 PUSH0 KECCAK256 SWAP1 PUSH1 0x3 MUL ADD PUSH0 SWAP1 SWAP2 SWAP1 SWAP2 SWAP1 SWAP2 POP PUSH0 DUP3 ADD MLOAD DUP2 PUSH0 ADD PUSH0 PUSH2 0x100 EXP DUP2 SLOAD DUP2 PUSH20 0xFFFFFFFFFFFFFFFFFFFFFFFFFFFFFFFFFFFFFFFF MUL NOT AND SWAP1 DUP4 PUSH20 0xFFFFFFFFFFFFFFFFFFFFFFFFFFFFFFFFFFFFFFFF AND MUL OR SWAP1 SSTORE POP PUSH1 0x20 DUP3 ADD MLOAD DUP2 PUSH1 0x1 ADD SSTORE PUSH1 0x40 DUP3 ADD MLOAD DUP2 PUSH1 0x2 ADD SSTORE POP POP POP POP JUMP JUMPDEST DUP3 DUP1 SLOAD DUP3 DUP3 SSTORE SWAP1 PUSH0 MSTORE PUSH1 0x20 PUSH0 KECCAK256 SWAP1 PUSH1 0x3 MUL DUP2 ADD SWAP3 DUP3 ISZERO PUSH2 0x16F2 JUMPI PUSH0 MSTORE PUSH1 0x20 PUSH0 KECCAK256 SWAP2 PUSH1 0x3 MUL DUP3 ADD JUMPDEST DUP3 DUP2 GT ISZERO PUSH2 0x16F1 JUMPI DUP3 DUP3 PUSH0 DUP3 ADD PUSH0 SWAP1 SLOAD SWAP1 PUSH2 0x100 EXP SWAP1 DIV PUSH20 0xFFFFFFFFFFFFFFFFFFFFFFFFFFFFFFFFFFFFFFFF AND DUP2 PUSH0 ADD PUSH0 PUSH2 0x100 EXP DUP2 SLOAD DUP2 PUSH20 0xFFFFFFFFFFFFFFFFFFFFFFFFFFFFFFFFFFFFFFFF MUL NOT AND SWAP1 DUP4 PUSH20 0xFFFFFFFFFFFFFFFFFFFFFFFFFFFFFFFFFFFFFFFF AND MUL OR SWAP1 SSTORE POP PUSH1 0x1 DUP3 ADD SLOAD DUP2 PUSH1 0x1 ADD SSTORE PUSH1 0x2 DUP3 ADD SLOAD DUP2 PUSH1 0x2 ADD SSTORE POP POP SWAP2 PUSH1 0x3 ADD SWAP2 SWAP1 PUSH1 0x3 ADD SWAP1 PUSH2 0x165F JUMP JUMPDEST JUMPDEST POP SWAP1 POP PUSH2 0x16FF SWAP2 SWAP1 PUSH2 0x1774 JUMP JUMPDEST POP SWAP1 JUMP JUMPDEST POP DUP1 SLOAD PUSH2 0x170F SWAP1 PUSH2 0x1D91 JUMP JUMPDEST PUSH0 DUP3 SSTORE DUP1 PUSH1 0x1F LT PUSH2 0x1720 JUMPI POP PUSH2 0x173D JUMP JUMPDEST PUSH1 0x1F ADD PUSH1 0x20 SWAP1 DIV SWAP1 PUSH0 MSTORE PUSH1 0x20 PUSH0 KECCAK256 SWAP1 DUP2 ADD SWAP1 PUSH2 0x173C SWAP2 SWAP1 PUSH2 0x17BE JUMP JUMPDEST JUMPDEST POP JUMP JUMPDEST PUSH1 0x40 MLOAD DUP1 PUSH1 0x60 ADD PUSH1 0x40 MSTORE DUP1 PUSH0 PUSH20 0xFFFFFFFFFFFFFFFFFFFFFFFFFFFFFFFFFFFFFFFF AND DUP2 MSTORE PUSH1 0x20 ADD PUSH0 DUP2 MSTORE PUSH1 0x20 ADD PUSH0 DUP2 MSTORE POP SWAP1 JUMP JUMPDEST JUMPDEST DUP1 DUP3 GT ISZERO PUSH2 0x17BA JUMPI PUSH0 PUSH0 DUP3 ADD PUSH0 PUSH2 0x100 EXP DUP2 SLOAD SWAP1 PUSH20 0xFFFFFFFFFFFFFFFFFFFFFFFFFFFFFFFFFFFFFFFF MUL NOT AND SWAP1 SSTORE PUSH1 0x1 DUP3 ADD PUSH0 SWAP1 SSTORE PUSH1 0x2 DUP3 ADD PUSH0 SWAP1 SSTORE POP PUSH1 0x3 ADD PUSH2 0x1775 JUMP JUMPDEST POP SWAP1 JUMP JUMPDEST JUMPDEST DUP1 DUP3 GT ISZERO PUSH2 0x17D5 JUMPI PUSH0 DUP2 PUSH0 SWAP1 SSTORE POP PUSH1 0x1 ADD PUSH2 0x17BF JUMP JUMPDEST POP SWAP1 JUMP JUMPDEST PUSH0 PUSH0 REVERT JUMPDEST PUSH0 PUSH0 REVERT JUMPDEST PUSH0 PUSH0 REVERT JUMPDEST PUSH0 PUSH0 REVERT JUMPDEST PUSH0 PUSH0 REVERT JUMPDEST PUSH0 PUSH0 DUP4 PUSH1 0x1F DUP5 ADD SLT PUSH2 0x1802 JUMPI PUSH2 0x1801 PUSH2 0x17E1 JUMP JUMPDEST JUMPDEST DUP3 CALLDATALOAD SWAP1 POP PUSH8 0xFFFFFFFFFFFFFFFF DUP2 GT ISZERO PUSH2 0x181F JUMPI PUSH2 0x181E PUSH2 0x17E5 JUMP JUMPDEST JUMPDEST PUSH1 0x20 DUP4 ADD SWAP2 POP DUP4 PUSH1 0x1 DUP3 MUL DUP4 ADD GT ISZERO PUSH2 0x183B JUMPI PUSH2 0x183A PUSH2 0x17E9 JUMP JUMPDEST JUMPDEST SWAP3 POP SWAP3 SWAP1 POP JUMP JUMPDEST PUSH0 DUP2 SWAP1 POP SWAP2 SWAP1 POP JUMP JUMPDEST PUSH2 0x1854 DUP2 PUSH2 0x1842 JUMP JUMPDEST DUP2 EQ PUSH2 0x185E JUMPI PUSH0 PUSH0 REVERT JUMPDEST POP JUMP JUMPDEST PUSH0 DUP2 CALLDATALOAD SWAP1 POP PUSH2 0x186F DUP2 PUSH2 0x184B JUMP JUMPDEST SWAP3 SWAP2 POP POP JUMP JUMPDEST PUSH0 PUSH0 PUSH0 PUSH0 PUSH0 PUSH1 0x80 DUP7 DUP9 SUB SLT ISZERO PUSH2 0x188E JUMPI PUSH2 0x188D PUSH2 0x17D9 JUMP JUMPDEST JUMPDEST PUSH0 DUP7 ADD CALLDATALOAD PUSH8 0xFFFFFFFFFFFFFFFF DUP2 GT ISZERO PUSH2 0x18AB JUMPI PUSH2 0x18AA PUSH2 0x17DD JUMP JUMPDEST JUMPDEST PUSH2 0x18B7 DUP9 DUP3 DUP10 ADD PUSH2 0x17ED JUMP JUMPDEST SWAP6 POP SWAP6 POP POP PUSH1 0x20 PUSH2 0x18CA DUP9 DUP3 DUP10 ADD PUSH2 0x1861 JUMP JUMPDEST SWAP4 POP POP PUSH1 0x40 PUSH2 0x18DB DUP9 DUP3 DUP10 ADD PUSH2 0x1861 JUMP JUMPDEST SWAP3 POP POP PUSH1 0x60 PUSH2 0x18EC DUP9 DUP3 DUP10 ADD PUSH2 0x1861 JUMP JUMPDEST SWAP2 POP POP SWAP3 SWAP6 POP SWAP3 SWAP6 SWAP1 SWAP4 POP JUMP JUMPDEST PUSH0 PUSH1 0x20 DUP3 DUP5 SUB SLT ISZERO PUSH2 0x190E JUMPI PUSH2 0x190D PUSH2 0x17D9 JUMP JUMPDEST JUMPDEST PUSH0 PUSH2 0x191B DUP5 DUP3 DUP6 ADD PUSH2 0x1861 JUMP JUMPDEST SWAP2 POP POP SWAP3 SWAP2 POP POP JUMP JUMPDEST PUSH2 0x192D DUP2 PUSH2 0x1842 JUMP JUMPDEST DUP3 MSTORE POP POP JUMP JUMPDEST PUSH0 PUSH1 0x20 DUP3 ADD SWAP1 POP PUSH2 0x1946 PUSH0 DUP4 ADD DUP5 PUSH2 0x1924 JUMP JUMPDEST SWAP3 SWAP2 POP POP JUMP JUMPDEST PUSH0 PUSH20 0xFFFFFFFFFFFFFFFFFFFFFFFFFFFFFFFFFFFFFFFF DUP3 AND SWAP1 POP SWAP2 SWAP1 POP JUMP JUMPDEST PUSH0 PUSH2 0x1975 DUP3 PUSH2 0x194C JUMP JUMPDEST SWAP1 POP SWAP2 SWAP1 POP JUMP JUMPDEST PUSH2 0x1985 DUP2 PUSH2 0x196B JUMP JUMPDEST DUP3 MSTORE POP POP JUMP JUMPDEST PUSH0 PUSH1 0x60 DUP3 ADD SWAP1 POP PUSH2 0x199E PUSH0 DUP4 ADD DUP7 PUSH2 0x197C JUMP JUMPDEST PUSH2 0x19AB PUSH1 0x20 DUP4 ADD DUP6 PUSH2 0x1924 JUMP JUMPDEST PUSH2 0x19B8 PUSH1 0x40 DUP4 ADD DUP5 PUSH2 0x1924 JUMP JUMPDEST SWAP5 SWAP4 POP POP POP POP JUMP JUMPDEST PUSH2 0x19C9 DUP2 PUSH2 0x196B JUMP JUMPDEST DUP2 EQ PUSH2 0x19D3 JUMPI PUSH0 PUSH0 REVERT JUMPDEST POP JUMP JUMPDEST PUSH0 DUP2 CALLDATALOAD SWAP1 POP PUSH2 0x19E4 DUP2 PUSH2 0x19C0 JUMP JUMPDEST SWAP3 SWAP2 POP POP JUMP JUMPDEST PUSH0 PUSH0 PUSH1 0x40 DUP4 DUP6 SUB SLT ISZERO PUSH2 0x1A00 JUMPI PUSH2 0x19FF PUSH2 0x17D9 JUMP JUMPDEST JUMPDEST PUSH0 PUSH2 0x1A0D DUP6 DUP3 DUP7 ADD PUSH2 0x19D6 JUMP JUMPDEST SWAP3 POP POP PUSH1 0x20 PUSH2 0x1A1E DUP6 DUP3 DUP7 ADD PUSH2 0x1861 JUMP JUMPDEST SWAP2 POP POP SWAP3 POP SWAP3 SWAP1 POP JUMP JUMPDEST PUSH0 PUSH0 DUP4 PUSH1 0x1F DUP5 ADD SLT PUSH2 0x1A3D JUMPI PUSH2 0x1A3C PUSH2 0x17E1 JUMP JUMPDEST JUMPDEST DUP3 CALLDATALOAD SWAP1 POP PUSH8 0xFFFFFFFFFFFFFFFF DUP2 GT ISZERO PUSH2 0x1A5A JUMPI PUSH2 0x1A59 PUSH2 0x17E5 JUMP JUMPDEST JUMPDEST PUSH1 0x20 DUP4 ADD SWAP2 POP DUP4 PUSH1 0x20 DUP3 MUL DUP4 ADD GT ISZERO PUSH2 0x1A76 JUMPI PUSH2 0x1A75 PUSH2 0x17E9 JUMP JUMPDEST JUMPDEST SWAP3 POP SWAP3 SWAP1 POP JUMP JUMPDEST PUSH0 PUSH0 PUSH0 PUSH0 PUSH1 0x40 DUP6 DUP8 SUB SLT ISZERO PUSH2 0x1A95 JUMPI PUSH2 0x1A94 PUSH2 0x17D9 JUMP JUMPDEST JUMPDEST PUSH0 DUP6 ADD CALLDATALOAD PUSH8 0xFFFFFFFFFFFFFFFF DUP2 GT ISZERO PUSH2 0x1AB2 JUMPI PUSH2 0x1AB1 PUSH2 0x17DD JUMP JUMPDEST JUMPDEST PUSH2 0x1ABE DUP8 DUP3 DUP9 ADD PUSH2 0x1A28 JUMP JUMPDEST SWAP5 POP SWAP5 POP POP PUSH1 0x20 DUP6 ADD CALLDATALOAD PUSH8 0xFFFFFFFFFFFFFFFF DUP2 GT ISZERO PUSH2 0x1AE1 JUMPI PUSH2 0x1AE0 PUSH2 0x17DD JUMP JUMPDEST JUMPDEST PUSH2 0x1AED DUP8 DUP3 DUP9 ADD PUSH2 0x1A28 JUMP JUMPDEST SWAP3 POP SWAP3 POP POP SWAP3 SWAP6 SWAP2 SWAP5 POP SWAP3 POP JUMP JUMPDEST PUSH0 PUSH0 PUSH1 0x40 DUP4 DUP6 SUB SLT ISZERO PUSH2 0x1B11 JUMPI PUSH2 0x1B10 PUSH2 0x17D9 JUMP JUMPDEST JUMPDEST PUSH0 PUSH2 0x1B1E DUP6 DUP3 DUP7 ADD PUSH2 0x1861 JUMP JUMPDEST SWAP3 POP POP PUSH1 0x20 PUSH2 0x1B2F DUP6 DUP3 DUP7 ADD PUSH2 0x1861 JUMP JUMPDEST SWAP2 POP POP SWAP3 POP SWAP3 SWAP1 POP JUMP JUMPDEST PUSH0 PUSH1 0x20 DUP3 ADD SWAP1 POP PUSH2 0x1B4C PUSH0 DUP4 ADD DUP5 PUSH2 0x197C JUMP JUMPDEST SWAP3 SWAP2 POP POP JUMP JUMPDEST PUSH0 PUSH1 0x20 DUP3 DUP5 SUB SLT ISZERO PUSH2 0x1B67 JUMPI PUSH2 0x1B66 PUSH2 0x17D9 JUMP JUMPDEST JUMPDEST PUSH0 PUSH2 0x1B74 DUP5 DUP3 DUP6 ADD PUSH2 0x19D6 JUMP JUMPDEST SWAP2 POP POP SWAP3 SWAP2 POP POP JUMP JUMPDEST PUSH0 DUP2 MLOAD SWAP1 POP SWAP2 SWAP1 POP JUMP JUMPDEST PUSH0 DUP3 DUP3 MSTORE PUSH1 0x20 DUP3 ADD SWAP1 POP SWAP3 SWAP2 POP POP JUMP JUMPDEST PUSH0 DUP2 SWAP1 POP PUSH1 0x20 DUP3 ADD SWAP1 POP SWAP2 SWAP1 POP JUMP JUMPDEST PUSH0 DUP2 MLOAD SWAP1 POP SWAP2 SWAP1 POP JUMP JUMPDEST PUSH0 DUP3 DUP3 MSTORE PUSH1 0x20 DUP3 ADD SWAP1 POP SWAP3 SWAP2 POP POP JUMP JUMPDEST DUP3 DUP2 DUP4 MCOPY PUSH0 DUP4 DUP4 ADD MSTORE POP POP POP JUMP JUMPDEST PUSH0 PUSH1 0x1F NOT PUSH1 0x1F DUP4 ADD AND SWAP1 POP SWAP2 SWAP1 POP JUMP JUMPDEST PUSH0 PUSH2 0x1BE8 DUP3 PUSH2 0x1BA6 JUMP JUMPDEST PUSH2 0x1BF2 DUP2 DUP6 PUSH2 0x1BB0 JUMP JUMPDEST SWAP4 POP PUSH2 0x1C02 DUP2 DUP6 PUSH1 0x20 DUP7 ADD PUSH2 0x1BC0 JUMP JUMPDEST PUSH2 0x1C0B DUP2 PUSH2 0x1BCE JUMP JUMPDEST DUP5 ADD SWAP2 POP POP SWAP3 SWAP2 POP POP JUMP JUMPDEST PUSH2 0x1C1F DUP2 PUSH2 0x1842 JUMP JUMPDEST DUP3 MSTORE POP POP JUMP JUMPDEST PUSH0 PUSH1 0x80 DUP4 ADD PUSH0 DUP4 ADD MLOAD DUP5 DUP3 SUB PUSH0 DUP7 ADD MSTORE PUSH2 0x1C3F DUP3 DUP3 PUSH2 0x1BDE JUMP JUMPDEST SWAP2 POP POP PUSH1 0x20 DUP4 ADD MLOAD PUSH2 0x1C54 PUSH1 0x20 DUP7 ADD DUP3 PUSH2 0x1C16 JUMP JUMPDEST POP PUSH1 0x40 DUP4 ADD MLOAD PUSH2 0x1C67 PUSH1 0x40 DUP7 ADD DUP3 PUSH2 0x1C16 JUMP JUMPDEST POP PUSH1 0x60 DUP4 ADD MLOAD PUSH2 0x1C7A PUSH1 0x60 DUP7 ADD DUP3 PUSH2 0x1C16 JUMP JUMPDEST POP DUP1 SWAP2 POP POP SWAP3 SWAP2 POP POP JUMP JUMPDEST PUSH0 PUSH2 0x1C90 DUP4 DUP4 PUSH2 0x1C25 JUMP JUMPDEST SWAP1 POP SWAP3 SWAP2 POP POP JUMP JUMPDEST PUSH0 PUSH1 0x20 DUP3 ADD SWAP1 POP SWAP2 SWAP1 POP JUMP JUMPDEST PUSH0 PUSH2 0x1CAE DUP3 PUSH2 0x1B7D JUMP JUMPDEST PUSH2 0x1CB8 DUP2 DUP6 PUSH2 0x1B87 JUMP JUMPDEST SWAP4 POP DUP4 PUSH1 0x20 DUP3 MUL DUP6 ADD PUSH2 0x1CCA DUP6 PUSH2 0x1B97 JUMP JUMPDEST DUP1 PUSH0 JUMPDEST DUP6 DUP2 LT ISZERO PUSH2 0x1D05 JUMPI DUP5 DUP5 SUB DUP10 MSTORE DUP2 MLOAD PUSH2 0x1CE6 DUP6 DUP3 PUSH2 0x1C85 JUMP JUMPDEST SWAP5 POP PUSH2 0x1CF1 DUP4 PUSH2 0x1C98 JUMP JUMPDEST SWAP3 POP PUSH1 0x20 DUP11 ADD SWAP10 POP POP PUSH1 0x1 DUP2 ADD SWAP1 POP PUSH2 0x1CCD JUMP JUMPDEST POP DUP3 SWAP8 POP DUP8 SWAP6 POP POP POP POP POP POP SWAP3 SWAP2 POP POP JUMP JUMPDEST PUSH0 PUSH1 0x20 DUP3 ADD SWAP1 POP DUP2 DUP2 SUB PUSH0 DUP4 ADD MSTORE PUSH2 0x1D2F DUP2 DUP5 PUSH2 0x1CA4 JUMP JUMPDEST SWAP1 POP SWAP3 SWAP2 POP POP JUMP JUMPDEST PUSH32 0x4E487B7100000000000000000000000000000000000000000000000000000000 PUSH0 MSTORE PUSH1 0x41 PUSH1 0x4 MSTORE PUSH1 0x24 PUSH0 REVERT JUMPDEST PUSH32 0x4E487B7100000000000000000000000000000000000000000000000000000000 PUSH0 MSTORE PUSH1 0x22 PUSH1 0x4 MSTORE PUSH1 0x24 PUSH0 REVERT JUMPDEST PUSH0 PUSH1 0x2 DUP3 DIV SWAP1 POP PUSH1 0x1 DUP3 AND DUP1 PUSH2 0x1DA8 JUMPI PUSH1 0x7F DUP3 AND SWAP2 POP JUMPDEST PUSH1 0x20 DUP3 LT DUP2 SUB PUSH2 0x1DBB JUMPI PUSH2 0x1DBA PUSH2 0x1D64 JUMP JUMPDEST JUMPDEST POP SWAP2 SWAP1 POP JUMP JUMPDEST PUSH0 DUP2 SWAP1 POP DUP2 PUSH0 MSTORE PUSH1 0x20 PUSH0 KECCAK256 SWAP1 POP SWAP2 SWAP1 POP JUMP JUMPDEST PUSH0 PUSH1 0x20 PUSH1 0x1F DUP4 ADD DIV SWAP1 POP SWAP2 SWAP1 POP JUMP JUMPDEST PUSH0 DUP3 DUP3 SHL SWAP1 POP SWAP3 SWAP2 POP POP JUMP JUMPDEST PUSH0 PUSH1 0x8 DUP4 MUL PUSH2 0x1E1D PUSH32 0xFFFFFFFFFFFFFFFFFFFFFFFFFFFFFFFFFFFFFFFFFFFFFFFFFFFFFFFFFFFFFFFF DUP3 PUSH2 0x1DE2 JUMP JUMPDEST PUSH2 0x1E27 DUP7 DUP4 PUSH2 0x1DE2 JUMP JUMPDEST SWAP6 POP DUP1 NOT DUP5 AND SWAP4 POP DUP1 DUP7 AND DUP5 OR SWAP3 POP POP POP SWAP4 SWAP3 POP POP POP JUMP JUMPDEST PUSH0 DUP2 SWAP1 POP SWAP2 SWAP1 POP JUMP JUMPDEST PUSH0 PUSH2 0x1E62 PUSH2 0x1E5D PUSH2 0x1E58 DUP5 PUSH2 0x1842 JUMP JUMPDEST PUSH2 0x1E3F JUMP JUMPDEST PUSH2 0x1842 JUMP JUMPDEST SWAP1 POP SWAP2 SWAP1 POP JUMP JUMPDEST PUSH0 DUP2 SWAP1 POP SWAP2 SWAP1 POP JUMP JUMPDEST PUSH2 0x1E7B DUP4 PUSH2 0x1E48 JUMP JUMPDEST PUSH2 0x1E8F PUSH2 0x1E87 DUP3 PUSH2 0x1E69 JUMP JUMPDEST DUP5 DUP5 SLOAD PUSH2 0x1DEE JUMP JUMPDEST DUP3 SSTORE POP POP POP POP JUMP JUMPDEST PUSH0 PUSH0 SWAP1 POP SWAP1 JUMP JUMPDEST PUSH2 0x1EA6 PUSH2 0x1E97 JUMP JUMPDEST PUSH2 0x1EB1 DUP2 DUP5 DUP5 PUSH2 0x1E72 JUMP JUMPDEST POP POP POP JUMP JUMPDEST JUMPDEST DUP2 DUP2 LT ISZERO PUSH2 0x1ED4 JUMPI PUSH2 0x1EC9 PUSH0 DUP3 PUSH2 0x1E9E JUMP JUMPDEST PUSH1 0x1 DUP2 ADD SWAP1 POP PUSH2 0x1EB7 JUMP JUMPDEST POP POP JUMP JUMPDEST PUSH1 0x1F DUP3 GT ISZERO PUSH2 0x1F19 JUMPI PUSH2 0x1EEA DUP2 PUSH2 0x1DC1 JUMP JUMPDEST PUSH2 0x1EF3 DUP5 PUSH2 0x1DD3 JUMP JUMPDEST DUP2 ADD PUSH1 0x20 DUP6 LT ISZERO PUSH2 0x1F02 JUMPI DUP2 SWAP1 POP JUMPDEST PUSH2 0x1F16 PUSH2 0x1F0E DUP6 PUSH2 0x1DD3 JUMP JUMPDEST DUP4 ADD DUP3 PUSH2 0x1EB6 JUMP JUMPDEST POP POP JUMPDEST POP POP POP JUMP JUMPDEST PUSH0 DUP3 DUP3 SHR SWAP1 POP SWAP3 SWAP2 POP POP JUMP JUMPDEST PUSH0 PUSH2 0x1F39 PUSH0 NOT DUP5 PUSH1 0x8 MUL PUSH2 0x1F1E JUMP JUMPDEST NOT DUP1 DUP4 AND SWAP2 POP POP SWAP3 SWAP2 POP POP JUMP JUMPDEST PUSH0 PUSH2 0x1F51 DUP4 DUP4 PUSH2 0x1F2A JUMP JUMPDEST SWAP2 POP DUP3 PUSH1 0x2 MUL DUP3 OR SWAP1 POP SWAP3 SWAP2 POP POP JUMP JUMPDEST PUSH2 0x1F6A DUP3 PUSH2 0x1BA6 JUMP JUMPDEST PUSH8 0xFFFFFFFFFFFFFFFF DUP2 GT ISZERO PUSH2 0x1F83 JUMPI PUSH2 0x1F82 PUSH2 0x1D37 JUMP JUMPDEST JUMPDEST PUSH2 0x1F8D DUP3 SLOAD PUSH2 0x1D91 JUMP JUMPDEST PUSH2 0x1F98 DUP3 DUP3 DUP6 PUSH2 0x1ED8 JUMP JUMPDEST PUSH0 PUSH1 0x20 SWAP1 POP PUSH1 0x1F DUP4 GT PUSH1 0x1 DUP2 EQ PUSH2 0x1FC9 JUMPI PUSH0 DUP5 ISZERO PUSH2 0x1FB7 JUMPI DUP3 DUP8 ADD MLOAD SWAP1 POP JUMPDEST PUSH2 0x1FC1 DUP6 DUP3 PUSH2 0x1F46 JUMP JUMPDEST DUP7 SSTORE POP PUSH2 0x2028 JUMP JUMPDEST PUSH1 0x1F NOT DUP5 AND PUSH2 0x1FD7 DUP7 PUSH2 0x1DC1 JUMP JUMPDEST PUSH0 JUMPDEST DUP3 DUP2 LT ISZERO PUSH2 0x1FFE JUMPI DUP5 DUP10 ADD MLOAD DUP3 SSTORE PUSH1 0x1 DUP3 ADD SWAP2 POP PUSH1 0x20 DUP6 ADD SWAP5 POP PUSH1 0x20 DUP2 ADD SWAP1 POP PUSH2 0x1FD9 JUMP JUMPDEST DUP7 DUP4 LT ISZERO PUSH2 0x201B JUMPI DUP5 DUP10 ADD MLOAD PUSH2 0x2017 PUSH1 0x1F DUP10 AND DUP3 PUSH2 0x1F2A JUMP JUMPDEST DUP4 SSTORE POP JUMPDEST PUSH1 0x1 PUSH1 0x2 DUP9 MUL ADD DUP9 SSTORE POP POP POP JUMPDEST POP POP POP POP POP POP JUMP JUMPDEST PUSH0 DUP3 DUP3 MSTORE PUSH1 0x20 DUP3 ADD SWAP1 POP SWAP3 SWAP2 POP POP JUMP JUMPDEST PUSH32 0x4E6F7420656E6F75676874206D6F6E6579000000000000000000000000000000 PUSH0 DUP3 ADD MSTORE POP JUMP JUMPDEST PUSH0 PUSH2 0x2074 PUSH1 0x11 DUP4 PUSH2 0x2030 JUMP JUMPDEST SWAP2 POP PUSH2 0x207F DUP3 PUSH2 0x2040 JUMP JUMPDEST PUSH1 0x20 DUP3 ADD SWAP1 POP SWAP2 SWAP1 POP JUMP JUMPDEST PUSH0 PUSH1 0x20 DUP3 ADD SWAP1 POP DUP2 DUP2 SUB PUSH0 DUP4 ADD MSTORE PUSH2 0x20A1 DUP2 PUSH2 0x2068 JUMP JUMPDEST SWAP1 POP SWAP2 SWAP1 POP JUMP JUMPDEST PUSH32 0x617272617973206C656E67687473206D69736D61746368000000000000000000 PUSH0 DUP3 ADD MSTORE POP JUMP JUMPDEST PUSH0 PUSH2 0x20DC PUSH1 0x17 DUP4 PUSH2 0x2030 JUMP JUMPDEST SWAP2 POP PUSH2 0x20E7 DUP3 PUSH2 0x20A8 JUMP JUMPDEST PUSH1 0x20 DUP3 ADD SWAP1 POP SWAP2 SWAP1 POP JUMP JUMPDEST PUSH0 PUSH1 0x20 DUP3 ADD SWAP1 POP DUP2 DUP2 SUB PUSH0 DUP4 ADD MSTORE PUSH2 0x2109 DUP2 PUSH2 0x20D0 JUMP JUMPDEST SWAP1 POP SWAP2 SWAP1 POP JUMP JUMPDEST PUSH32 0x4E487B7100000000000000000000000000000000000000000000000000000000 PUSH0 MSTORE PUSH1 0x32 PUSH1 0x4 MSTORE PUSH1 0x24 PUSH0 REVERT JUMPDEST PUSH32 0x4E487B7100000000000000000000000000000000000000000000000000000000 PUSH0 MSTORE PUSH1 0x11 PUSH1 0x4 MSTORE PUSH1 0x24 PUSH0 REVERT JUMPDEST PUSH0 PUSH2 0x2174 DUP3 PUSH2 0x1842 JUMP JUMPDEST SWAP2 POP PUSH2 0x217F DUP4 PUSH2 0x1842 JUMP JUMPDEST SWAP3 POP DUP3 DUP3 MUL PUSH2 0x218D DUP2 PUSH2 0x1842 JUMP JUMPDEST SWAP2 POP DUP3 DUP3 DIV DUP5 EQ DUP4 ISZERO OR PUSH2 0x21A4 JUMPI PUSH2 0x21A3 PUSH2 0x213D JUMP JUMPDEST JUMPDEST POP SWAP3 SWAP2 POP POP JUMP JUMPDEST PUSH0 PUSH2 0x21B5 DUP3 PUSH2 0x1842 JUMP JUMPDEST SWAP2 POP PUSH2 0x21C0 DUP4 PUSH2 0x1842 JUMP JUMPDEST SWAP3 POP DUP3 DUP3 ADD SWAP1 POP DUP1 DUP3 GT ISZERO PUSH2 0x21D8 JUMPI PUSH2 0x21D7 PUSH2 0x213D JUMP JUMPDEST JUMPDEST SWAP3 SWAP2 POP POP JUMP JUMPDEST PUSH0 PUSH2 0x21E8 DUP3 PUSH2 0x1842 JUMP JUMPDEST SWAP2 POP PUSH2 0x21F3 DUP4 PUSH2 0x1842 JUMP JUMPDEST SWAP3 POP DUP3 DUP3 SUB SWAP1 POP DUP2 DUP2 GT ISZERO PUSH2 0x220B JUMPI PUSH2 0x220A PUSH2 0x213D JUMP JUMPDEST JUMPDEST SWAP3 SWAP2 POP POP JUMP JUMPDEST PUSH0 DUP2 SLOAD SWAP1 POP PUSH2 0x221F DUP2 PUSH2 0x1D91 JUMP JUMPDEST SWAP1 POP SWAP2 SWAP1 POP JUMP JUMPDEST DUP2 DUP2 SUB PUSH2 0x2234 JUMPI POP POP PUSH2 0x2309 JUMP JUMPDEST PUSH2 0x223D DUP3 PUSH2 0x2211 JUMP JUMPDEST PUSH8 0xFFFFFFFFFFFFFFFF DUP2 GT ISZERO PUSH2 0x2256 JUMPI PUSH2 0x2255 PUSH2 0x1D37 JUMP JUMPDEST JUMPDEST PUSH2 0x2260 DUP3 SLOAD PUSH2 0x1D91 JUMP JUMPDEST PUSH2 0x226B DUP3 DUP3 DUP6 PUSH2 0x1ED8 JUMP JUMPDEST PUSH0 PUSH1 0x1F DUP4 GT PUSH1 0x1 DUP2 EQ PUSH2 0x2298 JUMPI PUSH0 DUP5 ISZERO PUSH2 0x2286 JUMPI DUP3 DUP8 ADD SLOAD SWAP1 POP JUMPDEST PUSH2 0x2290 DUP6 DUP3 PUSH2 0x1F46 JUMP JUMPDEST DUP7 SSTORE POP PUSH2 0x2302 JUMP JUMPDEST PUSH1 0x1F NOT DUP5 AND PUSH2 0x22A6 DUP8 PUSH2 0x1DC1 JUMP JUMPDEST SWAP7 POP PUSH2 0x22B1 DUP7 PUSH2 0x1DC1 JUMP JUMPDEST PUSH0 JUMPDEST DUP3 DUP2 LT ISZERO PUSH2 0x22D8 JUMPI DUP5 DUP10 ADD SLOAD DUP3 SSTORE PUSH1 0x1 DUP3 ADD SWAP2 POP PUSH1 0x1 DUP6 ADD SWAP5 POP PUSH1 0x20 DUP2 ADD SWAP1 POP PUSH2 0x22B3 JUMP JUMPDEST DUP7 DUP4 LT ISZERO PUSH2 0x22F5 JUMPI DUP5 DUP10 ADD SLOAD PUSH2 0x22F1 PUSH1 0x1F DUP10 AND DUP3 PUSH2 0x1F2A JUMP JUMPDEST DUP4 SSTORE POP JUMPDEST PUSH1 0x1 PUSH1 0x2 DUP9 MUL ADD DUP9 SSTORE POP POP POP JUMPDEST POP POP POP POP POP POP JUMPDEST JUMP JUMPDEST PUSH32 0x4E487B7100000000000000000000000000000000000000000000000000000000 PUSH0 MSTORE PUSH1 0x31 PUSH1 0x4 MSTORE PUSH1 0x24 PUSH0 REVERT JUMPDEST PUSH0 PUSH2 0x2342 DUP3 PUSH2 0x1842 JUMP JUMPDEST SWAP2 POP PUSH32 0xFFFFFFFFFFFFFFFFFFFFFFFFFFFFFFFFFFFFFFFFFFFFFFFFFFFFFFFFFFFFFFFF DUP3 SUB PUSH2 0x2374 JUMPI PUSH2 0x2373 PUSH2 0x213D JUMP JUMPDEST JUMPDEST PUSH1 0x1 DUP3 ADD SWAP1 POP SWAP2 SWAP1 POP JUMP INVALID LOG2 PUSH5 0x6970667358 0x22 SLT KECCAK256 DUP9 DUP14 PUSH19 0x84C236E40E17E0DE0AA18E186729BA9FDD77FD BALANCE POP 0x27 RETURN 0xC7 MUL 0xAB PUSH9 0x7AC964736F6C634300 ADDMOD 0x1E STOP CALLER "
				},
				"gasEstimates": {
					"creation": {
						"codeDepositCost": "1828200",
						"executionCost": "infinite",
						"totalCost": "infinite"
					},
					"external": {
						"addProduct(string,uint256,uint256,uint256)": "infinite",
						"batchBuy(uint256[],uint256[])": "infinite",
						"buy(uint256,uint256)": "infinite",
						"deleteProduct(uint256)": "infinite",
						"getPrice(uint256)": "infinite",
						"getProducts()": "infinite",
						"getStock(uint256)": "infinite",
						"getTotalRevenue()": "infinite",
						"getUserPurchase(address)": "infinite",
						"owner()": "2625",
						"productsPurchase(uint256)": "infinite",
						"purchases(uint256)": "infinite",
						"purchasesForCurrentBuyer(uint256)": "infinite",
						"refund(address)": "infinite",
						"renounceOwnership()": "infinite",
						"transferOwnership(address)": "infinite",
						"updatePrice(uint256,uint256)": "infinite",
						"updateStock(uint256,uint256)": "infinite",
						"userPurchase(address,uint256)": "infinite",
						"withdraw()": "infinite"
					},
					"internal": {
						"_buyProcess(address,uint256,uint256)": "infinite",
						"findIndexById(uint256)": "infinite",
						"findProduct(uint256)": "infinite",
						"getLastPurchase(address)": "infinite",
						"isIdExist(uint256)": "infinite",
						"setPurchaseHistory(address,uint256)": "infinite"
					}
				},
				"methodIdentifiers": {
					"addProduct(string,uint256,uint256,uint256)": "094455c4",
					"batchBuy(uint256[],uint256[])": "723cdb1d",
					"buy(uint256,uint256)": "d6febde8",
					"deleteProduct(uint256)": "ed90c7b7",
					"getPrice(uint256)": "e7572230",
					"getProducts()": "c29b2f20",
					"getStock(uint256)": "3ab7d09a",
					"getTotalRevenue()": "957fae96",
					"getUserPurchase(address)": "bda235da",
					"owner()": "8da5cb5b",
					"productsPurchase(uint256)": "ce4df381",
					"purchases(uint256)": "8392fe31",
					"purchasesForCurrentBuyer(uint256)": "58025212",
					"refund(address)": "fa89401a",
					"renounceOwnership()": "715018a6",
					"transferOwnership(address)": "f2fde38b",
					"updatePrice(uint256,uint256)": "82367b2d",
					"updateStock(uint256,uint256)": "9dfc3dd1",
					"userPurchase(address,uint256)": "6038d0cf",
					"withdraw()": "3ccfd60b"
				}
			},
			"storageLayout": {
				"storage": [
					{
						"astId": 8,
						"contract": "contracts/Shope.sol:Store",
						"label": "_owner",
						"offset": 0,
						"slot": "0",
						"type": "t_address"
					},
					{
						"astId": 190,
						"contract": "contracts/Shope.sol:Store",
						"label": "userPurchase",
						"offset": 0,
						"slot": "1",
						"type": "t_mapping(t_address,t_array(t_struct(PurchaseHistory)213_storage)dyn_storage)"
					},
					{
						"astId": 195,
						"contract": "contracts/Shope.sol:Store",
						"label": "productsPurchase",
						"offset": 0,
						"slot": "2",
						"type": "t_mapping(t_uint256,t_uint256)"
					},
					{
						"astId": 217,
						"contract": "contracts/Shope.sol:Store",
						"label": "purchasesForCurrentBuyer",
						"offset": 0,
						"slot": "3",
						"type": "t_array(t_struct(PurchaseHistory)213_storage)dyn_storage"
					},
					{
						"astId": 221,
						"contract": "contracts/Shope.sol:Store",
						"label": "products",
						"offset": 0,
						"slot": "4",
						"type": "t_array(t_struct(Product)205_storage)dyn_storage"
					},
					{
						"astId": 225,
						"contract": "contracts/Shope.sol:Store",
						"label": "purchases",
						"offset": 0,
						"slot": "5",
						"type": "t_array(t_struct(PurchaseHistory)213_storage)dyn_storage"
					},
					{
						"astId": 227,
						"contract": "contracts/Shope.sol:Store",
						"label": "purchaseId",
						"offset": 0,
						"slot": "6",
						"type": "t_uint256"
					}
				],
				"types": {
					"t_address": {
						"encoding": "inplace",
						"label": "address",
						"numberOfBytes": "20"
					},
					"t_array(t_struct(Product)205_storage)dyn_storage": {
						"base": "t_struct(Product)205_storage",
						"encoding": "dynamic_array",
						"label": "struct Store.Product[]",
						"numberOfBytes": "32"
					},
					"t_array(t_struct(PurchaseHistory)213_storage)dyn_storage": {
						"base": "t_struct(PurchaseHistory)213_storage",
						"encoding": "dynamic_array",
						"label": "struct Store.PurchaseHistory[]",
						"numberOfBytes": "32"
					},
					"t_mapping(t_address,t_array(t_struct(PurchaseHistory)213_storage)dyn_storage)": {
						"encoding": "mapping",
						"key": "t_address",
						"label": "mapping(address => struct Store.PurchaseHistory[])",
						"numberOfBytes": "32",
						"value": "t_array(t_struct(PurchaseHistory)213_storage)dyn_storage"
					},
					"t_mapping(t_uint256,t_uint256)": {
						"encoding": "mapping",
						"key": "t_uint256",
						"label": "mapping(uint256 => uint256)",
						"numberOfBytes": "32",
						"value": "t_uint256"
					},
					"t_string_storage": {
						"encoding": "bytes",
						"label": "string",
						"numberOfBytes": "32"
					},
					"t_struct(Product)205_storage": {
						"encoding": "inplace",
						"label": "struct Store.Product",
						"members": [
							{
								"astId": 198,
								"contract": "contracts/Shope.sol:Store",
								"label": "name",
								"offset": 0,
								"slot": "0",
								"type": "t_string_storage"
							},
							{
								"astId": 200,
								"contract": "contracts/Shope.sol:Store",
								"label": "id",
								"offset": 0,
								"slot": "1",
								"type": "t_uint256"
							},
							{
								"astId": 202,
								"contract": "contracts/Shope.sol:Store",
								"label": "stock",
								"offset": 0,
								"slot": "2",
								"type": "t_uint256"
							},
							{
								"astId": 204,
								"contract": "contracts/Shope.sol:Store",
								"label": "price",
								"offset": 0,
								"slot": "3",
								"type": "t_uint256"
							}
						],
						"numberOfBytes": "128"
					},
					"t_struct(PurchaseHistory)213_storage": {
						"encoding": "inplace",
						"label": "struct Store.PurchaseHistory",
						"members": [
							{
								"astId": 208,
								"contract": "contracts/Shope.sol:Store",
								"label": "buyer",
								"offset": 0,
								"slot": "0",
								"type": "t_address"
							},
							{
								"astId": 210,
								"contract": "contracts/Shope.sol:Store",
								"label": "purchaseId",
								"offset": 0,
								"slot": "1",
								"type": "t_uint256"
							},
							{
								"astId": 212,
								"contract": "contracts/Shope.sol:Store",
								"label": "totalAmount",
								"offset": 0,
								"slot": "2",
								"type": "t_uint256"
							}
						],
						"numberOfBytes": "96"
					},
					"t_uint256": {
						"encoding": "inplace",
						"label": "uint256",
						"numberOfBytes": "32"
					}
				}
			},
			"userdoc": {
				"kind": "user",
				"methods": {
					"getTotalRevenue()": {
						"notice": "get amount of money, which a shop get"
					},
					"getUserPurchase(address)": {
						"notice": "get history of purchases for current buyer"
					},
					"productsPurchase(uint256)": {
						"notice": "product_id => quantity"
					},
					"refund(address)": {
						"notice": "Возможно надо еще обновить количество товара после возврата денегRefund money for last purchase for buyer"
					},
					"userPurchase(address,uint256)": {
						"notice": "buyer => product_id => quantity"
					}
				},
				"version": 1
			}
		}
	}
}