{
	"contracts/Shope.sol": {
		"Store": {
			"abi": [
				{
					"inputs": [],
					"stateMutability": "nonpayable",
					"type": "constructor"
				},
				{
					"inputs": [],
					"name": "IdAlreadyExist",
					"type": "error"
				},
				{
					"inputs": [],
					"name": "IdDoesNotExist",
					"type": "error"
				},
				{
					"inputs": [],
					"name": "NotEnoughtFunds",
					"type": "error"
				},
				{
					"inputs": [],
					"name": "OutOfStock",
					"type": "error"
				},
				{
					"inputs": [
						{
							"internalType": "address",
							"name": "owner",
							"type": "address"
						}
					],
					"name": "OwnableInvalidOwner",
					"type": "error"
				},
				{
					"inputs": [
						{
							"internalType": "address",
							"name": "account",
							"type": "address"
						}
					],
					"name": "OwnableUnauthorizedAccount",
					"type": "error"
				},
				{
					"inputs": [],
					"name": "QuantityCantBeZero",
					"type": "error"
				},
				{
					"anonymous": false,
					"inputs": [
						{
							"indexed": true,
							"internalType": "address",
							"name": "previousOwner",
							"type": "address"
						},
						{
							"indexed": true,
							"internalType": "address",
							"name": "newOwner",
							"type": "address"
						}
					],
					"name": "OwnershipTransferred",
					"type": "event"
				},
				{
					"anonymous": false,
					"inputs": [
						{
							"indexed": false,
							"internalType": "address",
							"name": "buyer",
							"type": "address"
						},
						{
							"indexed": false,
							"internalType": "uint256",
							"name": "id",
							"type": "uint256"
						},
						{
							"indexed": false,
							"internalType": "uint256",
							"name": "quantity",
							"type": "uint256"
						}
					],
					"name": "Purchase",
					"type": "event"
				},
				{
					"inputs": [
						{
							"internalType": "string",
							"name": "_name",
							"type": "string"
						},
						{
							"internalType": "uint256",
							"name": "_id",
							"type": "uint256"
						},
						{
							"internalType": "uint256",
							"name": "_stock",
							"type": "uint256"
						},
						{
							"internalType": "uint256",
							"name": "_price",
							"type": "uint256"
						}
					],
					"name": "addProduct",
					"outputs": [],
					"stateMutability": "nonpayable",
					"type": "function"
				},
				{
					"inputs": [
						{
							"internalType": "uint256[]",
							"name": "_ids",
							"type": "uint256[]"
						},
						{
							"internalType": "uint256[]",
							"name": "_quantitys",
							"type": "uint256[]"
						}
					],
					"name": "batchBuy",
					"outputs": [],
					"stateMutability": "payable",
					"type": "function"
				},
				{
					"inputs": [
						{
							"internalType": "uint256",
							"name": "_id",
							"type": "uint256"
						},
						{
							"internalType": "uint256",
							"name": "_quantity",
							"type": "uint256"
						}
					],
					"name": "buy",
					"outputs": [],
					"stateMutability": "payable",
					"type": "function"
				},
				{
					"inputs": [
						{
							"internalType": "uint256",
							"name": "_id",
							"type": "uint256"
						}
					],
					"name": "deleteProduct",
					"outputs": [],
					"stateMutability": "nonpayable",
					"type": "function"
				},
				{
					"inputs": [
						{
							"internalType": "address",
							"name": "_buyer",
							"type": "address"
						}
					],
					"name": "getLastPurchase",
					"outputs": [
						{
							"components": [
								{
									"internalType": "address",
									"name": "buyer",
									"type": "address"
								},
								{
									"internalType": "uint256",
									"name": "purchaseId",
									"type": "uint256"
								},
								{
									"internalType": "uint256",
									"name": "totalAmount",
									"type": "uint256"
								}
							],
							"internalType": "struct Store.PurchaseHistory",
							"name": "",
							"type": "tuple"
						}
					],
					"stateMutability": "nonpayable",
					"type": "function"
				},
				{
					"inputs": [
						{
							"internalType": "uint256",
							"name": "_id",
							"type": "uint256"
						}
					],
					"name": "getPrice",
					"outputs": [
						{
							"internalType": "uint256",
							"name": "",
							"type": "uint256"
						}
					],
					"stateMutability": "view",
					"type": "function"
				},
				{
					"inputs": [],
					"name": "getProducts",
					"outputs": [
						{
							"components": [
								{
									"internalType": "string",
									"name": "name",
									"type": "string"
								},
								{
									"internalType": "uint256",
									"name": "id",
									"type": "uint256"
								},
								{
									"internalType": "uint256",
									"name": "stock",
									"type": "uint256"
								},
								{
									"internalType": "uint256",
									"name": "price",
									"type": "uint256"
								}
							],
							"internalType": "struct Store.Product[]",
							"name": "",
							"type": "tuple[]"
						}
					],
					"stateMutability": "view",
					"type": "function"
				},
				{
					"inputs": [
						{
							"internalType": "uint256",
							"name": "_id",
							"type": "uint256"
						}
					],
					"name": "getStock",
					"outputs": [
						{
							"internalType": "uint256",
							"name": "",
							"type": "uint256"
						}
					],
					"stateMutability": "view",
					"type": "function"
				},
				{
					"inputs": [],
					"name": "getTotalRevenue",
					"outputs": [
						{
							"internalType": "uint256",
							"name": "",
							"type": "uint256"
						}
					],
					"stateMutability": "view",
					"type": "function"
				},
				{
					"inputs": [
						{
							"internalType": "address",
							"name": "_buyer",
							"type": "address"
						}
					],
					"name": "getUserPurchase",
					"outputs": [],
					"stateMutability": "nonpayable",
					"type": "function"
				},
				{
					"inputs": [],
					"name": "owner",
					"outputs": [
						{
							"internalType": "address",
							"name": "",
							"type": "address"
						}
					],
					"stateMutability": "view",
					"type": "function"
				},
				{
					"inputs": [
						{
							"internalType": "uint256",
							"name": "",
							"type": "uint256"
						}
					],
					"name": "productsPurchase",
					"outputs": [
						{
							"internalType": "uint256",
							"name": "",
							"type": "uint256"
						}
					],
					"stateMutability": "view",
					"type": "function"
				},
				{
					"inputs": [
						{
							"internalType": "uint256",
							"name": "",
							"type": "uint256"
						}
					],
					"name": "purchases",
					"outputs": [
						{
							"internalType": "address",
							"name": "buyer",
							"type": "address"
						},
						{
							"internalType": "uint256",
							"name": "purchaseId",
							"type": "uint256"
						},
						{
							"internalType": "uint256",
							"name": "totalAmount",
							"type": "uint256"
						}
					],
					"stateMutability": "view",
					"type": "function"
				},
				{
					"inputs": [
						{
							"internalType": "uint256",
							"name": "",
							"type": "uint256"
						}
					],
					"name": "purchasesForCurrentBuyer",
					"outputs": [
						{
							"internalType": "address",
							"name": "buyer",
							"type": "address"
						},
						{
							"internalType": "uint256",
							"name": "purchaseId",
							"type": "uint256"
						},
						{
							"internalType": "uint256",
							"name": "totalAmount",
							"type": "uint256"
						}
					],
					"stateMutability": "view",
					"type": "function"
				},
				{
					"inputs": [
						{
							"internalType": "address",
							"name": "_buyer",
							"type": "address"
						}
					],
					"name": "refund",
					"outputs": [],
					"stateMutability": "payable",
					"type": "function"
				},
				{
					"inputs": [],
					"name": "renounceOwnership",
					"outputs": [],
					"stateMutability": "nonpayable",
					"type": "function"
				},
				{
					"inputs": [
						{
							"internalType": "address",
							"name": "newOwner",
							"type": "address"
						}
					],
					"name": "transferOwnership",
					"outputs": [],
					"stateMutability": "nonpayable",
					"type": "function"
				},
				{
					"inputs": [
						{
							"internalType": "uint256",
							"name": "_id",
							"type": "uint256"
						},
						{
							"internalType": "uint256",
							"name": "_price",
							"type": "uint256"
						}
					],
					"name": "updatePrice",
					"outputs": [],
					"stateMutability": "nonpayable",
					"type": "function"
				},
				{
					"inputs": [
						{
							"internalType": "uint256",
							"name": "_id",
							"type": "uint256"
						},
						{
							"internalType": "uint256",
							"name": "_stock",
							"type": "uint256"
						}
					],
					"name": "updateStock",
					"outputs": [],
					"stateMutability": "nonpayable",
					"type": "function"
				},
				{
					"inputs": [
						{
							"internalType": "address",
							"name": "",
							"type": "address"
						},
						{
							"internalType": "uint256",
							"name": "",
							"type": "uint256"
						}
					],
					"name": "userPurchase",
					"outputs": [
						{
							"internalType": "address",
							"name": "buyer",
							"type": "address"
						},
						{
							"internalType": "uint256",
							"name": "purchaseId",
							"type": "uint256"
						},
						{
							"internalType": "uint256",
							"name": "totalAmount",
							"type": "uint256"
						}
					],
					"stateMutability": "view",
					"type": "function"
				},
				{
					"inputs": [],
					"name": "withdraw",
					"outputs": [],
					"stateMutability": "nonpayable",
					"type": "function"
				}
			],
			"devdoc": {
				"errors": {
					"OwnableInvalidOwner(address)": [
						{
							"details": "The owner is not a valid owner account. (eg. `address(0)`)"
						}
					],
					"OwnableUnauthorizedAccount(address)": [
						{
							"details": "The caller account is not authorized to perform an operation."
						}
					]
				},
				"kind": "dev",
				"methods": {
					"getLastPurchase(address)": {
						"returns": {
							"_0": "Purchase with max purchaseId among purchases of buyer"
						}
					},
					"owner()": {
						"details": "Returns the address of the current owner."
					},
					"refund(address)": {
						"params": {
							"_buyer": "Buyer"
						}
					},
					"renounceOwnership()": {
						"details": "Leaves the contract without owner. It will not be possible to call `onlyOwner` functions. Can only be called by the current owner. NOTE: Renouncing ownership will leave the contract without an owner, thereby disabling any functionality that is only available to the owner."
					},
					"transferOwnership(address)": {
						"details": "Transfers ownership of the contract to a new account (`newOwner`). Can only be called by the current owner."
					}
				},
				"version": 1
			},
			"evm": {
				"assembly": "    /* \"contracts/Shope.sol\":127:7175  contract Store is Ownable {... */\n  mstore(0x40, 0x80)\n    /* \"contracts/Shope.sol\":1041:1077  constructor() Ownable(msg.sender) {} */\n  callvalue\n  dup1\n  iszero\n  tag_1\n  jumpi\n  revert(0x00, 0x00)\ntag_1:\n  pop\n    /* \"contracts/Shope.sol\":1063:1073  msg.sender */\n  caller\n    /* \"@openzeppelin/contracts/access/Ownable.sol\":1297:1298  0 */\n  0x00\n    /* \"@openzeppelin/contracts/access/Ownable.sol\":1273:1299  initialOwner == address(0) */\n  0xffffffffffffffffffffffffffffffffffffffff\n  and\n    /* \"@openzeppelin/contracts/access/Ownable.sol\":1273:1285  initialOwner */\n  dup2\n    /* \"@openzeppelin/contracts/access/Ownable.sol\":1273:1299  initialOwner == address(0) */\n  0xffffffffffffffffffffffffffffffffffffffff\n  and\n  sub\n    /* \"@openzeppelin/contracts/access/Ownable.sol\":1269:1364  if (initialOwner == address(0)) {... */\n  tag_5\n  jumpi\n    /* \"@openzeppelin/contracts/access/Ownable.sol\":1350:1351  0 */\n  0x00\n    /* \"@openzeppelin/contracts/access/Ownable.sol\":1322:1353  OwnableInvalidOwner(address(0)) */\n  mload(0x40)\n  0x1e4fbdf700000000000000000000000000000000000000000000000000000000\n  dup2\n  mstore\n  0x04\n  add\n  tag_6\n  swap2\n  swap1\n  tag_7\n  jump\t// in\ntag_6:\n  mload(0x40)\n  dup1\n  swap2\n  sub\n  swap1\n  revert\n    /* \"@openzeppelin/contracts/access/Ownable.sol\":1269:1364  if (initialOwner == address(0)) {... */\ntag_5:\n    /* \"@openzeppelin/contracts/access/Ownable.sol\":1373:1405  _transferOwnership(initialOwner) */\n  tag_8\n    /* \"@openzeppelin/contracts/access/Ownable.sol\":1392:1404  initialOwner */\n  dup2\n    /* \"@openzeppelin/contracts/access/Ownable.sol\":1373:1391  _transferOwnership */\n  shl(0x20, tag_9)\n    /* \"@openzeppelin/contracts/access/Ownable.sol\":1373:1405  _transferOwnership(initialOwner) */\n  0x20\n  shr\n  jump\t// in\ntag_8:\n    /* \"@openzeppelin/contracts/access/Ownable.sol\":1225:1412  constructor(address initialOwner) {... */\n  pop\n    /* \"contracts/Shope.sol\":127:7175  contract Store is Ownable {... */\n  jump(tag_11)\n    /* \"@openzeppelin/contracts/access/Ownable.sol\":2912:3099  function _transferOwnership(address newOwner) internal virtual {... */\ntag_9:\n    /* \"@openzeppelin/contracts/access/Ownable.sol\":2985:3001  address oldOwner */\n  0x00\n    /* \"@openzeppelin/contracts/access/Ownable.sol\":3004:3010  _owner */\n  0x00\n  0x00\n  swap1\n  sload\n  swap1\n  0x0100\n  exp\n  swap1\n  div\n  0xffffffffffffffffffffffffffffffffffffffff\n  and\n    /* \"@openzeppelin/contracts/access/Ownable.sol\":2985:3010  address oldOwner = _owner */\n  swap1\n  pop\n    /* \"@openzeppelin/contracts/access/Ownable.sol\":3029:3037  newOwner */\n  dup2\n    /* \"@openzeppelin/contracts/access/Ownable.sol\":3020:3026  _owner */\n  0x00\n  0x00\n    /* \"@openzeppelin/contracts/access/Ownable.sol\":3020:3037  _owner = newOwner */\n  0x0100\n  exp\n  dup2\n  sload\n  dup2\n  0xffffffffffffffffffffffffffffffffffffffff\n  mul\n  not\n  and\n  swap1\n  dup4\n  0xffffffffffffffffffffffffffffffffffffffff\n  and\n  mul\n  or\n  swap1\n  sstore\n  pop\n    /* \"@openzeppelin/contracts/access/Ownable.sol\":3083:3091  newOwner */\n  dup2\n    /* \"@openzeppelin/contracts/access/Ownable.sol\":3052:3092  OwnershipTransferred(oldOwner, newOwner) */\n  0xffffffffffffffffffffffffffffffffffffffff\n  and\n    /* \"@openzeppelin/contracts/access/Ownable.sol\":3073:3081  oldOwner */\n  dup2\n    /* \"@openzeppelin/contracts/access/Ownable.sol\":3052:3092  OwnershipTransferred(oldOwner, newOwner) */\n  0xffffffffffffffffffffffffffffffffffffffff\n  and\n  0x8be0079c531659141344cd1fd0a4f28419497f9722a3daafe3b4186f6b6457e0\n  mload(0x40)\n  mload(0x40)\n  dup1\n  swap2\n  sub\n  swap1\n  log3\n    /* \"@openzeppelin/contracts/access/Ownable.sol\":2975:3099  {... */\n  pop\n    /* \"@openzeppelin/contracts/access/Ownable.sol\":2912:3099  function _transferOwnership(address newOwner) internal virtual {... */\n  pop\n  jump\t// out\n    /* \"#utility.yul\":7:133   */\ntag_13:\n    /* \"#utility.yul\":44:51   */\n  0x00\n    /* \"#utility.yul\":84:126   */\n  0xffffffffffffffffffffffffffffffffffffffff\n    /* \"#utility.yul\":77:82   */\n  dup3\n    /* \"#utility.yul\":73:127   */\n  and\n    /* \"#utility.yul\":62:127   */\n  swap1\n  pop\n    /* \"#utility.yul\":7:133   */\n  swap2\n  swap1\n  pop\n  jump\t// out\n    /* \"#utility.yul\":139:235   */\ntag_14:\n    /* \"#utility.yul\":176:183   */\n  0x00\n    /* \"#utility.yul\":205:229   */\n  tag_19\n    /* \"#utility.yul\":223:228   */\n  dup3\n    /* \"#utility.yul\":205:229   */\n  tag_13\n  jump\t// in\ntag_19:\n    /* \"#utility.yul\":194:229   */\n  swap1\n  pop\n    /* \"#utility.yul\":139:235   */\n  swap2\n  swap1\n  pop\n  jump\t// out\n    /* \"#utility.yul\":241:359   */\ntag_15:\n    /* \"#utility.yul\":328:352   */\n  tag_21\n    /* \"#utility.yul\":346:351   */\n  dup2\n    /* \"#utility.yul\":328:352   */\n  tag_14\n  jump\t// in\ntag_21:\n    /* \"#utility.yul\":323:326   */\n  dup3\n    /* \"#utility.yul\":316:353   */\n  mstore\n    /* \"#utility.yul\":241:359   */\n  pop\n  pop\n  jump\t// out\n    /* \"#utility.yul\":365:587   */\ntag_7:\n    /* \"#utility.yul\":458:462   */\n  0x00\n    /* \"#utility.yul\":496:498   */\n  0x20\n    /* \"#utility.yul\":485:494   */\n  dup3\n    /* \"#utility.yul\":481:499   */\n  add\n    /* \"#utility.yul\":473:499   */\n  swap1\n  pop\n    /* \"#utility.yul\":509:580   */\n  tag_23\n    /* \"#utility.yul\":577:578   */\n  0x00\n    /* \"#utility.yul\":566:575   */\n  dup4\n    /* \"#utility.yul\":562:579   */\n  add\n    /* \"#utility.yul\":553:559   */\n  dup5\n    /* \"#utility.yul\":509:580   */\n  tag_15\n  jump\t// in\ntag_23:\n    /* \"#utility.yul\":365:587   */\n  swap3\n  swap2\n  pop\n  pop\n  jump\t// out\n    /* \"contracts/Shope.sol\":127:7175  contract Store is Ownable {... */\ntag_11:\n  dataSize(sub_0)\n  dup1\n  dataOffset(sub_0)\n  0x00\n  codecopy\n  0x00\n  return\nstop\n\nsub_0: assembly {\n        /* \"contracts/Shope.sol\":127:7175  contract Store is Ownable {... */\n      mstore(0x40, 0x80)\n      jumpi(tag_1, lt(calldatasize, 0x04))\n      shr(0xe0, calldataload(0x00))\n      dup1\n      0x8da5cb5b\n      gt\n      tag_23\n      jumpi\n      dup1\n      0xce4df381\n      gt\n      tag_24\n      jumpi\n      dup1\n      0xce4df381\n      eq\n      tag_17\n      jumpi\n      dup1\n      0xd6febde8\n      eq\n      tag_18\n      jumpi\n      dup1\n      0xe7572230\n      eq\n      tag_19\n      jumpi\n      dup1\n      0xed90c7b7\n      eq\n      tag_20\n      jumpi\n      dup1\n      0xf2fde38b\n      eq\n      tag_21\n      jumpi\n      dup1\n      0xfa89401a\n      eq\n      tag_22\n      jumpi\n      jump(tag_1)\n    tag_24:\n      dup1\n      0x8da5cb5b\n      eq\n      tag_12\n      jumpi\n      dup1\n      0x957fae96\n      eq\n      tag_13\n      jumpi\n      dup1\n      0x9dfc3dd1\n      eq\n      tag_14\n      jumpi\n      dup1\n      0xbda235da\n      eq\n      tag_15\n      jumpi\n      dup1\n      0xc29b2f20\n      eq\n      tag_16\n      jumpi\n      jump(tag_1)\n    tag_23:\n      dup1\n      0x6038d0cf\n      gt\n      tag_25\n      jumpi\n      dup1\n      0x6038d0cf\n      eq\n      tag_7\n      jumpi\n      dup1\n      0x715018a6\n      eq\n      tag_8\n      jumpi\n      dup1\n      0x723cdb1d\n      eq\n      tag_9\n      jumpi\n      dup1\n      0x82367b2d\n      eq\n      tag_10\n      jumpi\n      dup1\n      0x8392fe31\n      eq\n      tag_11\n      jumpi\n      jump(tag_1)\n    tag_25:\n      dup1\n      0x094455c4\n      eq\n      tag_2\n      jumpi\n      dup1\n      0x1328ed34\n      eq\n      tag_3\n      jumpi\n      dup1\n      0x3ab7d09a\n      eq\n      tag_4\n      jumpi\n      dup1\n      0x3ccfd60b\n      eq\n      tag_5\n      jumpi\n      dup1\n      0x58025212\n      eq\n      tag_6\n      jumpi\n    tag_1:\n      revert(0x00, 0x00)\n        /* \"contracts/Shope.sol\":3006:3270  function addProduct(... */\n    tag_2:\n      callvalue\n      dup1\n      iszero\n      tag_26\n      jumpi\n      revert(0x00, 0x00)\n    tag_26:\n      pop\n      tag_27\n      0x04\n      dup1\n      calldatasize\n      sub\n      dup2\n      add\n      swap1\n      tag_28\n      swap2\n      swap1\n      tag_29\n      jump\t// in\n    tag_28:\n      tag_30\n      jump\t// in\n    tag_27:\n      stop\n        /* \"contracts/Shope.sol\":6124:6501  function getLastPurchase(address _buyer)... */\n    tag_3:\n      callvalue\n      dup1\n      iszero\n      tag_31\n      jumpi\n      revert(0x00, 0x00)\n    tag_31:\n      pop\n      tag_32\n      0x04\n      dup1\n      calldatasize\n      sub\n      dup2\n      add\n      swap1\n      tag_33\n      swap2\n      swap1\n      tag_34\n      jump\t// in\n    tag_33:\n      tag_35\n      jump\t// in\n    tag_32:\n      mload(0x40)\n      tag_36\n      swap2\n      swap1\n      tag_37\n      jump\t// in\n    tag_36:\n      mload(0x40)\n      dup1\n      swap2\n      sub\n      swap1\n      return\n        /* \"contracts/Shope.sol\":4116:4266  function getStock(uint256 _id) public view returns (uint256) {... */\n    tag_4:\n      callvalue\n      dup1\n      iszero\n      tag_38\n      jumpi\n      revert(0x00, 0x00)\n    tag_38:\n      pop\n      tag_39\n      0x04\n      dup1\n      calldatasize\n      sub\n      dup2\n      add\n      swap1\n      tag_40\n      swap2\n      swap1\n      tag_41\n      jump\t// in\n    tag_40:\n      tag_42\n      jump\t// in\n    tag_39:\n      mload(0x40)\n      tag_43\n      swap2\n      swap1\n      tag_44\n      jump\t// in\n    tag_43:\n      mload(0x40)\n      dup1\n      swap2\n      sub\n      swap1\n      return\n        /* \"contracts/Shope.sol\":2809:3000  function withdraw() external onlyOwner {... */\n    tag_5:\n      callvalue\n      dup1\n      iszero\n      tag_45\n      jumpi\n      revert(0x00, 0x00)\n    tag_45:\n      pop\n      tag_46\n      tag_47\n      jump\t// in\n    tag_46:\n      stop\n        /* \"contracts/Shope.sol\":671:720  PurchaseHistory[] public purchasesForCurrentBuyer */\n    tag_6:\n      callvalue\n      dup1\n      iszero\n      tag_48\n      jumpi\n      revert(0x00, 0x00)\n    tag_48:\n      pop\n      tag_49\n      0x04\n      dup1\n      calldatasize\n      sub\n      dup2\n      add\n      swap1\n      tag_50\n      swap2\n      swap1\n      tag_41\n      jump\t// in\n    tag_50:\n      tag_51\n      jump\t// in\n    tag_49:\n      mload(0x40)\n      tag_52\n      swap4\n      swap3\n      swap2\n      swap1\n      tag_53\n      jump\t// in\n    tag_52:\n      mload(0x40)\n      dup1\n      swap2\n      sub\n      swap1\n      return\n        /* \"contracts/Shope.sol\":207:264  mapping(address => PurchaseHistory[]) public userPurchase */\n    tag_7:\n      callvalue\n      dup1\n      iszero\n      tag_54\n      jumpi\n      revert(0x00, 0x00)\n    tag_54:\n      pop\n      tag_55\n      0x04\n      dup1\n      calldatasize\n      sub\n      dup2\n      add\n      swap1\n      tag_56\n      swap2\n      swap1\n      tag_57\n      jump\t// in\n    tag_56:\n      tag_58\n      jump\t// in\n    tag_55:\n      mload(0x40)\n      tag_59\n      swap4\n      swap3\n      swap2\n      swap1\n      tag_53\n      jump\t// in\n    tag_59:\n      mload(0x40)\n      dup1\n      swap2\n      sub\n      swap1\n      return\n        /* \"@openzeppelin/contracts/access/Ownable.sol\":2293:2394  function renounceOwnership() public virtual onlyOwner {... */\n    tag_8:\n      callvalue\n      dup1\n      iszero\n      tag_60\n      jumpi\n      revert(0x00, 0x00)\n    tag_60:\n      pop\n      tag_61\n      tag_62\n      jump\t// in\n    tag_61:\n      stop\n        /* \"contracts/Shope.sol\":1568:2441  function batchBuy(uint256[] calldata _ids, uint256[] calldata _quantitys)... */\n    tag_9:\n      tag_63\n      0x04\n      dup1\n      calldatasize\n      sub\n      dup2\n      add\n      swap1\n      tag_64\n      swap2\n      swap1\n      tag_65\n      jump\t// in\n    tag_64:\n      tag_66\n      jump\t// in\n    tag_63:\n      stop\n        /* \"contracts/Shope.sol\":3528:3688  function updatePrice(uint256 _id, uint256 _price) external onlyOwner {... */\n    tag_10:\n      callvalue\n      dup1\n      iszero\n      tag_67\n      jumpi\n      revert(0x00, 0x00)\n    tag_67:\n      pop\n      tag_68\n      0x04\n      dup1\n      calldatasize\n      sub\n      dup2\n      add\n      swap1\n      tag_69\n      swap2\n      swap1\n      tag_70\n      jump\t// in\n    tag_69:\n      tag_71\n      jump\t// in\n    tag_68:\n      stop\n        /* \"contracts/Shope.sol\":759:793  PurchaseHistory[] public purchases */\n    tag_11:\n      callvalue\n      dup1\n      iszero\n      tag_72\n      jumpi\n      revert(0x00, 0x00)\n    tag_72:\n      pop\n      tag_73\n      0x04\n      dup1\n      calldatasize\n      sub\n      dup2\n      add\n      swap1\n      tag_74\n      swap2\n      swap1\n      tag_41\n      jump\t// in\n    tag_74:\n      tag_75\n      jump\t// in\n    tag_73:\n      mload(0x40)\n      tag_76\n      swap4\n      swap3\n      swap2\n      swap1\n      tag_53\n      jump\t// in\n    tag_76:\n      mload(0x40)\n      dup1\n      swap2\n      sub\n      swap1\n      return\n        /* \"@openzeppelin/contracts/access/Ownable.sol\":1638:1723  function owner() public view virtual returns (address) {... */\n    tag_12:\n      callvalue\n      dup1\n      iszero\n      tag_77\n      jumpi\n      revert(0x00, 0x00)\n    tag_77:\n      pop\n      tag_78\n      tag_79\n      jump\t// in\n    tag_78:\n      mload(0x40)\n      tag_80\n      swap2\n      swap1\n      tag_81\n      jump\t// in\n    tag_80:\n      mload(0x40)\n      dup1\n      swap2\n      sub\n      swap1\n      return\n        /* \"contracts/Shope.sol\":6561:6806  function getTotalRevenue() public view returns (uint256) {... */\n    tag_13:\n      callvalue\n      dup1\n      iszero\n      tag_82\n      jumpi\n      revert(0x00, 0x00)\n    tag_82:\n      pop\n      tag_83\n      tag_84\n      jump\t// in\n    tag_83:\n      mload(0x40)\n      tag_85\n      swap2\n      swap1\n      tag_44\n      jump\t// in\n    tag_85:\n      mload(0x40)\n      dup1\n      swap2\n      sub\n      swap1\n      return\n        /* \"contracts/Shope.sol\":3694:3854  function updateStock(uint256 _id, uint256 _stock) external onlyOwner {... */\n    tag_14:\n      callvalue\n      dup1\n      iszero\n      tag_86\n      jumpi\n      revert(0x00, 0x00)\n    tag_86:\n      pop\n      tag_87\n      0x04\n      dup1\n      calldatasize\n      sub\n      dup2\n      add\n      swap1\n      tag_88\n      swap2\n      swap1\n      tag_70\n      jump\t// in\n    tag_88:\n      tag_89\n      jump\t// in\n    tag_87:\n      stop\n        /* \"contracts/Shope.sol\":6871:7173  function getUserPurchase(address _buyer) public {... */\n    tag_15:\n      callvalue\n      dup1\n      iszero\n      tag_90\n      jumpi\n      revert(0x00, 0x00)\n    tag_90:\n      pop\n      tag_91\n      0x04\n      dup1\n      calldatasize\n      sub\n      dup2\n      add\n      swap1\n      tag_92\n      swap2\n      swap1\n      tag_34\n      jump\t// in\n    tag_92:\n      tag_93\n      jump\t// in\n    tag_91:\n      stop\n        /* \"contracts/Shope.sol\":3860:3954  function getProducts() public view returns (Product[] memory) {... */\n    tag_16:\n      callvalue\n      dup1\n      iszero\n      tag_94\n      jumpi\n      revert(0x00, 0x00)\n    tag_94:\n      pop\n      tag_95\n      tag_96\n      jump\t// in\n    tag_95:\n      mload(0x40)\n      tag_97\n      swap2\n      swap1\n      tag_98\n      jump\t// in\n    tag_97:\n      mload(0x40)\n      dup1\n      swap2\n      sub\n      swap1\n      return\n        /* \"contracts/Shope.sol\":309:360  mapping(uint256 => uint256) public productsPurchase */\n    tag_17:\n      callvalue\n      dup1\n      iszero\n      tag_99\n      jumpi\n      revert(0x00, 0x00)\n    tag_99:\n      pop\n      tag_100\n      0x04\n      dup1\n      calldatasize\n      sub\n      dup2\n      add\n      swap1\n      tag_101\n      swap2\n      swap1\n      tag_41\n      jump\t// in\n    tag_101:\n      tag_102\n      jump\t// in\n    tag_100:\n      mload(0x40)\n      tag_103\n      swap2\n      swap1\n      tag_44\n      jump\t// in\n    tag_103:\n      mload(0x40)\n      dup1\n      swap2\n      sub\n      swap1\n      return\n        /* \"contracts/Shope.sol\":1083:1562  function buy(uint256 _id, uint256 _quantity) external payable {... */\n    tag_18:\n      tag_104\n      0x04\n      dup1\n      calldatasize\n      sub\n      dup2\n      add\n      swap1\n      tag_105\n      swap2\n      swap1\n      tag_70\n      jump\t// in\n    tag_105:\n      tag_106\n      jump\t// in\n    tag_104:\n      stop\n        /* \"contracts/Shope.sol\":3960:4110  function getPrice(uint256 _id) public view returns (uint256) {... */\n    tag_19:\n      callvalue\n      dup1\n      iszero\n      tag_107\n      jumpi\n      revert(0x00, 0x00)\n    tag_107:\n      pop\n      tag_108\n      0x04\n      dup1\n      calldatasize\n      sub\n      dup2\n      add\n      swap1\n      tag_109\n      swap2\n      swap1\n      tag_41\n      jump\t// in\n    tag_109:\n      tag_110\n      jump\t// in\n    tag_108:\n      mload(0x40)\n      tag_111\n      swap2\n      swap1\n      tag_44\n      jump\t// in\n    tag_111:\n      mload(0x40)\n      dup1\n      swap2\n      sub\n      swap1\n      return\n        /* \"contracts/Shope.sol\":3276:3522  function deleteProduct(uint256 _id) external onlyOwner {... */\n    tag_20:\n      callvalue\n      dup1\n      iszero\n      tag_112\n      jumpi\n      revert(0x00, 0x00)\n    tag_112:\n      pop\n      tag_113\n      0x04\n      dup1\n      calldatasize\n      sub\n      dup2\n      add\n      swap1\n      tag_114\n      swap2\n      swap1\n      tag_41\n      jump\t// in\n    tag_114:\n      tag_115\n      jump\t// in\n    tag_113:\n      stop\n        /* \"@openzeppelin/contracts/access/Ownable.sol\":2543:2758  function transferOwnership(address newOwner) public virtual onlyOwner {... */\n    tag_21:\n      callvalue\n      dup1\n      iszero\n      tag_116\n      jumpi\n      revert(0x00, 0x00)\n    tag_116:\n      pop\n      tag_117\n      0x04\n      dup1\n      calldatasize\n      sub\n      dup2\n      add\n      swap1\n      tag_118\n      swap2\n      swap1\n      tag_34\n      jump\t// in\n    tag_118:\n      tag_119\n      jump\t// in\n    tag_117:\n      stop\n        /* \"contracts/Shope.sol\":5662:5977  function refund(address _buyer) public payable {... */\n    tag_22:\n      tag_120\n      0x04\n      dup1\n      calldatasize\n      sub\n      dup2\n      add\n      swap1\n      tag_121\n      swap2\n      swap1\n      tag_34\n      jump\t// in\n    tag_121:\n      tag_122\n      jump\t// in\n    tag_120:\n      stop\n        /* \"contracts/Shope.sol\":3006:3270  function addProduct(... */\n    tag_30:\n        /* \"@openzeppelin/contracts/access/Ownable.sol\":1531:1544  _checkOwner() */\n      tag_124\n        /* \"@openzeppelin/contracts/access/Ownable.sol\":1531:1542  _checkOwner */\n      tag_125\n        /* \"@openzeppelin/contracts/access/Ownable.sol\":1531:1544  _checkOwner() */\n      jump\t// in\n    tag_124:\n        /* \"contracts/Shope.sol\":3170:3184  isIdExist(_id) */\n      tag_127\n        /* \"contracts/Shope.sol\":3180:3183  _id */\n      dup4\n        /* \"contracts/Shope.sol\":3170:3179  isIdExist */\n      tag_128\n        /* \"contracts/Shope.sol\":3170:3184  isIdExist(_id) */\n      jump\t// in\n    tag_127:\n        /* \"contracts/Shope.sol\":3169:3184  !isIdExist(_id) */\n      iszero\n        /* \"contracts/Shope.sol\":3161:3203  require(!isIdExist(_id), IdAlreadyExist()) */\n      tag_129\n      jumpi\n      mload(0x40)\n      0xf270498400000000000000000000000000000000000000000000000000000000\n      dup2\n      mstore\n      0x04\n      add\n      mload(0x40)\n      dup1\n      swap2\n      sub\n      swap1\n      revert\n    tag_129:\n        /* \"contracts/Shope.sol\":3213:3221  products */\n      0x04\n        /* \"contracts/Shope.sol\":3227:3262  Product(_name, _id, _stock, _price) */\n      mload(0x40)\n      dup1\n      0x80\n      add\n      0x40\n      mstore\n      dup1\n        /* \"contracts/Shope.sol\":3235:3240  _name */\n      dup8\n      dup8\n        /* \"contracts/Shope.sol\":3227:3262  Product(_name, _id, _stock, _price) */\n      dup1\n      dup1\n      0x1f\n      add\n      0x20\n      dup1\n      swap2\n      div\n      mul\n      0x20\n      add\n      mload(0x40)\n      swap1\n      dup2\n      add\n      0x40\n      mstore\n      dup1\n      swap4\n      swap3\n      swap2\n      swap1\n      dup2\n      dup2\n      mstore\n      0x20\n      add\n      dup4\n      dup4\n      dup1\n      dup3\n      dup5\n      calldatacopy\n      0x00\n      dup2\n      dup5\n      add\n      mstore\n      not(0x1f)\n      0x1f\n      dup3\n      add\n      and\n      swap1\n      pop\n      dup1\n      dup4\n      add\n      swap3\n      pop\n      pop\n      pop\n      pop\n      pop\n      pop\n      pop\n      dup2\n      mstore\n      0x20\n      add\n        /* \"contracts/Shope.sol\":3242:3245  _id */\n      dup6\n        /* \"contracts/Shope.sol\":3227:3262  Product(_name, _id, _stock, _price) */\n      dup2\n      mstore\n      0x20\n      add\n        /* \"contracts/Shope.sol\":3247:3253  _stock */\n      dup5\n        /* \"contracts/Shope.sol\":3227:3262  Product(_name, _id, _stock, _price) */\n      dup2\n      mstore\n      0x20\n      add\n        /* \"contracts/Shope.sol\":3255:3261  _price */\n      dup4\n        /* \"contracts/Shope.sol\":3227:3262  Product(_name, _id, _stock, _price) */\n      dup2\n      mstore\n      pop\n        /* \"contracts/Shope.sol\":3213:3263  products.push(Product(_name, _id, _stock, _price)) */\n      swap1\n      dup1\n      0x01\n      dup2\n      sload\n      add\n      dup1\n      dup3\n      sstore\n      dup1\n      swap2\n      pop\n      pop\n      0x01\n      swap1\n      sub\n      swap1\n      0x00\n      mstore\n      keccak256(0x00, 0x20)\n      swap1\n      0x04\n      mul\n      add\n      0x00\n      swap1\n      swap2\n      swap1\n      swap2\n      swap1\n      swap2\n      pop\n      0x00\n      dup3\n      add\n      mload\n      dup2\n      0x00\n      add\n      swap1\n      dup2\n      tag_131\n      swap2\n      swap1\n      tag_132\n      jump\t// in\n    tag_131:\n      pop\n      0x20\n      dup3\n      add\n      mload\n      dup2\n      0x01\n      add\n      sstore\n      0x40\n      dup3\n      add\n      mload\n      dup2\n      0x02\n      add\n      sstore\n      0x60\n      dup3\n      add\n      mload\n      dup2\n      0x03\n      add\n      sstore\n      pop\n      pop\n        /* \"contracts/Shope.sol\":3006:3270  function addProduct(... */\n      pop\n      pop\n      pop\n      pop\n      pop\n      jump\t// out\n        /* \"contracts/Shope.sol\":6124:6501  function getLastPurchase(address _buyer)... */\n    tag_35:\n        /* \"contracts/Shope.sol\":6197:6219  PurchaseHistory memory */\n      tag_133\n      tag_134\n      jump\t// in\n    tag_133:\n        /* \"contracts/Shope.sol\":6240:6249  uint256 i */\n      0x00\n        /* \"contracts/Shope.sol\":6252:6253  0 */\n      0x00\n        /* \"contracts/Shope.sol\":6240:6253  uint256 i = 0 */\n      swap1\n      pop\n        /* \"contracts/Shope.sol\":6235:6416  for (uint256 i = 0; i < purchases.length; i++) {... */\n    tag_136:\n        /* \"contracts/Shope.sol\":6259:6268  purchases */\n      0x05\n        /* \"contracts/Shope.sol\":6259:6275  purchases.length */\n      dup1\n      sload\n      swap1\n      pop\n        /* \"contracts/Shope.sol\":6255:6256  i */\n      dup2\n        /* \"contracts/Shope.sol\":6255:6275  i < purchases.length */\n      lt\n        /* \"contracts/Shope.sol\":6235:6416  for (uint256 i = 0; i < purchases.length; i++) {... */\n      iszero\n      tag_137\n      jumpi\n        /* \"contracts/Shope.sol\":6322:6328  _buyer */\n      dup3\n        /* \"contracts/Shope.sol\":6300:6328  purchases[i].buyer == _buyer */\n      0xffffffffffffffffffffffffffffffffffffffff\n      and\n        /* \"contracts/Shope.sol\":6300:6309  purchases */\n      0x05\n        /* \"contracts/Shope.sol\":6310:6311  i */\n      dup3\n        /* \"contracts/Shope.sol\":6300:6312  purchases[i] */\n      dup2\n      sload\n      dup2\n      lt\n      tag_139\n      jumpi\n      tag_140\n      tag_141\n      jump\t// in\n    tag_140:\n    tag_139:\n      swap1\n      0x00\n      mstore\n      keccak256(0x00, 0x20)\n      swap1\n      0x03\n      mul\n      add\n        /* \"contracts/Shope.sol\":6300:6318  purchases[i].buyer */\n      0x00\n      add\n      0x00\n      swap1\n      sload\n      swap1\n      0x0100\n      exp\n      swap1\n      div\n      0xffffffffffffffffffffffffffffffffffffffff\n      and\n        /* \"contracts/Shope.sol\":6300:6328  purchases[i].buyer == _buyer */\n      0xffffffffffffffffffffffffffffffffffffffff\n      and\n      sub\n        /* \"contracts/Shope.sol\":6296:6406  if (purchases[i].buyer == _buyer) {... */\n      tag_143\n      jumpi\n        /* \"contracts/Shope.sol\":6348:6372  purchasesForCurrentBuyer */\n      0x03\n        /* \"contracts/Shope.sol\":6378:6387  purchases */\n      0x05\n        /* \"contracts/Shope.sol\":6388:6389  i */\n      dup3\n        /* \"contracts/Shope.sol\":6378:6390  purchases[i] */\n      dup2\n      sload\n      dup2\n      lt\n      tag_144\n      jumpi\n      tag_145\n      tag_141\n      jump\t// in\n    tag_145:\n    tag_144:\n      swap1\n      0x00\n      mstore\n      keccak256(0x00, 0x20)\n      swap1\n      0x03\n      mul\n      add\n        /* \"contracts/Shope.sol\":6348:6391  purchasesForCurrentBuyer.push(purchases[i]) */\n      swap1\n      dup1\n      0x01\n      dup2\n      sload\n      add\n      dup1\n      dup3\n      sstore\n      dup1\n      swap2\n      pop\n      pop\n      0x01\n      swap1\n      sub\n      swap1\n      0x00\n      mstore\n      keccak256(0x00, 0x20)\n      swap1\n      0x03\n      mul\n      add\n      0x00\n      swap1\n      swap2\n      swap1\n      swap2\n      swap1\n      swap2\n      pop\n      0x00\n      dup3\n      add\n      0x00\n      swap1\n      sload\n      swap1\n      0x0100\n      exp\n      swap1\n      div\n      0xffffffffffffffffffffffffffffffffffffffff\n      and\n      dup2\n      0x00\n      add\n      exp(0x0100, 0x00)\n      dup2\n      sload\n      dup2\n      0xffffffffffffffffffffffffffffffffffffffff\n      mul\n      not\n      and\n      swap1\n      dup4\n      0xffffffffffffffffffffffffffffffffffffffff\n      and\n      mul\n      or\n      swap1\n      sstore\n      pop\n      0x01\n      dup3\n      add\n      sload\n      dup2\n      0x01\n      add\n      sstore\n      0x02\n      dup3\n      add\n      sload\n      dup2\n      0x02\n      add\n      sstore\n      pop\n      pop\n        /* \"contracts/Shope.sol\":6296:6406  if (purchases[i].buyer == _buyer) {... */\n    tag_143:\n        /* \"contracts/Shope.sol\":6277:6280  i++ */\n      dup1\n      dup1\n      0x01\n      add\n      swap2\n      pop\n      pop\n        /* \"contracts/Shope.sol\":6235:6416  for (uint256 i = 0; i < purchases.length; i++) {... */\n      jump(tag_136)\n    tag_137:\n      pop\n        /* \"contracts/Shope.sol\":6433:6457  purchasesForCurrentBuyer */\n      0x03\n        /* \"contracts/Shope.sol\":6492:6493  1 */\n      0x01\n        /* \"contracts/Shope.sol\":6458:6482  purchasesForCurrentBuyer */\n      0x03\n        /* \"contracts/Shope.sol\":6458:6489  purchasesForCurrentBuyer.length */\n      dup1\n      sload\n      swap1\n      pop\n        /* \"contracts/Shope.sol\":6458:6493  purchasesForCurrentBuyer.length - 1 */\n      tag_148\n      swap2\n      swap1\n      tag_149\n      jump\t// in\n    tag_148:\n        /* \"contracts/Shope.sol\":6433:6494  purchasesForCurrentBuyer[purchasesForCurrentBuyer.length - 1] */\n      dup2\n      sload\n      dup2\n      lt\n      tag_150\n      jumpi\n      tag_151\n      tag_141\n      jump\t// in\n    tag_151:\n    tag_150:\n      swap1\n      0x00\n      mstore\n      keccak256(0x00, 0x20)\n      swap1\n      0x03\n      mul\n      add\n        /* \"contracts/Shope.sol\":6426:6494  return purchasesForCurrentBuyer[purchasesForCurrentBuyer.length - 1] */\n      mload(0x40)\n      dup1\n      0x60\n      add\n      0x40\n      mstore\n      swap1\n      dup2\n      0x00\n      dup3\n      add\n      0x00\n      swap1\n      sload\n      swap1\n      0x0100\n      exp\n      swap1\n      div\n      0xffffffffffffffffffffffffffffffffffffffff\n      and\n      0xffffffffffffffffffffffffffffffffffffffff\n      and\n      0xffffffffffffffffffffffffffffffffffffffff\n      and\n      dup2\n      mstore\n      0x20\n      add\n      0x01\n      dup3\n      add\n      sload\n      dup2\n      mstore\n      0x20\n      add\n      0x02\n      dup3\n      add\n      sload\n      dup2\n      mstore\n      pop\n      pop\n      swap1\n      pop\n        /* \"contracts/Shope.sol\":6124:6501  function getLastPurchase(address _buyer)... */\n      swap2\n      swap1\n      pop\n      jump\t// out\n        /* \"contracts/Shope.sol\":4116:4266  function getStock(uint256 _id) public view returns (uint256) {... */\n    tag_42:\n        /* \"contracts/Shope.sol\":4168:4175  uint256 */\n      0x00\n        /* \"contracts/Shope.sol\":4187:4210  Product storage product */\n      0x00\n        /* \"contracts/Shope.sol\":4213:4229  findProduct(_id) */\n      tag_154\n        /* \"contracts/Shope.sol\":4225:4228  _id */\n      dup4\n        /* \"contracts/Shope.sol\":4213:4224  findProduct */\n      tag_155\n        /* \"contracts/Shope.sol\":4213:4229  findProduct(_id) */\n      jump\t// in\n    tag_154:\n        /* \"contracts/Shope.sol\":4187:4229  Product storage product = findProduct(_id) */\n      swap1\n      pop\n        /* \"contracts/Shope.sol\":4246:4253  product */\n      dup1\n        /* \"contracts/Shope.sol\":4246:4259  product.stock */\n      0x02\n      add\n      sload\n        /* \"contracts/Shope.sol\":4239:4259  return product.stock */\n      swap2\n      pop\n      pop\n        /* \"contracts/Shope.sol\":4116:4266  function getStock(uint256 _id) public view returns (uint256) {... */\n      swap2\n      swap1\n      pop\n      jump\t// out\n        /* \"contracts/Shope.sol\":2809:3000  function withdraw() external onlyOwner {... */\n    tag_47:\n        /* \"@openzeppelin/contracts/access/Ownable.sol\":1531:1544  _checkOwner() */\n      tag_157\n        /* \"@openzeppelin/contracts/access/Ownable.sol\":1531:1542  _checkOwner */\n      tag_125\n        /* \"@openzeppelin/contracts/access/Ownable.sol\":1531:1544  _checkOwner() */\n      jump\t// in\n    tag_157:\n        /* \"contracts/Shope.sol\":2858:2873  uint256 balance */\n      0x00\n        /* \"contracts/Shope.sol\":2876:2897  address(this).balance */\n      selfbalance\n        /* \"contracts/Shope.sol\":2858:2897  uint256 balance = address(this).balance */\n      swap1\n      pop\n        /* \"contracts/Shope.sol\":2925:2926  0 */\n      0x00\n        /* \"contracts/Shope.sol\":2915:2922  balance */\n      dup2\n        /* \"contracts/Shope.sol\":2915:2926  balance > 0 */\n      gt\n        /* \"contracts/Shope.sol\":2907:2948  require(balance > 0, \"Not enought money\") */\n      tag_159\n      jumpi\n      mload(0x40)\n      0x08c379a000000000000000000000000000000000000000000000000000000000\n      dup2\n      mstore\n      0x04\n      add\n      tag_160\n      swap1\n      tag_161\n      jump\t// in\n    tag_160:\n      mload(0x40)\n      dup1\n      swap2\n      sub\n      swap1\n      revert\n    tag_159:\n        /* \"contracts/Shope.sol\":2967:2974  owner() */\n      tag_162\n        /* \"contracts/Shope.sol\":2967:2972  owner */\n      tag_79\n        /* \"contracts/Shope.sol\":2967:2974  owner() */\n      jump\t// in\n    tag_162:\n        /* \"contracts/Shope.sol\":2959:2984  payable(owner()).transfer */\n      0xffffffffffffffffffffffffffffffffffffffff\n      and\n        /* \"contracts/Shope.sol\":2959:2993  payable(owner()).transfer(balance) */\n      0x08fc\n        /* \"contracts/Shope.sol\":2985:2992  balance */\n      dup3\n        /* \"contracts/Shope.sol\":2959:2993  payable(owner()).transfer(balance) */\n      swap1\n      dup2\n      iszero\n      mul\n      swap1\n      mload(0x40)\n      0x00\n      mload(0x40)\n      dup1\n      dup4\n      sub\n      dup2\n      dup6\n      dup9\n      dup9\n      call\n      swap4\n      pop\n      pop\n      pop\n      pop\n      iszero\n      dup1\n      iszero\n      tag_164\n      jumpi\n      returndatacopy(0x00, 0x00, returndatasize)\n      revert(0x00, returndatasize)\n    tag_164:\n      pop\n        /* \"contracts/Shope.sol\":2848:3000  {... */\n      pop\n        /* \"contracts/Shope.sol\":2809:3000  function withdraw() external onlyOwner {... */\n      jump\t// out\n        /* \"contracts/Shope.sol\":671:720  PurchaseHistory[] public purchasesForCurrentBuyer */\n    tag_51:\n      0x03\n      dup2\n      dup2\n      sload\n      dup2\n      lt\n      tag_165\n      jumpi\n      0x00\n      dup1\n      revert\n    tag_165:\n      swap1\n      0x00\n      mstore\n      keccak256(0x00, 0x20)\n      swap1\n      0x03\n      mul\n      add\n      0x00\n      swap2\n      pop\n      swap1\n      pop\n      dup1\n      0x00\n      add\n      0x00\n      swap1\n      sload\n      swap1\n      0x0100\n      exp\n      swap1\n      div\n      0xffffffffffffffffffffffffffffffffffffffff\n      and\n      swap1\n      dup1\n      0x01\n      add\n      sload\n      swap1\n      dup1\n      0x02\n      add\n      sload\n      swap1\n      pop\n      dup4\n      jump\t// out\n        /* \"contracts/Shope.sol\":207:264  mapping(address => PurchaseHistory[]) public userPurchase */\n    tag_58:\n      mstore(0x20, 0x01)\n      dup2\n      0x00\n      mstore\n      keccak256(0x00, 0x40)\n      dup2\n      dup2\n      sload\n      dup2\n      lt\n      tag_167\n      jumpi\n      0x00\n      dup1\n      revert\n    tag_167:\n      swap1\n      0x00\n      mstore\n      keccak256(0x00, 0x20)\n      swap1\n      0x03\n      mul\n      add\n      0x00\n      swap2\n      pop\n      swap2\n      pop\n      pop\n      dup1\n      0x00\n      add\n      0x00\n      swap1\n      sload\n      swap1\n      0x0100\n      exp\n      swap1\n      div\n      0xffffffffffffffffffffffffffffffffffffffff\n      and\n      swap1\n      dup1\n      0x01\n      add\n      sload\n      swap1\n      dup1\n      0x02\n      add\n      sload\n      swap1\n      pop\n      dup4\n      jump\t// out\n        /* \"@openzeppelin/contracts/access/Ownable.sol\":2293:2394  function renounceOwnership() public virtual onlyOwner {... */\n    tag_62:\n        /* \"@openzeppelin/contracts/access/Ownable.sol\":1531:1544  _checkOwner() */\n      tag_170\n        /* \"@openzeppelin/contracts/access/Ownable.sol\":1531:1542  _checkOwner */\n      tag_125\n        /* \"@openzeppelin/contracts/access/Ownable.sol\":1531:1544  _checkOwner() */\n      jump\t// in\n    tag_170:\n        /* \"@openzeppelin/contracts/access/Ownable.sol\":2357:2387  _transferOwnership(address(0)) */\n      tag_172\n        /* \"@openzeppelin/contracts/access/Ownable.sol\":2384:2385  0 */\n      0x00\n        /* \"@openzeppelin/contracts/access/Ownable.sol\":2357:2375  _transferOwnership */\n      tag_173\n        /* \"@openzeppelin/contracts/access/Ownable.sol\":2357:2387  _transferOwnership(address(0)) */\n      jump\t// in\n    tag_172:\n        /* \"@openzeppelin/contracts/access/Ownable.sol\":2293:2394  function renounceOwnership() public virtual onlyOwner {... */\n      jump\t// out\n        /* \"contracts/Shope.sol\":1568:2441  function batchBuy(uint256[] calldata _ids, uint256[] calldata _quantitys)... */\n    tag_66:\n        /* \"contracts/Shope.sol\":1712:1722  _quantitys */\n      dup2\n      dup2\n        /* \"contracts/Shope.sol\":1712:1729  _quantitys.length */\n      swap1\n      pop\n        /* \"contracts/Shope.sol\":1697:1701  _ids */\n      dup5\n      dup5\n        /* \"contracts/Shope.sol\":1697:1708  _ids.length */\n      swap1\n      pop\n        /* \"contracts/Shope.sol\":1697:1729  _ids.length == _quantitys.length */\n      eq\n        /* \"contracts/Shope.sol\":1689:1757  require(_ids.length == _quantitys.length, \"arrays lenghts mismatch\") */\n      tag_175\n      jumpi\n      mload(0x40)\n      0x08c379a000000000000000000000000000000000000000000000000000000000\n      dup2\n      mstore\n      0x04\n      add\n      tag_176\n      swap1\n      tag_177\n      jump\t// in\n    tag_176:\n      mload(0x40)\n      dup1\n      swap2\n      sub\n      swap1\n      revert\n    tag_175:\n        /* \"contracts/Shope.sol\":1768:1786  uint256 totalPrice */\n      0x00\n        /* \"contracts/Shope.sol\":1789:1790  0 */\n      0x00\n        /* \"contracts/Shope.sol\":1768:1790  uint256 totalPrice = 0 */\n      swap1\n      pop\n        /* \"contracts/Shope.sol\":1806:1815  uint256 i */\n      0x00\n        /* \"contracts/Shope.sol\":1818:1819  0 */\n      0x00\n        /* \"contracts/Shope.sol\":1806:1819  uint256 i = 0 */\n      swap1\n      pop\n        /* \"contracts/Shope.sol\":1801:2077  for (uint256 i = 0; i < _ids.length; i++) {... */\n    tag_178:\n        /* \"contracts/Shope.sol\":1825:1829  _ids */\n      dup6\n      dup6\n        /* \"contracts/Shope.sol\":1825:1836  _ids.length */\n      swap1\n      pop\n        /* \"contracts/Shope.sol\":1821:1822  i */\n      dup2\n        /* \"contracts/Shope.sol\":1821:1836  i < _ids.length */\n      lt\n        /* \"contracts/Shope.sol\":1801:2077  for (uint256 i = 0; i < _ids.length; i++) {... */\n      iszero\n      tag_179\n      jumpi\n        /* \"contracts/Shope.sol\":1857:1866  uint256 q */\n      0x00\n        /* \"contracts/Shope.sol\":1869:1879  _quantitys */\n      dup5\n      dup5\n        /* \"contracts/Shope.sol\":1880:1881  i */\n      dup4\n        /* \"contracts/Shope.sol\":1869:1882  _quantitys[i] */\n      dup2\n      dup2\n      lt\n      tag_181\n      jumpi\n      tag_182\n      tag_141\n      jump\t// in\n    tag_182:\n    tag_181:\n      swap1\n      pop\n      0x20\n      mul\n      add\n      calldataload\n        /* \"contracts/Shope.sol\":1857:1882  uint256 q = _quantitys[i] */\n      swap1\n      pop\n        /* \"contracts/Shope.sol\":1896:1906  uint256 id */\n      0x00\n        /* \"contracts/Shope.sol\":1909:1913  _ids */\n      dup8\n      dup8\n        /* \"contracts/Shope.sol\":1914:1915  i */\n      dup5\n        /* \"contracts/Shope.sol\":1909:1916  _ids[i] */\n      dup2\n      dup2\n      lt\n      tag_183\n      jumpi\n      tag_184\n      tag_141\n      jump\t// in\n    tag_184:\n    tag_183:\n      swap1\n      pop\n      0x20\n      mul\n      add\n      calldataload\n        /* \"contracts/Shope.sol\":1896:1916  uint256 id = _ids[i] */\n      swap1\n      pop\n        /* \"contracts/Shope.sol\":1943:1944  0 */\n      0x00\n        /* \"contracts/Shope.sol\":1939:1940  q */\n      dup3\n        /* \"contracts/Shope.sol\":1939:1944  q > 0 */\n      gt\n        /* \"contracts/Shope.sol\":1931:1967  require(q > 0, QuantityCantBeZero()) */\n      tag_185\n      jumpi\n      mload(0x40)\n      0x02e9794a00000000000000000000000000000000000000000000000000000000\n      dup2\n      mstore\n      0x04\n      add\n      mload(0x40)\n      dup1\n      swap2\n      sub\n      swap1\n      revert\n    tag_185:\n        /* \"contracts/Shope.sol\":2005:2006  q */\n      dup2\n        /* \"contracts/Shope.sol\":1989:2001  getStock(id) */\n      tag_186\n        /* \"contracts/Shope.sol\":1998:2000  id */\n      dup3\n        /* \"contracts/Shope.sol\":1989:1997  getStock */\n      tag_42\n        /* \"contracts/Shope.sol\":1989:2001  getStock(id) */\n      jump\t// in\n    tag_186:\n        /* \"contracts/Shope.sol\":1989:2006  getStock(id) >= q */\n      lt\n      iszero\n        /* \"contracts/Shope.sol\":1981:2021  require(getStock(id) >= q, OutOfStock()) */\n      tag_187\n      jumpi\n      mload(0x40)\n      0xade1cb4100000000000000000000000000000000000000000000000000000000\n      dup2\n      mstore\n      0x04\n      add\n      mload(0x40)\n      dup1\n      swap2\n      sub\n      swap1\n      revert\n    tag_187:\n        /* \"contracts/Shope.sol\":2065:2066  q */\n      dup2\n        /* \"contracts/Shope.sol\":2050:2062  getPrice(id) */\n      tag_188\n        /* \"contracts/Shope.sol\":2059:2061  id */\n      dup3\n        /* \"contracts/Shope.sol\":2050:2058  getPrice */\n      tag_110\n        /* \"contracts/Shope.sol\":2050:2062  getPrice(id) */\n      jump\t// in\n    tag_188:\n        /* \"contracts/Shope.sol\":2050:2066  getPrice(id) * q */\n      tag_189\n      swap2\n      swap1\n      tag_190\n      jump\t// in\n    tag_189:\n        /* \"contracts/Shope.sol\":2036:2066  totalPrice += getPrice(id) * q */\n      dup5\n      tag_191\n      swap2\n      swap1\n      tag_192\n      jump\t// in\n    tag_191:\n      swap4\n      pop\n        /* \"contracts/Shope.sol\":1843:2077  {... */\n      pop\n      pop\n        /* \"contracts/Shope.sol\":1838:1841  i++ */\n      dup1\n      dup1\n      0x01\n      add\n      swap2\n      pop\n      pop\n        /* \"contracts/Shope.sol\":1801:2077  for (uint256 i = 0; i < _ids.length; i++) {... */\n      jump(tag_178)\n    tag_179:\n      pop\n        /* \"contracts/Shope.sol\":2108:2118  totalPrice */\n      dup1\n        /* \"contracts/Shope.sol\":2095:2104  msg.value */\n      callvalue\n        /* \"contracts/Shope.sol\":2095:2118  msg.value >= totalPrice */\n      lt\n      iszero\n        /* \"contracts/Shope.sol\":2087:2138  require(msg.value >= totalPrice, NotEnoughtFunds()) */\n      tag_193\n      jumpi\n      mload(0x40)\n      0xc1463a4000000000000000000000000000000000000000000000000000000000\n      dup2\n      mstore\n      0x04\n      add\n      mload(0x40)\n      dup1\n      swap2\n      sub\n      swap1\n      revert\n    tag_193:\n        /* \"contracts/Shope.sol\":2154:2163  uint256 i */\n      0x00\n        /* \"contracts/Shope.sol\":2166:2167  0 */\n      0x00\n        /* \"contracts/Shope.sol\":2154:2167  uint256 i = 0 */\n      swap1\n      pop\n        /* \"contracts/Shope.sol\":2149:2320  for (uint256 i = 0; i < _ids.length; i++) {... */\n    tag_194:\n        /* \"contracts/Shope.sol\":2173:2177  _ids */\n      dup6\n      dup6\n        /* \"contracts/Shope.sol\":2173:2184  _ids.length */\n      swap1\n      pop\n        /* \"contracts/Shope.sol\":2169:2170  i */\n      dup2\n        /* \"contracts/Shope.sol\":2169:2184  i < _ids.length */\n      lt\n        /* \"contracts/Shope.sol\":2149:2320  for (uint256 i = 0; i < _ids.length; i++) {... */\n      iszero\n      tag_195\n      jumpi\n        /* \"contracts/Shope.sol\":2205:2214  uint256 q */\n      0x00\n        /* \"contracts/Shope.sol\":2217:2227  _quantitys */\n      dup5\n      dup5\n        /* \"contracts/Shope.sol\":2228:2229  i */\n      dup4\n        /* \"contracts/Shope.sol\":2217:2230  _quantitys[i] */\n      dup2\n      dup2\n      lt\n      tag_197\n      jumpi\n      tag_198\n      tag_141\n      jump\t// in\n    tag_198:\n    tag_197:\n      swap1\n      pop\n      0x20\n      mul\n      add\n      calldataload\n        /* \"contracts/Shope.sol\":2205:2230  uint256 q = _quantitys[i] */\n      swap1\n      pop\n        /* \"contracts/Shope.sol\":2244:2254  uint256 id */\n      0x00\n        /* \"contracts/Shope.sol\":2257:2261  _ids */\n      dup8\n      dup8\n        /* \"contracts/Shope.sol\":2262:2263  i */\n      dup5\n        /* \"contracts/Shope.sol\":2257:2264  _ids[i] */\n      dup2\n      dup2\n      lt\n      tag_199\n      jumpi\n      tag_200\n      tag_141\n      jump\t// in\n    tag_200:\n    tag_199:\n      swap1\n      pop\n      0x20\n      mul\n      add\n      calldataload\n        /* \"contracts/Shope.sol\":2244:2264  uint256 id = _ids[i] */\n      swap1\n      pop\n        /* \"contracts/Shope.sol\":2279:2309  _buyProcess(msg.sender, id, q) */\n      tag_201\n        /* \"contracts/Shope.sol\":2291:2301  msg.sender */\n      caller\n        /* \"contracts/Shope.sol\":2303:2305  id */\n      dup3\n        /* \"contracts/Shope.sol\":2307:2308  q */\n      dup5\n        /* \"contracts/Shope.sol\":2279:2290  _buyProcess */\n      tag_202\n        /* \"contracts/Shope.sol\":2279:2309  _buyProcess(msg.sender, id, q) */\n      jump\t// in\n    tag_201:\n        /* \"contracts/Shope.sol\":2191:2320  {... */\n      pop\n      pop\n        /* \"contracts/Shope.sol\":2186:2189  i++ */\n      dup1\n      dup1\n      0x01\n      add\n      swap2\n      pop\n      pop\n        /* \"contracts/Shope.sol\":2149:2320  for (uint256 i = 0; i < _ids.length; i++) {... */\n      jump(tag_194)\n    tag_195:\n      pop\n        /* \"contracts/Shope.sol\":2346:2356  totalPrice */\n      dup1\n        /* \"contracts/Shope.sol\":2334:2343  msg.value */\n      callvalue\n        /* \"contracts/Shope.sol\":2334:2356  msg.value > totalPrice */\n      gt\n        /* \"contracts/Shope.sol\":2330:2435  if (msg.value > totalPrice) {... */\n      iszero\n      tag_203\n      jumpi\n        /* \"contracts/Shope.sol\":2380:2390  msg.sender */\n      caller\n        /* \"contracts/Shope.sol\":2372:2400  payable(msg.sender).transfer */\n      0xffffffffffffffffffffffffffffffffffffffff\n      and\n        /* \"contracts/Shope.sol\":2372:2424  payable(msg.sender).transfer(msg.value - totalPrice) */\n      0x08fc\n        /* \"contracts/Shope.sol\":2413:2423  totalPrice */\n      dup3\n        /* \"contracts/Shope.sol\":2401:2410  msg.value */\n      callvalue\n        /* \"contracts/Shope.sol\":2401:2423  msg.value - totalPrice */\n      tag_204\n      swap2\n      swap1\n      tag_149\n      jump\t// in\n    tag_204:\n        /* \"contracts/Shope.sol\":2372:2424  payable(msg.sender).transfer(msg.value - totalPrice) */\n      swap1\n      dup2\n      iszero\n      mul\n      swap1\n      mload(0x40)\n      0x00\n      mload(0x40)\n      dup1\n      dup4\n      sub\n      dup2\n      dup6\n      dup9\n      dup9\n      call\n      swap4\n      pop\n      pop\n      pop\n      pop\n      iszero\n      dup1\n      iszero\n      tag_206\n      jumpi\n      returndatacopy(0x00, 0x00, returndatasize)\n      revert(0x00, returndatasize)\n    tag_206:\n      pop\n        /* \"contracts/Shope.sol\":2330:2435  if (msg.value > totalPrice) {... */\n    tag_203:\n        /* \"contracts/Shope.sol\":1679:2441  {... */\n      pop\n        /* \"contracts/Shope.sol\":1568:2441  function batchBuy(uint256[] calldata _ids, uint256[] calldata _quantitys)... */\n      pop\n      pop\n      pop\n      pop\n      jump\t// out\n        /* \"contracts/Shope.sol\":3528:3688  function updatePrice(uint256 _id, uint256 _price) external onlyOwner {... */\n    tag_71:\n        /* \"@openzeppelin/contracts/access/Ownable.sol\":1531:1544  _checkOwner() */\n      tag_208\n        /* \"@openzeppelin/contracts/access/Ownable.sol\":1531:1542  _checkOwner */\n      tag_125\n        /* \"@openzeppelin/contracts/access/Ownable.sol\":1531:1544  _checkOwner() */\n      jump\t// in\n    tag_208:\n        /* \"contracts/Shope.sol\":3607:3630  Product storage product */\n      0x00\n        /* \"contracts/Shope.sol\":3633:3649  findProduct(_id) */\n      tag_210\n        /* \"contracts/Shope.sol\":3645:3648  _id */\n      dup4\n        /* \"contracts/Shope.sol\":3633:3644  findProduct */\n      tag_155\n        /* \"contracts/Shope.sol\":3633:3649  findProduct(_id) */\n      jump\t// in\n    tag_210:\n        /* \"contracts/Shope.sol\":3607:3649  Product storage product = findProduct(_id) */\n      swap1\n      pop\n        /* \"contracts/Shope.sol\":3675:3681  _price */\n      dup2\n        /* \"contracts/Shope.sol\":3659:3666  product */\n      dup2\n        /* \"contracts/Shope.sol\":3659:3672  product.price */\n      0x03\n      add\n        /* \"contracts/Shope.sol\":3659:3681  product.price = _price */\n      dup2\n      swap1\n      sstore\n      pop\n        /* \"contracts/Shope.sol\":3597:3688  {... */\n      pop\n        /* \"contracts/Shope.sol\":3528:3688  function updatePrice(uint256 _id, uint256 _price) external onlyOwner {... */\n      pop\n      pop\n      jump\t// out\n        /* \"contracts/Shope.sol\":759:793  PurchaseHistory[] public purchases */\n    tag_75:\n      0x05\n      dup2\n      dup2\n      sload\n      dup2\n      lt\n      tag_211\n      jumpi\n      0x00\n      dup1\n      revert\n    tag_211:\n      swap1\n      0x00\n      mstore\n      keccak256(0x00, 0x20)\n      swap1\n      0x03\n      mul\n      add\n      0x00\n      swap2\n      pop\n      swap1\n      pop\n      dup1\n      0x00\n      add\n      0x00\n      swap1\n      sload\n      swap1\n      0x0100\n      exp\n      swap1\n      div\n      0xffffffffffffffffffffffffffffffffffffffff\n      and\n      swap1\n      dup1\n      0x01\n      add\n      sload\n      swap1\n      dup1\n      0x02\n      add\n      sload\n      swap1\n      pop\n      dup4\n      jump\t// out\n        /* \"@openzeppelin/contracts/access/Ownable.sol\":1638:1723  function owner() public view virtual returns (address) {... */\n    tag_79:\n        /* \"@openzeppelin/contracts/access/Ownable.sol\":1684:1691  address */\n      0x00\n        /* \"@openzeppelin/contracts/access/Ownable.sol\":1710:1716  _owner */\n      0x00\n      0x00\n      swap1\n      sload\n      swap1\n      0x0100\n      exp\n      swap1\n      div\n      0xffffffffffffffffffffffffffffffffffffffff\n      and\n        /* \"@openzeppelin/contracts/access/Ownable.sol\":1703:1716  return _owner */\n      swap1\n      pop\n        /* \"@openzeppelin/contracts/access/Ownable.sol\":1638:1723  function owner() public view virtual returns (address) {... */\n      swap1\n      jump\t// out\n        /* \"contracts/Shope.sol\":6561:6806  function getTotalRevenue() public view returns (uint256) {... */\n    tag_84:\n        /* \"contracts/Shope.sol\":6609:6616  uint256 */\n      0x00\n        /* \"contracts/Shope.sol\":6628:6648  uint256 totalRevenue */\n      0x00\n        /* \"contracts/Shope.sol\":6664:6673  uint256 i */\n      0x00\n        /* \"contracts/Shope.sol\":6676:6677  0 */\n      0x00\n        /* \"contracts/Shope.sol\":6664:6677  uint256 i = 0 */\n      swap1\n      pop\n        /* \"contracts/Shope.sol\":6659:6771  for (uint256 i = 0; i < purchases.length; i++) {... */\n    tag_215:\n        /* \"contracts/Shope.sol\":6683:6692  purchases */\n      0x05\n        /* \"contracts/Shope.sol\":6683:6699  purchases.length */\n      dup1\n      sload\n      swap1\n      pop\n        /* \"contracts/Shope.sol\":6679:6680  i */\n      dup2\n        /* \"contracts/Shope.sol\":6679:6699  i < purchases.length */\n      lt\n        /* \"contracts/Shope.sol\":6659:6771  for (uint256 i = 0; i < purchases.length; i++) {... */\n      iszero\n      tag_216\n      jumpi\n        /* \"contracts/Shope.sol\":6736:6745  purchases */\n      0x05\n        /* \"contracts/Shope.sol\":6746:6747  i */\n      dup2\n        /* \"contracts/Shope.sol\":6736:6748  purchases[i] */\n      dup2\n      sload\n      dup2\n      lt\n      tag_218\n      jumpi\n      tag_219\n      tag_141\n      jump\t// in\n    tag_219:\n    tag_218:\n      swap1\n      0x00\n      mstore\n      keccak256(0x00, 0x20)\n      swap1\n      0x03\n      mul\n      add\n        /* \"contracts/Shope.sol\":6736:6760  purchases[i].totalAmount */\n      0x02\n      add\n      sload\n        /* \"contracts/Shope.sol\":6720:6760  totalRevenue += purchases[i].totalAmount */\n      dup3\n      tag_221\n      swap2\n      swap1\n      tag_192\n      jump\t// in\n    tag_221:\n      swap2\n      pop\n        /* \"contracts/Shope.sol\":6701:6704  i++ */\n      dup1\n      dup1\n      0x01\n      add\n      swap2\n      pop\n      pop\n        /* \"contracts/Shope.sol\":6659:6771  for (uint256 i = 0; i < purchases.length; i++) {... */\n      jump(tag_215)\n    tag_216:\n      pop\n        /* \"contracts/Shope.sol\":6787:6799  totalRevenue */\n      dup1\n        /* \"contracts/Shope.sol\":6780:6799  return totalRevenue */\n      swap2\n      pop\n      pop\n        /* \"contracts/Shope.sol\":6561:6806  function getTotalRevenue() public view returns (uint256) {... */\n      swap1\n      jump\t// out\n        /* \"contracts/Shope.sol\":3694:3854  function updateStock(uint256 _id, uint256 _stock) external onlyOwner {... */\n    tag_89:\n        /* \"@openzeppelin/contracts/access/Ownable.sol\":1531:1544  _checkOwner() */\n      tag_223\n        /* \"@openzeppelin/contracts/access/Ownable.sol\":1531:1542  _checkOwner */\n      tag_125\n        /* \"@openzeppelin/contracts/access/Ownable.sol\":1531:1544  _checkOwner() */\n      jump\t// in\n    tag_223:\n        /* \"contracts/Shope.sol\":3773:3796  Product storage product */\n      0x00\n        /* \"contracts/Shope.sol\":3799:3815  findProduct(_id) */\n      tag_225\n        /* \"contracts/Shope.sol\":3811:3814  _id */\n      dup4\n        /* \"contracts/Shope.sol\":3799:3810  findProduct */\n      tag_155\n        /* \"contracts/Shope.sol\":3799:3815  findProduct(_id) */\n      jump\t// in\n    tag_225:\n        /* \"contracts/Shope.sol\":3773:3815  Product storage product = findProduct(_id) */\n      swap1\n      pop\n        /* \"contracts/Shope.sol\":3841:3847  _stock */\n      dup2\n        /* \"contracts/Shope.sol\":3825:3832  product */\n      dup2\n        /* \"contracts/Shope.sol\":3825:3838  product.stock */\n      0x02\n      add\n        /* \"contracts/Shope.sol\":3825:3847  product.stock = _stock */\n      dup2\n      swap1\n      sstore\n      pop\n        /* \"contracts/Shope.sol\":3763:3854  {... */\n      pop\n        /* \"contracts/Shope.sol\":3694:3854  function updateStock(uint256 _id, uint256 _stock) external onlyOwner {... */\n      pop\n      pop\n      jump\t// out\n        /* \"contracts/Shope.sol\":6871:7173  function getUserPurchase(address _buyer) public {... */\n    tag_93:\n        /* \"contracts/Shope.sol\":6934:6943  uint256 i */\n      0x00\n        /* \"contracts/Shope.sol\":6946:6947  0 */\n      0x00\n        /* \"contracts/Shope.sol\":6934:6947  uint256 i = 0 */\n      swap1\n      pop\n        /* \"contracts/Shope.sol\":6929:7110  for (uint256 i = 0; i < purchases.length; i++) {... */\n    tag_227:\n        /* \"contracts/Shope.sol\":6953:6962  purchases */\n      0x05\n        /* \"contracts/Shope.sol\":6953:6969  purchases.length */\n      dup1\n      sload\n      swap1\n      pop\n        /* \"contracts/Shope.sol\":6949:6950  i */\n      dup2\n        /* \"contracts/Shope.sol\":6949:6969  i < purchases.length */\n      lt\n        /* \"contracts/Shope.sol\":6929:7110  for (uint256 i = 0; i < purchases.length; i++) {... */\n      iszero\n      tag_228\n      jumpi\n        /* \"contracts/Shope.sol\":7016:7022  _buyer */\n      dup2\n        /* \"contracts/Shope.sol\":6994:7022  purchases[i].buyer == _buyer */\n      0xffffffffffffffffffffffffffffffffffffffff\n      and\n        /* \"contracts/Shope.sol\":6994:7003  purchases */\n      0x05\n        /* \"contracts/Shope.sol\":7004:7005  i */\n      dup3\n        /* \"contracts/Shope.sol\":6994:7006  purchases[i] */\n      dup2\n      sload\n      dup2\n      lt\n      tag_230\n      jumpi\n      tag_231\n      tag_141\n      jump\t// in\n    tag_231:\n    tag_230:\n      swap1\n      0x00\n      mstore\n      keccak256(0x00, 0x20)\n      swap1\n      0x03\n      mul\n      add\n        /* \"contracts/Shope.sol\":6994:7012  purchases[i].buyer */\n      0x00\n      add\n      0x00\n      swap1\n      sload\n      swap1\n      0x0100\n      exp\n      swap1\n      div\n      0xffffffffffffffffffffffffffffffffffffffff\n      and\n        /* \"contracts/Shope.sol\":6994:7022  purchases[i].buyer == _buyer */\n      0xffffffffffffffffffffffffffffffffffffffff\n      and\n      sub\n        /* \"contracts/Shope.sol\":6990:7100  if (purchases[i].buyer == _buyer) {... */\n      tag_233\n      jumpi\n        /* \"contracts/Shope.sol\":7042:7066  purchasesForCurrentBuyer */\n      0x03\n        /* \"contracts/Shope.sol\":7072:7081  purchases */\n      0x05\n        /* \"contracts/Shope.sol\":7082:7083  i */\n      dup3\n        /* \"contracts/Shope.sol\":7072:7084  purchases[i] */\n      dup2\n      sload\n      dup2\n      lt\n      tag_234\n      jumpi\n      tag_235\n      tag_141\n      jump\t// in\n    tag_235:\n    tag_234:\n      swap1\n      0x00\n      mstore\n      keccak256(0x00, 0x20)\n      swap1\n      0x03\n      mul\n      add\n        /* \"contracts/Shope.sol\":7042:7085  purchasesForCurrentBuyer.push(purchases[i]) */\n      swap1\n      dup1\n      0x01\n      dup2\n      sload\n      add\n      dup1\n      dup3\n      sstore\n      dup1\n      swap2\n      pop\n      pop\n      0x01\n      swap1\n      sub\n      swap1\n      0x00\n      mstore\n      keccak256(0x00, 0x20)\n      swap1\n      0x03\n      mul\n      add\n      0x00\n      swap1\n      swap2\n      swap1\n      swap2\n      swap1\n      swap2\n      pop\n      0x00\n      dup3\n      add\n      0x00\n      swap1\n      sload\n      swap1\n      0x0100\n      exp\n      swap1\n      div\n      0xffffffffffffffffffffffffffffffffffffffff\n      and\n      dup2\n      0x00\n      add\n      exp(0x0100, 0x00)\n      dup2\n      sload\n      dup2\n      0xffffffffffffffffffffffffffffffffffffffff\n      mul\n      not\n      and\n      swap1\n      dup4\n      0xffffffffffffffffffffffffffffffffffffffff\n      and\n      mul\n      or\n      swap1\n      sstore\n      pop\n      0x01\n      dup3\n      add\n      sload\n      dup2\n      0x01\n      add\n      sstore\n      0x02\n      dup3\n      add\n      sload\n      dup2\n      0x02\n      add\n      sstore\n      pop\n      pop\n        /* \"contracts/Shope.sol\":6990:7100  if (purchases[i].buyer == _buyer) {... */\n    tag_233:\n        /* \"contracts/Shope.sol\":6971:6974  i++ */\n      dup1\n      dup1\n      0x01\n      add\n      swap2\n      pop\n      pop\n        /* \"contracts/Shope.sol\":6929:7110  for (uint256 i = 0; i < purchases.length; i++) {... */\n      jump(tag_227)\n    tag_228:\n      pop\n        /* \"contracts/Shope.sol\":7142:7166  purchasesForCurrentBuyer */\n      0x03\n        /* \"contracts/Shope.sol\":7119:7131  userPurchase */\n      0x01\n        /* \"contracts/Shope.sol\":7119:7139  userPurchase[_buyer] */\n      0x00\n        /* \"contracts/Shope.sol\":7132:7138  _buyer */\n      dup4\n        /* \"contracts/Shope.sol\":7119:7139  userPurchase[_buyer] */\n      0xffffffffffffffffffffffffffffffffffffffff\n      and\n      0xffffffffffffffffffffffffffffffffffffffff\n      and\n      dup2\n      mstore\n      0x20\n      add\n      swap1\n      dup2\n      mstore\n      0x20\n      add\n      0x00\n      keccak256\n        /* \"contracts/Shope.sol\":7119:7166  userPurchase[_buyer] = purchasesForCurrentBuyer */\n      swap1\n      dup1\n      sload\n      tag_238\n      swap3\n      swap2\n      swap1\n      tag_239\n      jump\t// in\n    tag_238:\n      pop\n        /* \"contracts/Shope.sol\":6871:7173  function getUserPurchase(address _buyer) public {... */\n      pop\n      jump\t// out\n        /* \"contracts/Shope.sol\":3860:3954  function getProducts() public view returns (Product[] memory) {... */\n    tag_96:\n        /* \"contracts/Shope.sol\":3904:3920  Product[] memory */\n      0x60\n        /* \"contracts/Shope.sol\":3939:3947  products */\n      0x04\n        /* \"contracts/Shope.sol\":3932:3947  return products */\n      dup1\n      sload\n      dup1\n      0x20\n      mul\n      0x20\n      add\n      mload(0x40)\n      swap1\n      dup2\n      add\n      0x40\n      mstore\n      dup1\n      swap3\n      swap2\n      swap1\n      dup2\n      dup2\n      mstore\n      0x20\n      add\n      0x00\n      swap1\n    tag_241:\n      dup3\n      dup3\n      lt\n      iszero\n      tag_242\n      jumpi\n      dup4\n      dup3\n      swap1\n      0x00\n      mstore\n      keccak256(0x00, 0x20)\n      swap1\n      0x04\n      mul\n      add\n      mload(0x40)\n      dup1\n      0x80\n      add\n      0x40\n      mstore\n      swap1\n      dup2\n      0x00\n      dup3\n      add\n      dup1\n      sload\n      tag_244\n      swap1\n      tag_245\n      jump\t// in\n    tag_244:\n      dup1\n      0x1f\n      add\n      0x20\n      dup1\n      swap2\n      div\n      mul\n      0x20\n      add\n      mload(0x40)\n      swap1\n      dup2\n      add\n      0x40\n      mstore\n      dup1\n      swap3\n      swap2\n      swap1\n      dup2\n      dup2\n      mstore\n      0x20\n      add\n      dup3\n      dup1\n      sload\n      tag_246\n      swap1\n      tag_245\n      jump\t// in\n    tag_246:\n      dup1\n      iszero\n      tag_247\n      jumpi\n      dup1\n      0x1f\n      lt\n      tag_248\n      jumpi\n      0x0100\n      dup1\n      dup4\n      sload\n      div\n      mul\n      dup4\n      mstore\n      swap2\n      0x20\n      add\n      swap2\n      jump(tag_247)\n    tag_248:\n      dup3\n      add\n      swap2\n      swap1\n      0x00\n      mstore\n      keccak256(0x00, 0x20)\n      swap1\n    tag_249:\n      dup2\n      sload\n      dup2\n      mstore\n      swap1\n      0x01\n      add\n      swap1\n      0x20\n      add\n      dup1\n      dup4\n      gt\n      tag_249\n      jumpi\n      dup3\n      swap1\n      sub\n      0x1f\n      and\n      dup3\n      add\n      swap2\n    tag_247:\n      pop\n      pop\n      pop\n      pop\n      pop\n      dup2\n      mstore\n      0x20\n      add\n      0x01\n      dup3\n      add\n      sload\n      dup2\n      mstore\n      0x20\n      add\n      0x02\n      dup3\n      add\n      sload\n      dup2\n      mstore\n      0x20\n      add\n      0x03\n      dup3\n      add\n      sload\n      dup2\n      mstore\n      pop\n      pop\n      dup2\n      mstore\n      0x20\n      add\n      swap1\n      0x01\n      add\n      swap1\n      jump(tag_241)\n    tag_242:\n      pop\n      pop\n      pop\n      pop\n      swap1\n      pop\n        /* \"contracts/Shope.sol\":3860:3954  function getProducts() public view returns (Product[] memory) {... */\n      swap1\n      jump\t// out\n        /* \"contracts/Shope.sol\":309:360  mapping(uint256 => uint256) public productsPurchase */\n    tag_102:\n      mstore(0x20, 0x02)\n      dup1\n      0x00\n      mstore\n      keccak256(0x00, 0x40)\n      0x00\n      swap2\n      pop\n      swap1\n      pop\n      sload\n      dup2\n      jump\t// out\n        /* \"contracts/Shope.sol\":1083:1562  function buy(uint256 _id, uint256 _quantity) external payable {... */\n    tag_106:\n        /* \"contracts/Shope.sol\":1175:1176  0 */\n      0x00\n        /* \"contracts/Shope.sol\":1163:1172  _quantity */\n      dup2\n        /* \"contracts/Shope.sol\":1163:1176  _quantity > 0 */\n      gt\n        /* \"contracts/Shope.sol\":1155:1199  require(_quantity > 0, QuantityCantBeZero()) */\n      tag_251\n      jumpi\n      mload(0x40)\n      0x02e9794a00000000000000000000000000000000000000000000000000000000\n      dup2\n      mstore\n      0x04\n      add\n      mload(0x40)\n      dup1\n      swap2\n      sub\n      swap1\n      revert\n    tag_251:\n        /* \"contracts/Shope.sol\":1234:1243  _quantity */\n      dup1\n        /* \"contracts/Shope.sol\":1217:1230  getStock(_id) */\n      tag_252\n        /* \"contracts/Shope.sol\":1226:1229  _id */\n      dup4\n        /* \"contracts/Shope.sol\":1217:1225  getStock */\n      tag_42\n        /* \"contracts/Shope.sol\":1217:1230  getStock(_id) */\n      jump\t// in\n    tag_252:\n        /* \"contracts/Shope.sol\":1217:1243  getStock(_id) >= _quantity */\n      lt\n      iszero\n        /* \"contracts/Shope.sol\":1209:1258  require(getStock(_id) >= _quantity, OutOfStock()) */\n      tag_253\n      jumpi\n      mload(0x40)\n      0xade1cb4100000000000000000000000000000000000000000000000000000000\n      dup2\n      mstore\n      0x04\n      add\n      mload(0x40)\n      dup1\n      swap2\n      sub\n      swap1\n      revert\n    tag_253:\n        /* \"contracts/Shope.sol\":1269:1287  uint256 totalPrice */\n      0x00\n        /* \"contracts/Shope.sol\":1306:1315  _quantity */\n      dup2\n        /* \"contracts/Shope.sol\":1290:1303  getPrice(_id) */\n      tag_254\n        /* \"contracts/Shope.sol\":1299:1302  _id */\n      dup5\n        /* \"contracts/Shope.sol\":1290:1298  getPrice */\n      tag_110\n        /* \"contracts/Shope.sol\":1290:1303  getPrice(_id) */\n      jump\t// in\n    tag_254:\n        /* \"contracts/Shope.sol\":1290:1315  getPrice(_id) * _quantity */\n      tag_255\n      swap2\n      swap1\n      tag_190\n      jump\t// in\n    tag_255:\n        /* \"contracts/Shope.sol\":1269:1315  uint256 totalPrice = getPrice(_id) * _quantity */\n      swap1\n      pop\n        /* \"contracts/Shope.sol\":1346:1356  totalPrice */\n      dup1\n        /* \"contracts/Shope.sol\":1333:1342  msg.value */\n      callvalue\n        /* \"contracts/Shope.sol\":1333:1356  msg.value >= totalPrice */\n      lt\n      iszero\n        /* \"contracts/Shope.sol\":1325:1376  require(msg.value >= totalPrice, NotEnoughtFunds()) */\n      tag_256\n      jumpi\n      mload(0x40)\n      0xc1463a4000000000000000000000000000000000000000000000000000000000\n      dup2\n      mstore\n      0x04\n      add\n      mload(0x40)\n      dup1\n      swap2\n      sub\n      swap1\n      revert\n    tag_256:\n        /* \"contracts/Shope.sol\":1401:1440  _buyProcess(msg.sender, _id, _quantity) */\n      tag_257\n        /* \"contracts/Shope.sol\":1413:1423  msg.sender */\n      caller\n        /* \"contracts/Shope.sol\":1425:1428  _id */\n      dup5\n        /* \"contracts/Shope.sol\":1430:1439  _quantity */\n      dup5\n        /* \"contracts/Shope.sol\":1401:1412  _buyProcess */\n      tag_202\n        /* \"contracts/Shope.sol\":1401:1440  _buyProcess(msg.sender, _id, _quantity) */\n      jump\t// in\n    tag_257:\n        /* \"contracts/Shope.sol\":1467:1477  totalPrice */\n      dup1\n        /* \"contracts/Shope.sol\":1455:1464  msg.value */\n      callvalue\n        /* \"contracts/Shope.sol\":1455:1477  msg.value > totalPrice */\n      gt\n        /* \"contracts/Shope.sol\":1451:1556  if (msg.value > totalPrice) {... */\n      iszero\n      tag_258\n      jumpi\n        /* \"contracts/Shope.sol\":1501:1511  msg.sender */\n      caller\n        /* \"contracts/Shope.sol\":1493:1521  payable(msg.sender).transfer */\n      0xffffffffffffffffffffffffffffffffffffffff\n      and\n        /* \"contracts/Shope.sol\":1493:1545  payable(msg.sender).transfer(msg.value - totalPrice) */\n      0x08fc\n        /* \"contracts/Shope.sol\":1534:1544  totalPrice */\n      dup3\n        /* \"contracts/Shope.sol\":1522:1531  msg.value */\n      callvalue\n        /* \"contracts/Shope.sol\":1522:1544  msg.value - totalPrice */\n      tag_259\n      swap2\n      swap1\n      tag_149\n      jump\t// in\n    tag_259:\n        /* \"contracts/Shope.sol\":1493:1545  payable(msg.sender).transfer(msg.value - totalPrice) */\n      swap1\n      dup2\n      iszero\n      mul\n      swap1\n      mload(0x40)\n      0x00\n      mload(0x40)\n      dup1\n      dup4\n      sub\n      dup2\n      dup6\n      dup9\n      dup9\n      call\n      swap4\n      pop\n      pop\n      pop\n      pop\n      iszero\n      dup1\n      iszero\n      tag_261\n      jumpi\n      returndatacopy(0x00, 0x00, returndatasize)\n      revert(0x00, returndatasize)\n    tag_261:\n      pop\n        /* \"contracts/Shope.sol\":1451:1556  if (msg.value > totalPrice) {... */\n    tag_258:\n        /* \"contracts/Shope.sol\":1145:1562  {... */\n      pop\n        /* \"contracts/Shope.sol\":1083:1562  function buy(uint256 _id, uint256 _quantity) external payable {... */\n      pop\n      pop\n      jump\t// out\n        /* \"contracts/Shope.sol\":3960:4110  function getPrice(uint256 _id) public view returns (uint256) {... */\n    tag_110:\n        /* \"contracts/Shope.sol\":4012:4019  uint256 */\n      0x00\n        /* \"contracts/Shope.sol\":4031:4054  Product storage product */\n      0x00\n        /* \"contracts/Shope.sol\":4057:4073  findProduct(_id) */\n      tag_263\n        /* \"contracts/Shope.sol\":4069:4072  _id */\n      dup4\n        /* \"contracts/Shope.sol\":4057:4068  findProduct */\n      tag_155\n        /* \"contracts/Shope.sol\":4057:4073  findProduct(_id) */\n      jump\t// in\n    tag_263:\n        /* \"contracts/Shope.sol\":4031:4073  Product storage product = findProduct(_id) */\n      swap1\n      pop\n        /* \"contracts/Shope.sol\":4090:4097  product */\n      dup1\n        /* \"contracts/Shope.sol\":4090:4103  product.price */\n      0x03\n      add\n      sload\n        /* \"contracts/Shope.sol\":4083:4103  return product.price */\n      swap2\n      pop\n      pop\n        /* \"contracts/Shope.sol\":3960:4110  function getPrice(uint256 _id) public view returns (uint256) {... */\n      swap2\n      swap1\n      pop\n      jump\t// out\n        /* \"contracts/Shope.sol\":3276:3522  function deleteProduct(uint256 _id) external onlyOwner {... */\n    tag_115:\n        /* \"@openzeppelin/contracts/access/Ownable.sol\":1531:1544  _checkOwner() */\n      tag_265\n        /* \"@openzeppelin/contracts/access/Ownable.sol\":1531:1542  _checkOwner */\n      tag_125\n        /* \"@openzeppelin/contracts/access/Ownable.sol\":1531:1544  _checkOwner() */\n      jump\t// in\n    tag_265:\n        /* \"contracts/Shope.sol\":3342:3353  bool status */\n      0x00\n        /* \"contracts/Shope.sol\":3355:3368  uint256 index */\n      0x00\n        /* \"contracts/Shope.sol\":3372:3390  findIndexById(_id) */\n      tag_267\n        /* \"contracts/Shope.sol\":3386:3389  _id */\n      dup4\n        /* \"contracts/Shope.sol\":3372:3385  findIndexById */\n      tag_268\n        /* \"contracts/Shope.sol\":3372:3390  findIndexById(_id) */\n      jump\t// in\n    tag_267:\n        /* \"contracts/Shope.sol\":3341:3390  (bool status, uint256 index) = findIndexById(_id) */\n      swap2\n      pop\n      swap2\n      pop\n        /* \"contracts/Shope.sol\":3408:3414  status */\n      dup2\n        /* \"contracts/Shope.sol\":3400:3433  require(status, IdDoesNotExist()) */\n      tag_269\n      jumpi\n      mload(0x40)\n      0xc270964900000000000000000000000000000000000000000000000000000000\n      dup2\n      mstore\n      0x04\n      add\n      mload(0x40)\n      dup1\n      swap2\n      sub\n      swap1\n      revert\n    tag_269:\n        /* \"contracts/Shope.sol\":3462:3470  products */\n      0x04\n        /* \"contracts/Shope.sol\":3489:3490  1 */\n      0x01\n        /* \"contracts/Shope.sol\":3471:3479  products */\n      0x04\n        /* \"contracts/Shope.sol\":3471:3486  products.length */\n      dup1\n      sload\n      swap1\n      pop\n        /* \"contracts/Shope.sol\":3471:3490  products.length - 1 */\n      tag_270\n      swap2\n      swap1\n      tag_149\n      jump\t// in\n    tag_270:\n        /* \"contracts/Shope.sol\":3462:3491  products[products.length - 1] */\n      dup2\n      sload\n      dup2\n      lt\n      tag_271\n      jumpi\n      tag_272\n      tag_141\n      jump\t// in\n    tag_272:\n    tag_271:\n      swap1\n      0x00\n      mstore\n      keccak256(0x00, 0x20)\n      swap1\n      0x04\n      mul\n      add\n        /* \"contracts/Shope.sol\":3444:3452  products */\n      0x04\n        /* \"contracts/Shope.sol\":3453:3458  index */\n      dup3\n        /* \"contracts/Shope.sol\":3444:3459  products[index] */\n      dup2\n      sload\n      dup2\n      lt\n      tag_274\n      jumpi\n      tag_275\n      tag_141\n      jump\t// in\n    tag_275:\n    tag_274:\n      swap1\n      0x00\n      mstore\n      keccak256(0x00, 0x20)\n      swap1\n      0x04\n      mul\n      add\n        /* \"contracts/Shope.sol\":3444:3491  products[index] = products[products.length - 1] */\n      0x00\n      dup3\n      add\n      dup2\n      0x00\n      add\n      swap1\n      dup2\n      tag_277\n      swap2\n      swap1\n      tag_278\n      jump\t// in\n    tag_277:\n      pop\n      0x01\n      dup3\n      add\n      sload\n      dup2\n      0x01\n      add\n      sstore\n      0x02\n      dup3\n      add\n      sload\n      dup2\n      0x02\n      add\n      sstore\n      0x03\n      dup3\n      add\n      sload\n      dup2\n      0x03\n      add\n      sstore\n      swap1\n      pop\n      pop\n        /* \"contracts/Shope.sol\":3501:3509  products */\n      0x04\n        /* \"contracts/Shope.sol\":3501:3515  products.pop() */\n      dup1\n      sload\n      dup1\n      tag_279\n      jumpi\n      tag_280\n      tag_281\n      jump\t// in\n    tag_280:\n    tag_279:\n      0x01\n      swap1\n      sub\n      dup2\n      dup2\n      swap1\n      0x00\n      mstore\n      keccak256(0x00, 0x20)\n      swap1\n      0x04\n      mul\n      add\n      0x00\n      0x00\n      dup3\n      add\n      0x00\n      tag_283\n      swap2\n      swap1\n      tag_284\n      jump\t// in\n    tag_283:\n      0x01\n      dup3\n      add\n      0x00\n      swap1\n      sstore\n      0x02\n      dup3\n      add\n      0x00\n      swap1\n      sstore\n      0x03\n      dup3\n      add\n      0x00\n      swap1\n      sstore\n      pop\n      pop\n      swap1\n      sstore\n        /* \"contracts/Shope.sol\":3331:3522  {... */\n      pop\n      pop\n        /* \"contracts/Shope.sol\":3276:3522  function deleteProduct(uint256 _id) external onlyOwner {... */\n      pop\n      jump\t// out\n        /* \"@openzeppelin/contracts/access/Ownable.sol\":2543:2758  function transferOwnership(address newOwner) public virtual onlyOwner {... */\n    tag_119:\n        /* \"@openzeppelin/contracts/access/Ownable.sol\":1531:1544  _checkOwner() */\n      tag_286\n        /* \"@openzeppelin/contracts/access/Ownable.sol\":1531:1542  _checkOwner */\n      tag_125\n        /* \"@openzeppelin/contracts/access/Ownable.sol\":1531:1544  _checkOwner() */\n      jump\t// in\n    tag_286:\n        /* \"@openzeppelin/contracts/access/Ownable.sol\":2647:2648  0 */\n      0x00\n        /* \"@openzeppelin/contracts/access/Ownable.sol\":2627:2649  newOwner == address(0) */\n      0xffffffffffffffffffffffffffffffffffffffff\n      and\n        /* \"@openzeppelin/contracts/access/Ownable.sol\":2627:2635  newOwner */\n      dup2\n        /* \"@openzeppelin/contracts/access/Ownable.sol\":2627:2649  newOwner == address(0) */\n      0xffffffffffffffffffffffffffffffffffffffff\n      and\n      sub\n        /* \"@openzeppelin/contracts/access/Ownable.sol\":2623:2714  if (newOwner == address(0)) {... */\n      tag_288\n      jumpi\n        /* \"@openzeppelin/contracts/access/Ownable.sol\":2700:2701  0 */\n      0x00\n        /* \"@openzeppelin/contracts/access/Ownable.sol\":2672:2703  OwnableInvalidOwner(address(0)) */\n      mload(0x40)\n      0x1e4fbdf700000000000000000000000000000000000000000000000000000000\n      dup2\n      mstore\n      0x04\n      add\n      tag_289\n      swap2\n      swap1\n      tag_81\n      jump\t// in\n    tag_289:\n      mload(0x40)\n      dup1\n      swap2\n      sub\n      swap1\n      revert\n        /* \"@openzeppelin/contracts/access/Ownable.sol\":2623:2714  if (newOwner == address(0)) {... */\n    tag_288:\n        /* \"@openzeppelin/contracts/access/Ownable.sol\":2723:2751  _transferOwnership(newOwner) */\n      tag_290\n        /* \"@openzeppelin/contracts/access/Ownable.sol\":2742:2750  newOwner */\n      dup2\n        /* \"@openzeppelin/contracts/access/Ownable.sol\":2723:2741  _transferOwnership */\n      tag_173\n        /* \"@openzeppelin/contracts/access/Ownable.sol\":2723:2751  _transferOwnership(newOwner) */\n      jump\t// in\n    tag_290:\n        /* \"@openzeppelin/contracts/access/Ownable.sol\":2543:2758  function transferOwnership(address newOwner) public virtual onlyOwner {... */\n      pop\n      jump\t// out\n        /* \"contracts/Shope.sol\":5662:5977  function refund(address _buyer) public payable {... */\n    tag_122:\n        /* \"contracts/Shope.sol\":5719:5754  PurchaseHistory memory lastPurchase */\n      0x00\n        /* \"contracts/Shope.sol\":5757:5780  getLastPurchase(_buyer) */\n      tag_292\n        /* \"contracts/Shope.sol\":5773:5779  _buyer */\n      dup3\n        /* \"contracts/Shope.sol\":5757:5772  getLastPurchase */\n      tag_35\n        /* \"contracts/Shope.sol\":5757:5780  getLastPurchase(_buyer) */\n      jump\t// in\n    tag_292:\n        /* \"contracts/Shope.sol\":5719:5780  PurchaseHistory memory lastPurchase = getLastPurchase(_buyer) */\n      swap1\n      pop\n        /* \"contracts/Shope.sol\":5790:5805  uint256 balance */\n      0x00\n        /* \"contracts/Shope.sol\":5832:5844  lastPurchase */\n      dup2\n        /* \"contracts/Shope.sol\":5832:5856  lastPurchase.totalAmount */\n      0x40\n      add\n      mload\n        /* \"contracts/Shope.sol\":5808:5829  address(this).balance */\n      selfbalance\n        /* \"contracts/Shope.sol\":5808:5856  address(this).balance + lastPurchase.totalAmount */\n      tag_293\n      swap2\n      swap1\n      tag_192\n      jump\t// in\n    tag_293:\n        /* \"contracts/Shope.sol\":5790:5856  uint256 balance = address(this).balance + lastPurchase.totalAmount */\n      swap1\n      pop\n        /* \"contracts/Shope.sol\":5885:5886  0 */\n      0x00\n        /* \"contracts/Shope.sol\":5875:5882  balance */\n      dup2\n        /* \"contracts/Shope.sol\":5875:5886  balance > 0 */\n      gt\n        /* \"contracts/Shope.sol\":5867:5908  require(balance > 0, \"Not enought money\") */\n      tag_294\n      jumpi\n      mload(0x40)\n      0x08c379a000000000000000000000000000000000000000000000000000000000\n      dup2\n      mstore\n      0x04\n      add\n      tag_295\n      swap1\n      tag_161\n      jump\t// in\n    tag_295:\n      mload(0x40)\n      dup1\n      swap2\n      sub\n      swap1\n      revert\n    tag_294:\n        /* \"contracts/Shope.sol\":5927:5934  owner() */\n      tag_296\n        /* \"contracts/Shope.sol\":5927:5932  owner */\n      tag_79\n        /* \"contracts/Shope.sol\":5927:5934  owner() */\n      jump\t// in\n    tag_296:\n        /* \"contracts/Shope.sol\":5919:5944  payable(owner()).transfer */\n      0xffffffffffffffffffffffffffffffffffffffff\n      and\n        /* \"contracts/Shope.sol\":5919:5970  payable(owner()).transfer(lastPurchase.totalAmount) */\n      0x08fc\n        /* \"contracts/Shope.sol\":5945:5957  lastPurchase */\n      dup4\n        /* \"contracts/Shope.sol\":5945:5969  lastPurchase.totalAmount */\n      0x40\n      add\n      mload\n        /* \"contracts/Shope.sol\":5919:5970  payable(owner()).transfer(lastPurchase.totalAmount) */\n      swap1\n      dup2\n      iszero\n      mul\n      swap1\n      mload(0x40)\n      0x00\n      mload(0x40)\n      dup1\n      dup4\n      sub\n      dup2\n      dup6\n      dup9\n      dup9\n      call\n      swap4\n      pop\n      pop\n      pop\n      pop\n      iszero\n      dup1\n      iszero\n      tag_298\n      jumpi\n      returndatacopy(0x00, 0x00, returndatasize)\n      revert(0x00, returndatasize)\n    tag_298:\n      pop\n        /* \"contracts/Shope.sol\":5709:5977  {... */\n      pop\n      pop\n        /* \"contracts/Shope.sol\":5662:5977  function refund(address _buyer) public payable {... */\n      pop\n      jump\t// out\n        /* \"@openzeppelin/contracts/access/Ownable.sol\":1796:1958  function _checkOwner() internal view virtual {... */\n    tag_125:\n        /* \"@openzeppelin/contracts/access/Ownable.sol\":1866:1878  _msgSender() */\n      tag_300\n        /* \"@openzeppelin/contracts/access/Ownable.sol\":1866:1876  _msgSender */\n      tag_301\n        /* \"@openzeppelin/contracts/access/Ownable.sol\":1866:1878  _msgSender() */\n      jump\t// in\n    tag_300:\n        /* \"@openzeppelin/contracts/access/Ownable.sol\":1855:1878  owner() != _msgSender() */\n      0xffffffffffffffffffffffffffffffffffffffff\n      and\n        /* \"@openzeppelin/contracts/access/Ownable.sol\":1855:1862  owner() */\n      tag_302\n        /* \"@openzeppelin/contracts/access/Ownable.sol\":1855:1860  owner */\n      tag_79\n        /* \"@openzeppelin/contracts/access/Ownable.sol\":1855:1862  owner() */\n      jump\t// in\n    tag_302:\n        /* \"@openzeppelin/contracts/access/Ownable.sol\":1855:1878  owner() != _msgSender() */\n      0xffffffffffffffffffffffffffffffffffffffff\n      and\n      eq\n        /* \"@openzeppelin/contracts/access/Ownable.sol\":1851:1952  if (owner() != _msgSender()) {... */\n      tag_303\n      jumpi\n        /* \"@openzeppelin/contracts/access/Ownable.sol\":1928:1940  _msgSender() */\n      tag_304\n        /* \"@openzeppelin/contracts/access/Ownable.sol\":1928:1938  _msgSender */\n      tag_301\n        /* \"@openzeppelin/contracts/access/Ownable.sol\":1928:1940  _msgSender() */\n      jump\t// in\n    tag_304:\n        /* \"@openzeppelin/contracts/access/Ownable.sol\":1901:1941  OwnableUnauthorizedAccount(_msgSender()) */\n      mload(0x40)\n      0x118cdaa700000000000000000000000000000000000000000000000000000000\n      dup2\n      mstore\n      0x04\n      add\n      tag_305\n      swap2\n      swap1\n      tag_81\n      jump\t// in\n    tag_305:\n      mload(0x40)\n      dup1\n      swap2\n      sub\n      swap1\n      revert\n        /* \"@openzeppelin/contracts/access/Ownable.sol\":1851:1952  if (owner() != _msgSender()) {... */\n    tag_303:\n        /* \"@openzeppelin/contracts/access/Ownable.sol\":1796:1958  function _checkOwner() internal view virtual {... */\n      jump\t// out\n        /* \"contracts/Shope.sol\":4585:4825  function isIdExist(uint256 _id) internal view returns (bool) {... */\n    tag_128:\n        /* \"contracts/Shope.sol\":4640:4644  bool */\n      0x00\n        /* \"contracts/Shope.sol\":4661:4670  uint256 i */\n      0x00\n        /* \"contracts/Shope.sol\":4673:4674  0 */\n      0x00\n        /* \"contracts/Shope.sol\":4661:4674  uint256 i = 0 */\n      swap1\n      pop\n        /* \"contracts/Shope.sol\":4656:4797  for (uint256 i = 0; i < products.length; i++) {... */\n    tag_307:\n        /* \"contracts/Shope.sol\":4680:4688  products */\n      0x04\n        /* \"contracts/Shope.sol\":4680:4695  products.length */\n      dup1\n      sload\n      swap1\n      pop\n        /* \"contracts/Shope.sol\":4676:4677  i */\n      dup2\n        /* \"contracts/Shope.sol\":4676:4695  i < products.length */\n      lt\n        /* \"contracts/Shope.sol\":4656:4797  for (uint256 i = 0; i < products.length; i++) {... */\n      iszero\n      tag_308\n      jumpi\n        /* \"contracts/Shope.sol\":4738:4741  _id */\n      dup3\n        /* \"contracts/Shope.sol\":4720:4728  products */\n      0x04\n        /* \"contracts/Shope.sol\":4729:4730  i */\n      dup3\n        /* \"contracts/Shope.sol\":4720:4731  products[i] */\n      dup2\n      sload\n      dup2\n      lt\n      tag_310\n      jumpi\n      tag_311\n      tag_141\n      jump\t// in\n    tag_311:\n    tag_310:\n      swap1\n      0x00\n      mstore\n      keccak256(0x00, 0x20)\n      swap1\n      0x04\n      mul\n      add\n        /* \"contracts/Shope.sol\":4720:4734  products[i].id */\n      0x01\n      add\n      sload\n        /* \"contracts/Shope.sol\":4720:4741  products[i].id == _id */\n      sub\n        /* \"contracts/Shope.sol\":4716:4787  if (products[i].id == _id) {... */\n      tag_313\n      jumpi\n        /* \"contracts/Shope.sol\":4768:4772  true */\n      0x01\n        /* \"contracts/Shope.sol\":4761:4772  return true */\n      swap2\n      pop\n      pop\n      jump(tag_306)\n        /* \"contracts/Shope.sol\":4716:4787  if (products[i].id == _id) {... */\n    tag_313:\n        /* \"contracts/Shope.sol\":4697:4700  i++ */\n      dup1\n      dup1\n      0x01\n      add\n      swap2\n      pop\n      pop\n        /* \"contracts/Shope.sol\":4656:4797  for (uint256 i = 0; i < products.length; i++) {... */\n      jump(tag_307)\n    tag_308:\n      pop\n        /* \"contracts/Shope.sol\":4813:4818  false */\n      0x00\n        /* \"contracts/Shope.sol\":4806:4818  return false */\n      swap1\n      pop\n        /* \"contracts/Shope.sol\":4585:4825  function isIdExist(uint256 _id) internal view returns (bool) {... */\n    tag_306:\n      swap2\n      swap1\n      pop\n      jump\t// out\n        /* \"contracts/Shope.sol\":4272:4579  function findProduct(uint256 _id)... */\n    tag_155:\n        /* \"contracts/Shope.sol\":4353:4376  Product storage product */\n      0x00\n        /* \"contracts/Shope.sol\":4397:4406  uint256 i */\n      0x00\n        /* \"contracts/Shope.sol\":4409:4410  0 */\n      0x00\n        /* \"contracts/Shope.sol\":4397:4410  uint256 i = 0 */\n      swap1\n      pop\n        /* \"contracts/Shope.sol\":4392:4540  for (uint256 i = 0; i < products.length; i++) {... */\n    tag_315:\n        /* \"contracts/Shope.sol\":4416:4424  products */\n      0x04\n        /* \"contracts/Shope.sol\":4416:4431  products.length */\n      dup1\n      sload\n      swap1\n      pop\n        /* \"contracts/Shope.sol\":4412:4413  i */\n      dup2\n        /* \"contracts/Shope.sol\":4412:4431  i < products.length */\n      lt\n        /* \"contracts/Shope.sol\":4392:4540  for (uint256 i = 0; i < products.length; i++) {... */\n      iszero\n      tag_316\n      jumpi\n        /* \"contracts/Shope.sol\":4474:4477  _id */\n      dup3\n        /* \"contracts/Shope.sol\":4456:4464  products */\n      0x04\n        /* \"contracts/Shope.sol\":4465:4466  i */\n      dup3\n        /* \"contracts/Shope.sol\":4456:4467  products[i] */\n      dup2\n      sload\n      dup2\n      lt\n      tag_318\n      jumpi\n      tag_319\n      tag_141\n      jump\t// in\n    tag_319:\n    tag_318:\n      swap1\n      0x00\n      mstore\n      keccak256(0x00, 0x20)\n      swap1\n      0x04\n      mul\n      add\n        /* \"contracts/Shope.sol\":4456:4470  products[i].id */\n      0x01\n      add\n      sload\n        /* \"contracts/Shope.sol\":4456:4477  products[i].id == _id */\n      sub\n        /* \"contracts/Shope.sol\":4452:4530  if (products[i].id == _id) {... */\n      tag_321\n      jumpi\n        /* \"contracts/Shope.sol\":4504:4512  products */\n      0x04\n        /* \"contracts/Shope.sol\":4513:4514  i */\n      dup2\n        /* \"contracts/Shope.sol\":4504:4515  products[i] */\n      dup2\n      sload\n      dup2\n      lt\n      tag_322\n      jumpi\n      tag_323\n      tag_141\n      jump\t// in\n    tag_323:\n    tag_322:\n      swap1\n      0x00\n      mstore\n      keccak256(0x00, 0x20)\n      swap1\n      0x04\n      mul\n      add\n        /* \"contracts/Shope.sol\":4497:4515  return products[i] */\n      swap2\n      pop\n      pop\n      jump(tag_314)\n        /* \"contracts/Shope.sol\":4452:4530  if (products[i].id == _id) {... */\n    tag_321:\n        /* \"contracts/Shope.sol\":4433:4436  i++ */\n      dup1\n      dup1\n      0x01\n      add\n      swap2\n      pop\n      pop\n        /* \"contracts/Shope.sol\":4392:4540  for (uint256 i = 0; i < products.length; i++) {... */\n      jump(tag_315)\n    tag_316:\n      pop\n        /* \"contracts/Shope.sol\":4556:4572  IdDoesNotExist() */\n      mload(0x40)\n      0xc270964900000000000000000000000000000000000000000000000000000000\n      dup2\n      mstore\n      0x04\n      add\n      mload(0x40)\n      dup1\n      swap2\n      sub\n      swap1\n      revert\n        /* \"contracts/Shope.sol\":4272:4579  function findProduct(uint256 _id)... */\n    tag_314:\n      swap2\n      swap1\n      pop\n      jump\t// out\n        /* \"@openzeppelin/contracts/access/Ownable.sol\":2912:3099  function _transferOwnership(address newOwner) internal virtual {... */\n    tag_173:\n        /* \"@openzeppelin/contracts/access/Ownable.sol\":2985:3001  address oldOwner */\n      0x00\n        /* \"@openzeppelin/contracts/access/Ownable.sol\":3004:3010  _owner */\n      0x00\n      0x00\n      swap1\n      sload\n      swap1\n      0x0100\n      exp\n      swap1\n      div\n      0xffffffffffffffffffffffffffffffffffffffff\n      and\n        /* \"@openzeppelin/contracts/access/Ownable.sol\":2985:3010  address oldOwner = _owner */\n      swap1\n      pop\n        /* \"@openzeppelin/contracts/access/Ownable.sol\":3029:3037  newOwner */\n      dup2\n        /* \"@openzeppelin/contracts/access/Ownable.sol\":3020:3026  _owner */\n      0x00\n      0x00\n        /* \"@openzeppelin/contracts/access/Ownable.sol\":3020:3037  _owner = newOwner */\n      0x0100\n      exp\n      dup2\n      sload\n      dup2\n      0xffffffffffffffffffffffffffffffffffffffff\n      mul\n      not\n      and\n      swap1\n      dup4\n      0xffffffffffffffffffffffffffffffffffffffff\n      and\n      mul\n      or\n      swap1\n      sstore\n      pop\n        /* \"@openzeppelin/contracts/access/Ownable.sol\":3083:3091  newOwner */\n      dup2\n        /* \"@openzeppelin/contracts/access/Ownable.sol\":3052:3092  OwnershipTransferred(oldOwner, newOwner) */\n      0xffffffffffffffffffffffffffffffffffffffff\n      and\n        /* \"@openzeppelin/contracts/access/Ownable.sol\":3073:3081  oldOwner */\n      dup2\n        /* \"@openzeppelin/contracts/access/Ownable.sol\":3052:3092  OwnershipTransferred(oldOwner, newOwner) */\n      0xffffffffffffffffffffffffffffffffffffffff\n      and\n      0x8be0079c531659141344cd1fd0a4f28419497f9722a3daafe3b4186f6b6457e0\n      mload(0x40)\n      mload(0x40)\n      dup1\n      swap2\n      sub\n      swap1\n      log3\n        /* \"@openzeppelin/contracts/access/Ownable.sol\":2975:3099  {... */\n      pop\n        /* \"@openzeppelin/contracts/access/Ownable.sol\":2912:3099  function _transferOwnership(address newOwner) internal virtual {... */\n      pop\n      jump\t// out\n        /* \"contracts/Shope.sol\":2447:2803  function _buyProcess(... */\n    tag_202:\n        /* \"contracts/Shope.sol\":2564:2587  Product storage product */\n      0x00\n        /* \"contracts/Shope.sol\":2590:2606  findProduct(_id) */\n      tag_327\n        /* \"contracts/Shope.sol\":2602:2605  _id */\n      dup4\n        /* \"contracts/Shope.sol\":2590:2601  findProduct */\n      tag_155\n        /* \"contracts/Shope.sol\":2590:2606  findProduct(_id) */\n      jump\t// in\n    tag_327:\n        /* \"contracts/Shope.sol\":2564:2606  Product storage product = findProduct(_id) */\n      swap1\n      pop\n        /* \"contracts/Shope.sol\":2633:2642  _quantity */\n      dup2\n        /* \"contracts/Shope.sol\":2616:2623  product */\n      dup2\n        /* \"contracts/Shope.sol\":2616:2629  product.stock */\n      0x02\n      add\n      0x00\n        /* \"contracts/Shope.sol\":2616:2642  product.stock -= _quantity */\n      dup3\n      dup3\n      sload\n      tag_328\n      swap2\n      swap1\n      tag_149\n      jump\t// in\n    tag_328:\n      swap3\n      pop\n      pop\n      dup2\n      swap1\n      sstore\n      pop\n        /* \"contracts/Shope.sol\":2678:2687  _quantity */\n      dup2\n        /* \"contracts/Shope.sol\":2653:2669  productsPurchase */\n      0x02\n        /* \"contracts/Shope.sol\":2653:2674  productsPurchase[_id] */\n      0x00\n        /* \"contracts/Shope.sol\":2670:2673  _id */\n      dup6\n        /* \"contracts/Shope.sol\":2653:2674  productsPurchase[_id] */\n      dup2\n      mstore\n      0x20\n      add\n      swap1\n      dup2\n      mstore\n      0x20\n      add\n      0x00\n      keccak256\n      0x00\n        /* \"contracts/Shope.sol\":2653:2687  productsPurchase[_id] += _quantity */\n      dup3\n      dup3\n      sload\n      tag_329\n      swap2\n      swap1\n      tag_192\n      jump\t// in\n    tag_329:\n      swap3\n      pop\n      pop\n      dup2\n      swap1\n      sstore\n      pop\n        /* \"contracts/Shope.sol\":2698:2750  setPurchaseHistory(buyer, product.price * _quantity) */\n      tag_330\n        /* \"contracts/Shope.sol\":2717:2722  buyer */\n      dup5\n        /* \"contracts/Shope.sol\":2740:2749  _quantity */\n      dup4\n        /* \"contracts/Shope.sol\":2724:2731  product */\n      dup4\n        /* \"contracts/Shope.sol\":2724:2737  product.price */\n      0x03\n      add\n      sload\n        /* \"contracts/Shope.sol\":2724:2749  product.price * _quantity */\n      tag_331\n      swap2\n      swap1\n      tag_190\n      jump\t// in\n    tag_331:\n        /* \"contracts/Shope.sol\":2698:2716  setPurchaseHistory */\n      tag_332\n        /* \"contracts/Shope.sol\":2698:2750  setPurchaseHistory(buyer, product.price * _quantity) */\n      jump\t// in\n    tag_330:\n        /* \"contracts/Shope.sol\":2765:2796  Purchase(buyer, _id, _quantity) */\n      0x12cb4648cf3058b17ceeb33e579f8b0bc269fe0843f3900b8e24b6c54871703c\n        /* \"contracts/Shope.sol\":2774:2779  buyer */\n      dup5\n        /* \"contracts/Shope.sol\":2781:2784  _id */\n      dup5\n        /* \"contracts/Shope.sol\":2786:2795  _quantity */\n      dup5\n        /* \"contracts/Shope.sol\":2765:2796  Purchase(buyer, _id, _quantity) */\n      mload(0x40)\n      tag_333\n      swap4\n      swap3\n      swap2\n      swap1\n      tag_53\n      jump\t// in\n    tag_333:\n      mload(0x40)\n      dup1\n      swap2\n      sub\n      swap1\n      log1\n        /* \"contracts/Shope.sol\":2554:2803  {... */\n      pop\n        /* \"contracts/Shope.sol\":2447:2803  function _buyProcess(... */\n      pop\n      pop\n      pop\n      jump\t// out\n        /* \"contracts/Shope.sol\":4831:5094  function findIndexById(uint256 _id) internal view returns (bool, uint256) {... */\n    tag_268:\n        /* \"contracts/Shope.sol\":4890:4894  bool */\n      0x00\n        /* \"contracts/Shope.sol\":4896:4903  uint256 */\n      0x00\n        /* \"contracts/Shope.sol\":4920:4929  uint256 i */\n      0x00\n        /* \"contracts/Shope.sol\":4932:4933  0 */\n      0x00\n        /* \"contracts/Shope.sol\":4920:4933  uint256 i = 0 */\n      swap1\n      pop\n        /* \"contracts/Shope.sol\":4915:5061  for (uint256 i = 0; i < products.length; i++) {... */\n    tag_335:\n        /* \"contracts/Shope.sol\":4939:4947  products */\n      0x04\n        /* \"contracts/Shope.sol\":4939:4954  products.length */\n      dup1\n      sload\n      swap1\n      pop\n        /* \"contracts/Shope.sol\":4935:4936  i */\n      dup2\n        /* \"contracts/Shope.sol\":4935:4954  i < products.length */\n      lt\n        /* \"contracts/Shope.sol\":4915:5061  for (uint256 i = 0; i < products.length; i++) {... */\n      iszero\n      tag_336\n      jumpi\n        /* \"contracts/Shope.sol\":4997:5000  _id */\n      dup4\n        /* \"contracts/Shope.sol\":4979:4987  products */\n      0x04\n        /* \"contracts/Shope.sol\":4988:4989  i */\n      dup3\n        /* \"contracts/Shope.sol\":4979:4990  products[i] */\n      dup2\n      sload\n      dup2\n      lt\n      tag_338\n      jumpi\n      tag_339\n      tag_141\n      jump\t// in\n    tag_339:\n    tag_338:\n      swap1\n      0x00\n      mstore\n      keccak256(0x00, 0x20)\n      swap1\n      0x04\n      mul\n      add\n        /* \"contracts/Shope.sol\":4979:4993  products[i].id */\n      0x01\n      add\n      sload\n        /* \"contracts/Shope.sol\":4979:5000  products[i].id == _id */\n      sub\n        /* \"contracts/Shope.sol\":4975:5051  if (products[i].id == _id) {... */\n      tag_341\n      jumpi\n        /* \"contracts/Shope.sol\":5028:5032  true */\n      0x01\n        /* \"contracts/Shope.sol\":5034:5035  i */\n      dup2\n        /* \"contracts/Shope.sol\":5020:5036  return (true, i) */\n      swap3\n      pop\n      swap3\n      pop\n      pop\n      jump(tag_334)\n        /* \"contracts/Shope.sol\":4975:5051  if (products[i].id == _id) {... */\n    tag_341:\n        /* \"contracts/Shope.sol\":4956:4959  i++ */\n      dup1\n      dup1\n      0x01\n      add\n      swap2\n      pop\n      pop\n        /* \"contracts/Shope.sol\":4915:5061  for (uint256 i = 0; i < products.length; i++) {... */\n      jump(tag_335)\n    tag_336:\n      pop\n        /* \"contracts/Shope.sol\":5078:5083  false */\n      0x00\n        /* \"contracts/Shope.sol\":5085:5086  0 */\n      0x00\n        /* \"contracts/Shope.sol\":5070:5087  return (false, 0) */\n      swap2\n      pop\n      swap2\n      pop\n        /* \"contracts/Shope.sol\":4831:5094  function findIndexById(uint256 _id) internal view returns (bool, uint256) {... */\n    tag_334:\n      swap2\n      pop\n      swap2\n      jump\t// out\n        /* \"@openzeppelin/contracts/utils/Context.sol\":656:752  function _msgSender() internal view virtual returns (address) {... */\n    tag_301:\n        /* \"@openzeppelin/contracts/utils/Context.sol\":709:716  address */\n      0x00\n        /* \"@openzeppelin/contracts/utils/Context.sol\":735:745  msg.sender */\n      caller\n        /* \"@openzeppelin/contracts/utils/Context.sol\":728:745  return msg.sender */\n      swap1\n      pop\n        /* \"@openzeppelin/contracts/utils/Context.sol\":656:752  function _msgSender() internal view virtual returns (address) {... */\n      swap1\n      jump\t// out\n        /* \"contracts/Shope.sol\":5265:5440  function setPurchaseHistory(address buyer, uint256 _totalAmout) internal {... */\n    tag_332:\n        /* \"contracts/Shope.sol\":5348:5358  purchaseId */\n      0x06\n      0x00\n        /* \"contracts/Shope.sol\":5348:5360  purchaseId++ */\n      dup2\n      sload\n      dup1\n      swap3\n      swap2\n      swap1\n      tag_344\n      swap1\n      tag_345\n      jump\t// in\n    tag_344:\n      swap2\n      swap1\n      pop\n      sstore\n      pop\n        /* \"contracts/Shope.sol\":5370:5379  purchases */\n      0x05\n        /* \"contracts/Shope.sol\":5385:5432  PurchaseHistory(buyer, purchaseId, _totalAmout) */\n      mload(0x40)\n      dup1\n      0x60\n      add\n      0x40\n      mstore\n      dup1\n        /* \"contracts/Shope.sol\":5401:5406  buyer */\n      dup5\n        /* \"contracts/Shope.sol\":5385:5432  PurchaseHistory(buyer, purchaseId, _totalAmout) */\n      0xffffffffffffffffffffffffffffffffffffffff\n      and\n      dup2\n      mstore\n      0x20\n      add\n        /* \"contracts/Shope.sol\":5408:5418  purchaseId */\n      sload(0x06)\n        /* \"contracts/Shope.sol\":5385:5432  PurchaseHistory(buyer, purchaseId, _totalAmout) */\n      dup2\n      mstore\n      0x20\n      add\n        /* \"contracts/Shope.sol\":5420:5431  _totalAmout */\n      dup4\n        /* \"contracts/Shope.sol\":5385:5432  PurchaseHistory(buyer, purchaseId, _totalAmout) */\n      dup2\n      mstore\n      pop\n        /* \"contracts/Shope.sol\":5370:5433  purchases.push(PurchaseHistory(buyer, purchaseId, _totalAmout)) */\n      swap1\n      dup1\n      0x01\n      dup2\n      sload\n      add\n      dup1\n      dup3\n      sstore\n      dup1\n      swap2\n      pop\n      pop\n      0x01\n      swap1\n      sub\n      swap1\n      0x00\n      mstore\n      keccak256(0x00, 0x20)\n      swap1\n      0x03\n      mul\n      add\n      0x00\n      swap1\n      swap2\n      swap1\n      swap2\n      swap1\n      swap2\n      pop\n      0x00\n      dup3\n      add\n      mload\n      dup2\n      0x00\n      add\n      exp(0x0100, 0x00)\n      dup2\n      sload\n      dup2\n      0xffffffffffffffffffffffffffffffffffffffff\n      mul\n      not\n      and\n      swap1\n      dup4\n      0xffffffffffffffffffffffffffffffffffffffff\n      and\n      mul\n      or\n      swap1\n      sstore\n      pop\n      0x20\n      dup3\n      add\n      mload\n      dup2\n      0x01\n      add\n      sstore\n      0x40\n      dup3\n      add\n      mload\n      dup2\n      0x02\n      add\n      sstore\n      pop\n      pop\n        /* \"contracts/Shope.sol\":5265:5440  function setPurchaseHistory(address buyer, uint256 _totalAmout) internal {... */\n      pop\n      pop\n      jump\t// out\n    tag_134:\n      mload(0x40)\n      dup1\n      0x60\n      add\n      0x40\n      mstore\n      dup1\n      and(0xffffffffffffffffffffffffffffffffffffffff, 0x00)\n      dup2\n      mstore\n      0x20\n      add\n      0x00\n      dup2\n      mstore\n      0x20\n      add\n      0x00\n      dup2\n      mstore\n      pop\n      swap1\n      jump\t// out\n    tag_239:\n      dup3\n      dup1\n      sload\n      dup3\n      dup3\n      sstore\n      swap1\n      0x00\n      mstore\n      keccak256(0x00, 0x20)\n      swap1\n      0x03\n      mul\n      dup2\n      add\n      swap3\n      dup3\n      iszero\n      tag_347\n      jumpi\n      0x00\n      mstore\n      keccak256(0x00, 0x20)\n      swap2\n      0x03\n      mul\n      dup3\n      add\n    tag_348:\n      dup3\n      dup2\n      gt\n      iszero\n      tag_349\n      jumpi\n      dup3\n      dup3\n      0x00\n      dup3\n      add\n      0x00\n      swap1\n      sload\n      swap1\n      0x0100\n      exp\n      swap1\n      div\n      0xffffffffffffffffffffffffffffffffffffffff\n      and\n      dup2\n      0x00\n      add\n      exp(0x0100, 0x00)\n      dup2\n      sload\n      dup2\n      0xffffffffffffffffffffffffffffffffffffffff\n      mul\n      not\n      and\n      swap1\n      dup4\n      0xffffffffffffffffffffffffffffffffffffffff\n      and\n      mul\n      or\n      swap1\n      sstore\n      pop\n      0x01\n      dup3\n      add\n      sload\n      dup2\n      0x01\n      add\n      sstore\n      0x02\n      dup3\n      add\n      sload\n      dup2\n      0x02\n      add\n      sstore\n      pop\n      pop\n      swap2\n      0x03\n      add\n      swap2\n      swap1\n      0x03\n      add\n      swap1\n      jump(tag_348)\n    tag_349:\n    tag_347:\n      pop\n      swap1\n      pop\n      tag_350\n      swap2\n      swap1\n      tag_351\n      jump\t// in\n    tag_350:\n      pop\n      swap1\n      jump\t// out\n    tag_284:\n      pop\n      dup1\n      sload\n      tag_352\n      swap1\n      tag_245\n      jump\t// in\n    tag_352:\n      0x00\n      dup3\n      sstore\n      dup1\n      0x1f\n      lt\n      tag_354\n      jumpi\n      pop\n      jump(tag_353)\n    tag_354:\n      0x1f\n      add\n      0x20\n      swap1\n      div\n      swap1\n      0x00\n      mstore\n      keccak256(0x00, 0x20)\n      swap1\n      dup2\n      add\n      swap1\n      tag_355\n      swap2\n      swap1\n      tag_356\n      jump\t// in\n    tag_355:\n    tag_353:\n      pop\n      jump\t// out\n    tag_351:\n    tag_357:\n      dup1\n      dup3\n      gt\n      iszero\n      tag_358\n      jumpi\n      0x00\n      0x00\n      dup3\n      add\n      exp(0x0100, 0x00)\n      dup2\n      sload\n      swap1\n      0xffffffffffffffffffffffffffffffffffffffff\n      mul\n      not\n      and\n      swap1\n      sstore\n      0x01\n      dup3\n      add\n      0x00\n      swap1\n      sstore\n      0x02\n      dup3\n      add\n      0x00\n      swap1\n      sstore\n      pop\n      0x03\n      add\n      jump(tag_357)\n    tag_358:\n      pop\n      swap1\n      jump\t// out\n    tag_356:\n    tag_359:\n      dup1\n      dup3\n      gt\n      iszero\n      tag_360\n      jumpi\n      0x00\n      dup2\n      0x00\n      swap1\n      sstore\n      pop\n      0x01\n      add\n      jump(tag_359)\n    tag_360:\n      pop\n      swap1\n      jump\t// out\n        /* \"#utility.yul\":88:205   */\n    tag_362:\n        /* \"#utility.yul\":197:198   */\n      0x00\n        /* \"#utility.yul\":194:195   */\n      0x00\n        /* \"#utility.yul\":187:199   */\n      revert\n        /* \"#utility.yul\":211:328   */\n    tag_363:\n        /* \"#utility.yul\":320:321   */\n      0x00\n        /* \"#utility.yul\":317:318   */\n      0x00\n        /* \"#utility.yul\":310:322   */\n      revert\n        /* \"#utility.yul\":334:451   */\n    tag_364:\n        /* \"#utility.yul\":443:444   */\n      0x00\n        /* \"#utility.yul\":440:441   */\n      0x00\n        /* \"#utility.yul\":433:445   */\n      revert\n        /* \"#utility.yul\":457:574   */\n    tag_365:\n        /* \"#utility.yul\":566:567   */\n      0x00\n        /* \"#utility.yul\":563:564   */\n      0x00\n        /* \"#utility.yul\":556:568   */\n      revert\n        /* \"#utility.yul\":580:697   */\n    tag_366:\n        /* \"#utility.yul\":689:690   */\n      0x00\n        /* \"#utility.yul\":686:687   */\n      0x00\n        /* \"#utility.yul\":679:691   */\n      revert\n        /* \"#utility.yul\":717:1270   */\n    tag_367:\n        /* \"#utility.yul\":775:783   */\n      0x00\n        /* \"#utility.yul\":785:791   */\n      0x00\n        /* \"#utility.yul\":835:838   */\n      dup4\n        /* \"#utility.yul\":828:832   */\n      0x1f\n        /* \"#utility.yul\":820:826   */\n      dup5\n        /* \"#utility.yul\":816:833   */\n      add\n        /* \"#utility.yul\":812:839   */\n      slt\n        /* \"#utility.yul\":802:924   */\n      tag_425\n      jumpi\n        /* \"#utility.yul\":843:922   */\n      tag_426\n      tag_364\n      jump\t// in\n    tag_426:\n        /* \"#utility.yul\":802:924   */\n    tag_425:\n        /* \"#utility.yul\":956:962   */\n      dup3\n        /* \"#utility.yul\":943:963   */\n      calldataload\n        /* \"#utility.yul\":933:963   */\n      swap1\n      pop\n        /* \"#utility.yul\":986:1004   */\n      0xffffffffffffffff\n        /* \"#utility.yul\":978:984   */\n      dup2\n        /* \"#utility.yul\":975:1005   */\n      gt\n        /* \"#utility.yul\":972:1089   */\n      iszero\n      tag_427\n      jumpi\n        /* \"#utility.yul\":1008:1087   */\n      tag_428\n      tag_365\n      jump\t// in\n    tag_428:\n        /* \"#utility.yul\":972:1089   */\n    tag_427:\n        /* \"#utility.yul\":1122:1126   */\n      0x20\n        /* \"#utility.yul\":1114:1120   */\n      dup4\n        /* \"#utility.yul\":1110:1127   */\n      add\n        /* \"#utility.yul\":1098:1127   */\n      swap2\n      pop\n        /* \"#utility.yul\":1176:1179   */\n      dup4\n        /* \"#utility.yul\":1168:1172   */\n      0x01\n        /* \"#utility.yul\":1160:1166   */\n      dup3\n        /* \"#utility.yul\":1156:1173   */\n      mul\n        /* \"#utility.yul\":1146:1154   */\n      dup4\n        /* \"#utility.yul\":1142:1174   */\n      add\n        /* \"#utility.yul\":1139:1180   */\n      gt\n        /* \"#utility.yul\":1136:1264   */\n      iszero\n      tag_429\n      jumpi\n        /* \"#utility.yul\":1183:1262   */\n      tag_430\n      tag_366\n      jump\t// in\n    tag_430:\n        /* \"#utility.yul\":1136:1264   */\n    tag_429:\n        /* \"#utility.yul\":717:1270   */\n      swap3\n      pop\n      swap3\n      swap1\n      pop\n      jump\t// out\n        /* \"#utility.yul\":1276:1353   */\n    tag_368:\n        /* \"#utility.yul\":1313:1320   */\n      0x00\n        /* \"#utility.yul\":1342:1347   */\n      dup2\n        /* \"#utility.yul\":1331:1347   */\n      swap1\n      pop\n        /* \"#utility.yul\":1276:1353   */\n      swap2\n      swap1\n      pop\n      jump\t// out\n        /* \"#utility.yul\":1359:1481   */\n    tag_369:\n        /* \"#utility.yul\":1432:1456   */\n      tag_433\n        /* \"#utility.yul\":1450:1455   */\n      dup2\n        /* \"#utility.yul\":1432:1456   */\n      tag_368\n      jump\t// in\n    tag_433:\n        /* \"#utility.yul\":1425:1430   */\n      dup2\n        /* \"#utility.yul\":1422:1457   */\n      eq\n        /* \"#utility.yul\":1412:1475   */\n      tag_434\n      jumpi\n        /* \"#utility.yul\":1471:1472   */\n      0x00\n        /* \"#utility.yul\":1468:1469   */\n      0x00\n        /* \"#utility.yul\":1461:1473   */\n      revert\n        /* \"#utility.yul\":1412:1475   */\n    tag_434:\n        /* \"#utility.yul\":1359:1481   */\n      pop\n      jump\t// out\n        /* \"#utility.yul\":1487:1626   */\n    tag_370:\n        /* \"#utility.yul\":1533:1538   */\n      0x00\n        /* \"#utility.yul\":1571:1577   */\n      dup2\n        /* \"#utility.yul\":1558:1578   */\n      calldataload\n        /* \"#utility.yul\":1549:1578   */\n      swap1\n      pop\n        /* \"#utility.yul\":1587:1620   */\n      tag_436\n        /* \"#utility.yul\":1614:1619   */\n      dup2\n        /* \"#utility.yul\":1587:1620   */\n      tag_369\n      jump\t// in\n    tag_436:\n        /* \"#utility.yul\":1487:1626   */\n      swap3\n      swap2\n      pop\n      pop\n      jump\t// out\n        /* \"#utility.yul\":1632:2597   */\n    tag_29:\n        /* \"#utility.yul\":1730:1736   */\n      0x00\n        /* \"#utility.yul\":1738:1744   */\n      0x00\n        /* \"#utility.yul\":1746:1752   */\n      0x00\n        /* \"#utility.yul\":1754:1760   */\n      0x00\n        /* \"#utility.yul\":1762:1768   */\n      0x00\n        /* \"#utility.yul\":1811:1814   */\n      0x80\n        /* \"#utility.yul\":1799:1808   */\n      dup7\n        /* \"#utility.yul\":1790:1797   */\n      dup9\n        /* \"#utility.yul\":1786:1809   */\n      sub\n        /* \"#utility.yul\":1782:1815   */\n      slt\n        /* \"#utility.yul\":1779:1899   */\n      iszero\n      tag_438\n      jumpi\n        /* \"#utility.yul\":1818:1897   */\n      tag_439\n      tag_362\n      jump\t// in\n    tag_439:\n        /* \"#utility.yul\":1779:1899   */\n    tag_438:\n        /* \"#utility.yul\":1966:1967   */\n      0x00\n        /* \"#utility.yul\":1955:1964   */\n      dup7\n        /* \"#utility.yul\":1951:1968   */\n      add\n        /* \"#utility.yul\":1938:1969   */\n      calldataload\n        /* \"#utility.yul\":1996:2014   */\n      0xffffffffffffffff\n        /* \"#utility.yul\":1988:1994   */\n      dup2\n        /* \"#utility.yul\":1985:2015   */\n      gt\n        /* \"#utility.yul\":1982:2099   */\n      iszero\n      tag_440\n      jumpi\n        /* \"#utility.yul\":2018:2097   */\n      tag_441\n      tag_363\n      jump\t// in\n    tag_441:\n        /* \"#utility.yul\":1982:2099   */\n    tag_440:\n        /* \"#utility.yul\":2131:2196   */\n      tag_442\n        /* \"#utility.yul\":2188:2195   */\n      dup9\n        /* \"#utility.yul\":2179:2185   */\n      dup3\n        /* \"#utility.yul\":2168:2177   */\n      dup10\n        /* \"#utility.yul\":2164:2186   */\n      add\n        /* \"#utility.yul\":2131:2196   */\n      tag_367\n      jump\t// in\n    tag_442:\n        /* \"#utility.yul\":2113:2196   */\n      swap6\n      pop\n      swap6\n      pop\n        /* \"#utility.yul\":1909:2206   */\n      pop\n        /* \"#utility.yul\":2245:2247   */\n      0x20\n        /* \"#utility.yul\":2271:2324   */\n      tag_443\n        /* \"#utility.yul\":2316:2323   */\n      dup9\n        /* \"#utility.yul\":2307:2313   */\n      dup3\n        /* \"#utility.yul\":2296:2305   */\n      dup10\n        /* \"#utility.yul\":2292:2314   */\n      add\n        /* \"#utility.yul\":2271:2324   */\n      tag_370\n      jump\t// in\n    tag_443:\n        /* \"#utility.yul\":2261:2324   */\n      swap4\n      pop\n        /* \"#utility.yul\":2216:2334   */\n      pop\n        /* \"#utility.yul\":2373:2375   */\n      0x40\n        /* \"#utility.yul\":2399:2452   */\n      tag_444\n        /* \"#utility.yul\":2444:2451   */\n      dup9\n        /* \"#utility.yul\":2435:2441   */\n      dup3\n        /* \"#utility.yul\":2424:2433   */\n      dup10\n        /* \"#utility.yul\":2420:2442   */\n      add\n        /* \"#utility.yul\":2399:2452   */\n      tag_370\n      jump\t// in\n    tag_444:\n        /* \"#utility.yul\":2389:2452   */\n      swap3\n      pop\n        /* \"#utility.yul\":2344:2462   */\n      pop\n        /* \"#utility.yul\":2501:2503   */\n      0x60\n        /* \"#utility.yul\":2527:2580   */\n      tag_445\n        /* \"#utility.yul\":2572:2579   */\n      dup9\n        /* \"#utility.yul\":2563:2569   */\n      dup3\n        /* \"#utility.yul\":2552:2561   */\n      dup10\n        /* \"#utility.yul\":2548:2570   */\n      add\n        /* \"#utility.yul\":2527:2580   */\n      tag_370\n      jump\t// in\n    tag_445:\n        /* \"#utility.yul\":2517:2580   */\n      swap2\n      pop\n        /* \"#utility.yul\":2472:2590   */\n      pop\n        /* \"#utility.yul\":1632:2597   */\n      swap3\n      swap6\n      pop\n      swap3\n      swap6\n      swap1\n      swap4\n      pop\n      jump\t// out\n        /* \"#utility.yul\":2603:2729   */\n    tag_371:\n        /* \"#utility.yul\":2640:2647   */\n      0x00\n        /* \"#utility.yul\":2680:2722   */\n      0xffffffffffffffffffffffffffffffffffffffff\n        /* \"#utility.yul\":2673:2678   */\n      dup3\n        /* \"#utility.yul\":2669:2723   */\n      and\n        /* \"#utility.yul\":2658:2723   */\n      swap1\n      pop\n        /* \"#utility.yul\":2603:2729   */\n      swap2\n      swap1\n      pop\n      jump\t// out\n        /* \"#utility.yul\":2735:2831   */\n    tag_372:\n        /* \"#utility.yul\":2772:2779   */\n      0x00\n        /* \"#utility.yul\":2801:2825   */\n      tag_448\n        /* \"#utility.yul\":2819:2824   */\n      dup3\n        /* \"#utility.yul\":2801:2825   */\n      tag_371\n      jump\t// in\n    tag_448:\n        /* \"#utility.yul\":2790:2825   */\n      swap1\n      pop\n        /* \"#utility.yul\":2735:2831   */\n      swap2\n      swap1\n      pop\n      jump\t// out\n        /* \"#utility.yul\":2837:2959   */\n    tag_373:\n        /* \"#utility.yul\":2910:2934   */\n      tag_450\n        /* \"#utility.yul\":2928:2933   */\n      dup2\n        /* \"#utility.yul\":2910:2934   */\n      tag_372\n      jump\t// in\n    tag_450:\n        /* \"#utility.yul\":2903:2908   */\n      dup2\n        /* \"#utility.yul\":2900:2935   */\n      eq\n        /* \"#utility.yul\":2890:2953   */\n      tag_451\n      jumpi\n        /* \"#utility.yul\":2949:2950   */\n      0x00\n        /* \"#utility.yul\":2946:2947   */\n      0x00\n        /* \"#utility.yul\":2939:2951   */\n      revert\n        /* \"#utility.yul\":2890:2953   */\n    tag_451:\n        /* \"#utility.yul\":2837:2959   */\n      pop\n      jump\t// out\n        /* \"#utility.yul\":2965:3104   */\n    tag_374:\n        /* \"#utility.yul\":3011:3016   */\n      0x00\n        /* \"#utility.yul\":3049:3055   */\n      dup2\n        /* \"#utility.yul\":3036:3056   */\n      calldataload\n        /* \"#utility.yul\":3027:3056   */\n      swap1\n      pop\n        /* \"#utility.yul\":3065:3098   */\n      tag_453\n        /* \"#utility.yul\":3092:3097   */\n      dup2\n        /* \"#utility.yul\":3065:3098   */\n      tag_373\n      jump\t// in\n    tag_453:\n        /* \"#utility.yul\":2965:3104   */\n      swap3\n      swap2\n      pop\n      pop\n      jump\t// out\n        /* \"#utility.yul\":3110:3439   */\n    tag_34:\n        /* \"#utility.yul\":3169:3175   */\n      0x00\n        /* \"#utility.yul\":3218:3220   */\n      0x20\n        /* \"#utility.yul\":3206:3215   */\n      dup3\n        /* \"#utility.yul\":3197:3204   */\n      dup5\n        /* \"#utility.yul\":3193:3216   */\n      sub\n        /* \"#utility.yul\":3189:3221   */\n      slt\n        /* \"#utility.yul\":3186:3305   */\n      iszero\n      tag_455\n      jumpi\n        /* \"#utility.yul\":3224:3303   */\n      tag_456\n      tag_362\n      jump\t// in\n    tag_456:\n        /* \"#utility.yul\":3186:3305   */\n    tag_455:\n        /* \"#utility.yul\":3344:3345   */\n      0x00\n        /* \"#utility.yul\":3369:3422   */\n      tag_457\n        /* \"#utility.yul\":3414:3421   */\n      dup5\n        /* \"#utility.yul\":3405:3411   */\n      dup3\n        /* \"#utility.yul\":3394:3403   */\n      dup6\n        /* \"#utility.yul\":3390:3412   */\n      add\n        /* \"#utility.yul\":3369:3422   */\n      tag_374\n      jump\t// in\n    tag_457:\n        /* \"#utility.yul\":3359:3422   */\n      swap2\n      pop\n        /* \"#utility.yul\":3315:3432   */\n      pop\n        /* \"#utility.yul\":3110:3439   */\n      swap3\n      swap2\n      pop\n      pop\n      jump\t// out\n        /* \"#utility.yul\":3445:3553   */\n    tag_375:\n        /* \"#utility.yul\":3522:3546   */\n      tag_459\n        /* \"#utility.yul\":3540:3545   */\n      dup2\n        /* \"#utility.yul\":3522:3546   */\n      tag_372\n      jump\t// in\n    tag_459:\n        /* \"#utility.yul\":3517:3520   */\n      dup3\n        /* \"#utility.yul\":3510:3547   */\n      mstore\n        /* \"#utility.yul\":3445:3553   */\n      pop\n      pop\n      jump\t// out\n        /* \"#utility.yul\":3559:3667   */\n    tag_376:\n        /* \"#utility.yul\":3636:3660   */\n      tag_461\n        /* \"#utility.yul\":3654:3659   */\n      dup2\n        /* \"#utility.yul\":3636:3660   */\n      tag_368\n      jump\t// in\n    tag_461:\n        /* \"#utility.yul\":3631:3634   */\n      dup3\n        /* \"#utility.yul\":3624:3661   */\n      mstore\n        /* \"#utility.yul\":3559:3667   */\n      pop\n      pop\n      jump\t// out\n        /* \"#utility.yul\":3741:4450   */\n    tag_377:\n        /* \"#utility.yul\":3902:3906   */\n      0x60\n        /* \"#utility.yul\":3897:3900   */\n      dup3\n        /* \"#utility.yul\":3893:3907   */\n      add\n        /* \"#utility.yul\":3990:3994   */\n      0x00\n        /* \"#utility.yul\":3983:3988   */\n      dup3\n        /* \"#utility.yul\":3979:3995   */\n      add\n        /* \"#utility.yul\":3973:3996   */\n      mload\n        /* \"#utility.yul\":4009:4072   */\n      tag_463\n        /* \"#utility.yul\":4066:4070   */\n      0x00\n        /* \"#utility.yul\":4061:4064   */\n      dup6\n        /* \"#utility.yul\":4057:4071   */\n      add\n        /* \"#utility.yul\":4043:4055   */\n      dup3\n        /* \"#utility.yul\":4009:4072   */\n      tag_375\n      jump\t// in\n    tag_463:\n        /* \"#utility.yul\":3917:4082   */\n      pop\n        /* \"#utility.yul\":4170:4174   */\n      0x20\n        /* \"#utility.yul\":4163:4168   */\n      dup3\n        /* \"#utility.yul\":4159:4175   */\n      add\n        /* \"#utility.yul\":4153:4176   */\n      mload\n        /* \"#utility.yul\":4189:4252   */\n      tag_464\n        /* \"#utility.yul\":4246:4250   */\n      0x20\n        /* \"#utility.yul\":4241:4244   */\n      dup6\n        /* \"#utility.yul\":4237:4251   */\n      add\n        /* \"#utility.yul\":4223:4235   */\n      dup3\n        /* \"#utility.yul\":4189:4252   */\n      tag_376\n      jump\t// in\n    tag_464:\n        /* \"#utility.yul\":4092:4262   */\n      pop\n        /* \"#utility.yul\":4351:4355   */\n      0x40\n        /* \"#utility.yul\":4344:4349   */\n      dup3\n        /* \"#utility.yul\":4340:4356   */\n      add\n        /* \"#utility.yul\":4334:4357   */\n      mload\n        /* \"#utility.yul\":4370:4433   */\n      tag_465\n        /* \"#utility.yul\":4427:4431   */\n      0x40\n        /* \"#utility.yul\":4422:4425   */\n      dup6\n        /* \"#utility.yul\":4418:4432   */\n      add\n        /* \"#utility.yul\":4404:4416   */\n      dup3\n        /* \"#utility.yul\":4370:4433   */\n      tag_376\n      jump\t// in\n    tag_465:\n        /* \"#utility.yul\":4272:4443   */\n      pop\n        /* \"#utility.yul\":3871:4450   */\n      pop\n        /* \"#utility.yul\":3741:4450   */\n      pop\n      pop\n      jump\t// out\n        /* \"#utility.yul\":4456:4806   */\n    tag_37:\n        /* \"#utility.yul\":4613:4617   */\n      0x00\n        /* \"#utility.yul\":4651:4653   */\n      0x60\n        /* \"#utility.yul\":4640:4649   */\n      dup3\n        /* \"#utility.yul\":4636:4654   */\n      add\n        /* \"#utility.yul\":4628:4654   */\n      swap1\n      pop\n        /* \"#utility.yul\":4664:4799   */\n      tag_467\n        /* \"#utility.yul\":4796:4797   */\n      0x00\n        /* \"#utility.yul\":4785:4794   */\n      dup4\n        /* \"#utility.yul\":4781:4798   */\n      add\n        /* \"#utility.yul\":4772:4778   */\n      dup5\n        /* \"#utility.yul\":4664:4799   */\n      tag_377\n      jump\t// in\n    tag_467:\n        /* \"#utility.yul\":4456:4806   */\n      swap3\n      swap2\n      pop\n      pop\n      jump\t// out\n        /* \"#utility.yul\":4812:5141   */\n    tag_41:\n        /* \"#utility.yul\":4871:4877   */\n      0x00\n        /* \"#utility.yul\":4920:4922   */\n      0x20\n        /* \"#utility.yul\":4908:4917   */\n      dup3\n        /* \"#utility.yul\":4899:4906   */\n      dup5\n        /* \"#utility.yul\":4895:4918   */\n      sub\n        /* \"#utility.yul\":4891:4923   */\n      slt\n        /* \"#utility.yul\":4888:5007   */\n      iszero\n      tag_469\n      jumpi\n        /* \"#utility.yul\":4926:5005   */\n      tag_470\n      tag_362\n      jump\t// in\n    tag_470:\n        /* \"#utility.yul\":4888:5007   */\n    tag_469:\n        /* \"#utility.yul\":5046:5047   */\n      0x00\n        /* \"#utility.yul\":5071:5124   */\n      tag_471\n        /* \"#utility.yul\":5116:5123   */\n      dup5\n        /* \"#utility.yul\":5107:5113   */\n      dup3\n        /* \"#utility.yul\":5096:5105   */\n      dup6\n        /* \"#utility.yul\":5092:5114   */\n      add\n        /* \"#utility.yul\":5071:5124   */\n      tag_370\n      jump\t// in\n    tag_471:\n        /* \"#utility.yul\":5061:5124   */\n      swap2\n      pop\n        /* \"#utility.yul\":5017:5134   */\n      pop\n        /* \"#utility.yul\":4812:5141   */\n      swap3\n      swap2\n      pop\n      pop\n      jump\t// out\n        /* \"#utility.yul\":5147:5265   */\n    tag_378:\n        /* \"#utility.yul\":5234:5258   */\n      tag_473\n        /* \"#utility.yul\":5252:5257   */\n      dup2\n        /* \"#utility.yul\":5234:5258   */\n      tag_368\n      jump\t// in\n    tag_473:\n        /* \"#utility.yul\":5229:5232   */\n      dup3\n        /* \"#utility.yul\":5222:5259   */\n      mstore\n        /* \"#utility.yul\":5147:5265   */\n      pop\n      pop\n      jump\t// out\n        /* \"#utility.yul\":5271:5493   */\n    tag_44:\n        /* \"#utility.yul\":5364:5368   */\n      0x00\n        /* \"#utility.yul\":5402:5404   */\n      0x20\n        /* \"#utility.yul\":5391:5400   */\n      dup3\n        /* \"#utility.yul\":5387:5405   */\n      add\n        /* \"#utility.yul\":5379:5405   */\n      swap1\n      pop\n        /* \"#utility.yul\":5415:5486   */\n      tag_475\n        /* \"#utility.yul\":5483:5484   */\n      0x00\n        /* \"#utility.yul\":5472:5481   */\n      dup4\n        /* \"#utility.yul\":5468:5485   */\n      add\n        /* \"#utility.yul\":5459:5465   */\n      dup5\n        /* \"#utility.yul\":5415:5486   */\n      tag_378\n      jump\t// in\n    tag_475:\n        /* \"#utility.yul\":5271:5493   */\n      swap3\n      swap2\n      pop\n      pop\n      jump\t// out\n        /* \"#utility.yul\":5499:5617   */\n    tag_379:\n        /* \"#utility.yul\":5586:5610   */\n      tag_477\n        /* \"#utility.yul\":5604:5609   */\n      dup2\n        /* \"#utility.yul\":5586:5610   */\n      tag_372\n      jump\t// in\n    tag_477:\n        /* \"#utility.yul\":5581:5584   */\n      dup3\n        /* \"#utility.yul\":5574:5611   */\n      mstore\n        /* \"#utility.yul\":5499:5617   */\n      pop\n      pop\n      jump\t// out\n        /* \"#utility.yul\":5623:6065   */\n    tag_53:\n        /* \"#utility.yul\":5772:5776   */\n      0x00\n        /* \"#utility.yul\":5810:5812   */\n      0x60\n        /* \"#utility.yul\":5799:5808   */\n      dup3\n        /* \"#utility.yul\":5795:5813   */\n      add\n        /* \"#utility.yul\":5787:5813   */\n      swap1\n      pop\n        /* \"#utility.yul\":5823:5894   */\n      tag_479\n        /* \"#utility.yul\":5891:5892   */\n      0x00\n        /* \"#utility.yul\":5880:5889   */\n      dup4\n        /* \"#utility.yul\":5876:5893   */\n      add\n        /* \"#utility.yul\":5867:5873   */\n      dup7\n        /* \"#utility.yul\":5823:5894   */\n      tag_379\n      jump\t// in\n    tag_479:\n        /* \"#utility.yul\":5904:5976   */\n      tag_480\n        /* \"#utility.yul\":5972:5974   */\n      0x20\n        /* \"#utility.yul\":5961:5970   */\n      dup4\n        /* \"#utility.yul\":5957:5975   */\n      add\n        /* \"#utility.yul\":5948:5954   */\n      dup6\n        /* \"#utility.yul\":5904:5976   */\n      tag_378\n      jump\t// in\n    tag_480:\n        /* \"#utility.yul\":5986:6058   */\n      tag_481\n        /* \"#utility.yul\":6054:6056   */\n      0x40\n        /* \"#utility.yul\":6043:6052   */\n      dup4\n        /* \"#utility.yul\":6039:6057   */\n      add\n        /* \"#utility.yul\":6030:6036   */\n      dup5\n        /* \"#utility.yul\":5986:6058   */\n      tag_378\n      jump\t// in\n    tag_481:\n        /* \"#utility.yul\":5623:6065   */\n      swap5\n      swap4\n      pop\n      pop\n      pop\n      pop\n      jump\t// out\n        /* \"#utility.yul\":6071:6545   */\n    tag_57:\n        /* \"#utility.yul\":6139:6145   */\n      0x00\n        /* \"#utility.yul\":6147:6153   */\n      0x00\n        /* \"#utility.yul\":6196:6198   */\n      0x40\n        /* \"#utility.yul\":6184:6193   */\n      dup4\n        /* \"#utility.yul\":6175:6182   */\n      dup6\n        /* \"#utility.yul\":6171:6194   */\n      sub\n        /* \"#utility.yul\":6167:6199   */\n      slt\n        /* \"#utility.yul\":6164:6283   */\n      iszero\n      tag_483\n      jumpi\n        /* \"#utility.yul\":6202:6281   */\n      tag_484\n      tag_362\n      jump\t// in\n    tag_484:\n        /* \"#utility.yul\":6164:6283   */\n    tag_483:\n        /* \"#utility.yul\":6322:6323   */\n      0x00\n        /* \"#utility.yul\":6347:6400   */\n      tag_485\n        /* \"#utility.yul\":6392:6399   */\n      dup6\n        /* \"#utility.yul\":6383:6389   */\n      dup3\n        /* \"#utility.yul\":6372:6381   */\n      dup7\n        /* \"#utility.yul\":6368:6390   */\n      add\n        /* \"#utility.yul\":6347:6400   */\n      tag_374\n      jump\t// in\n    tag_485:\n        /* \"#utility.yul\":6337:6400   */\n      swap3\n      pop\n        /* \"#utility.yul\":6293:6410   */\n      pop\n        /* \"#utility.yul\":6449:6451   */\n      0x20\n        /* \"#utility.yul\":6475:6528   */\n      tag_486\n        /* \"#utility.yul\":6520:6527   */\n      dup6\n        /* \"#utility.yul\":6511:6517   */\n      dup3\n        /* \"#utility.yul\":6500:6509   */\n      dup7\n        /* \"#utility.yul\":6496:6518   */\n      add\n        /* \"#utility.yul\":6475:6528   */\n      tag_370\n      jump\t// in\n    tag_486:\n        /* \"#utility.yul\":6465:6528   */\n      swap2\n      pop\n        /* \"#utility.yul\":6420:6538   */\n      pop\n        /* \"#utility.yul\":6071:6545   */\n      swap3\n      pop\n      swap3\n      swap1\n      pop\n      jump\t// out\n        /* \"#utility.yul\":6568:7136   */\n    tag_380:\n        /* \"#utility.yul\":6641:6649   */\n      0x00\n        /* \"#utility.yul\":6651:6657   */\n      0x00\n        /* \"#utility.yul\":6701:6704   */\n      dup4\n        /* \"#utility.yul\":6694:6698   */\n      0x1f\n        /* \"#utility.yul\":6686:6692   */\n      dup5\n        /* \"#utility.yul\":6682:6699   */\n      add\n        /* \"#utility.yul\":6678:6705   */\n      slt\n        /* \"#utility.yul\":6668:6790   */\n      tag_488\n      jumpi\n        /* \"#utility.yul\":6709:6788   */\n      tag_489\n      tag_364\n      jump\t// in\n    tag_489:\n        /* \"#utility.yul\":6668:6790   */\n    tag_488:\n        /* \"#utility.yul\":6822:6828   */\n      dup3\n        /* \"#utility.yul\":6809:6829   */\n      calldataload\n        /* \"#utility.yul\":6799:6829   */\n      swap1\n      pop\n        /* \"#utility.yul\":6852:6870   */\n      0xffffffffffffffff\n        /* \"#utility.yul\":6844:6850   */\n      dup2\n        /* \"#utility.yul\":6841:6871   */\n      gt\n        /* \"#utility.yul\":6838:6955   */\n      iszero\n      tag_490\n      jumpi\n        /* \"#utility.yul\":6874:6953   */\n      tag_491\n      tag_365\n      jump\t// in\n    tag_491:\n        /* \"#utility.yul\":6838:6955   */\n    tag_490:\n        /* \"#utility.yul\":6988:6992   */\n      0x20\n        /* \"#utility.yul\":6980:6986   */\n      dup4\n        /* \"#utility.yul\":6976:6993   */\n      add\n        /* \"#utility.yul\":6964:6993   */\n      swap2\n      pop\n        /* \"#utility.yul\":7042:7045   */\n      dup4\n        /* \"#utility.yul\":7034:7038   */\n      0x20\n        /* \"#utility.yul\":7026:7032   */\n      dup3\n        /* \"#utility.yul\":7022:7039   */\n      mul\n        /* \"#utility.yul\":7012:7020   */\n      dup4\n        /* \"#utility.yul\":7008:7040   */\n      add\n        /* \"#utility.yul\":7005:7046   */\n      gt\n        /* \"#utility.yul\":7002:7130   */\n      iszero\n      tag_492\n      jumpi\n        /* \"#utility.yul\":7049:7128   */\n      tag_493\n      tag_366\n      jump\t// in\n    tag_493:\n        /* \"#utility.yul\":7002:7130   */\n    tag_492:\n        /* \"#utility.yul\":6568:7136   */\n      swap3\n      pop\n      swap3\n      swap1\n      pop\n      jump\t// out\n        /* \"#utility.yul\":7142:8076   */\n    tag_65:\n        /* \"#utility.yul\":7264:7270   */\n      0x00\n        /* \"#utility.yul\":7272:7278   */\n      0x00\n        /* \"#utility.yul\":7280:7286   */\n      0x00\n        /* \"#utility.yul\":7288:7294   */\n      0x00\n        /* \"#utility.yul\":7337:7339   */\n      0x40\n        /* \"#utility.yul\":7325:7334   */\n      dup6\n        /* \"#utility.yul\":7316:7323   */\n      dup8\n        /* \"#utility.yul\":7312:7335   */\n      sub\n        /* \"#utility.yul\":7308:7340   */\n      slt\n        /* \"#utility.yul\":7305:7424   */\n      iszero\n      tag_495\n      jumpi\n        /* \"#utility.yul\":7343:7422   */\n      tag_496\n      tag_362\n      jump\t// in\n    tag_496:\n        /* \"#utility.yul\":7305:7424   */\n    tag_495:\n        /* \"#utility.yul\":7491:7492   */\n      0x00\n        /* \"#utility.yul\":7480:7489   */\n      dup6\n        /* \"#utility.yul\":7476:7493   */\n      add\n        /* \"#utility.yul\":7463:7494   */\n      calldataload\n        /* \"#utility.yul\":7521:7539   */\n      0xffffffffffffffff\n        /* \"#utility.yul\":7513:7519   */\n      dup2\n        /* \"#utility.yul\":7510:7540   */\n      gt\n        /* \"#utility.yul\":7507:7624   */\n      iszero\n      tag_497\n      jumpi\n        /* \"#utility.yul\":7543:7622   */\n      tag_498\n      tag_363\n      jump\t// in\n    tag_498:\n        /* \"#utility.yul\":7507:7624   */\n    tag_497:\n        /* \"#utility.yul\":7656:7736   */\n      tag_499\n        /* \"#utility.yul\":7728:7735   */\n      dup8\n        /* \"#utility.yul\":7719:7725   */\n      dup3\n        /* \"#utility.yul\":7708:7717   */\n      dup9\n        /* \"#utility.yul\":7704:7726   */\n      add\n        /* \"#utility.yul\":7656:7736   */\n      tag_380\n      jump\t// in\n    tag_499:\n        /* \"#utility.yul\":7638:7736   */\n      swap5\n      pop\n      swap5\n      pop\n        /* \"#utility.yul\":7434:7746   */\n      pop\n        /* \"#utility.yul\":7813:7815   */\n      0x20\n        /* \"#utility.yul\":7802:7811   */\n      dup6\n        /* \"#utility.yul\":7798:7816   */\n      add\n        /* \"#utility.yul\":7785:7817   */\n      calldataload\n        /* \"#utility.yul\":7844:7862   */\n      0xffffffffffffffff\n        /* \"#utility.yul\":7836:7842   */\n      dup2\n        /* \"#utility.yul\":7833:7863   */\n      gt\n        /* \"#utility.yul\":7830:7947   */\n      iszero\n      tag_500\n      jumpi\n        /* \"#utility.yul\":7866:7945   */\n      tag_501\n      tag_363\n      jump\t// in\n    tag_501:\n        /* \"#utility.yul\":7830:7947   */\n    tag_500:\n        /* \"#utility.yul\":7979:8059   */\n      tag_502\n        /* \"#utility.yul\":8051:8058   */\n      dup8\n        /* \"#utility.yul\":8042:8048   */\n      dup3\n        /* \"#utility.yul\":8031:8040   */\n      dup9\n        /* \"#utility.yul\":8027:8049   */\n      add\n        /* \"#utility.yul\":7979:8059   */\n      tag_380\n      jump\t// in\n    tag_502:\n        /* \"#utility.yul\":7961:8059   */\n      swap3\n      pop\n      swap3\n      pop\n        /* \"#utility.yul\":7756:8069   */\n      pop\n        /* \"#utility.yul\":7142:8076   */\n      swap3\n      swap6\n      swap2\n      swap5\n      pop\n      swap3\n      pop\n      jump\t// out\n        /* \"#utility.yul\":8082:8556   */\n    tag_70:\n        /* \"#utility.yul\":8150:8156   */\n      0x00\n        /* \"#utility.yul\":8158:8164   */\n      0x00\n        /* \"#utility.yul\":8207:8209   */\n      0x40\n        /* \"#utility.yul\":8195:8204   */\n      dup4\n        /* \"#utility.yul\":8186:8193   */\n      dup6\n        /* \"#utility.yul\":8182:8205   */\n      sub\n        /* \"#utility.yul\":8178:8210   */\n      slt\n        /* \"#utility.yul\":8175:8294   */\n      iszero\n      tag_504\n      jumpi\n        /* \"#utility.yul\":8213:8292   */\n      tag_505\n      tag_362\n      jump\t// in\n    tag_505:\n        /* \"#utility.yul\":8175:8294   */\n    tag_504:\n        /* \"#utility.yul\":8333:8334   */\n      0x00\n        /* \"#utility.yul\":8358:8411   */\n      tag_506\n        /* \"#utility.yul\":8403:8410   */\n      dup6\n        /* \"#utility.yul\":8394:8400   */\n      dup3\n        /* \"#utility.yul\":8383:8392   */\n      dup7\n        /* \"#utility.yul\":8379:8401   */\n      add\n        /* \"#utility.yul\":8358:8411   */\n      tag_370\n      jump\t// in\n    tag_506:\n        /* \"#utility.yul\":8348:8411   */\n      swap3\n      pop\n        /* \"#utility.yul\":8304:8421   */\n      pop\n        /* \"#utility.yul\":8460:8462   */\n      0x20\n        /* \"#utility.yul\":8486:8539   */\n      tag_507\n        /* \"#utility.yul\":8531:8538   */\n      dup6\n        /* \"#utility.yul\":8522:8528   */\n      dup3\n        /* \"#utility.yul\":8511:8520   */\n      dup7\n        /* \"#utility.yul\":8507:8529   */\n      add\n        /* \"#utility.yul\":8486:8539   */\n      tag_370\n      jump\t// in\n    tag_507:\n        /* \"#utility.yul\":8476:8539   */\n      swap2\n      pop\n        /* \"#utility.yul\":8431:8549   */\n      pop\n        /* \"#utility.yul\":8082:8556   */\n      swap3\n      pop\n      swap3\n      swap1\n      pop\n      jump\t// out\n        /* \"#utility.yul\":8562:8784   */\n    tag_81:\n        /* \"#utility.yul\":8655:8659   */\n      0x00\n        /* \"#utility.yul\":8693:8695   */\n      0x20\n        /* \"#utility.yul\":8682:8691   */\n      dup3\n        /* \"#utility.yul\":8678:8696   */\n      add\n        /* \"#utility.yul\":8670:8696   */\n      swap1\n      pop\n        /* \"#utility.yul\":8706:8777   */\n      tag_509\n        /* \"#utility.yul\":8774:8775   */\n      0x00\n        /* \"#utility.yul\":8763:8772   */\n      dup4\n        /* \"#utility.yul\":8759:8776   */\n      add\n        /* \"#utility.yul\":8750:8756   */\n      dup5\n        /* \"#utility.yul\":8706:8777   */\n      tag_379\n      jump\t// in\n    tag_509:\n        /* \"#utility.yul\":8562:8784   */\n      swap3\n      swap2\n      pop\n      pop\n      jump\t// out\n        /* \"#utility.yul\":8790:8928   */\n    tag_381:\n        /* \"#utility.yul\":8881:8887   */\n      0x00\n        /* \"#utility.yul\":8915:8920   */\n      dup2\n        /* \"#utility.yul\":8909:8921   */\n      mload\n        /* \"#utility.yul\":8899:8921   */\n      swap1\n      pop\n        /* \"#utility.yul\":8790:8928   */\n      swap2\n      swap1\n      pop\n      jump\t// out\n        /* \"#utility.yul\":8934:9142   */\n    tag_382:\n        /* \"#utility.yul\":9057:9068   */\n      0x00\n        /* \"#utility.yul\":9091:9097   */\n      dup3\n        /* \"#utility.yul\":9086:9089   */\n      dup3\n        /* \"#utility.yul\":9079:9098   */\n      mstore\n        /* \"#utility.yul\":9131:9135   */\n      0x20\n        /* \"#utility.yul\":9126:9129   */\n      dup3\n        /* \"#utility.yul\":9122:9136   */\n      add\n        /* \"#utility.yul\":9107:9136   */\n      swap1\n      pop\n        /* \"#utility.yul\":8934:9142   */\n      swap3\n      swap2\n      pop\n      pop\n      jump\t// out\n        /* \"#utility.yul\":9148:9304   */\n    tag_383:\n        /* \"#utility.yul\":9239:9243   */\n      0x00\n        /* \"#utility.yul\":9262:9265   */\n      dup2\n        /* \"#utility.yul\":9254:9265   */\n      swap1\n      pop\n        /* \"#utility.yul\":9292:9296   */\n      0x20\n        /* \"#utility.yul\":9287:9290   */\n      dup3\n        /* \"#utility.yul\":9283:9297   */\n      add\n        /* \"#utility.yul\":9275:9297   */\n      swap1\n      pop\n        /* \"#utility.yul\":9148:9304   */\n      swap2\n      swap1\n      pop\n      jump\t// out\n        /* \"#utility.yul\":9310:9409   */\n    tag_384:\n        /* \"#utility.yul\":9362:9368   */\n      0x00\n        /* \"#utility.yul\":9396:9401   */\n      dup2\n        /* \"#utility.yul\":9390:9402   */\n      mload\n        /* \"#utility.yul\":9380:9402   */\n      swap1\n      pop\n        /* \"#utility.yul\":9310:9409   */\n      swap2\n      swap1\n      pop\n      jump\t// out\n        /* \"#utility.yul\":9415:9574   */\n    tag_385:\n        /* \"#utility.yul\":9489:9500   */\n      0x00\n        /* \"#utility.yul\":9523:9529   */\n      dup3\n        /* \"#utility.yul\":9518:9521   */\n      dup3\n        /* \"#utility.yul\":9511:9530   */\n      mstore\n        /* \"#utility.yul\":9563:9567   */\n      0x20\n        /* \"#utility.yul\":9558:9561   */\n      dup3\n        /* \"#utility.yul\":9554:9568   */\n      add\n        /* \"#utility.yul\":9539:9568   */\n      swap1\n      pop\n        /* \"#utility.yul\":9415:9574   */\n      swap3\n      swap2\n      pop\n      pop\n      jump\t// out\n        /* \"#utility.yul\":9580:9719   */\n    tag_386:\n        /* \"#utility.yul\":9669:9675   */\n      dup3\n        /* \"#utility.yul\":9664:9667   */\n      dup2\n        /* \"#utility.yul\":9659:9662   */\n      dup4\n        /* \"#utility.yul\":9653:9676   */\n      mcopy\n        /* \"#utility.yul\":9710:9711   */\n      0x00\n        /* \"#utility.yul\":9701:9707   */\n      dup4\n        /* \"#utility.yul\":9696:9699   */\n      dup4\n        /* \"#utility.yul\":9692:9708   */\n      add\n        /* \"#utility.yul\":9685:9712   */\n      mstore\n        /* \"#utility.yul\":9580:9719   */\n      pop\n      pop\n      pop\n      jump\t// out\n        /* \"#utility.yul\":9725:9827   */\n    tag_387:\n        /* \"#utility.yul\":9766:9772   */\n      0x00\n        /* \"#utility.yul\":9817:9819   */\n      0x1f\n        /* \"#utility.yul\":9813:9820   */\n      not\n        /* \"#utility.yul\":9808:9810   */\n      0x1f\n        /* \"#utility.yul\":9801:9806   */\n      dup4\n        /* \"#utility.yul\":9797:9811   */\n      add\n        /* \"#utility.yul\":9793:9821   */\n      and\n        /* \"#utility.yul\":9783:9821   */\n      swap1\n      pop\n        /* \"#utility.yul\":9725:9827   */\n      swap2\n      swap1\n      pop\n      jump\t// out\n        /* \"#utility.yul\":9833:10190   */\n    tag_388:\n        /* \"#utility.yul\":9911:9914   */\n      0x00\n        /* \"#utility.yul\":9939:9978   */\n      tag_518\n        /* \"#utility.yul\":9972:9977   */\n      dup3\n        /* \"#utility.yul\":9939:9978   */\n      tag_384\n      jump\t// in\n    tag_518:\n        /* \"#utility.yul\":9994:10055   */\n      tag_519\n        /* \"#utility.yul\":10048:10054   */\n      dup2\n        /* \"#utility.yul\":10043:10046   */\n      dup6\n        /* \"#utility.yul\":9994:10055   */\n      tag_385\n      jump\t// in\n    tag_519:\n        /* \"#utility.yul\":9987:10055   */\n      swap4\n      pop\n        /* \"#utility.yul\":10064:10129   */\n      tag_520\n        /* \"#utility.yul\":10122:10128   */\n      dup2\n        /* \"#utility.yul\":10117:10120   */\n      dup6\n        /* \"#utility.yul\":10110:10114   */\n      0x20\n        /* \"#utility.yul\":10103:10108   */\n      dup7\n        /* \"#utility.yul\":10099:10115   */\n      add\n        /* \"#utility.yul\":10064:10129   */\n      tag_386\n      jump\t// in\n    tag_520:\n        /* \"#utility.yul\":10154:10183   */\n      tag_521\n        /* \"#utility.yul\":10176:10182   */\n      dup2\n        /* \"#utility.yul\":10154:10183   */\n      tag_387\n      jump\t// in\n    tag_521:\n        /* \"#utility.yul\":10149:10152   */\n      dup5\n        /* \"#utility.yul\":10145:10184   */\n      add\n        /* \"#utility.yul\":10138:10184   */\n      swap2\n      pop\n        /* \"#utility.yul\":9915:10190   */\n      pop\n        /* \"#utility.yul\":9833:10190   */\n      swap3\n      swap2\n      pop\n      pop\n      jump\t// out\n        /* \"#utility.yul\":10248:11190   */\n    tag_389:\n        /* \"#utility.yul\":10355:10358   */\n      0x00\n        /* \"#utility.yul\":10391:10395   */\n      0x80\n        /* \"#utility.yul\":10386:10389   */\n      dup4\n        /* \"#utility.yul\":10382:10396   */\n      add\n        /* \"#utility.yul\":10478:10482   */\n      0x00\n        /* \"#utility.yul\":10471:10476   */\n      dup4\n        /* \"#utility.yul\":10467:10483   */\n      add\n        /* \"#utility.yul\":10461:10484   */\n      mload\n        /* \"#utility.yul\":10531:10534   */\n      dup5\n        /* \"#utility.yul\":10525:10529   */\n      dup3\n        /* \"#utility.yul\":10521:10535   */\n      sub\n        /* \"#utility.yul\":10514:10518   */\n      0x00\n        /* \"#utility.yul\":10509:10512   */\n      dup7\n        /* \"#utility.yul\":10505:10519   */\n      add\n        /* \"#utility.yul\":10498:10536   */\n      mstore\n        /* \"#utility.yul\":10557:10630   */\n      tag_523\n        /* \"#utility.yul\":10625:10629   */\n      dup3\n        /* \"#utility.yul\":10611:10623   */\n      dup3\n        /* \"#utility.yul\":10557:10630   */\n      tag_388\n      jump\t// in\n    tag_523:\n        /* \"#utility.yul\":10549:10630   */\n      swap2\n      pop\n        /* \"#utility.yul\":10406:10641   */\n      pop\n        /* \"#utility.yul\":10721:10725   */\n      0x20\n        /* \"#utility.yul\":10714:10719   */\n      dup4\n        /* \"#utility.yul\":10710:10726   */\n      add\n        /* \"#utility.yul\":10704:10727   */\n      mload\n        /* \"#utility.yul\":10740:10803   */\n      tag_524\n        /* \"#utility.yul\":10797:10801   */\n      0x20\n        /* \"#utility.yul\":10792:10795   */\n      dup7\n        /* \"#utility.yul\":10788:10802   */\n      add\n        /* \"#utility.yul\":10774:10786   */\n      dup3\n        /* \"#utility.yul\":10740:10803   */\n      tag_376\n      jump\t// in\n    tag_524:\n        /* \"#utility.yul\":10651:10813   */\n      pop\n        /* \"#utility.yul\":10896:10900   */\n      0x40\n        /* \"#utility.yul\":10889:10894   */\n      dup4\n        /* \"#utility.yul\":10885:10901   */\n      add\n        /* \"#utility.yul\":10879:10902   */\n      mload\n        /* \"#utility.yul\":10915:10978   */\n      tag_525\n        /* \"#utility.yul\":10972:10976   */\n      0x40\n        /* \"#utility.yul\":10967:10970   */\n      dup7\n        /* \"#utility.yul\":10963:10977   */\n      add\n        /* \"#utility.yul\":10949:10961   */\n      dup3\n        /* \"#utility.yul\":10915:10978   */\n      tag_376\n      jump\t// in\n    tag_525:\n        /* \"#utility.yul\":10823:10988   */\n      pop\n        /* \"#utility.yul\":11071:11075   */\n      0x60\n        /* \"#utility.yul\":11064:11069   */\n      dup4\n        /* \"#utility.yul\":11060:11076   */\n      add\n        /* \"#utility.yul\":11054:11077   */\n      mload\n        /* \"#utility.yul\":11090:11153   */\n      tag_526\n        /* \"#utility.yul\":11147:11151   */\n      0x60\n        /* \"#utility.yul\":11142:11145   */\n      dup7\n        /* \"#utility.yul\":11138:11152   */\n      add\n        /* \"#utility.yul\":11124:11136   */\n      dup3\n        /* \"#utility.yul\":11090:11153   */\n      tag_376\n      jump\t// in\n    tag_526:\n        /* \"#utility.yul\":10998:11163   */\n      pop\n        /* \"#utility.yul\":11180:11184   */\n      dup1\n        /* \"#utility.yul\":11173:11184   */\n      swap2\n      pop\n        /* \"#utility.yul\":10360:11190   */\n      pop\n        /* \"#utility.yul\":10248:11190   */\n      swap3\n      swap2\n      pop\n      pop\n      jump\t// out\n        /* \"#utility.yul\":11196:11448   */\n    tag_390:\n        /* \"#utility.yul\":11313:11323   */\n      0x00\n        /* \"#utility.yul\":11348:11442   */\n      tag_528\n        /* \"#utility.yul\":11438:11441   */\n      dup4\n        /* \"#utility.yul\":11430:11436   */\n      dup4\n        /* \"#utility.yul\":11348:11442   */\n      tag_389\n      jump\t// in\n    tag_528:\n        /* \"#utility.yul\":11334:11442   */\n      swap1\n      pop\n        /* \"#utility.yul\":11196:11448   */\n      swap3\n      swap2\n      pop\n      pop\n      jump\t// out\n        /* \"#utility.yul\":11454:11591   */\n    tag_391:\n        /* \"#utility.yul\":11548:11552   */\n      0x00\n        /* \"#utility.yul\":11580:11584   */\n      0x20\n        /* \"#utility.yul\":11575:11578   */\n      dup3\n        /* \"#utility.yul\":11571:11585   */\n      add\n        /* \"#utility.yul\":11563:11585   */\n      swap1\n      pop\n        /* \"#utility.yul\":11454:11591   */\n      swap2\n      swap1\n      pop\n      jump\t// out\n        /* \"#utility.yul\":11653:12756   */\n    tag_392:\n        /* \"#utility.yul\":11820:11823   */\n      0x00\n        /* \"#utility.yul\":11849:11927   */\n      tag_531\n        /* \"#utility.yul\":11921:11926   */\n      dup3\n        /* \"#utility.yul\":11849:11927   */\n      tag_381\n      jump\t// in\n    tag_531:\n        /* \"#utility.yul\":11943:12053   */\n      tag_532\n        /* \"#utility.yul\":12046:12052   */\n      dup2\n        /* \"#utility.yul\":12041:12044   */\n      dup6\n        /* \"#utility.yul\":11943:12053   */\n      tag_382\n      jump\t// in\n    tag_532:\n        /* \"#utility.yul\":11936:12053   */\n      swap4\n      pop\n        /* \"#utility.yul\":12079:12082   */\n      dup4\n        /* \"#utility.yul\":12124:12128   */\n      0x20\n        /* \"#utility.yul\":12116:12122   */\n      dup3\n        /* \"#utility.yul\":12112:12129   */\n      mul\n        /* \"#utility.yul\":12107:12110   */\n      dup6\n        /* \"#utility.yul\":12103:12130   */\n      add\n        /* \"#utility.yul\":12154:12234   */\n      tag_533\n        /* \"#utility.yul\":12228:12233   */\n      dup6\n        /* \"#utility.yul\":12154:12234   */\n      tag_383\n      jump\t// in\n    tag_533:\n        /* \"#utility.yul\":12257:12264   */\n      dup1\n        /* \"#utility.yul\":12288:12289   */\n      0x00\n        /* \"#utility.yul\":12273:12711   */\n    tag_534:\n        /* \"#utility.yul\":12298:12304   */\n      dup6\n        /* \"#utility.yul\":12295:12296   */\n      dup2\n        /* \"#utility.yul\":12292:12305   */\n      lt\n        /* \"#utility.yul\":12273:12711   */\n      iszero\n      tag_536\n      jumpi\n        /* \"#utility.yul\":12369:12378   */\n      dup5\n        /* \"#utility.yul\":12363:12367   */\n      dup5\n        /* \"#utility.yul\":12359:12379   */\n      sub\n        /* \"#utility.yul\":12354:12357   */\n      dup10\n        /* \"#utility.yul\":12347:12380   */\n      mstore\n        /* \"#utility.yul\":12420:12426   */\n      dup2\n        /* \"#utility.yul\":12414:12427   */\n      mload\n        /* \"#utility.yul\":12448:12560   */\n      tag_537\n        /* \"#utility.yul\":12555:12559   */\n      dup6\n        /* \"#utility.yul\":12540:12553   */\n      dup3\n        /* \"#utility.yul\":12448:12560   */\n      tag_390\n      jump\t// in\n    tag_537:\n        /* \"#utility.yul\":12440:12560   */\n      swap5\n      pop\n        /* \"#utility.yul\":12583:12667   */\n      tag_538\n        /* \"#utility.yul\":12660:12666   */\n      dup4\n        /* \"#utility.yul\":12583:12667   */\n      tag_391\n      jump\t// in\n    tag_538:\n        /* \"#utility.yul\":12573:12667   */\n      swap3\n      pop\n        /* \"#utility.yul\":12696:12700   */\n      0x20\n        /* \"#utility.yul\":12691:12694   */\n      dup11\n        /* \"#utility.yul\":12687:12701   */\n      add\n        /* \"#utility.yul\":12680:12701   */\n      swap10\n      pop\n        /* \"#utility.yul\":12333:12711   */\n      pop\n        /* \"#utility.yul\":12320:12321   */\n      0x01\n        /* \"#utility.yul\":12317:12318   */\n      dup2\n        /* \"#utility.yul\":12313:12322   */\n      add\n        /* \"#utility.yul\":12308:12322   */\n      swap1\n      pop\n        /* \"#utility.yul\":12273:12711   */\n      jump(tag_534)\n    tag_536:\n        /* \"#utility.yul\":12277:12291   */\n      pop\n        /* \"#utility.yul\":12727:12731   */\n      dup3\n        /* \"#utility.yul\":12720:12731   */\n      swap8\n      pop\n        /* \"#utility.yul\":12747:12750   */\n      dup8\n        /* \"#utility.yul\":12740:12750   */\n      swap6\n      pop\n        /* \"#utility.yul\":11825:12756   */\n      pop\n      pop\n      pop\n      pop\n      pop\n        /* \"#utility.yul\":11653:12756   */\n      swap3\n      swap2\n      pop\n      pop\n      jump\t// out\n        /* \"#utility.yul\":12762:13231   */\n    tag_98:\n        /* \"#utility.yul\":12953:12957   */\n      0x00\n        /* \"#utility.yul\":12991:12993   */\n      0x20\n        /* \"#utility.yul\":12980:12989   */\n      dup3\n        /* \"#utility.yul\":12976:12994   */\n      add\n        /* \"#utility.yul\":12968:12994   */\n      swap1\n      pop\n        /* \"#utility.yul\":13040:13049   */\n      dup2\n        /* \"#utility.yul\":13034:13038   */\n      dup2\n        /* \"#utility.yul\":13030:13050   */\n      sub\n        /* \"#utility.yul\":13026:13027   */\n      0x00\n        /* \"#utility.yul\":13015:13024   */\n      dup4\n        /* \"#utility.yul\":13011:13028   */\n      add\n        /* \"#utility.yul\":13004:13051   */\n      mstore\n        /* \"#utility.yul\":13068:13224   */\n      tag_540\n        /* \"#utility.yul\":13219:13223   */\n      dup2\n        /* \"#utility.yul\":13210:13216   */\n      dup5\n        /* \"#utility.yul\":13068:13224   */\n      tag_392\n      jump\t// in\n    tag_540:\n        /* \"#utility.yul\":13060:13224   */\n      swap1\n      pop\n        /* \"#utility.yul\":12762:13231   */\n      swap3\n      swap2\n      pop\n      pop\n      jump\t// out\n        /* \"#utility.yul\":13237:13417   */\n    tag_393:\n        /* \"#utility.yul\":13285:13362   */\n      0x4e487b7100000000000000000000000000000000000000000000000000000000\n        /* \"#utility.yul\":13282:13283   */\n      0x00\n        /* \"#utility.yul\":13275:13363   */\n      mstore\n        /* \"#utility.yul\":13382:13386   */\n      0x41\n        /* \"#utility.yul\":13379:13380   */\n      0x04\n        /* \"#utility.yul\":13372:13387   */\n      mstore\n        /* \"#utility.yul\":13406:13410   */\n      0x24\n        /* \"#utility.yul\":13403:13404   */\n      0x00\n        /* \"#utility.yul\":13396:13411   */\n      revert\n        /* \"#utility.yul\":13423:13603   */\n    tag_394:\n        /* \"#utility.yul\":13471:13548   */\n      0x4e487b7100000000000000000000000000000000000000000000000000000000\n        /* \"#utility.yul\":13468:13469   */\n      0x00\n        /* \"#utility.yul\":13461:13549   */\n      mstore\n        /* \"#utility.yul\":13568:13572   */\n      0x22\n        /* \"#utility.yul\":13565:13566   */\n      0x04\n        /* \"#utility.yul\":13558:13573   */\n      mstore\n        /* \"#utility.yul\":13592:13596   */\n      0x24\n        /* \"#utility.yul\":13589:13590   */\n      0x00\n        /* \"#utility.yul\":13582:13597   */\n      revert\n        /* \"#utility.yul\":13609:13929   */\n    tag_245:\n        /* \"#utility.yul\":13653:13659   */\n      0x00\n        /* \"#utility.yul\":13690:13691   */\n      0x02\n        /* \"#utility.yul\":13684:13688   */\n      dup3\n        /* \"#utility.yul\":13680:13692   */\n      div\n        /* \"#utility.yul\":13670:13692   */\n      swap1\n      pop\n        /* \"#utility.yul\":13737:13738   */\n      0x01\n        /* \"#utility.yul\":13731:13735   */\n      dup3\n        /* \"#utility.yul\":13727:13739   */\n      and\n        /* \"#utility.yul\":13758:13776   */\n      dup1\n        /* \"#utility.yul\":13748:13829   */\n      tag_544\n      jumpi\n        /* \"#utility.yul\":13814:13818   */\n      0x7f\n        /* \"#utility.yul\":13806:13812   */\n      dup3\n        /* \"#utility.yul\":13802:13819   */\n      and\n        /* \"#utility.yul\":13792:13819   */\n      swap2\n      pop\n        /* \"#utility.yul\":13748:13829   */\n    tag_544:\n        /* \"#utility.yul\":13876:13878   */\n      0x20\n        /* \"#utility.yul\":13868:13874   */\n      dup3\n        /* \"#utility.yul\":13865:13879   */\n      lt\n        /* \"#utility.yul\":13845:13863   */\n      dup2\n        /* \"#utility.yul\":13842:13880   */\n      sub\n        /* \"#utility.yul\":13839:13923   */\n      tag_545\n      jumpi\n        /* \"#utility.yul\":13895:13913   */\n      tag_546\n      tag_394\n      jump\t// in\n    tag_546:\n        /* \"#utility.yul\":13839:13923   */\n    tag_545:\n        /* \"#utility.yul\":13660:13929   */\n      pop\n        /* \"#utility.yul\":13609:13929   */\n      swap2\n      swap1\n      pop\n      jump\t// out\n        /* \"#utility.yul\":13935:14076   */\n    tag_395:\n        /* \"#utility.yul\":13984:13988   */\n      0x00\n        /* \"#utility.yul\":14007:14010   */\n      dup2\n        /* \"#utility.yul\":13999:14010   */\n      swap1\n      pop\n        /* \"#utility.yul\":14030:14033   */\n      dup2\n        /* \"#utility.yul\":14027:14028   */\n      0x00\n        /* \"#utility.yul\":14020:14034   */\n      mstore\n        /* \"#utility.yul\":14064:14068   */\n      0x20\n        /* \"#utility.yul\":14061:14062   */\n      0x00\n        /* \"#utility.yul\":14051:14069   */\n      keccak256\n        /* \"#utility.yul\":14043:14069   */\n      swap1\n      pop\n        /* \"#utility.yul\":13935:14076   */\n      swap2\n      swap1\n      pop\n      jump\t// out\n        /* \"#utility.yul\":14082:14175   */\n    tag_396:\n        /* \"#utility.yul\":14119:14125   */\n      0x00\n        /* \"#utility.yul\":14166:14168   */\n      0x20\n        /* \"#utility.yul\":14161:14163   */\n      0x1f\n        /* \"#utility.yul\":14154:14159   */\n      dup4\n        /* \"#utility.yul\":14150:14164   */\n      add\n        /* \"#utility.yul\":14146:14169   */\n      div\n        /* \"#utility.yul\":14136:14169   */\n      swap1\n      pop\n        /* \"#utility.yul\":14082:14175   */\n      swap2\n      swap1\n      pop\n      jump\t// out\n        /* \"#utility.yul\":14181:14288   */\n    tag_397:\n        /* \"#utility.yul\":14225:14233   */\n      0x00\n        /* \"#utility.yul\":14275:14280   */\n      dup3\n        /* \"#utility.yul\":14269:14273   */\n      dup3\n        /* \"#utility.yul\":14265:14281   */\n      shl\n        /* \"#utility.yul\":14244:14281   */\n      swap1\n      pop\n        /* \"#utility.yul\":14181:14288   */\n      swap3\n      swap2\n      pop\n      pop\n      jump\t// out\n        /* \"#utility.yul\":14294:14687   */\n    tag_398:\n        /* \"#utility.yul\":14363:14369   */\n      0x00\n        /* \"#utility.yul\":14413:14414   */\n      0x08\n        /* \"#utility.yul\":14401:14411   */\n      dup4\n        /* \"#utility.yul\":14397:14415   */\n      mul\n        /* \"#utility.yul\":14436:14533   */\n      tag_551\n        /* \"#utility.yul\":14466:14532   */\n      0xffffffffffffffffffffffffffffffffffffffffffffffffffffffffffffffff\n        /* \"#utility.yul\":14455:14464   */\n      dup3\n        /* \"#utility.yul\":14436:14533   */\n      tag_397\n      jump\t// in\n    tag_551:\n        /* \"#utility.yul\":14554:14593   */\n      tag_552\n        /* \"#utility.yul\":14584:14592   */\n      dup7\n        /* \"#utility.yul\":14573:14582   */\n      dup4\n        /* \"#utility.yul\":14554:14593   */\n      tag_397\n      jump\t// in\n    tag_552:\n        /* \"#utility.yul\":14542:14593   */\n      swap6\n      pop\n        /* \"#utility.yul\":14626:14630   */\n      dup1\n        /* \"#utility.yul\":14622:14631   */\n      not\n        /* \"#utility.yul\":14615:14620   */\n      dup5\n        /* \"#utility.yul\":14611:14632   */\n      and\n        /* \"#utility.yul\":14602:14632   */\n      swap4\n      pop\n        /* \"#utility.yul\":14675:14679   */\n      dup1\n        /* \"#utility.yul\":14665:14673   */\n      dup7\n        /* \"#utility.yul\":14661:14680   */\n      and\n        /* \"#utility.yul\":14654:14659   */\n      dup5\n        /* \"#utility.yul\":14651:14681   */\n      or\n        /* \"#utility.yul\":14641:14681   */\n      swap3\n      pop\n        /* \"#utility.yul\":14370:14687   */\n      pop\n      pop\n        /* \"#utility.yul\":14294:14687   */\n      swap4\n      swap3\n      pop\n      pop\n      pop\n      jump\t// out\n        /* \"#utility.yul\":14693:14753   */\n    tag_399:\n        /* \"#utility.yul\":14721:14724   */\n      0x00\n        /* \"#utility.yul\":14742:14747   */\n      dup2\n        /* \"#utility.yul\":14735:14747   */\n      swap1\n      pop\n        /* \"#utility.yul\":14693:14753   */\n      swap2\n      swap1\n      pop\n      jump\t// out\n        /* \"#utility.yul\":14759:14901   */\n    tag_400:\n        /* \"#utility.yul\":14809:14818   */\n      0x00\n        /* \"#utility.yul\":14842:14895   */\n      tag_555\n        /* \"#utility.yul\":14860:14894   */\n      tag_556\n        /* \"#utility.yul\":14869:14893   */\n      tag_557\n        /* \"#utility.yul\":14887:14892   */\n      dup5\n        /* \"#utility.yul\":14869:14893   */\n      tag_368\n      jump\t// in\n    tag_557:\n        /* \"#utility.yul\":14860:14894   */\n      tag_399\n      jump\t// in\n    tag_556:\n        /* \"#utility.yul\":14842:14895   */\n      tag_368\n      jump\t// in\n    tag_555:\n        /* \"#utility.yul\":14829:14895   */\n      swap1\n      pop\n        /* \"#utility.yul\":14759:14901   */\n      swap2\n      swap1\n      pop\n      jump\t// out\n        /* \"#utility.yul\":14907:14982   */\n    tag_401:\n        /* \"#utility.yul\":14950:14953   */\n      0x00\n        /* \"#utility.yul\":14971:14976   */\n      dup2\n        /* \"#utility.yul\":14964:14976   */\n      swap1\n      pop\n        /* \"#utility.yul\":14907:14982   */\n      swap2\n      swap1\n      pop\n      jump\t// out\n        /* \"#utility.yul\":14988:15257   */\n    tag_402:\n        /* \"#utility.yul\":15098:15137   */\n      tag_560\n        /* \"#utility.yul\":15129:15136   */\n      dup4\n        /* \"#utility.yul\":15098:15137   */\n      tag_400\n      jump\t// in\n    tag_560:\n        /* \"#utility.yul\":15159:15250   */\n      tag_561\n        /* \"#utility.yul\":15208:15249   */\n      tag_562\n        /* \"#utility.yul\":15232:15248   */\n      dup3\n        /* \"#utility.yul\":15208:15249   */\n      tag_401\n      jump\t// in\n    tag_562:\n        /* \"#utility.yul\":15200:15206   */\n      dup5\n        /* \"#utility.yul\":15193:15197   */\n      dup5\n        /* \"#utility.yul\":15187:15198   */\n      sload\n        /* \"#utility.yul\":15159:15250   */\n      tag_398\n      jump\t// in\n    tag_561:\n        /* \"#utility.yul\":15153:15157   */\n      dup3\n        /* \"#utility.yul\":15146:15251   */\n      sstore\n        /* \"#utility.yul\":15064:15257   */\n      pop\n        /* \"#utility.yul\":14988:15257   */\n      pop\n      pop\n      pop\n      jump\t// out\n        /* \"#utility.yul\":15263:15336   */\n    tag_403:\n        /* \"#utility.yul\":15308:15311   */\n      0x00\n        /* \"#utility.yul\":15329:15330   */\n      0x00\n        /* \"#utility.yul\":15322:15330   */\n      swap1\n      pop\n        /* \"#utility.yul\":15263:15336   */\n      swap1\n      jump\t// out\n        /* \"#utility.yul\":15342:15531   */\n    tag_404:\n        /* \"#utility.yul\":15419:15451   */\n      tag_565\n      tag_403\n      jump\t// in\n    tag_565:\n        /* \"#utility.yul\":15460:15525   */\n      tag_566\n        /* \"#utility.yul\":15518:15524   */\n      dup2\n        /* \"#utility.yul\":15510:15516   */\n      dup5\n        /* \"#utility.yul\":15504:15508   */\n      dup5\n        /* \"#utility.yul\":15460:15525   */\n      tag_402\n      jump\t// in\n    tag_566:\n        /* \"#utility.yul\":15395:15531   */\n      pop\n        /* \"#utility.yul\":15342:15531   */\n      pop\n      pop\n      jump\t// out\n        /* \"#utility.yul\":15537:15723   */\n    tag_405:\n        /* \"#utility.yul\":15597:15717   */\n    tag_568:\n        /* \"#utility.yul\":15614:15617   */\n      dup2\n        /* \"#utility.yul\":15607:15612   */\n      dup2\n        /* \"#utility.yul\":15604:15618   */\n      lt\n        /* \"#utility.yul\":15597:15717   */\n      iszero\n      tag_570\n      jumpi\n        /* \"#utility.yul\":15668:15707   */\n      tag_571\n        /* \"#utility.yul\":15705:15706   */\n      0x00\n        /* \"#utility.yul\":15698:15703   */\n      dup3\n        /* \"#utility.yul\":15668:15707   */\n      tag_404\n      jump\t// in\n    tag_571:\n        /* \"#utility.yul\":15641:15642   */\n      0x01\n        /* \"#utility.yul\":15634:15639   */\n      dup2\n        /* \"#utility.yul\":15630:15643   */\n      add\n        /* \"#utility.yul\":15621:15643   */\n      swap1\n      pop\n        /* \"#utility.yul\":15597:15717   */\n      jump(tag_568)\n    tag_570:\n        /* \"#utility.yul\":15537:15723   */\n      pop\n      pop\n      jump\t// out\n        /* \"#utility.yul\":15729:16272   */\n    tag_406:\n        /* \"#utility.yul\":15830:15832   */\n      0x1f\n        /* \"#utility.yul\":15825:15828   */\n      dup3\n        /* \"#utility.yul\":15822:15833   */\n      gt\n        /* \"#utility.yul\":15819:16265   */\n      iszero\n      tag_573\n      jumpi\n        /* \"#utility.yul\":15864:15902   */\n      tag_574\n        /* \"#utility.yul\":15896:15901   */\n      dup2\n        /* \"#utility.yul\":15864:15902   */\n      tag_395\n      jump\t// in\n    tag_574:\n        /* \"#utility.yul\":15948:15977   */\n      tag_575\n        /* \"#utility.yul\":15966:15976   */\n      dup5\n        /* \"#utility.yul\":15948:15977   */\n      tag_396\n      jump\t// in\n    tag_575:\n        /* \"#utility.yul\":15938:15946   */\n      dup2\n        /* \"#utility.yul\":15934:15978   */\n      add\n        /* \"#utility.yul\":16131:16133   */\n      0x20\n        /* \"#utility.yul\":16119:16129   */\n      dup6\n        /* \"#utility.yul\":16116:16134   */\n      lt\n        /* \"#utility.yul\":16113:16162   */\n      iszero\n      tag_576\n      jumpi\n        /* \"#utility.yul\":16152:16160   */\n      dup2\n        /* \"#utility.yul\":16137:16160   */\n      swap1\n      pop\n        /* \"#utility.yul\":16113:16162   */\n    tag_576:\n        /* \"#utility.yul\":16175:16255   */\n      tag_577\n        /* \"#utility.yul\":16231:16253   */\n      tag_578\n        /* \"#utility.yul\":16249:16252   */\n      dup6\n        /* \"#utility.yul\":16231:16253   */\n      tag_396\n      jump\t// in\n    tag_578:\n        /* \"#utility.yul\":16221:16229   */\n      dup4\n        /* \"#utility.yul\":16217:16254   */\n      add\n        /* \"#utility.yul\":16204:16215   */\n      dup3\n        /* \"#utility.yul\":16175:16255   */\n      tag_405\n      jump\t// in\n    tag_577:\n        /* \"#utility.yul\":15834:16265   */\n      pop\n      pop\n        /* \"#utility.yul\":15819:16265   */\n    tag_573:\n        /* \"#utility.yul\":15729:16272   */\n      pop\n      pop\n      pop\n      jump\t// out\n        /* \"#utility.yul\":16278:16395   */\n    tag_407:\n        /* \"#utility.yul\":16332:16340   */\n      0x00\n        /* \"#utility.yul\":16382:16387   */\n      dup3\n        /* \"#utility.yul\":16376:16380   */\n      dup3\n        /* \"#utility.yul\":16372:16388   */\n      shr\n        /* \"#utility.yul\":16351:16388   */\n      swap1\n      pop\n        /* \"#utility.yul\":16278:16395   */\n      swap3\n      swap2\n      pop\n      pop\n      jump\t// out\n        /* \"#utility.yul\":16401:16570   */\n    tag_408:\n        /* \"#utility.yul\":16445:16451   */\n      0x00\n        /* \"#utility.yul\":16478:16529   */\n      tag_581\n        /* \"#utility.yul\":16526:16527   */\n      0x00\n        /* \"#utility.yul\":16522:16528   */\n      not\n        /* \"#utility.yul\":16514:16519   */\n      dup5\n        /* \"#utility.yul\":16511:16512   */\n      0x08\n        /* \"#utility.yul\":16507:16520   */\n      mul\n        /* \"#utility.yul\":16478:16529   */\n      tag_407\n      jump\t// in\n    tag_581:\n        /* \"#utility.yul\":16474:16530   */\n      not\n        /* \"#utility.yul\":16559:16563   */\n      dup1\n        /* \"#utility.yul\":16553:16557   */\n      dup4\n        /* \"#utility.yul\":16549:16564   */\n      and\n        /* \"#utility.yul\":16539:16564   */\n      swap2\n      pop\n        /* \"#utility.yul\":16452:16570   */\n      pop\n        /* \"#utility.yul\":16401:16570   */\n      swap3\n      swap2\n      pop\n      pop\n      jump\t// out\n        /* \"#utility.yul\":16575:16870   */\n    tag_409:\n        /* \"#utility.yul\":16651:16655   */\n      0x00\n        /* \"#utility.yul\":16797:16826   */\n      tag_583\n        /* \"#utility.yul\":16822:16825   */\n      dup4\n        /* \"#utility.yul\":16816:16820   */\n      dup4\n        /* \"#utility.yul\":16797:16826   */\n      tag_408\n      jump\t// in\n    tag_583:\n        /* \"#utility.yul\":16789:16826   */\n      swap2\n      pop\n        /* \"#utility.yul\":16859:16862   */\n      dup3\n        /* \"#utility.yul\":16856:16857   */\n      0x02\n        /* \"#utility.yul\":16852:16863   */\n      mul\n        /* \"#utility.yul\":16846:16850   */\n      dup3\n        /* \"#utility.yul\":16843:16864   */\n      or\n        /* \"#utility.yul\":16835:16864   */\n      swap1\n      pop\n        /* \"#utility.yul\":16575:16870   */\n      swap3\n      swap2\n      pop\n      pop\n      jump\t// out\n        /* \"#utility.yul\":16875:18270   */\n    tag_132:\n        /* \"#utility.yul\":16992:17029   */\n      tag_585\n        /* \"#utility.yul\":17025:17028   */\n      dup3\n        /* \"#utility.yul\":16992:17029   */\n      tag_384\n      jump\t// in\n    tag_585:\n        /* \"#utility.yul\":17094:17112   */\n      0xffffffffffffffff\n        /* \"#utility.yul\":17086:17092   */\n      dup2\n        /* \"#utility.yul\":17083:17113   */\n      gt\n        /* \"#utility.yul\":17080:17136   */\n      iszero\n      tag_586\n      jumpi\n        /* \"#utility.yul\":17116:17134   */\n      tag_587\n      tag_393\n      jump\t// in\n    tag_587:\n        /* \"#utility.yul\":17080:17136   */\n    tag_586:\n        /* \"#utility.yul\":17160:17198   */\n      tag_588\n        /* \"#utility.yul\":17192:17196   */\n      dup3\n        /* \"#utility.yul\":17186:17197   */\n      sload\n        /* \"#utility.yul\":17160:17198   */\n      tag_245\n      jump\t// in\n    tag_588:\n        /* \"#utility.yul\":17245:17312   */\n      tag_589\n        /* \"#utility.yul\":17305:17311   */\n      dup3\n        /* \"#utility.yul\":17297:17303   */\n      dup3\n        /* \"#utility.yul\":17291:17295   */\n      dup6\n        /* \"#utility.yul\":17245:17312   */\n      tag_406\n      jump\t// in\n    tag_589:\n        /* \"#utility.yul\":17339:17340   */\n      0x00\n        /* \"#utility.yul\":17363:17367   */\n      0x20\n        /* \"#utility.yul\":17350:17367   */\n      swap1\n      pop\n        /* \"#utility.yul\":17395:17397   */\n      0x1f\n        /* \"#utility.yul\":17387:17393   */\n      dup4\n        /* \"#utility.yul\":17384:17398   */\n      gt\n        /* \"#utility.yul\":17412:17413   */\n      0x01\n        /* \"#utility.yul\":17407:18025   */\n      dup2\n      eq\n      tag_591\n      jumpi\n        /* \"#utility.yul\":18069:18070   */\n      0x00\n        /* \"#utility.yul\":18086:18092   */\n      dup5\n        /* \"#utility.yul\":18083:18160   */\n      iszero\n      tag_592\n      jumpi\n        /* \"#utility.yul\":18135:18144   */\n      dup3\n        /* \"#utility.yul\":18130:18133   */\n      dup8\n        /* \"#utility.yul\":18126:18145   */\n      add\n        /* \"#utility.yul\":18120:18146   */\n      mload\n        /* \"#utility.yul\":18111:18146   */\n      swap1\n      pop\n        /* \"#utility.yul\":18083:18160   */\n    tag_592:\n        /* \"#utility.yul\":18186:18253   */\n      tag_593\n        /* \"#utility.yul\":18246:18252   */\n      dup6\n        /* \"#utility.yul\":18239:18244   */\n      dup3\n        /* \"#utility.yul\":18186:18253   */\n      tag_409\n      jump\t// in\n    tag_593:\n        /* \"#utility.yul\":18180:18184   */\n      dup7\n        /* \"#utility.yul\":18173:18254   */\n      sstore\n        /* \"#utility.yul\":18042:18264   */\n      pop\n        /* \"#utility.yul\":17377:18264   */\n      jump(tag_590)\n        /* \"#utility.yul\":17407:18025   */\n    tag_591:\n        /* \"#utility.yul\":17459:17463   */\n      0x1f\n        /* \"#utility.yul\":17455:17464   */\n      not\n        /* \"#utility.yul\":17447:17453   */\n      dup5\n        /* \"#utility.yul\":17443:17465   */\n      and\n        /* \"#utility.yul\":17493:17530   */\n      tag_594\n        /* \"#utility.yul\":17525:17529   */\n      dup7\n        /* \"#utility.yul\":17493:17530   */\n      tag_395\n      jump\t// in\n    tag_594:\n        /* \"#utility.yul\":17552:17553   */\n      0x00\n        /* \"#utility.yul\":17566:17774   */\n    tag_595:\n        /* \"#utility.yul\":17580:17587   */\n      dup3\n        /* \"#utility.yul\":17577:17578   */\n      dup2\n        /* \"#utility.yul\":17574:17588   */\n      lt\n        /* \"#utility.yul\":17566:17774   */\n      iszero\n      tag_597\n      jumpi\n        /* \"#utility.yul\":17659:17668   */\n      dup5\n        /* \"#utility.yul\":17654:17657   */\n      dup10\n        /* \"#utility.yul\":17650:17669   */\n      add\n        /* \"#utility.yul\":17644:17670   */\n      mload\n        /* \"#utility.yul\":17636:17642   */\n      dup3\n        /* \"#utility.yul\":17629:17671   */\n      sstore\n        /* \"#utility.yul\":17710:17711   */\n      0x01\n        /* \"#utility.yul\":17702:17708   */\n      dup3\n        /* \"#utility.yul\":17698:17712   */\n      add\n        /* \"#utility.yul\":17688:17712   */\n      swap2\n      pop\n        /* \"#utility.yul\":17757:17759   */\n      0x20\n        /* \"#utility.yul\":17746:17755   */\n      dup6\n        /* \"#utility.yul\":17742:17760   */\n      add\n        /* \"#utility.yul\":17729:17760   */\n      swap5\n      pop\n        /* \"#utility.yul\":17603:17607   */\n      0x20\n        /* \"#utility.yul\":17600:17601   */\n      dup2\n        /* \"#utility.yul\":17596:17608   */\n      add\n        /* \"#utility.yul\":17591:17608   */\n      swap1\n      pop\n        /* \"#utility.yul\":17566:17774   */\n      jump(tag_595)\n    tag_597:\n        /* \"#utility.yul\":17802:17808   */\n      dup7\n        /* \"#utility.yul\":17793:17800   */\n      dup4\n        /* \"#utility.yul\":17790:17809   */\n      lt\n        /* \"#utility.yul\":17787:17966   */\n      iszero\n      tag_598\n      jumpi\n        /* \"#utility.yul\":17860:17869   */\n      dup5\n        /* \"#utility.yul\":17855:17858   */\n      dup10\n        /* \"#utility.yul\":17851:17870   */\n      add\n        /* \"#utility.yul\":17845:17871   */\n      mload\n        /* \"#utility.yul\":17903:17951   */\n      tag_599\n        /* \"#utility.yul\":17945:17949   */\n      0x1f\n        /* \"#utility.yul\":17937:17943   */\n      dup10\n        /* \"#utility.yul\":17933:17950   */\n      and\n        /* \"#utility.yul\":17922:17931   */\n      dup3\n        /* \"#utility.yul\":17903:17951   */\n      tag_408\n      jump\t// in\n    tag_599:\n        /* \"#utility.yul\":17895:17901   */\n      dup4\n        /* \"#utility.yul\":17888:17952   */\n      sstore\n        /* \"#utility.yul\":17810:17966   */\n      pop\n        /* \"#utility.yul\":17787:17966   */\n    tag_598:\n        /* \"#utility.yul\":18012:18013   */\n      0x01\n        /* \"#utility.yul\":18008:18009   */\n      0x02\n        /* \"#utility.yul\":18000:18006   */\n      dup9\n        /* \"#utility.yul\":17996:18010   */\n      mul\n        /* \"#utility.yul\":17992:18014   */\n      add\n        /* \"#utility.yul\":17986:17990   */\n      dup9\n        /* \"#utility.yul\":17979:18015   */\n      sstore\n        /* \"#utility.yul\":17414:18025   */\n      pop\n      pop\n      pop\n        /* \"#utility.yul\":17377:18264   */\n    tag_590:\n      pop\n        /* \"#utility.yul\":16967:18270   */\n      pop\n      pop\n      pop\n        /* \"#utility.yul\":16875:18270   */\n      pop\n      pop\n      jump\t// out\n        /* \"#utility.yul\":18276:18456   */\n    tag_141:\n        /* \"#utility.yul\":18324:18401   */\n      0x4e487b7100000000000000000000000000000000000000000000000000000000\n        /* \"#utility.yul\":18321:18322   */\n      0x00\n        /* \"#utility.yul\":18314:18402   */\n      mstore\n        /* \"#utility.yul\":18421:18425   */\n      0x32\n        /* \"#utility.yul\":18418:18419   */\n      0x04\n        /* \"#utility.yul\":18411:18426   */\n      mstore\n        /* \"#utility.yul\":18445:18449   */\n      0x24\n        /* \"#utility.yul\":18442:18443   */\n      0x00\n        /* \"#utility.yul\":18435:18450   */\n      revert\n        /* \"#utility.yul\":18462:18642   */\n    tag_410:\n        /* \"#utility.yul\":18510:18587   */\n      0x4e487b7100000000000000000000000000000000000000000000000000000000\n        /* \"#utility.yul\":18507:18508   */\n      0x00\n        /* \"#utility.yul\":18500:18588   */\n      mstore\n        /* \"#utility.yul\":18607:18611   */\n      0x11\n        /* \"#utility.yul\":18604:18605   */\n      0x04\n        /* \"#utility.yul\":18597:18612   */\n      mstore\n        /* \"#utility.yul\":18631:18635   */\n      0x24\n        /* \"#utility.yul\":18628:18629   */\n      0x00\n        /* \"#utility.yul\":18621:18636   */\n      revert\n        /* \"#utility.yul\":18648:18842   */\n    tag_149:\n        /* \"#utility.yul\":18688:18692   */\n      0x00\n        /* \"#utility.yul\":18708:18728   */\n      tag_603\n        /* \"#utility.yul\":18726:18727   */\n      dup3\n        /* \"#utility.yul\":18708:18728   */\n      tag_368\n      jump\t// in\n    tag_603:\n        /* \"#utility.yul\":18703:18728   */\n      swap2\n      pop\n        /* \"#utility.yul\":18742:18762   */\n      tag_604\n        /* \"#utility.yul\":18760:18761   */\n      dup4\n        /* \"#utility.yul\":18742:18762   */\n      tag_368\n      jump\t// in\n    tag_604:\n        /* \"#utility.yul\":18737:18762   */\n      swap3\n      pop\n        /* \"#utility.yul\":18786:18787   */\n      dup3\n        /* \"#utility.yul\":18783:18784   */\n      dup3\n        /* \"#utility.yul\":18779:18788   */\n      sub\n        /* \"#utility.yul\":18771:18788   */\n      swap1\n      pop\n        /* \"#utility.yul\":18810:18811   */\n      dup2\n        /* \"#utility.yul\":18804:18808   */\n      dup2\n        /* \"#utility.yul\":18801:18812   */\n      gt\n        /* \"#utility.yul\":18798:18835   */\n      iszero\n      tag_605\n      jumpi\n        /* \"#utility.yul\":18815:18833   */\n      tag_606\n      tag_410\n      jump\t// in\n    tag_606:\n        /* \"#utility.yul\":18798:18835   */\n    tag_605:\n        /* \"#utility.yul\":18648:18842   */\n      swap3\n      swap2\n      pop\n      pop\n      jump\t// out\n        /* \"#utility.yul\":18848:19017   */\n    tag_411:\n        /* \"#utility.yul\":18932:18943   */\n      0x00\n        /* \"#utility.yul\":18966:18972   */\n      dup3\n        /* \"#utility.yul\":18961:18964   */\n      dup3\n        /* \"#utility.yul\":18954:18973   */\n      mstore\n        /* \"#utility.yul\":19006:19010   */\n      0x20\n        /* \"#utility.yul\":19001:19004   */\n      dup3\n        /* \"#utility.yul\":18997:19011   */\n      add\n        /* \"#utility.yul\":18982:19011   */\n      swap1\n      pop\n        /* \"#utility.yul\":18848:19017   */\n      swap3\n      swap2\n      pop\n      pop\n      jump\t// out\n        /* \"#utility.yul\":19023:19190   */\n    tag_412:\n        /* \"#utility.yul\":19163:19182   */\n      0x4e6f7420656e6f75676874206d6f6e6579000000000000000000000000000000\n        /* \"#utility.yul\":19159:19160   */\n      0x00\n        /* \"#utility.yul\":19151:19157   */\n      dup3\n        /* \"#utility.yul\":19147:19161   */\n      add\n        /* \"#utility.yul\":19140:19183   */\n      mstore\n        /* \"#utility.yul\":19023:19190   */\n      pop\n      jump\t// out\n        /* \"#utility.yul\":19196:19562   */\n    tag_413:\n        /* \"#utility.yul\":19338:19341   */\n      0x00\n        /* \"#utility.yul\":19359:19426   */\n      tag_610\n        /* \"#utility.yul\":19423:19425   */\n      0x11\n        /* \"#utility.yul\":19418:19421   */\n      dup4\n        /* \"#utility.yul\":19359:19426   */\n      tag_411\n      jump\t// in\n    tag_610:\n        /* \"#utility.yul\":19352:19426   */\n      swap2\n      pop\n        /* \"#utility.yul\":19435:19528   */\n      tag_611\n        /* \"#utility.yul\":19524:19527   */\n      dup3\n        /* \"#utility.yul\":19435:19528   */\n      tag_412\n      jump\t// in\n    tag_611:\n        /* \"#utility.yul\":19553:19555   */\n      0x20\n        /* \"#utility.yul\":19548:19551   */\n      dup3\n        /* \"#utility.yul\":19544:19556   */\n      add\n        /* \"#utility.yul\":19537:19556   */\n      swap1\n      pop\n        /* \"#utility.yul\":19196:19562   */\n      swap2\n      swap1\n      pop\n      jump\t// out\n        /* \"#utility.yul\":19568:19987   */\n    tag_161:\n        /* \"#utility.yul\":19734:19738   */\n      0x00\n        /* \"#utility.yul\":19772:19774   */\n      0x20\n        /* \"#utility.yul\":19761:19770   */\n      dup3\n        /* \"#utility.yul\":19757:19775   */\n      add\n        /* \"#utility.yul\":19749:19775   */\n      swap1\n      pop\n        /* \"#utility.yul\":19821:19830   */\n      dup2\n        /* \"#utility.yul\":19815:19819   */\n      dup2\n        /* \"#utility.yul\":19811:19831   */\n      sub\n        /* \"#utility.yul\":19807:19808   */\n      0x00\n        /* \"#utility.yul\":19796:19805   */\n      dup4\n        /* \"#utility.yul\":19792:19809   */\n      add\n        /* \"#utility.yul\":19785:19832   */\n      mstore\n        /* \"#utility.yul\":19849:19980   */\n      tag_613\n        /* \"#utility.yul\":19975:19979   */\n      dup2\n        /* \"#utility.yul\":19849:19980   */\n      tag_413\n      jump\t// in\n    tag_613:\n        /* \"#utility.yul\":19841:19980   */\n      swap1\n      pop\n        /* \"#utility.yul\":19568:19987   */\n      swap2\n      swap1\n      pop\n      jump\t// out\n        /* \"#utility.yul\":19993:20166   */\n    tag_414:\n        /* \"#utility.yul\":20133:20158   */\n      0x617272617973206c656e67687473206d69736d61746368000000000000000000\n        /* \"#utility.yul\":20129:20130   */\n      0x00\n        /* \"#utility.yul\":20121:20127   */\n      dup3\n        /* \"#utility.yul\":20117:20131   */\n      add\n        /* \"#utility.yul\":20110:20159   */\n      mstore\n        /* \"#utility.yul\":19993:20166   */\n      pop\n      jump\t// out\n        /* \"#utility.yul\":20172:20538   */\n    tag_415:\n        /* \"#utility.yul\":20314:20317   */\n      0x00\n        /* \"#utility.yul\":20335:20402   */\n      tag_616\n        /* \"#utility.yul\":20399:20401   */\n      0x17\n        /* \"#utility.yul\":20394:20397   */\n      dup4\n        /* \"#utility.yul\":20335:20402   */\n      tag_411\n      jump\t// in\n    tag_616:\n        /* \"#utility.yul\":20328:20402   */\n      swap2\n      pop\n        /* \"#utility.yul\":20411:20504   */\n      tag_617\n        /* \"#utility.yul\":20500:20503   */\n      dup3\n        /* \"#utility.yul\":20411:20504   */\n      tag_414\n      jump\t// in\n    tag_617:\n        /* \"#utility.yul\":20529:20531   */\n      0x20\n        /* \"#utility.yul\":20524:20527   */\n      dup3\n        /* \"#utility.yul\":20520:20532   */\n      add\n        /* \"#utility.yul\":20513:20532   */\n      swap1\n      pop\n        /* \"#utility.yul\":20172:20538   */\n      swap2\n      swap1\n      pop\n      jump\t// out\n        /* \"#utility.yul\":20544:20963   */\n    tag_177:\n        /* \"#utility.yul\":20710:20714   */\n      0x00\n        /* \"#utility.yul\":20748:20750   */\n      0x20\n        /* \"#utility.yul\":20737:20746   */\n      dup3\n        /* \"#utility.yul\":20733:20751   */\n      add\n        /* \"#utility.yul\":20725:20751   */\n      swap1\n      pop\n        /* \"#utility.yul\":20797:20806   */\n      dup2\n        /* \"#utility.yul\":20791:20795   */\n      dup2\n        /* \"#utility.yul\":20787:20807   */\n      sub\n        /* \"#utility.yul\":20783:20784   */\n      0x00\n        /* \"#utility.yul\":20772:20781   */\n      dup4\n        /* \"#utility.yul\":20768:20785   */\n      add\n        /* \"#utility.yul\":20761:20808   */\n      mstore\n        /* \"#utility.yul\":20825:20956   */\n      tag_619\n        /* \"#utility.yul\":20951:20955   */\n      dup2\n        /* \"#utility.yul\":20825:20956   */\n      tag_415\n      jump\t// in\n    tag_619:\n        /* \"#utility.yul\":20817:20956   */\n      swap1\n      pop\n        /* \"#utility.yul\":20544:20963   */\n      swap2\n      swap1\n      pop\n      jump\t// out\n        /* \"#utility.yul\":20969:21379   */\n    tag_190:\n        /* \"#utility.yul\":21009:21016   */\n      0x00\n        /* \"#utility.yul\":21032:21052   */\n      tag_621\n        /* \"#utility.yul\":21050:21051   */\n      dup3\n        /* \"#utility.yul\":21032:21052   */\n      tag_368\n      jump\t// in\n    tag_621:\n        /* \"#utility.yul\":21027:21052   */\n      swap2\n      pop\n        /* \"#utility.yul\":21066:21086   */\n      tag_622\n        /* \"#utility.yul\":21084:21085   */\n      dup4\n        /* \"#utility.yul\":21066:21086   */\n      tag_368\n      jump\t// in\n    tag_622:\n        /* \"#utility.yul\":21061:21086   */\n      swap3\n      pop\n        /* \"#utility.yul\":21121:21122   */\n      dup3\n        /* \"#utility.yul\":21118:21119   */\n      dup3\n        /* \"#utility.yul\":21114:21123   */\n      mul\n        /* \"#utility.yul\":21143:21173   */\n      tag_623\n        /* \"#utility.yul\":21161:21172   */\n      dup2\n        /* \"#utility.yul\":21143:21173   */\n      tag_368\n      jump\t// in\n    tag_623:\n        /* \"#utility.yul\":21132:21173   */\n      swap2\n      pop\n        /* \"#utility.yul\":21322:21323   */\n      dup3\n        /* \"#utility.yul\":21313:21320   */\n      dup3\n        /* \"#utility.yul\":21309:21324   */\n      div\n        /* \"#utility.yul\":21306:21307   */\n      dup5\n        /* \"#utility.yul\":21303:21325   */\n      eq\n        /* \"#utility.yul\":21283:21284   */\n      dup4\n        /* \"#utility.yul\":21276:21285   */\n      iszero\n        /* \"#utility.yul\":21256:21339   */\n      or\n        /* \"#utility.yul\":21233:21372   */\n      tag_624\n      jumpi\n        /* \"#utility.yul\":21352:21370   */\n      tag_625\n      tag_410\n      jump\t// in\n    tag_625:\n        /* \"#utility.yul\":21233:21372   */\n    tag_624:\n        /* \"#utility.yul\":21017:21379   */\n      pop\n        /* \"#utility.yul\":20969:21379   */\n      swap3\n      swap2\n      pop\n      pop\n      jump\t// out\n        /* \"#utility.yul\":21385:21576   */\n    tag_192:\n        /* \"#utility.yul\":21425:21428   */\n      0x00\n        /* \"#utility.yul\":21444:21464   */\n      tag_627\n        /* \"#utility.yul\":21462:21463   */\n      dup3\n        /* \"#utility.yul\":21444:21464   */\n      tag_368\n      jump\t// in\n    tag_627:\n        /* \"#utility.yul\":21439:21464   */\n      swap2\n      pop\n        /* \"#utility.yul\":21478:21498   */\n      tag_628\n        /* \"#utility.yul\":21496:21497   */\n      dup4\n        /* \"#utility.yul\":21478:21498   */\n      tag_368\n      jump\t// in\n    tag_628:\n        /* \"#utility.yul\":21473:21498   */\n      swap3\n      pop\n        /* \"#utility.yul\":21521:21522   */\n      dup3\n        /* \"#utility.yul\":21518:21519   */\n      dup3\n        /* \"#utility.yul\":21514:21523   */\n      add\n        /* \"#utility.yul\":21507:21523   */\n      swap1\n      pop\n        /* \"#utility.yul\":21542:21545   */\n      dup1\n        /* \"#utility.yul\":21539:21540   */\n      dup3\n        /* \"#utility.yul\":21536:21546   */\n      gt\n        /* \"#utility.yul\":21533:21569   */\n      iszero\n      tag_629\n      jumpi\n        /* \"#utility.yul\":21549:21567   */\n      tag_630\n      tag_410\n      jump\t// in\n    tag_630:\n        /* \"#utility.yul\":21533:21569   */\n    tag_629:\n        /* \"#utility.yul\":21385:21576   */\n      swap3\n      swap2\n      pop\n      pop\n      jump\t// out\n        /* \"#utility.yul\":21582:21731   */\n    tag_416:\n        /* \"#utility.yul\":21631:21637   */\n      0x00\n        /* \"#utility.yul\":21665:21670   */\n      dup2\n        /* \"#utility.yul\":21659:21671   */\n      sload\n        /* \"#utility.yul\":21649:21671   */\n      swap1\n      pop\n        /* \"#utility.yul\":21691:21724   */\n      tag_632\n        /* \"#utility.yul\":21717:21723   */\n      dup2\n        /* \"#utility.yul\":21691:21724   */\n      tag_245\n      jump\t// in\n    tag_632:\n        /* \"#utility.yul\":21681:21724   */\n      swap1\n      pop\n        /* \"#utility.yul\":21582:21731   */\n      swap2\n      swap1\n      pop\n      jump\t// out\n        /* \"#utility.yul\":21737:23188   */\n    tag_278:\n        /* \"#utility.yul\":21848:21851   */\n      dup2\n        /* \"#utility.yul\":21842:21846   */\n      dup2\n        /* \"#utility.yul\":21839:21852   */\n      sub\n        /* \"#utility.yul\":21836:21862   */\n      tag_634\n      jumpi\n        /* \"#utility.yul\":21855:21860   */\n      pop\n      pop\n      jump(tag_633)\n        /* \"#utility.yul\":21836:21862   */\n    tag_634:\n        /* \"#utility.yul\":21886:21920   */\n      tag_635\n        /* \"#utility.yul\":21916:21919   */\n      dup3\n        /* \"#utility.yul\":21886:21920   */\n      tag_416\n      jump\t// in\n    tag_635:\n        /* \"#utility.yul\":21985:22003   */\n      0xffffffffffffffff\n        /* \"#utility.yul\":21977:21983   */\n      dup2\n        /* \"#utility.yul\":21974:22004   */\n      gt\n        /* \"#utility.yul\":21971:22027   */\n      iszero\n      tag_636\n      jumpi\n        /* \"#utility.yul\":22007:22025   */\n      tag_637\n      tag_393\n      jump\t// in\n    tag_637:\n        /* \"#utility.yul\":21971:22027   */\n    tag_636:\n        /* \"#utility.yul\":22051:22089   */\n      tag_638\n        /* \"#utility.yul\":22083:22087   */\n      dup3\n        /* \"#utility.yul\":22077:22088   */\n      sload\n        /* \"#utility.yul\":22051:22089   */\n      tag_245\n      jump\t// in\n    tag_638:\n        /* \"#utility.yul\":22136:22203   */\n      tag_639\n        /* \"#utility.yul\":22196:22202   */\n      dup3\n        /* \"#utility.yul\":22188:22194   */\n      dup3\n        /* \"#utility.yul\":22182:22186   */\n      dup6\n        /* \"#utility.yul\":22136:22203   */\n      tag_406\n      jump\t// in\n    tag_639:\n        /* \"#utility.yul\":22230:22231   */\n      0x00\n        /* \"#utility.yul\":22259:22261   */\n      0x1f\n        /* \"#utility.yul\":22251:22257   */\n      dup4\n        /* \"#utility.yul\":22248:22262   */\n      gt\n        /* \"#utility.yul\":22276:22277   */\n      0x01\n        /* \"#utility.yul\":22271:22943   */\n      dup2\n      eq\n      tag_641\n      jumpi\n        /* \"#utility.yul\":22987:22988   */\n      0x00\n        /* \"#utility.yul\":23004:23010   */\n      dup5\n        /* \"#utility.yul\":23001:23078   */\n      iszero\n      tag_642\n      jumpi\n        /* \"#utility.yul\":23053:23062   */\n      dup3\n        /* \"#utility.yul\":23048:23051   */\n      dup8\n        /* \"#utility.yul\":23044:23063   */\n      add\n        /* \"#utility.yul\":23038:23064   */\n      sload\n        /* \"#utility.yul\":23029:23064   */\n      swap1\n      pop\n        /* \"#utility.yul\":23001:23078   */\n    tag_642:\n        /* \"#utility.yul\":23104:23171   */\n      tag_643\n        /* \"#utility.yul\":23164:23170   */\n      dup6\n        /* \"#utility.yul\":23157:23162   */\n      dup3\n        /* \"#utility.yul\":23104:23171   */\n      tag_409\n      jump\t// in\n    tag_643:\n        /* \"#utility.yul\":23098:23102   */\n      dup7\n        /* \"#utility.yul\":23091:23172   */\n      sstore\n        /* \"#utility.yul\":22960:23182   */\n      pop\n        /* \"#utility.yul\":22241:23182   */\n      jump(tag_640)\n        /* \"#utility.yul\":22271:22943   */\n    tag_641:\n        /* \"#utility.yul\":22323:22327   */\n      0x1f\n        /* \"#utility.yul\":22319:22328   */\n      not\n        /* \"#utility.yul\":22311:22317   */\n      dup5\n        /* \"#utility.yul\":22307:22329   */\n      and\n        /* \"#utility.yul\":22349:22385   */\n      tag_644\n        /* \"#utility.yul\":22381:22384   */\n      dup8\n        /* \"#utility.yul\":22349:22385   */\n      tag_395\n      jump\t// in\n    tag_644:\n        /* \"#utility.yul\":22342:22385   */\n      swap7\n      pop\n        /* \"#utility.yul\":22412:22449   */\n      tag_645\n        /* \"#utility.yul\":22444:22448   */\n      dup7\n        /* \"#utility.yul\":22412:22449   */\n      tag_395\n      jump\t// in\n    tag_645:\n        /* \"#utility.yul\":22471:22472   */\n      0x00\n        /* \"#utility.yul\":22485:22692   */\n    tag_646:\n        /* \"#utility.yul\":22499:22506   */\n      dup3\n        /* \"#utility.yul\":22496:22497   */\n      dup2\n        /* \"#utility.yul\":22493:22507   */\n      lt\n        /* \"#utility.yul\":22485:22692   */\n      iszero\n      tag_648\n      jumpi\n        /* \"#utility.yul\":22578:22587   */\n      dup5\n        /* \"#utility.yul\":22573:22576   */\n      dup10\n        /* \"#utility.yul\":22569:22588   */\n      add\n        /* \"#utility.yul\":22563:22589   */\n      sload\n        /* \"#utility.yul\":22555:22561   */\n      dup3\n        /* \"#utility.yul\":22548:22590   */\n      sstore\n        /* \"#utility.yul\":22629:22630   */\n      0x01\n        /* \"#utility.yul\":22621:22627   */\n      dup3\n        /* \"#utility.yul\":22617:22631   */\n      add\n        /* \"#utility.yul\":22607:22631   */\n      swap2\n      pop\n        /* \"#utility.yul\":22676:22677   */\n      0x01\n        /* \"#utility.yul\":22665:22674   */\n      dup6\n        /* \"#utility.yul\":22661:22678   */\n      add\n        /* \"#utility.yul\":22648:22678   */\n      swap5\n      pop\n        /* \"#utility.yul\":22522:22526   */\n      0x20\n        /* \"#utility.yul\":22519:22520   */\n      dup2\n        /* \"#utility.yul\":22515:22527   */\n      add\n        /* \"#utility.yul\":22510:22527   */\n      swap1\n      pop\n        /* \"#utility.yul\":22485:22692   */\n      jump(tag_646)\n    tag_648:\n        /* \"#utility.yul\":22720:22726   */\n      dup7\n        /* \"#utility.yul\":22711:22718   */\n      dup4\n        /* \"#utility.yul\":22708:22727   */\n      lt\n        /* \"#utility.yul\":22705:22884   */\n      iszero\n      tag_649\n      jumpi\n        /* \"#utility.yul\":22778:22787   */\n      dup5\n        /* \"#utility.yul\":22773:22776   */\n      dup10\n        /* \"#utility.yul\":22769:22788   */\n      add\n        /* \"#utility.yul\":22763:22789   */\n      sload\n        /* \"#utility.yul\":22821:22869   */\n      tag_650\n        /* \"#utility.yul\":22863:22867   */\n      0x1f\n        /* \"#utility.yul\":22855:22861   */\n      dup10\n        /* \"#utility.yul\":22851:22868   */\n      and\n        /* \"#utility.yul\":22840:22849   */\n      dup3\n        /* \"#utility.yul\":22821:22869   */\n      tag_408\n      jump\t// in\n    tag_650:\n        /* \"#utility.yul\":22813:22819   */\n      dup4\n        /* \"#utility.yul\":22806:22870   */\n      sstore\n        /* \"#utility.yul\":22728:22884   */\n      pop\n        /* \"#utility.yul\":22705:22884   */\n    tag_649:\n        /* \"#utility.yul\":22930:22931   */\n      0x01\n        /* \"#utility.yul\":22926:22927   */\n      0x02\n        /* \"#utility.yul\":22918:22924   */\n      dup9\n        /* \"#utility.yul\":22914:22928   */\n      mul\n        /* \"#utility.yul\":22910:22932   */\n      add\n        /* \"#utility.yul\":22904:22908   */\n      dup9\n        /* \"#utility.yul\":22897:22933   */\n      sstore\n        /* \"#utility.yul\":22278:22943   */\n      pop\n      pop\n      pop\n        /* \"#utility.yul\":22241:23182   */\n    tag_640:\n      pop\n        /* \"#utility.yul\":21826:23188   */\n      pop\n      pop\n      pop\n        /* \"#utility.yul\":21737:23188   */\n      pop\n      pop\n    tag_633:\n      jump\t// out\n        /* \"#utility.yul\":23194:23374   */\n    tag_281:\n        /* \"#utility.yul\":23242:23319   */\n      0x4e487b7100000000000000000000000000000000000000000000000000000000\n        /* \"#utility.yul\":23239:23240   */\n      0x00\n        /* \"#utility.yul\":23232:23320   */\n      mstore\n        /* \"#utility.yul\":23339:23343   */\n      0x31\n        /* \"#utility.yul\":23336:23337   */\n      0x04\n        /* \"#utility.yul\":23329:23344   */\n      mstore\n        /* \"#utility.yul\":23363:23367   */\n      0x24\n        /* \"#utility.yul\":23360:23361   */\n      0x00\n        /* \"#utility.yul\":23353:23368   */\n      revert\n        /* \"#utility.yul\":23380:23613   */\n    tag_345:\n        /* \"#utility.yul\":23419:23422   */\n      0x00\n        /* \"#utility.yul\":23442:23466   */\n      tag_653\n        /* \"#utility.yul\":23460:23465   */\n      dup3\n        /* \"#utility.yul\":23442:23466   */\n      tag_368\n      jump\t// in\n    tag_653:\n        /* \"#utility.yul\":23433:23466   */\n      swap2\n      pop\n        /* \"#utility.yul\":23488:23554   */\n      0xffffffffffffffffffffffffffffffffffffffffffffffffffffffffffffffff\n        /* \"#utility.yul\":23481:23486   */\n      dup3\n        /* \"#utility.yul\":23478:23555   */\n      sub\n        /* \"#utility.yul\":23475:23578   */\n      tag_654\n      jumpi\n        /* \"#utility.yul\":23558:23576   */\n      tag_655\n      tag_410\n      jump\t// in\n    tag_655:\n        /* \"#utility.yul\":23475:23578   */\n    tag_654:\n        /* \"#utility.yul\":23605:23606   */\n      0x01\n        /* \"#utility.yul\":23598:23603   */\n      dup3\n        /* \"#utility.yul\":23594:23607   */\n      add\n        /* \"#utility.yul\":23587:23607   */\n      swap1\n      pop\n        /* \"#utility.yul\":23380:23613   */\n      swap2\n      swap1\n      pop\n      jump\t// out\n\n    auxdata: 0xa26469706673582212201434b6e962a541966db5bfecb9b0c504c1d87ac0d365633b5a43b49d7292dc0f64736f6c634300081e0033\n}\n",
				"bytecode": {
					"linkReferences": {},
					"object": "608060405234801561000f575f5ffd5b50335f73ffffffffffffffffffffffffffffffffffffffff168173ffffffffffffffffffffffffffffffffffffffff1603610081575f6040517f1e4fbdf70000000000000000000000000000000000000000000000000000000081526004016100789190610196565b60405180910390fd5b6100908161009660201b60201c565b506101af565b5f5f5f9054906101000a900473ffffffffffffffffffffffffffffffffffffffff169050815f5f6101000a81548173ffffffffffffffffffffffffffffffffffffffff021916908373ffffffffffffffffffffffffffffffffffffffff1602179055508173ffffffffffffffffffffffffffffffffffffffff168173ffffffffffffffffffffffffffffffffffffffff167f8be0079c531659141344cd1fd0a4f28419497f9722a3daafe3b4186f6b6457e060405160405180910390a35050565b5f73ffffffffffffffffffffffffffffffffffffffff82169050919050565b5f61018082610157565b9050919050565b61019081610176565b82525050565b5f6020820190506101a95f830184610187565b92915050565b61253a806101bc5f395ff3fe608060405260043610610129575f3560e01c80638da5cb5b116100aa578063ce4df3811161006e578063ce4df381146103c5578063d6febde814610401578063e75722301461041d578063ed90c7b714610459578063f2fde38b14610481578063fa89401a146104a957610129565b80638da5cb5b146102f7578063957fae96146103215780639dfc3dd11461034b578063bda235da14610373578063c29b2f201461039b57610129565b80636038d0cf116100f15780636038d0cf14610221578063715018a61461025f578063723cdb1d1461027557806382367b2d146102915780638392fe31146102b957610129565b8063094455c41461012d5780631328ed34146101555780633ab7d09a146101915780633ccfd60b146101cd57806358025212146101e3575b5f5ffd5b348015610138575f5ffd5b50610153600480360381019061014e9190611992565b6104c5565b005b348015610160575f5ffd5b5061017b60048036038101906101769190611a70565b6105d4565b6040516101889190611af9565b60405180910390f35b34801561019c575f5ffd5b506101b760048036038101906101b29190611b12565b6107dd565b6040516101c49190611b4c565b60405180910390f35b3480156101d8575f5ffd5b506101e16107f7565b005b3480156101ee575f5ffd5b5061020960048036038101906102049190611b12565b610893565b60405161021893929190611b74565b60405180910390f35b34801561022c575f5ffd5b5061024760048036038101906102429190611ba9565b6108e7565b60405161025693929190611b74565b60405180910390f35b34801561026a575f5ffd5b50610273610946565b005b61028f600480360381019061028a9190611c3c565b610959565b005b34801561029c575f5ffd5b506102b760048036038101906102b29190611cba565b610b99565b005b3480156102c4575f5ffd5b506102df60048036038101906102da9190611b12565b610bbb565b6040516102ee93929190611b74565b60405180910390f35b348015610302575f5ffd5b5061030b610c0f565b6040516103189190611cf8565b60405180910390f35b34801561032c575f5ffd5b50610335610c36565b6040516103429190611b4c565b60405180910390f35b348015610356575f5ffd5b50610371600480360381019061036c9190611cba565b610c90565b005b34801561037e575f5ffd5b5061039960048036038101906103949190611a70565b610cb2565b005b3480156103a6575f5ffd5b506103af610e59565b6040516103bc9190611e9c565b60405180910390f35b3480156103d0575f5ffd5b506103eb60048036038101906103e69190611b12565b610f62565b6040516103f89190611b4c565b60405180910390f35b61041b60048036038101906104169190611cba565b610f77565b005b348015610428575f5ffd5b50610443600480360381019061043e9190611b12565b6110ab565b6040516104509190611b4c565b60405180910390f35b348015610464575f5ffd5b5061047f600480360381019061047a9190611b12565b6110c5565b005b34801561048c575f5ffd5b506104a760048036038101906104a29190611a70565b6111e9565b005b6104c360048036038101906104be9190611a70565b61126d565b005b6104cd611322565b6104d6836113a9565b1561050d576040517ff270498400000000000000000000000000000000000000000000000000000000815260040160405180910390fd5b6004604051806080016040528087878080601f0160208091040260200160405190810160405280939291908181526020018383808284375f81840152601f19601f82011690508083019250505050505050815260200185815260200184815260200183815250908060018154018082558091505060019003905f5260205f2090600402015f909190919091505f820151815f0190816105ac91906120e6565b5060208201518160010155604082015181600201556060820151816003015550505050505050565b6105dc611755565b5f5f90505b600580549050811015610731578273ffffffffffffffffffffffffffffffffffffffff1660058281548110610619576106186121b5565b5b905f5260205f2090600302015f015f9054906101000a900473ffffffffffffffffffffffffffffffffffffffff1673ffffffffffffffffffffffffffffffffffffffff160361072457600360058281548110610678576106776121b5565b5b905f5260205f209060030201908060018154018082558091505060019003905f5260205f2090600302015f909190919091505f82015f9054906101000a900473ffffffffffffffffffffffffffffffffffffffff16815f015f6101000a81548173ffffffffffffffffffffffffffffffffffffffff021916908373ffffffffffffffffffffffffffffffffffffffff160217905550600182015481600101556002820154816002015550505b80806001019150506105e1565b5060036001600380549050610746919061220f565b81548110610757576107566121b5565b5b905f5260205f2090600302016040518060600160405290815f82015f9054906101000a900473ffffffffffffffffffffffffffffffffffffffff1673ffffffffffffffffffffffffffffffffffffffff1673ffffffffffffffffffffffffffffffffffffffff168152602001600182015481526020016002820154815250509050919050565b5f5f6107e883611407565b90508060020154915050919050565b6107ff611322565b5f4790505f8111610845576040517f08c379a000000000000000000000000000000000000000000000000000000000815260040161083c9061229c565b60405180910390fd5b61084d610c0f565b73ffffffffffffffffffffffffffffffffffffffff166108fc8290811502906040515f60405180830381858888f1935050505015801561088f573d5f5f3e3d5ffd5b5050565b600381815481106108a2575f80fd5b905f5260205f2090600302015f91509050805f015f9054906101000a900473ffffffffffffffffffffffffffffffffffffffff16908060010154908060020154905083565b6001602052815f5260405f208181548110610900575f80fd5b905f5260205f2090600302015f9150915050805f015f9054906101000a900473ffffffffffffffffffffffffffffffffffffffff16908060010154908060020154905083565b61094e611322565b6109575f6114b1565b565b8181905084849050146109a1576040517f08c379a000000000000000000000000000000000000000000000000000000000815260040161099890612304565b60405180910390fd5b5f5f90505f5f90505b85859050811015610a9a575f8484838181106109c9576109c86121b5565b5b9050602002013590505f8787848181106109e6576109e56121b5565b5b9050602002013590505f8211610a28576040517f02e9794a00000000000000000000000000000000000000000000000000000000815260040160405180910390fd5b81610a32826107dd565b1015610a6a576040517fade1cb4100000000000000000000000000000000000000000000000000000000815260040160405180910390fd5b81610a74826110ab565b610a7e9190612322565b84610a899190612363565b9350505080806001019150506109aa565b5080341015610ad5576040517fc1463a4000000000000000000000000000000000000000000000000000000000815260040160405180910390fd5b5f5f90505b85859050811015610b39575f848483818110610af957610af86121b5565b5b9050602002013590505f878784818110610b1657610b156121b5565b5b905060200201359050610b2a338284611572565b50508080600101915050610ada565b5080341115610b92573373ffffffffffffffffffffffffffffffffffffffff166108fc8234610b68919061220f565b90811502906040515f60405180830381858888f19350505050158015610b90573d5f5f3e3d5ffd5b505b5050505050565b610ba1611322565b5f610bab83611407565b9050818160030181905550505050565b60058181548110610bca575f80fd5b905f5260205f2090600302015f91509050805f015f9054906101000a900473ffffffffffffffffffffffffffffffffffffffff16908060010154908060020154905083565b5f5f5f9054906101000a900473ffffffffffffffffffffffffffffffffffffffff16905090565b5f5f5f5f90505b600580549050811015610c885760058181548110610c5e57610c5d6121b5565b5b905f5260205f2090600302016002015482610c799190612363565b91508080600101915050610c3d565b508091505090565b610c98611322565b5f610ca283611407565b9050818160020181905550505050565b5f5f90505b600580549050811015610e07578173ffffffffffffffffffffffffffffffffffffffff1660058281548110610cef57610cee6121b5565b5b905f5260205f2090600302015f015f9054906101000a900473ffffffffffffffffffffffffffffffffffffffff1673ffffffffffffffffffffffffffffffffffffffff1603610dfa57600360058281548110610d4e57610d4d6121b5565b5b905f5260205f209060030201908060018154018082558091505060019003905f5260205f2090600302015f909190919091505f82015f9054906101000a900473ffffffffffffffffffffffffffffffffffffffff16815f015f6101000a81548173ffffffffffffffffffffffffffffffffffffffff021916908373ffffffffffffffffffffffffffffffffffffffff160217905550600182015481600101556002820154816002015550505b8080600101915050610cb7565b50600360015f8373ffffffffffffffffffffffffffffffffffffffff1673ffffffffffffffffffffffffffffffffffffffff1681526020019081526020015f20908054610e55929190611789565b5050565b60606004805480602002602001604051908101604052809291908181526020015f905b82821015610f59578382905f5260205f2090600402016040518060800160405290815f82018054610eac90611f16565b80601f0160208091040260200160405190810160405280929190818152602001828054610ed890611f16565b8015610f235780601f10610efa57610100808354040283529160200191610f23565b820191905f5260205f20905b815481529060010190602001808311610f0657829003601f168201915b50505050508152602001600182015481526020016002820154815260200160038201548152505081526020019060010190610e7c565b50505050905090565b6002602052805f5260405f205f915090505481565b5f8111610fb0576040517f02e9794a00000000000000000000000000000000000000000000000000000000815260040160405180910390fd5b80610fba836107dd565b1015610ff2576040517fade1cb4100000000000000000000000000000000000000000000000000000000815260040160405180910390fd5b5f81610ffd846110ab565b6110079190612322565b905080341015611043576040517fc1463a4000000000000000000000000000000000000000000000000000000000815260040160405180910390fd5b61104e338484611572565b803411156110a6573373ffffffffffffffffffffffffffffffffffffffff166108fc823461107c919061220f565b90811502906040515f60405180830381858888f193505050501580156110a4573d5f5f3e3d5ffd5b505b505050565b5f5f6110b683611407565b90508060030154915050919050565b6110cd611322565b5f5f6110d883611619565b9150915081611113576040517fc270964900000000000000000000000000000000000000000000000000000000815260040160405180910390fd5b60046001600480549050611127919061220f565b81548110611138576111376121b5565b5b905f5260205f20906004020160048281548110611158576111576121b5565b5b905f5260205f2090600402015f8201815f01908161117691906123ab565b5060018201548160010155600282015481600201556003820154816003015590505060048054806111aa576111a9612490565b5b600190038181905f5260205f2090600402015f5f82015f6111cb9190611854565b600182015f9055600282015f9055600382015f905550509055505050565b6111f1611322565b5f73ffffffffffffffffffffffffffffffffffffffff168173ffffffffffffffffffffffffffffffffffffffff1603611261575f6040517f1e4fbdf70000000000000000000000000000000000000000000000000000000081526004016112589190611cf8565b60405180910390fd5b61126a816114b1565b50565b5f611277826105d4565b90505f81604001514761128a9190612363565b90505f81116112ce576040517f08c379a00000000000000000000000000000000000000000000000000000000081526004016112c59061229c565b60405180910390fd5b6112d6610c0f565b73ffffffffffffffffffffffffffffffffffffffff166108fc836040015190811502906040515f60405180830381858888f1935050505015801561131c573d5f5f3e3d5ffd5b50505050565b61132a61167e565b73ffffffffffffffffffffffffffffffffffffffff16611348610c0f565b73ffffffffffffffffffffffffffffffffffffffff16146113a75761136b61167e565b6040517f118cdaa700000000000000000000000000000000000000000000000000000000815260040161139e9190611cf8565b60405180910390fd5b565b5f5f5f90505b6004805490508110156113fd5782600482815481106113d1576113d06121b5565b5b905f5260205f20906004020160010154036113f0576001915050611402565b80806001019150506113af565b505f90505b919050565b5f5f5f90505b60048054905081101561147957826004828154811061142f5761142e6121b5565b5b905f5260205f209060040201600101540361146c5760048181548110611458576114576121b5565b5b905f5260205f2090600402019150506114ac565b808060010191505061140d565b506040517fc270964900000000000000000000000000000000000000000000000000000000815260040160405180910390fd5b919050565b5f5f5f9054906101000a900473ffffffffffffffffffffffffffffffffffffffff169050815f5f6101000a81548173ffffffffffffffffffffffffffffffffffffffff021916908373ffffffffffffffffffffffffffffffffffffffff1602179055508173ffffffffffffffffffffffffffffffffffffffff168173ffffffffffffffffffffffffffffffffffffffff167f8be0079c531659141344cd1fd0a4f28419497f9722a3daafe3b4186f6b6457e060405160405180910390a35050565b5f61157c83611407565b905081816002015f828254611591919061220f565b925050819055508160025f8581526020019081526020015f205f8282546115b89190612363565b925050819055506115d8848383600301546115d39190612322565b611685565b7f12cb4648cf3058b17ceeb33e579f8b0bc269fe0843f3900b8e24b6c54871703c84848460405161160b93929190611b74565b60405180910390a150505050565b5f5f5f5f90505b600480549050811015611671578360048281548110611642576116416121b5565b5b905f5260205f2090600402016001015403611664576001819250925050611679565b8080600101915050611620565b505f5f915091505b915091565b5f33905090565b60065f815480929190611697906124bd565b9190505550600560405180606001604052808473ffffffffffffffffffffffffffffffffffffffff168152602001600654815260200183815250908060018154018082558091505060019003905f5260205f2090600302015f909190919091505f820151815f015f6101000a81548173ffffffffffffffffffffffffffffffffffffffff021916908373ffffffffffffffffffffffffffffffffffffffff160217905550602082015181600101556040820151816002015550505050565b60405180606001604052805f73ffffffffffffffffffffffffffffffffffffffff1681526020015f81526020015f81525090565b828054828255905f5260205f20906003028101928215611843575f5260205f209160030282015b828111156118425782825f82015f9054906101000a900473ffffffffffffffffffffffffffffffffffffffff16815f015f6101000a81548173ffffffffffffffffffffffffffffffffffffffff021916908373ffffffffffffffffffffffffffffffffffffffff16021790555060018201548160010155600282015481600201555050916003019190600301906117b0565b5b5090506118509190611891565b5090565b50805461186090611f16565b5f825580601f10611871575061188e565b601f0160209004905f5260205f209081019061188d91906118db565b5b50565b5b808211156118d7575f5f82015f6101000a81549073ffffffffffffffffffffffffffffffffffffffff0219169055600182015f9055600282015f905550600301611892565b5090565b5b808211156118f2575f815f9055506001016118dc565b5090565b5f5ffd5b5f5ffd5b5f5ffd5b5f5ffd5b5f5ffd5b5f5f83601f84011261191f5761191e6118fe565b5b8235905067ffffffffffffffff81111561193c5761193b611902565b5b60208301915083600182028301111561195857611957611906565b5b9250929050565b5f819050919050565b6119718161195f565b811461197b575f5ffd5b50565b5f8135905061198c81611968565b92915050565b5f5f5f5f5f608086880312156119ab576119aa6118f6565b5b5f86013567ffffffffffffffff8111156119c8576119c76118fa565b5b6119d48882890161190a565b955095505060206119e78882890161197e565b93505060406119f88882890161197e565b9250506060611a098882890161197e565b9150509295509295909350565b5f73ffffffffffffffffffffffffffffffffffffffff82169050919050565b5f611a3f82611a16565b9050919050565b611a4f81611a35565b8114611a59575f5ffd5b50565b5f81359050611a6a81611a46565b92915050565b5f60208284031215611a8557611a846118f6565b5b5f611a9284828501611a5c565b91505092915050565b611aa481611a35565b82525050565b611ab38161195f565b82525050565b606082015f820151611acd5f850182611a9b565b506020820151611ae06020850182611aaa565b506040820151611af36040850182611aaa565b50505050565b5f606082019050611b0c5f830184611ab9565b92915050565b5f60208284031215611b2757611b266118f6565b5b5f611b348482850161197e565b91505092915050565b611b468161195f565b82525050565b5f602082019050611b5f5f830184611b3d565b92915050565b611b6e81611a35565b82525050565b5f606082019050611b875f830186611b65565b611b946020830185611b3d565b611ba16040830184611b3d565b949350505050565b5f5f60408385031215611bbf57611bbe6118f6565b5b5f611bcc85828601611a5c565b9250506020611bdd8582860161197e565b9150509250929050565b5f5f83601f840112611bfc57611bfb6118fe565b5b8235905067ffffffffffffffff811115611c1957611c18611902565b5b602083019150836020820283011115611c3557611c34611906565b5b9250929050565b5f5f5f5f60408587031215611c5457611c536118f6565b5b5f85013567ffffffffffffffff811115611c7157611c706118fa565b5b611c7d87828801611be7565b9450945050602085013567ffffffffffffffff811115611ca057611c9f6118fa565b5b611cac87828801611be7565b925092505092959194509250565b5f5f60408385031215611cd057611ccf6118f6565b5b5f611cdd8582860161197e565b9250506020611cee8582860161197e565b9150509250929050565b5f602082019050611d0b5f830184611b65565b92915050565b5f81519050919050565b5f82825260208201905092915050565b5f819050602082019050919050565b5f81519050919050565b5f82825260208201905092915050565b8281835e5f83830152505050565b5f601f19601f8301169050919050565b5f611d7c82611d3a565b611d868185611d44565b9350611d96818560208601611d54565b611d9f81611d62565b840191505092915050565b5f608083015f8301518482035f860152611dc48282611d72565b9150506020830151611dd96020860182611aaa565b506040830151611dec6040860182611aaa565b506060830151611dff6060860182611aaa565b508091505092915050565b5f611e158383611daa565b905092915050565b5f602082019050919050565b5f611e3382611d11565b611e3d8185611d1b565b935083602082028501611e4f85611d2b565b805f5b85811015611e8a5784840389528151611e6b8582611e0a565b9450611e7683611e1d565b925060208a01995050600181019050611e52565b50829750879550505050505092915050565b5f6020820190508181035f830152611eb48184611e29565b905092915050565b7f4e487b71000000000000000000000000000000000000000000000000000000005f52604160045260245ffd5b7f4e487b71000000000000000000000000000000000000000000000000000000005f52602260045260245ffd5b5f6002820490506001821680611f2d57607f821691505b602082108103611f4057611f3f611ee9565b5b50919050565b5f819050815f5260205f209050919050565b5f6020601f8301049050919050565b5f82821b905092915050565b5f60088302611fa27fffffffffffffffffffffffffffffffffffffffffffffffffffffffffffffffff82611f67565b611fac8683611f67565b95508019841693508086168417925050509392505050565b5f819050919050565b5f611fe7611fe2611fdd8461195f565b611fc4565b61195f565b9050919050565b5f819050919050565b61200083611fcd565b61201461200c82611fee565b848454611f73565b825550505050565b5f5f905090565b61202b61201c565b612036818484611ff7565b505050565b5b818110156120595761204e5f82612023565b60018101905061203c565b5050565b601f82111561209e5761206f81611f46565b61207884611f58565b81016020851015612087578190505b61209b61209385611f58565b83018261203b565b50505b505050565b5f82821c905092915050565b5f6120be5f19846008026120a3565b1980831691505092915050565b5f6120d683836120af565b9150826002028217905092915050565b6120ef82611d3a565b67ffffffffffffffff81111561210857612107611ebc565b5b6121128254611f16565b61211d82828561205d565b5f60209050601f83116001811461214e575f841561213c578287015190505b61214685826120cb565b8655506121ad565b601f19841661215c86611f46565b5f5b828110156121835784890151825560018201915060208501945060208101905061215e565b868310156121a0578489015161219c601f8916826120af565b8355505b6001600288020188555050505b505050505050565b7f4e487b71000000000000000000000000000000000000000000000000000000005f52603260045260245ffd5b7f4e487b71000000000000000000000000000000000000000000000000000000005f52601160045260245ffd5b5f6122198261195f565b91506122248361195f565b925082820390508181111561223c5761223b6121e2565b5b92915050565b5f82825260208201905092915050565b7f4e6f7420656e6f75676874206d6f6e65790000000000000000000000000000005f82015250565b5f612286601183612242565b915061229182612252565b602082019050919050565b5f6020820190508181035f8301526122b38161227a565b9050919050565b7f617272617973206c656e67687473206d69736d617463680000000000000000005f82015250565b5f6122ee601783612242565b91506122f9826122ba565b602082019050919050565b5f6020820190508181035f83015261231b816122e2565b9050919050565b5f61232c8261195f565b91506123378361195f565b92508282026123458161195f565b9150828204841483151761235c5761235b6121e2565b5b5092915050565b5f61236d8261195f565b91506123788361195f565b92508282019050808211156123905761238f6121e2565b5b92915050565b5f815490506123a481611f16565b9050919050565b8181036123b957505061248e565b6123c282612396565b67ffffffffffffffff8111156123db576123da611ebc565b5b6123e58254611f16565b6123f082828561205d565b5f601f83116001811461241d575f841561240b578287015490505b61241585826120cb565b865550612487565b601f19841661242b87611f46565b965061243686611f46565b5f5b8281101561245d57848901548255600182019150600185019450602081019050612438565b8683101561247a5784890154612476601f8916826120af565b8355505b6001600288020188555050505b5050505050505b565b7f4e487b71000000000000000000000000000000000000000000000000000000005f52603160045260245ffd5b5f6124c78261195f565b91507fffffffffffffffffffffffffffffffffffffffffffffffffffffffffffffffff82036124f9576124f86121e2565b5b60018201905091905056fea26469706673582212201434b6e962a541966db5bfecb9b0c504c1d87ac0d365633b5a43b49d7292dc0f64736f6c634300081e0033",
					"opcodes": "PUSH1 0x80 PUSH1 0x40 MSTORE CALLVALUE DUP1 ISZERO PUSH2 0xF JUMPI PUSH0 PUSH0 REVERT JUMPDEST POP CALLER PUSH0 PUSH20 0xFFFFFFFFFFFFFFFFFFFFFFFFFFFFFFFFFFFFFFFF AND DUP2 PUSH20 0xFFFFFFFFFFFFFFFFFFFFFFFFFFFFFFFFFFFFFFFF AND SUB PUSH2 0x81 JUMPI PUSH0 PUSH1 0x40 MLOAD PUSH32 0x1E4FBDF700000000000000000000000000000000000000000000000000000000 DUP2 MSTORE PUSH1 0x4 ADD PUSH2 0x78 SWAP2 SWAP1 PUSH2 0x196 JUMP JUMPDEST PUSH1 0x40 MLOAD DUP1 SWAP2 SUB SWAP1 REVERT JUMPDEST PUSH2 0x90 DUP2 PUSH2 0x96 PUSH1 0x20 SHL PUSH1 0x20 SHR JUMP JUMPDEST POP PUSH2 0x1AF JUMP JUMPDEST PUSH0 PUSH0 PUSH0 SWAP1 SLOAD SWAP1 PUSH2 0x100 EXP SWAP1 DIV PUSH20 0xFFFFFFFFFFFFFFFFFFFFFFFFFFFFFFFFFFFFFFFF AND SWAP1 POP DUP2 PUSH0 PUSH0 PUSH2 0x100 EXP DUP2 SLOAD DUP2 PUSH20 0xFFFFFFFFFFFFFFFFFFFFFFFFFFFFFFFFFFFFFFFF MUL NOT AND SWAP1 DUP4 PUSH20 0xFFFFFFFFFFFFFFFFFFFFFFFFFFFFFFFFFFFFFFFF AND MUL OR SWAP1 SSTORE POP DUP2 PUSH20 0xFFFFFFFFFFFFFFFFFFFFFFFFFFFFFFFFFFFFFFFF AND DUP2 PUSH20 0xFFFFFFFFFFFFFFFFFFFFFFFFFFFFFFFFFFFFFFFF AND PUSH32 0x8BE0079C531659141344CD1FD0A4F28419497F9722A3DAAFE3B4186F6B6457E0 PUSH1 0x40 MLOAD PUSH1 0x40 MLOAD DUP1 SWAP2 SUB SWAP1 LOG3 POP POP JUMP JUMPDEST PUSH0 PUSH20 0xFFFFFFFFFFFFFFFFFFFFFFFFFFFFFFFFFFFFFFFF DUP3 AND SWAP1 POP SWAP2 SWAP1 POP JUMP JUMPDEST PUSH0 PUSH2 0x180 DUP3 PUSH2 0x157 JUMP JUMPDEST SWAP1 POP SWAP2 SWAP1 POP JUMP JUMPDEST PUSH2 0x190 DUP2 PUSH2 0x176 JUMP JUMPDEST DUP3 MSTORE POP POP JUMP JUMPDEST PUSH0 PUSH1 0x20 DUP3 ADD SWAP1 POP PUSH2 0x1A9 PUSH0 DUP4 ADD DUP5 PUSH2 0x187 JUMP JUMPDEST SWAP3 SWAP2 POP POP JUMP JUMPDEST PUSH2 0x253A DUP1 PUSH2 0x1BC PUSH0 CODECOPY PUSH0 RETURN INVALID PUSH1 0x80 PUSH1 0x40 MSTORE PUSH1 0x4 CALLDATASIZE LT PUSH2 0x129 JUMPI PUSH0 CALLDATALOAD PUSH1 0xE0 SHR DUP1 PUSH4 0x8DA5CB5B GT PUSH2 0xAA JUMPI DUP1 PUSH4 0xCE4DF381 GT PUSH2 0x6E JUMPI DUP1 PUSH4 0xCE4DF381 EQ PUSH2 0x3C5 JUMPI DUP1 PUSH4 0xD6FEBDE8 EQ PUSH2 0x401 JUMPI DUP1 PUSH4 0xE7572230 EQ PUSH2 0x41D JUMPI DUP1 PUSH4 0xED90C7B7 EQ PUSH2 0x459 JUMPI DUP1 PUSH4 0xF2FDE38B EQ PUSH2 0x481 JUMPI DUP1 PUSH4 0xFA89401A EQ PUSH2 0x4A9 JUMPI PUSH2 0x129 JUMP JUMPDEST DUP1 PUSH4 0x8DA5CB5B EQ PUSH2 0x2F7 JUMPI DUP1 PUSH4 0x957FAE96 EQ PUSH2 0x321 JUMPI DUP1 PUSH4 0x9DFC3DD1 EQ PUSH2 0x34B JUMPI DUP1 PUSH4 0xBDA235DA EQ PUSH2 0x373 JUMPI DUP1 PUSH4 0xC29B2F20 EQ PUSH2 0x39B JUMPI PUSH2 0x129 JUMP JUMPDEST DUP1 PUSH4 0x6038D0CF GT PUSH2 0xF1 JUMPI DUP1 PUSH4 0x6038D0CF EQ PUSH2 0x221 JUMPI DUP1 PUSH4 0x715018A6 EQ PUSH2 0x25F JUMPI DUP1 PUSH4 0x723CDB1D EQ PUSH2 0x275 JUMPI DUP1 PUSH4 0x82367B2D EQ PUSH2 0x291 JUMPI DUP1 PUSH4 0x8392FE31 EQ PUSH2 0x2B9 JUMPI PUSH2 0x129 JUMP JUMPDEST DUP1 PUSH4 0x94455C4 EQ PUSH2 0x12D JUMPI DUP1 PUSH4 0x1328ED34 EQ PUSH2 0x155 JUMPI DUP1 PUSH4 0x3AB7D09A EQ PUSH2 0x191 JUMPI DUP1 PUSH4 0x3CCFD60B EQ PUSH2 0x1CD JUMPI DUP1 PUSH4 0x58025212 EQ PUSH2 0x1E3 JUMPI JUMPDEST PUSH0 PUSH0 REVERT JUMPDEST CALLVALUE DUP1 ISZERO PUSH2 0x138 JUMPI PUSH0 PUSH0 REVERT JUMPDEST POP PUSH2 0x153 PUSH1 0x4 DUP1 CALLDATASIZE SUB DUP2 ADD SWAP1 PUSH2 0x14E SWAP2 SWAP1 PUSH2 0x1992 JUMP JUMPDEST PUSH2 0x4C5 JUMP JUMPDEST STOP JUMPDEST CALLVALUE DUP1 ISZERO PUSH2 0x160 JUMPI PUSH0 PUSH0 REVERT JUMPDEST POP PUSH2 0x17B PUSH1 0x4 DUP1 CALLDATASIZE SUB DUP2 ADD SWAP1 PUSH2 0x176 SWAP2 SWAP1 PUSH2 0x1A70 JUMP JUMPDEST PUSH2 0x5D4 JUMP JUMPDEST PUSH1 0x40 MLOAD PUSH2 0x188 SWAP2 SWAP1 PUSH2 0x1AF9 JUMP JUMPDEST PUSH1 0x40 MLOAD DUP1 SWAP2 SUB SWAP1 RETURN JUMPDEST CALLVALUE DUP1 ISZERO PUSH2 0x19C JUMPI PUSH0 PUSH0 REVERT JUMPDEST POP PUSH2 0x1B7 PUSH1 0x4 DUP1 CALLDATASIZE SUB DUP2 ADD SWAP1 PUSH2 0x1B2 SWAP2 SWAP1 PUSH2 0x1B12 JUMP JUMPDEST PUSH2 0x7DD JUMP JUMPDEST PUSH1 0x40 MLOAD PUSH2 0x1C4 SWAP2 SWAP1 PUSH2 0x1B4C JUMP JUMPDEST PUSH1 0x40 MLOAD DUP1 SWAP2 SUB SWAP1 RETURN JUMPDEST CALLVALUE DUP1 ISZERO PUSH2 0x1D8 JUMPI PUSH0 PUSH0 REVERT JUMPDEST POP PUSH2 0x1E1 PUSH2 0x7F7 JUMP JUMPDEST STOP JUMPDEST CALLVALUE DUP1 ISZERO PUSH2 0x1EE JUMPI PUSH0 PUSH0 REVERT JUMPDEST POP PUSH2 0x209 PUSH1 0x4 DUP1 CALLDATASIZE SUB DUP2 ADD SWAP1 PUSH2 0x204 SWAP2 SWAP1 PUSH2 0x1B12 JUMP JUMPDEST PUSH2 0x893 JUMP JUMPDEST PUSH1 0x40 MLOAD PUSH2 0x218 SWAP4 SWAP3 SWAP2 SWAP1 PUSH2 0x1B74 JUMP JUMPDEST PUSH1 0x40 MLOAD DUP1 SWAP2 SUB SWAP1 RETURN JUMPDEST CALLVALUE DUP1 ISZERO PUSH2 0x22C JUMPI PUSH0 PUSH0 REVERT JUMPDEST POP PUSH2 0x247 PUSH1 0x4 DUP1 CALLDATASIZE SUB DUP2 ADD SWAP1 PUSH2 0x242 SWAP2 SWAP1 PUSH2 0x1BA9 JUMP JUMPDEST PUSH2 0x8E7 JUMP JUMPDEST PUSH1 0x40 MLOAD PUSH2 0x256 SWAP4 SWAP3 SWAP2 SWAP1 PUSH2 0x1B74 JUMP JUMPDEST PUSH1 0x40 MLOAD DUP1 SWAP2 SUB SWAP1 RETURN JUMPDEST CALLVALUE DUP1 ISZERO PUSH2 0x26A JUMPI PUSH0 PUSH0 REVERT JUMPDEST POP PUSH2 0x273 PUSH2 0x946 JUMP JUMPDEST STOP JUMPDEST PUSH2 0x28F PUSH1 0x4 DUP1 CALLDATASIZE SUB DUP2 ADD SWAP1 PUSH2 0x28A SWAP2 SWAP1 PUSH2 0x1C3C JUMP JUMPDEST PUSH2 0x959 JUMP JUMPDEST STOP JUMPDEST CALLVALUE DUP1 ISZERO PUSH2 0x29C JUMPI PUSH0 PUSH0 REVERT JUMPDEST POP PUSH2 0x2B7 PUSH1 0x4 DUP1 CALLDATASIZE SUB DUP2 ADD SWAP1 PUSH2 0x2B2 SWAP2 SWAP1 PUSH2 0x1CBA JUMP JUMPDEST PUSH2 0xB99 JUMP JUMPDEST STOP JUMPDEST CALLVALUE DUP1 ISZERO PUSH2 0x2C4 JUMPI PUSH0 PUSH0 REVERT JUMPDEST POP PUSH2 0x2DF PUSH1 0x4 DUP1 CALLDATASIZE SUB DUP2 ADD SWAP1 PUSH2 0x2DA SWAP2 SWAP1 PUSH2 0x1B12 JUMP JUMPDEST PUSH2 0xBBB JUMP JUMPDEST PUSH1 0x40 MLOAD PUSH2 0x2EE SWAP4 SWAP3 SWAP2 SWAP1 PUSH2 0x1B74 JUMP JUMPDEST PUSH1 0x40 MLOAD DUP1 SWAP2 SUB SWAP1 RETURN JUMPDEST CALLVALUE DUP1 ISZERO PUSH2 0x302 JUMPI PUSH0 PUSH0 REVERT JUMPDEST POP PUSH2 0x30B PUSH2 0xC0F JUMP JUMPDEST PUSH1 0x40 MLOAD PUSH2 0x318 SWAP2 SWAP1 PUSH2 0x1CF8 JUMP JUMPDEST PUSH1 0x40 MLOAD DUP1 SWAP2 SUB SWAP1 RETURN JUMPDEST CALLVALUE DUP1 ISZERO PUSH2 0x32C JUMPI PUSH0 PUSH0 REVERT JUMPDEST POP PUSH2 0x335 PUSH2 0xC36 JUMP JUMPDEST PUSH1 0x40 MLOAD PUSH2 0x342 SWAP2 SWAP1 PUSH2 0x1B4C JUMP JUMPDEST PUSH1 0x40 MLOAD DUP1 SWAP2 SUB SWAP1 RETURN JUMPDEST CALLVALUE DUP1 ISZERO PUSH2 0x356 JUMPI PUSH0 PUSH0 REVERT JUMPDEST POP PUSH2 0x371 PUSH1 0x4 DUP1 CALLDATASIZE SUB DUP2 ADD SWAP1 PUSH2 0x36C SWAP2 SWAP1 PUSH2 0x1CBA JUMP JUMPDEST PUSH2 0xC90 JUMP JUMPDEST STOP JUMPDEST CALLVALUE DUP1 ISZERO PUSH2 0x37E JUMPI PUSH0 PUSH0 REVERT JUMPDEST POP PUSH2 0x399 PUSH1 0x4 DUP1 CALLDATASIZE SUB DUP2 ADD SWAP1 PUSH2 0x394 SWAP2 SWAP1 PUSH2 0x1A70 JUMP JUMPDEST PUSH2 0xCB2 JUMP JUMPDEST STOP JUMPDEST CALLVALUE DUP1 ISZERO PUSH2 0x3A6 JUMPI PUSH0 PUSH0 REVERT JUMPDEST POP PUSH2 0x3AF PUSH2 0xE59 JUMP JUMPDEST PUSH1 0x40 MLOAD PUSH2 0x3BC SWAP2 SWAP1 PUSH2 0x1E9C JUMP JUMPDEST PUSH1 0x40 MLOAD DUP1 SWAP2 SUB SWAP1 RETURN JUMPDEST CALLVALUE DUP1 ISZERO PUSH2 0x3D0 JUMPI PUSH0 PUSH0 REVERT JUMPDEST POP PUSH2 0x3EB PUSH1 0x4 DUP1 CALLDATASIZE SUB DUP2 ADD SWAP1 PUSH2 0x3E6 SWAP2 SWAP1 PUSH2 0x1B12 JUMP JUMPDEST PUSH2 0xF62 JUMP JUMPDEST PUSH1 0x40 MLOAD PUSH2 0x3F8 SWAP2 SWAP1 PUSH2 0x1B4C JUMP JUMPDEST PUSH1 0x40 MLOAD DUP1 SWAP2 SUB SWAP1 RETURN JUMPDEST PUSH2 0x41B PUSH1 0x4 DUP1 CALLDATASIZE SUB DUP2 ADD SWAP1 PUSH2 0x416 SWAP2 SWAP1 PUSH2 0x1CBA JUMP JUMPDEST PUSH2 0xF77 JUMP JUMPDEST STOP JUMPDEST CALLVALUE DUP1 ISZERO PUSH2 0x428 JUMPI PUSH0 PUSH0 REVERT JUMPDEST POP PUSH2 0x443 PUSH1 0x4 DUP1 CALLDATASIZE SUB DUP2 ADD SWAP1 PUSH2 0x43E SWAP2 SWAP1 PUSH2 0x1B12 JUMP JUMPDEST PUSH2 0x10AB JUMP JUMPDEST PUSH1 0x40 MLOAD PUSH2 0x450 SWAP2 SWAP1 PUSH2 0x1B4C JUMP JUMPDEST PUSH1 0x40 MLOAD DUP1 SWAP2 SUB SWAP1 RETURN JUMPDEST CALLVALUE DUP1 ISZERO PUSH2 0x464 JUMPI PUSH0 PUSH0 REVERT JUMPDEST POP PUSH2 0x47F PUSH1 0x4 DUP1 CALLDATASIZE SUB DUP2 ADD SWAP1 PUSH2 0x47A SWAP2 SWAP1 PUSH2 0x1B12 JUMP JUMPDEST PUSH2 0x10C5 JUMP JUMPDEST STOP JUMPDEST CALLVALUE DUP1 ISZERO PUSH2 0x48C JUMPI PUSH0 PUSH0 REVERT JUMPDEST POP PUSH2 0x4A7 PUSH1 0x4 DUP1 CALLDATASIZE SUB DUP2 ADD SWAP1 PUSH2 0x4A2 SWAP2 SWAP1 PUSH2 0x1A70 JUMP JUMPDEST PUSH2 0x11E9 JUMP JUMPDEST STOP JUMPDEST PUSH2 0x4C3 PUSH1 0x4 DUP1 CALLDATASIZE SUB DUP2 ADD SWAP1 PUSH2 0x4BE SWAP2 SWAP1 PUSH2 0x1A70 JUMP JUMPDEST PUSH2 0x126D JUMP JUMPDEST STOP JUMPDEST PUSH2 0x4CD PUSH2 0x1322 JUMP JUMPDEST PUSH2 0x4D6 DUP4 PUSH2 0x13A9 JUMP JUMPDEST ISZERO PUSH2 0x50D JUMPI PUSH1 0x40 MLOAD PUSH32 0xF270498400000000000000000000000000000000000000000000000000000000 DUP2 MSTORE PUSH1 0x4 ADD PUSH1 0x40 MLOAD DUP1 SWAP2 SUB SWAP1 REVERT JUMPDEST PUSH1 0x4 PUSH1 0x40 MLOAD DUP1 PUSH1 0x80 ADD PUSH1 0x40 MSTORE DUP1 DUP8 DUP8 DUP1 DUP1 PUSH1 0x1F ADD PUSH1 0x20 DUP1 SWAP2 DIV MUL PUSH1 0x20 ADD PUSH1 0x40 MLOAD SWAP1 DUP2 ADD PUSH1 0x40 MSTORE DUP1 SWAP4 SWAP3 SWAP2 SWAP1 DUP2 DUP2 MSTORE PUSH1 0x20 ADD DUP4 DUP4 DUP1 DUP3 DUP5 CALLDATACOPY PUSH0 DUP2 DUP5 ADD MSTORE PUSH1 0x1F NOT PUSH1 0x1F DUP3 ADD AND SWAP1 POP DUP1 DUP4 ADD SWAP3 POP POP POP POP POP POP POP DUP2 MSTORE PUSH1 0x20 ADD DUP6 DUP2 MSTORE PUSH1 0x20 ADD DUP5 DUP2 MSTORE PUSH1 0x20 ADD DUP4 DUP2 MSTORE POP SWAP1 DUP1 PUSH1 0x1 DUP2 SLOAD ADD DUP1 DUP3 SSTORE DUP1 SWAP2 POP POP PUSH1 0x1 SWAP1 SUB SWAP1 PUSH0 MSTORE PUSH1 0x20 PUSH0 KECCAK256 SWAP1 PUSH1 0x4 MUL ADD PUSH0 SWAP1 SWAP2 SWAP1 SWAP2 SWAP1 SWAP2 POP PUSH0 DUP3 ADD MLOAD DUP2 PUSH0 ADD SWAP1 DUP2 PUSH2 0x5AC SWAP2 SWAP1 PUSH2 0x20E6 JUMP JUMPDEST POP PUSH1 0x20 DUP3 ADD MLOAD DUP2 PUSH1 0x1 ADD SSTORE PUSH1 0x40 DUP3 ADD MLOAD DUP2 PUSH1 0x2 ADD SSTORE PUSH1 0x60 DUP3 ADD MLOAD DUP2 PUSH1 0x3 ADD SSTORE POP POP POP POP POP POP POP JUMP JUMPDEST PUSH2 0x5DC PUSH2 0x1755 JUMP JUMPDEST PUSH0 PUSH0 SWAP1 POP JUMPDEST PUSH1 0x5 DUP1 SLOAD SWAP1 POP DUP2 LT ISZERO PUSH2 0x731 JUMPI DUP3 PUSH20 0xFFFFFFFFFFFFFFFFFFFFFFFFFFFFFFFFFFFFFFFF AND PUSH1 0x5 DUP3 DUP2 SLOAD DUP2 LT PUSH2 0x619 JUMPI PUSH2 0x618 PUSH2 0x21B5 JUMP JUMPDEST JUMPDEST SWAP1 PUSH0 MSTORE PUSH1 0x20 PUSH0 KECCAK256 SWAP1 PUSH1 0x3 MUL ADD PUSH0 ADD PUSH0 SWAP1 SLOAD SWAP1 PUSH2 0x100 EXP SWAP1 DIV PUSH20 0xFFFFFFFFFFFFFFFFFFFFFFFFFFFFFFFFFFFFFFFF AND PUSH20 0xFFFFFFFFFFFFFFFFFFFFFFFFFFFFFFFFFFFFFFFF AND SUB PUSH2 0x724 JUMPI PUSH1 0x3 PUSH1 0x5 DUP3 DUP2 SLOAD DUP2 LT PUSH2 0x678 JUMPI PUSH2 0x677 PUSH2 0x21B5 JUMP JUMPDEST JUMPDEST SWAP1 PUSH0 MSTORE PUSH1 0x20 PUSH0 KECCAK256 SWAP1 PUSH1 0x3 MUL ADD SWAP1 DUP1 PUSH1 0x1 DUP2 SLOAD ADD DUP1 DUP3 SSTORE DUP1 SWAP2 POP POP PUSH1 0x1 SWAP1 SUB SWAP1 PUSH0 MSTORE PUSH1 0x20 PUSH0 KECCAK256 SWAP1 PUSH1 0x3 MUL ADD PUSH0 SWAP1 SWAP2 SWAP1 SWAP2 SWAP1 SWAP2 POP PUSH0 DUP3 ADD PUSH0 SWAP1 SLOAD SWAP1 PUSH2 0x100 EXP SWAP1 DIV PUSH20 0xFFFFFFFFFFFFFFFFFFFFFFFFFFFFFFFFFFFFFFFF AND DUP2 PUSH0 ADD PUSH0 PUSH2 0x100 EXP DUP2 SLOAD DUP2 PUSH20 0xFFFFFFFFFFFFFFFFFFFFFFFFFFFFFFFFFFFFFFFF MUL NOT AND SWAP1 DUP4 PUSH20 0xFFFFFFFFFFFFFFFFFFFFFFFFFFFFFFFFFFFFFFFF AND MUL OR SWAP1 SSTORE POP PUSH1 0x1 DUP3 ADD SLOAD DUP2 PUSH1 0x1 ADD SSTORE PUSH1 0x2 DUP3 ADD SLOAD DUP2 PUSH1 0x2 ADD SSTORE POP POP JUMPDEST DUP1 DUP1 PUSH1 0x1 ADD SWAP2 POP POP PUSH2 0x5E1 JUMP JUMPDEST POP PUSH1 0x3 PUSH1 0x1 PUSH1 0x3 DUP1 SLOAD SWAP1 POP PUSH2 0x746 SWAP2 SWAP1 PUSH2 0x220F JUMP JUMPDEST DUP2 SLOAD DUP2 LT PUSH2 0x757 JUMPI PUSH2 0x756 PUSH2 0x21B5 JUMP JUMPDEST JUMPDEST SWAP1 PUSH0 MSTORE PUSH1 0x20 PUSH0 KECCAK256 SWAP1 PUSH1 0x3 MUL ADD PUSH1 0x40 MLOAD DUP1 PUSH1 0x60 ADD PUSH1 0x40 MSTORE SWAP1 DUP2 PUSH0 DUP3 ADD PUSH0 SWAP1 SLOAD SWAP1 PUSH2 0x100 EXP SWAP1 DIV PUSH20 0xFFFFFFFFFFFFFFFFFFFFFFFFFFFFFFFFFFFFFFFF AND PUSH20 0xFFFFFFFFFFFFFFFFFFFFFFFFFFFFFFFFFFFFFFFF AND PUSH20 0xFFFFFFFFFFFFFFFFFFFFFFFFFFFFFFFFFFFFFFFF AND DUP2 MSTORE PUSH1 0x20 ADD PUSH1 0x1 DUP3 ADD SLOAD DUP2 MSTORE PUSH1 0x20 ADD PUSH1 0x2 DUP3 ADD SLOAD DUP2 MSTORE POP POP SWAP1 POP SWAP2 SWAP1 POP JUMP JUMPDEST PUSH0 PUSH0 PUSH2 0x7E8 DUP4 PUSH2 0x1407 JUMP JUMPDEST SWAP1 POP DUP1 PUSH1 0x2 ADD SLOAD SWAP2 POP POP SWAP2 SWAP1 POP JUMP JUMPDEST PUSH2 0x7FF PUSH2 0x1322 JUMP JUMPDEST PUSH0 SELFBALANCE SWAP1 POP PUSH0 DUP2 GT PUSH2 0x845 JUMPI PUSH1 0x40 MLOAD PUSH32 0x8C379A000000000000000000000000000000000000000000000000000000000 DUP2 MSTORE PUSH1 0x4 ADD PUSH2 0x83C SWAP1 PUSH2 0x229C JUMP JUMPDEST PUSH1 0x40 MLOAD DUP1 SWAP2 SUB SWAP1 REVERT JUMPDEST PUSH2 0x84D PUSH2 0xC0F JUMP JUMPDEST PUSH20 0xFFFFFFFFFFFFFFFFFFFFFFFFFFFFFFFFFFFFFFFF AND PUSH2 0x8FC DUP3 SWAP1 DUP2 ISZERO MUL SWAP1 PUSH1 0x40 MLOAD PUSH0 PUSH1 0x40 MLOAD DUP1 DUP4 SUB DUP2 DUP6 DUP9 DUP9 CALL SWAP4 POP POP POP POP ISZERO DUP1 ISZERO PUSH2 0x88F JUMPI RETURNDATASIZE PUSH0 PUSH0 RETURNDATACOPY RETURNDATASIZE PUSH0 REVERT JUMPDEST POP POP JUMP JUMPDEST PUSH1 0x3 DUP2 DUP2 SLOAD DUP2 LT PUSH2 0x8A2 JUMPI PUSH0 DUP1 REVERT JUMPDEST SWAP1 PUSH0 MSTORE PUSH1 0x20 PUSH0 KECCAK256 SWAP1 PUSH1 0x3 MUL ADD PUSH0 SWAP2 POP SWAP1 POP DUP1 PUSH0 ADD PUSH0 SWAP1 SLOAD SWAP1 PUSH2 0x100 EXP SWAP1 DIV PUSH20 0xFFFFFFFFFFFFFFFFFFFFFFFFFFFFFFFFFFFFFFFF AND SWAP1 DUP1 PUSH1 0x1 ADD SLOAD SWAP1 DUP1 PUSH1 0x2 ADD SLOAD SWAP1 POP DUP4 JUMP JUMPDEST PUSH1 0x1 PUSH1 0x20 MSTORE DUP2 PUSH0 MSTORE PUSH1 0x40 PUSH0 KECCAK256 DUP2 DUP2 SLOAD DUP2 LT PUSH2 0x900 JUMPI PUSH0 DUP1 REVERT JUMPDEST SWAP1 PUSH0 MSTORE PUSH1 0x20 PUSH0 KECCAK256 SWAP1 PUSH1 0x3 MUL ADD PUSH0 SWAP2 POP SWAP2 POP POP DUP1 PUSH0 ADD PUSH0 SWAP1 SLOAD SWAP1 PUSH2 0x100 EXP SWAP1 DIV PUSH20 0xFFFFFFFFFFFFFFFFFFFFFFFFFFFFFFFFFFFFFFFF AND SWAP1 DUP1 PUSH1 0x1 ADD SLOAD SWAP1 DUP1 PUSH1 0x2 ADD SLOAD SWAP1 POP DUP4 JUMP JUMPDEST PUSH2 0x94E PUSH2 0x1322 JUMP JUMPDEST PUSH2 0x957 PUSH0 PUSH2 0x14B1 JUMP JUMPDEST JUMP JUMPDEST DUP2 DUP2 SWAP1 POP DUP5 DUP5 SWAP1 POP EQ PUSH2 0x9A1 JUMPI PUSH1 0x40 MLOAD PUSH32 0x8C379A000000000000000000000000000000000000000000000000000000000 DUP2 MSTORE PUSH1 0x4 ADD PUSH2 0x998 SWAP1 PUSH2 0x2304 JUMP JUMPDEST PUSH1 0x40 MLOAD DUP1 SWAP2 SUB SWAP1 REVERT JUMPDEST PUSH0 PUSH0 SWAP1 POP PUSH0 PUSH0 SWAP1 POP JUMPDEST DUP6 DUP6 SWAP1 POP DUP2 LT ISZERO PUSH2 0xA9A JUMPI PUSH0 DUP5 DUP5 DUP4 DUP2 DUP2 LT PUSH2 0x9C9 JUMPI PUSH2 0x9C8 PUSH2 0x21B5 JUMP JUMPDEST JUMPDEST SWAP1 POP PUSH1 0x20 MUL ADD CALLDATALOAD SWAP1 POP PUSH0 DUP8 DUP8 DUP5 DUP2 DUP2 LT PUSH2 0x9E6 JUMPI PUSH2 0x9E5 PUSH2 0x21B5 JUMP JUMPDEST JUMPDEST SWAP1 POP PUSH1 0x20 MUL ADD CALLDATALOAD SWAP1 POP PUSH0 DUP3 GT PUSH2 0xA28 JUMPI PUSH1 0x40 MLOAD PUSH32 0x2E9794A00000000000000000000000000000000000000000000000000000000 DUP2 MSTORE PUSH1 0x4 ADD PUSH1 0x40 MLOAD DUP1 SWAP2 SUB SWAP1 REVERT JUMPDEST DUP2 PUSH2 0xA32 DUP3 PUSH2 0x7DD JUMP JUMPDEST LT ISZERO PUSH2 0xA6A JUMPI PUSH1 0x40 MLOAD PUSH32 0xADE1CB4100000000000000000000000000000000000000000000000000000000 DUP2 MSTORE PUSH1 0x4 ADD PUSH1 0x40 MLOAD DUP1 SWAP2 SUB SWAP1 REVERT JUMPDEST DUP2 PUSH2 0xA74 DUP3 PUSH2 0x10AB JUMP JUMPDEST PUSH2 0xA7E SWAP2 SWAP1 PUSH2 0x2322 JUMP JUMPDEST DUP5 PUSH2 0xA89 SWAP2 SWAP1 PUSH2 0x2363 JUMP JUMPDEST SWAP4 POP POP POP DUP1 DUP1 PUSH1 0x1 ADD SWAP2 POP POP PUSH2 0x9AA JUMP JUMPDEST POP DUP1 CALLVALUE LT ISZERO PUSH2 0xAD5 JUMPI PUSH1 0x40 MLOAD PUSH32 0xC1463A4000000000000000000000000000000000000000000000000000000000 DUP2 MSTORE PUSH1 0x4 ADD PUSH1 0x40 MLOAD DUP1 SWAP2 SUB SWAP1 REVERT JUMPDEST PUSH0 PUSH0 SWAP1 POP JUMPDEST DUP6 DUP6 SWAP1 POP DUP2 LT ISZERO PUSH2 0xB39 JUMPI PUSH0 DUP5 DUP5 DUP4 DUP2 DUP2 LT PUSH2 0xAF9 JUMPI PUSH2 0xAF8 PUSH2 0x21B5 JUMP JUMPDEST JUMPDEST SWAP1 POP PUSH1 0x20 MUL ADD CALLDATALOAD SWAP1 POP PUSH0 DUP8 DUP8 DUP5 DUP2 DUP2 LT PUSH2 0xB16 JUMPI PUSH2 0xB15 PUSH2 0x21B5 JUMP JUMPDEST JUMPDEST SWAP1 POP PUSH1 0x20 MUL ADD CALLDATALOAD SWAP1 POP PUSH2 0xB2A CALLER DUP3 DUP5 PUSH2 0x1572 JUMP JUMPDEST POP POP DUP1 DUP1 PUSH1 0x1 ADD SWAP2 POP POP PUSH2 0xADA JUMP JUMPDEST POP DUP1 CALLVALUE GT ISZERO PUSH2 0xB92 JUMPI CALLER PUSH20 0xFFFFFFFFFFFFFFFFFFFFFFFFFFFFFFFFFFFFFFFF AND PUSH2 0x8FC DUP3 CALLVALUE PUSH2 0xB68 SWAP2 SWAP1 PUSH2 0x220F JUMP JUMPDEST SWAP1 DUP2 ISZERO MUL SWAP1 PUSH1 0x40 MLOAD PUSH0 PUSH1 0x40 MLOAD DUP1 DUP4 SUB DUP2 DUP6 DUP9 DUP9 CALL SWAP4 POP POP POP POP ISZERO DUP1 ISZERO PUSH2 0xB90 JUMPI RETURNDATASIZE PUSH0 PUSH0 RETURNDATACOPY RETURNDATASIZE PUSH0 REVERT JUMPDEST POP JUMPDEST POP POP POP POP POP JUMP JUMPDEST PUSH2 0xBA1 PUSH2 0x1322 JUMP JUMPDEST PUSH0 PUSH2 0xBAB DUP4 PUSH2 0x1407 JUMP JUMPDEST SWAP1 POP DUP2 DUP2 PUSH1 0x3 ADD DUP2 SWAP1 SSTORE POP POP POP POP JUMP JUMPDEST PUSH1 0x5 DUP2 DUP2 SLOAD DUP2 LT PUSH2 0xBCA JUMPI PUSH0 DUP1 REVERT JUMPDEST SWAP1 PUSH0 MSTORE PUSH1 0x20 PUSH0 KECCAK256 SWAP1 PUSH1 0x3 MUL ADD PUSH0 SWAP2 POP SWAP1 POP DUP1 PUSH0 ADD PUSH0 SWAP1 SLOAD SWAP1 PUSH2 0x100 EXP SWAP1 DIV PUSH20 0xFFFFFFFFFFFFFFFFFFFFFFFFFFFFFFFFFFFFFFFF AND SWAP1 DUP1 PUSH1 0x1 ADD SLOAD SWAP1 DUP1 PUSH1 0x2 ADD SLOAD SWAP1 POP DUP4 JUMP JUMPDEST PUSH0 PUSH0 PUSH0 SWAP1 SLOAD SWAP1 PUSH2 0x100 EXP SWAP1 DIV PUSH20 0xFFFFFFFFFFFFFFFFFFFFFFFFFFFFFFFFFFFFFFFF AND SWAP1 POP SWAP1 JUMP JUMPDEST PUSH0 PUSH0 PUSH0 PUSH0 SWAP1 POP JUMPDEST PUSH1 0x5 DUP1 SLOAD SWAP1 POP DUP2 LT ISZERO PUSH2 0xC88 JUMPI PUSH1 0x5 DUP2 DUP2 SLOAD DUP2 LT PUSH2 0xC5E JUMPI PUSH2 0xC5D PUSH2 0x21B5 JUMP JUMPDEST JUMPDEST SWAP1 PUSH0 MSTORE PUSH1 0x20 PUSH0 KECCAK256 SWAP1 PUSH1 0x3 MUL ADD PUSH1 0x2 ADD SLOAD DUP3 PUSH2 0xC79 SWAP2 SWAP1 PUSH2 0x2363 JUMP JUMPDEST SWAP2 POP DUP1 DUP1 PUSH1 0x1 ADD SWAP2 POP POP PUSH2 0xC3D JUMP JUMPDEST POP DUP1 SWAP2 POP POP SWAP1 JUMP JUMPDEST PUSH2 0xC98 PUSH2 0x1322 JUMP JUMPDEST PUSH0 PUSH2 0xCA2 DUP4 PUSH2 0x1407 JUMP JUMPDEST SWAP1 POP DUP2 DUP2 PUSH1 0x2 ADD DUP2 SWAP1 SSTORE POP POP POP POP JUMP JUMPDEST PUSH0 PUSH0 SWAP1 POP JUMPDEST PUSH1 0x5 DUP1 SLOAD SWAP1 POP DUP2 LT ISZERO PUSH2 0xE07 JUMPI DUP2 PUSH20 0xFFFFFFFFFFFFFFFFFFFFFFFFFFFFFFFFFFFFFFFF AND PUSH1 0x5 DUP3 DUP2 SLOAD DUP2 LT PUSH2 0xCEF JUMPI PUSH2 0xCEE PUSH2 0x21B5 JUMP JUMPDEST JUMPDEST SWAP1 PUSH0 MSTORE PUSH1 0x20 PUSH0 KECCAK256 SWAP1 PUSH1 0x3 MUL ADD PUSH0 ADD PUSH0 SWAP1 SLOAD SWAP1 PUSH2 0x100 EXP SWAP1 DIV PUSH20 0xFFFFFFFFFFFFFFFFFFFFFFFFFFFFFFFFFFFFFFFF AND PUSH20 0xFFFFFFFFFFFFFFFFFFFFFFFFFFFFFFFFFFFFFFFF AND SUB PUSH2 0xDFA JUMPI PUSH1 0x3 PUSH1 0x5 DUP3 DUP2 SLOAD DUP2 LT PUSH2 0xD4E JUMPI PUSH2 0xD4D PUSH2 0x21B5 JUMP JUMPDEST JUMPDEST SWAP1 PUSH0 MSTORE PUSH1 0x20 PUSH0 KECCAK256 SWAP1 PUSH1 0x3 MUL ADD SWAP1 DUP1 PUSH1 0x1 DUP2 SLOAD ADD DUP1 DUP3 SSTORE DUP1 SWAP2 POP POP PUSH1 0x1 SWAP1 SUB SWAP1 PUSH0 MSTORE PUSH1 0x20 PUSH0 KECCAK256 SWAP1 PUSH1 0x3 MUL ADD PUSH0 SWAP1 SWAP2 SWAP1 SWAP2 SWAP1 SWAP2 POP PUSH0 DUP3 ADD PUSH0 SWAP1 SLOAD SWAP1 PUSH2 0x100 EXP SWAP1 DIV PUSH20 0xFFFFFFFFFFFFFFFFFFFFFFFFFFFFFFFFFFFFFFFF AND DUP2 PUSH0 ADD PUSH0 PUSH2 0x100 EXP DUP2 SLOAD DUP2 PUSH20 0xFFFFFFFFFFFFFFFFFFFFFFFFFFFFFFFFFFFFFFFF MUL NOT AND SWAP1 DUP4 PUSH20 0xFFFFFFFFFFFFFFFFFFFFFFFFFFFFFFFFFFFFFFFF AND MUL OR SWAP1 SSTORE POP PUSH1 0x1 DUP3 ADD SLOAD DUP2 PUSH1 0x1 ADD SSTORE PUSH1 0x2 DUP3 ADD SLOAD DUP2 PUSH1 0x2 ADD SSTORE POP POP JUMPDEST DUP1 DUP1 PUSH1 0x1 ADD SWAP2 POP POP PUSH2 0xCB7 JUMP JUMPDEST POP PUSH1 0x3 PUSH1 0x1 PUSH0 DUP4 PUSH20 0xFFFFFFFFFFFFFFFFFFFFFFFFFFFFFFFFFFFFFFFF AND PUSH20 0xFFFFFFFFFFFFFFFFFFFFFFFFFFFFFFFFFFFFFFFF AND DUP2 MSTORE PUSH1 0x20 ADD SWAP1 DUP2 MSTORE PUSH1 0x20 ADD PUSH0 KECCAK256 SWAP1 DUP1 SLOAD PUSH2 0xE55 SWAP3 SWAP2 SWAP1 PUSH2 0x1789 JUMP JUMPDEST POP POP JUMP JUMPDEST PUSH1 0x60 PUSH1 0x4 DUP1 SLOAD DUP1 PUSH1 0x20 MUL PUSH1 0x20 ADD PUSH1 0x40 MLOAD SWAP1 DUP2 ADD PUSH1 0x40 MSTORE DUP1 SWAP3 SWAP2 SWAP1 DUP2 DUP2 MSTORE PUSH1 0x20 ADD PUSH0 SWAP1 JUMPDEST DUP3 DUP3 LT ISZERO PUSH2 0xF59 JUMPI DUP4 DUP3 SWAP1 PUSH0 MSTORE PUSH1 0x20 PUSH0 KECCAK256 SWAP1 PUSH1 0x4 MUL ADD PUSH1 0x40 MLOAD DUP1 PUSH1 0x80 ADD PUSH1 0x40 MSTORE SWAP1 DUP2 PUSH0 DUP3 ADD DUP1 SLOAD PUSH2 0xEAC SWAP1 PUSH2 0x1F16 JUMP JUMPDEST DUP1 PUSH1 0x1F ADD PUSH1 0x20 DUP1 SWAP2 DIV MUL PUSH1 0x20 ADD PUSH1 0x40 MLOAD SWAP1 DUP2 ADD PUSH1 0x40 MSTORE DUP1 SWAP3 SWAP2 SWAP1 DUP2 DUP2 MSTORE PUSH1 0x20 ADD DUP3 DUP1 SLOAD PUSH2 0xED8 SWAP1 PUSH2 0x1F16 JUMP JUMPDEST DUP1 ISZERO PUSH2 0xF23 JUMPI DUP1 PUSH1 0x1F LT PUSH2 0xEFA JUMPI PUSH2 0x100 DUP1 DUP4 SLOAD DIV MUL DUP4 MSTORE SWAP2 PUSH1 0x20 ADD SWAP2 PUSH2 0xF23 JUMP JUMPDEST DUP3 ADD SWAP2 SWAP1 PUSH0 MSTORE PUSH1 0x20 PUSH0 KECCAK256 SWAP1 JUMPDEST DUP2 SLOAD DUP2 MSTORE SWAP1 PUSH1 0x1 ADD SWAP1 PUSH1 0x20 ADD DUP1 DUP4 GT PUSH2 0xF06 JUMPI DUP3 SWAP1 SUB PUSH1 0x1F AND DUP3 ADD SWAP2 JUMPDEST POP POP POP POP POP DUP2 MSTORE PUSH1 0x20 ADD PUSH1 0x1 DUP3 ADD SLOAD DUP2 MSTORE PUSH1 0x20 ADD PUSH1 0x2 DUP3 ADD SLOAD DUP2 MSTORE PUSH1 0x20 ADD PUSH1 0x3 DUP3 ADD SLOAD DUP2 MSTORE POP POP DUP2 MSTORE PUSH1 0x20 ADD SWAP1 PUSH1 0x1 ADD SWAP1 PUSH2 0xE7C JUMP JUMPDEST POP POP POP POP SWAP1 POP SWAP1 JUMP JUMPDEST PUSH1 0x2 PUSH1 0x20 MSTORE DUP1 PUSH0 MSTORE PUSH1 0x40 PUSH0 KECCAK256 PUSH0 SWAP2 POP SWAP1 POP SLOAD DUP2 JUMP JUMPDEST PUSH0 DUP2 GT PUSH2 0xFB0 JUMPI PUSH1 0x40 MLOAD PUSH32 0x2E9794A00000000000000000000000000000000000000000000000000000000 DUP2 MSTORE PUSH1 0x4 ADD PUSH1 0x40 MLOAD DUP1 SWAP2 SUB SWAP1 REVERT JUMPDEST DUP1 PUSH2 0xFBA DUP4 PUSH2 0x7DD JUMP JUMPDEST LT ISZERO PUSH2 0xFF2 JUMPI PUSH1 0x40 MLOAD PUSH32 0xADE1CB4100000000000000000000000000000000000000000000000000000000 DUP2 MSTORE PUSH1 0x4 ADD PUSH1 0x40 MLOAD DUP1 SWAP2 SUB SWAP1 REVERT JUMPDEST PUSH0 DUP2 PUSH2 0xFFD DUP5 PUSH2 0x10AB JUMP JUMPDEST PUSH2 0x1007 SWAP2 SWAP1 PUSH2 0x2322 JUMP JUMPDEST SWAP1 POP DUP1 CALLVALUE LT ISZERO PUSH2 0x1043 JUMPI PUSH1 0x40 MLOAD PUSH32 0xC1463A4000000000000000000000000000000000000000000000000000000000 DUP2 MSTORE PUSH1 0x4 ADD PUSH1 0x40 MLOAD DUP1 SWAP2 SUB SWAP1 REVERT JUMPDEST PUSH2 0x104E CALLER DUP5 DUP5 PUSH2 0x1572 JUMP JUMPDEST DUP1 CALLVALUE GT ISZERO PUSH2 0x10A6 JUMPI CALLER PUSH20 0xFFFFFFFFFFFFFFFFFFFFFFFFFFFFFFFFFFFFFFFF AND PUSH2 0x8FC DUP3 CALLVALUE PUSH2 0x107C SWAP2 SWAP1 PUSH2 0x220F JUMP JUMPDEST SWAP1 DUP2 ISZERO MUL SWAP1 PUSH1 0x40 MLOAD PUSH0 PUSH1 0x40 MLOAD DUP1 DUP4 SUB DUP2 DUP6 DUP9 DUP9 CALL SWAP4 POP POP POP POP ISZERO DUP1 ISZERO PUSH2 0x10A4 JUMPI RETURNDATASIZE PUSH0 PUSH0 RETURNDATACOPY RETURNDATASIZE PUSH0 REVERT JUMPDEST POP JUMPDEST POP POP POP JUMP JUMPDEST PUSH0 PUSH0 PUSH2 0x10B6 DUP4 PUSH2 0x1407 JUMP JUMPDEST SWAP1 POP DUP1 PUSH1 0x3 ADD SLOAD SWAP2 POP POP SWAP2 SWAP1 POP JUMP JUMPDEST PUSH2 0x10CD PUSH2 0x1322 JUMP JUMPDEST PUSH0 PUSH0 PUSH2 0x10D8 DUP4 PUSH2 0x1619 JUMP JUMPDEST SWAP2 POP SWAP2 POP DUP2 PUSH2 0x1113 JUMPI PUSH1 0x40 MLOAD PUSH32 0xC270964900000000000000000000000000000000000000000000000000000000 DUP2 MSTORE PUSH1 0x4 ADD PUSH1 0x40 MLOAD DUP1 SWAP2 SUB SWAP1 REVERT JUMPDEST PUSH1 0x4 PUSH1 0x1 PUSH1 0x4 DUP1 SLOAD SWAP1 POP PUSH2 0x1127 SWAP2 SWAP1 PUSH2 0x220F JUMP JUMPDEST DUP2 SLOAD DUP2 LT PUSH2 0x1138 JUMPI PUSH2 0x1137 PUSH2 0x21B5 JUMP JUMPDEST JUMPDEST SWAP1 PUSH0 MSTORE PUSH1 0x20 PUSH0 KECCAK256 SWAP1 PUSH1 0x4 MUL ADD PUSH1 0x4 DUP3 DUP2 SLOAD DUP2 LT PUSH2 0x1158 JUMPI PUSH2 0x1157 PUSH2 0x21B5 JUMP JUMPDEST JUMPDEST SWAP1 PUSH0 MSTORE PUSH1 0x20 PUSH0 KECCAK256 SWAP1 PUSH1 0x4 MUL ADD PUSH0 DUP3 ADD DUP2 PUSH0 ADD SWAP1 DUP2 PUSH2 0x1176 SWAP2 SWAP1 PUSH2 0x23AB JUMP JUMPDEST POP PUSH1 0x1 DUP3 ADD SLOAD DUP2 PUSH1 0x1 ADD SSTORE PUSH1 0x2 DUP3 ADD SLOAD DUP2 PUSH1 0x2 ADD SSTORE PUSH1 0x3 DUP3 ADD SLOAD DUP2 PUSH1 0x3 ADD SSTORE SWAP1 POP POP PUSH1 0x4 DUP1 SLOAD DUP1 PUSH2 0x11AA JUMPI PUSH2 0x11A9 PUSH2 0x2490 JUMP JUMPDEST JUMPDEST PUSH1 0x1 SWAP1 SUB DUP2 DUP2 SWAP1 PUSH0 MSTORE PUSH1 0x20 PUSH0 KECCAK256 SWAP1 PUSH1 0x4 MUL ADD PUSH0 PUSH0 DUP3 ADD PUSH0 PUSH2 0x11CB SWAP2 SWAP1 PUSH2 0x1854 JUMP JUMPDEST PUSH1 0x1 DUP3 ADD PUSH0 SWAP1 SSTORE PUSH1 0x2 DUP3 ADD PUSH0 SWAP1 SSTORE PUSH1 0x3 DUP3 ADD PUSH0 SWAP1 SSTORE POP POP SWAP1 SSTORE POP POP POP JUMP JUMPDEST PUSH2 0x11F1 PUSH2 0x1322 JUMP JUMPDEST PUSH0 PUSH20 0xFFFFFFFFFFFFFFFFFFFFFFFFFFFFFFFFFFFFFFFF AND DUP2 PUSH20 0xFFFFFFFFFFFFFFFFFFFFFFFFFFFFFFFFFFFFFFFF AND SUB PUSH2 0x1261 JUMPI PUSH0 PUSH1 0x40 MLOAD PUSH32 0x1E4FBDF700000000000000000000000000000000000000000000000000000000 DUP2 MSTORE PUSH1 0x4 ADD PUSH2 0x1258 SWAP2 SWAP1 PUSH2 0x1CF8 JUMP JUMPDEST PUSH1 0x40 MLOAD DUP1 SWAP2 SUB SWAP1 REVERT JUMPDEST PUSH2 0x126A DUP2 PUSH2 0x14B1 JUMP JUMPDEST POP JUMP JUMPDEST PUSH0 PUSH2 0x1277 DUP3 PUSH2 0x5D4 JUMP JUMPDEST SWAP1 POP PUSH0 DUP2 PUSH1 0x40 ADD MLOAD SELFBALANCE PUSH2 0x128A SWAP2 SWAP1 PUSH2 0x2363 JUMP JUMPDEST SWAP1 POP PUSH0 DUP2 GT PUSH2 0x12CE JUMPI PUSH1 0x40 MLOAD PUSH32 0x8C379A000000000000000000000000000000000000000000000000000000000 DUP2 MSTORE PUSH1 0x4 ADD PUSH2 0x12C5 SWAP1 PUSH2 0x229C JUMP JUMPDEST PUSH1 0x40 MLOAD DUP1 SWAP2 SUB SWAP1 REVERT JUMPDEST PUSH2 0x12D6 PUSH2 0xC0F JUMP JUMPDEST PUSH20 0xFFFFFFFFFFFFFFFFFFFFFFFFFFFFFFFFFFFFFFFF AND PUSH2 0x8FC DUP4 PUSH1 0x40 ADD MLOAD SWAP1 DUP2 ISZERO MUL SWAP1 PUSH1 0x40 MLOAD PUSH0 PUSH1 0x40 MLOAD DUP1 DUP4 SUB DUP2 DUP6 DUP9 DUP9 CALL SWAP4 POP POP POP POP ISZERO DUP1 ISZERO PUSH2 0x131C JUMPI RETURNDATASIZE PUSH0 PUSH0 RETURNDATACOPY RETURNDATASIZE PUSH0 REVERT JUMPDEST POP POP POP POP JUMP JUMPDEST PUSH2 0x132A PUSH2 0x167E JUMP JUMPDEST PUSH20 0xFFFFFFFFFFFFFFFFFFFFFFFFFFFFFFFFFFFFFFFF AND PUSH2 0x1348 PUSH2 0xC0F JUMP JUMPDEST PUSH20 0xFFFFFFFFFFFFFFFFFFFFFFFFFFFFFFFFFFFFFFFF AND EQ PUSH2 0x13A7 JUMPI PUSH2 0x136B PUSH2 0x167E JUMP JUMPDEST PUSH1 0x40 MLOAD PUSH32 0x118CDAA700000000000000000000000000000000000000000000000000000000 DUP2 MSTORE PUSH1 0x4 ADD PUSH2 0x139E SWAP2 SWAP1 PUSH2 0x1CF8 JUMP JUMPDEST PUSH1 0x40 MLOAD DUP1 SWAP2 SUB SWAP1 REVERT JUMPDEST JUMP JUMPDEST PUSH0 PUSH0 PUSH0 SWAP1 POP JUMPDEST PUSH1 0x4 DUP1 SLOAD SWAP1 POP DUP2 LT ISZERO PUSH2 0x13FD JUMPI DUP3 PUSH1 0x4 DUP3 DUP2 SLOAD DUP2 LT PUSH2 0x13D1 JUMPI PUSH2 0x13D0 PUSH2 0x21B5 JUMP JUMPDEST JUMPDEST SWAP1 PUSH0 MSTORE PUSH1 0x20 PUSH0 KECCAK256 SWAP1 PUSH1 0x4 MUL ADD PUSH1 0x1 ADD SLOAD SUB PUSH2 0x13F0 JUMPI PUSH1 0x1 SWAP2 POP POP PUSH2 0x1402 JUMP JUMPDEST DUP1 DUP1 PUSH1 0x1 ADD SWAP2 POP POP PUSH2 0x13AF JUMP JUMPDEST POP PUSH0 SWAP1 POP JUMPDEST SWAP2 SWAP1 POP JUMP JUMPDEST PUSH0 PUSH0 PUSH0 SWAP1 POP JUMPDEST PUSH1 0x4 DUP1 SLOAD SWAP1 POP DUP2 LT ISZERO PUSH2 0x1479 JUMPI DUP3 PUSH1 0x4 DUP3 DUP2 SLOAD DUP2 LT PUSH2 0x142F JUMPI PUSH2 0x142E PUSH2 0x21B5 JUMP JUMPDEST JUMPDEST SWAP1 PUSH0 MSTORE PUSH1 0x20 PUSH0 KECCAK256 SWAP1 PUSH1 0x4 MUL ADD PUSH1 0x1 ADD SLOAD SUB PUSH2 0x146C JUMPI PUSH1 0x4 DUP2 DUP2 SLOAD DUP2 LT PUSH2 0x1458 JUMPI PUSH2 0x1457 PUSH2 0x21B5 JUMP JUMPDEST JUMPDEST SWAP1 PUSH0 MSTORE PUSH1 0x20 PUSH0 KECCAK256 SWAP1 PUSH1 0x4 MUL ADD SWAP2 POP POP PUSH2 0x14AC JUMP JUMPDEST DUP1 DUP1 PUSH1 0x1 ADD SWAP2 POP POP PUSH2 0x140D JUMP JUMPDEST POP PUSH1 0x40 MLOAD PUSH32 0xC270964900000000000000000000000000000000000000000000000000000000 DUP2 MSTORE PUSH1 0x4 ADD PUSH1 0x40 MLOAD DUP1 SWAP2 SUB SWAP1 REVERT JUMPDEST SWAP2 SWAP1 POP JUMP JUMPDEST PUSH0 PUSH0 PUSH0 SWAP1 SLOAD SWAP1 PUSH2 0x100 EXP SWAP1 DIV PUSH20 0xFFFFFFFFFFFFFFFFFFFFFFFFFFFFFFFFFFFFFFFF AND SWAP1 POP DUP2 PUSH0 PUSH0 PUSH2 0x100 EXP DUP2 SLOAD DUP2 PUSH20 0xFFFFFFFFFFFFFFFFFFFFFFFFFFFFFFFFFFFFFFFF MUL NOT AND SWAP1 DUP4 PUSH20 0xFFFFFFFFFFFFFFFFFFFFFFFFFFFFFFFFFFFFFFFF AND MUL OR SWAP1 SSTORE POP DUP2 PUSH20 0xFFFFFFFFFFFFFFFFFFFFFFFFFFFFFFFFFFFFFFFF AND DUP2 PUSH20 0xFFFFFFFFFFFFFFFFFFFFFFFFFFFFFFFFFFFFFFFF AND PUSH32 0x8BE0079C531659141344CD1FD0A4F28419497F9722A3DAAFE3B4186F6B6457E0 PUSH1 0x40 MLOAD PUSH1 0x40 MLOAD DUP1 SWAP2 SUB SWAP1 LOG3 POP POP JUMP JUMPDEST PUSH0 PUSH2 0x157C DUP4 PUSH2 0x1407 JUMP JUMPDEST SWAP1 POP DUP2 DUP2 PUSH1 0x2 ADD PUSH0 DUP3 DUP3 SLOAD PUSH2 0x1591 SWAP2 SWAP1 PUSH2 0x220F JUMP JUMPDEST SWAP3 POP POP DUP2 SWAP1 SSTORE POP DUP2 PUSH1 0x2 PUSH0 DUP6 DUP2 MSTORE PUSH1 0x20 ADD SWAP1 DUP2 MSTORE PUSH1 0x20 ADD PUSH0 KECCAK256 PUSH0 DUP3 DUP3 SLOAD PUSH2 0x15B8 SWAP2 SWAP1 PUSH2 0x2363 JUMP JUMPDEST SWAP3 POP POP DUP2 SWAP1 SSTORE POP PUSH2 0x15D8 DUP5 DUP4 DUP4 PUSH1 0x3 ADD SLOAD PUSH2 0x15D3 SWAP2 SWAP1 PUSH2 0x2322 JUMP JUMPDEST PUSH2 0x1685 JUMP JUMPDEST PUSH32 0x12CB4648CF3058B17CEEB33E579F8B0BC269FE0843F3900B8E24B6C54871703C DUP5 DUP5 DUP5 PUSH1 0x40 MLOAD PUSH2 0x160B SWAP4 SWAP3 SWAP2 SWAP1 PUSH2 0x1B74 JUMP JUMPDEST PUSH1 0x40 MLOAD DUP1 SWAP2 SUB SWAP1 LOG1 POP POP POP POP JUMP JUMPDEST PUSH0 PUSH0 PUSH0 PUSH0 SWAP1 POP JUMPDEST PUSH1 0x4 DUP1 SLOAD SWAP1 POP DUP2 LT ISZERO PUSH2 0x1671 JUMPI DUP4 PUSH1 0x4 DUP3 DUP2 SLOAD DUP2 LT PUSH2 0x1642 JUMPI PUSH2 0x1641 PUSH2 0x21B5 JUMP JUMPDEST JUMPDEST SWAP1 PUSH0 MSTORE PUSH1 0x20 PUSH0 KECCAK256 SWAP1 PUSH1 0x4 MUL ADD PUSH1 0x1 ADD SLOAD SUB PUSH2 0x1664 JUMPI PUSH1 0x1 DUP2 SWAP3 POP SWAP3 POP POP PUSH2 0x1679 JUMP JUMPDEST DUP1 DUP1 PUSH1 0x1 ADD SWAP2 POP POP PUSH2 0x1620 JUMP JUMPDEST POP PUSH0 PUSH0 SWAP2 POP SWAP2 POP JUMPDEST SWAP2 POP SWAP2 JUMP JUMPDEST PUSH0 CALLER SWAP1 POP SWAP1 JUMP JUMPDEST PUSH1 0x6 PUSH0 DUP2 SLOAD DUP1 SWAP3 SWAP2 SWAP1 PUSH2 0x1697 SWAP1 PUSH2 0x24BD JUMP JUMPDEST SWAP2 SWAP1 POP SSTORE POP PUSH1 0x5 PUSH1 0x40 MLOAD DUP1 PUSH1 0x60 ADD PUSH1 0x40 MSTORE DUP1 DUP5 PUSH20 0xFFFFFFFFFFFFFFFFFFFFFFFFFFFFFFFFFFFFFFFF AND DUP2 MSTORE PUSH1 0x20 ADD PUSH1 0x6 SLOAD DUP2 MSTORE PUSH1 0x20 ADD DUP4 DUP2 MSTORE POP SWAP1 DUP1 PUSH1 0x1 DUP2 SLOAD ADD DUP1 DUP3 SSTORE DUP1 SWAP2 POP POP PUSH1 0x1 SWAP1 SUB SWAP1 PUSH0 MSTORE PUSH1 0x20 PUSH0 KECCAK256 SWAP1 PUSH1 0x3 MUL ADD PUSH0 SWAP1 SWAP2 SWAP1 SWAP2 SWAP1 SWAP2 POP PUSH0 DUP3 ADD MLOAD DUP2 PUSH0 ADD PUSH0 PUSH2 0x100 EXP DUP2 SLOAD DUP2 PUSH20 0xFFFFFFFFFFFFFFFFFFFFFFFFFFFFFFFFFFFFFFFF MUL NOT AND SWAP1 DUP4 PUSH20 0xFFFFFFFFFFFFFFFFFFFFFFFFFFFFFFFFFFFFFFFF AND MUL OR SWAP1 SSTORE POP PUSH1 0x20 DUP3 ADD MLOAD DUP2 PUSH1 0x1 ADD SSTORE PUSH1 0x40 DUP3 ADD MLOAD DUP2 PUSH1 0x2 ADD SSTORE POP POP POP POP JUMP JUMPDEST PUSH1 0x40 MLOAD DUP1 PUSH1 0x60 ADD PUSH1 0x40 MSTORE DUP1 PUSH0 PUSH20 0xFFFFFFFFFFFFFFFFFFFFFFFFFFFFFFFFFFFFFFFF AND DUP2 MSTORE PUSH1 0x20 ADD PUSH0 DUP2 MSTORE PUSH1 0x20 ADD PUSH0 DUP2 MSTORE POP SWAP1 JUMP JUMPDEST DUP3 DUP1 SLOAD DUP3 DUP3 SSTORE SWAP1 PUSH0 MSTORE PUSH1 0x20 PUSH0 KECCAK256 SWAP1 PUSH1 0x3 MUL DUP2 ADD SWAP3 DUP3 ISZERO PUSH2 0x1843 JUMPI PUSH0 MSTORE PUSH1 0x20 PUSH0 KECCAK256 SWAP2 PUSH1 0x3 MUL DUP3 ADD JUMPDEST DUP3 DUP2 GT ISZERO PUSH2 0x1842 JUMPI DUP3 DUP3 PUSH0 DUP3 ADD PUSH0 SWAP1 SLOAD SWAP1 PUSH2 0x100 EXP SWAP1 DIV PUSH20 0xFFFFFFFFFFFFFFFFFFFFFFFFFFFFFFFFFFFFFFFF AND DUP2 PUSH0 ADD PUSH0 PUSH2 0x100 EXP DUP2 SLOAD DUP2 PUSH20 0xFFFFFFFFFFFFFFFFFFFFFFFFFFFFFFFFFFFFFFFF MUL NOT AND SWAP1 DUP4 PUSH20 0xFFFFFFFFFFFFFFFFFFFFFFFFFFFFFFFFFFFFFFFF AND MUL OR SWAP1 SSTORE POP PUSH1 0x1 DUP3 ADD SLOAD DUP2 PUSH1 0x1 ADD SSTORE PUSH1 0x2 DUP3 ADD SLOAD DUP2 PUSH1 0x2 ADD SSTORE POP POP SWAP2 PUSH1 0x3 ADD SWAP2 SWAP1 PUSH1 0x3 ADD SWAP1 PUSH2 0x17B0 JUMP JUMPDEST JUMPDEST POP SWAP1 POP PUSH2 0x1850 SWAP2 SWAP1 PUSH2 0x1891 JUMP JUMPDEST POP SWAP1 JUMP JUMPDEST POP DUP1 SLOAD PUSH2 0x1860 SWAP1 PUSH2 0x1F16 JUMP JUMPDEST PUSH0 DUP3 SSTORE DUP1 PUSH1 0x1F LT PUSH2 0x1871 JUMPI POP PUSH2 0x188E JUMP JUMPDEST PUSH1 0x1F ADD PUSH1 0x20 SWAP1 DIV SWAP1 PUSH0 MSTORE PUSH1 0x20 PUSH0 KECCAK256 SWAP1 DUP2 ADD SWAP1 PUSH2 0x188D SWAP2 SWAP1 PUSH2 0x18DB JUMP JUMPDEST JUMPDEST POP JUMP JUMPDEST JUMPDEST DUP1 DUP3 GT ISZERO PUSH2 0x18D7 JUMPI PUSH0 PUSH0 DUP3 ADD PUSH0 PUSH2 0x100 EXP DUP2 SLOAD SWAP1 PUSH20 0xFFFFFFFFFFFFFFFFFFFFFFFFFFFFFFFFFFFFFFFF MUL NOT AND SWAP1 SSTORE PUSH1 0x1 DUP3 ADD PUSH0 SWAP1 SSTORE PUSH1 0x2 DUP3 ADD PUSH0 SWAP1 SSTORE POP PUSH1 0x3 ADD PUSH2 0x1892 JUMP JUMPDEST POP SWAP1 JUMP JUMPDEST JUMPDEST DUP1 DUP3 GT ISZERO PUSH2 0x18F2 JUMPI PUSH0 DUP2 PUSH0 SWAP1 SSTORE POP PUSH1 0x1 ADD PUSH2 0x18DC JUMP JUMPDEST POP SWAP1 JUMP JUMPDEST PUSH0 PUSH0 REVERT JUMPDEST PUSH0 PUSH0 REVERT JUMPDEST PUSH0 PUSH0 REVERT JUMPDEST PUSH0 PUSH0 REVERT JUMPDEST PUSH0 PUSH0 REVERT JUMPDEST PUSH0 PUSH0 DUP4 PUSH1 0x1F DUP5 ADD SLT PUSH2 0x191F JUMPI PUSH2 0x191E PUSH2 0x18FE JUMP JUMPDEST JUMPDEST DUP3 CALLDATALOAD SWAP1 POP PUSH8 0xFFFFFFFFFFFFFFFF DUP2 GT ISZERO PUSH2 0x193C JUMPI PUSH2 0x193B PUSH2 0x1902 JUMP JUMPDEST JUMPDEST PUSH1 0x20 DUP4 ADD SWAP2 POP DUP4 PUSH1 0x1 DUP3 MUL DUP4 ADD GT ISZERO PUSH2 0x1958 JUMPI PUSH2 0x1957 PUSH2 0x1906 JUMP JUMPDEST JUMPDEST SWAP3 POP SWAP3 SWAP1 POP JUMP JUMPDEST PUSH0 DUP2 SWAP1 POP SWAP2 SWAP1 POP JUMP JUMPDEST PUSH2 0x1971 DUP2 PUSH2 0x195F JUMP JUMPDEST DUP2 EQ PUSH2 0x197B JUMPI PUSH0 PUSH0 REVERT JUMPDEST POP JUMP JUMPDEST PUSH0 DUP2 CALLDATALOAD SWAP1 POP PUSH2 0x198C DUP2 PUSH2 0x1968 JUMP JUMPDEST SWAP3 SWAP2 POP POP JUMP JUMPDEST PUSH0 PUSH0 PUSH0 PUSH0 PUSH0 PUSH1 0x80 DUP7 DUP9 SUB SLT ISZERO PUSH2 0x19AB JUMPI PUSH2 0x19AA PUSH2 0x18F6 JUMP JUMPDEST JUMPDEST PUSH0 DUP7 ADD CALLDATALOAD PUSH8 0xFFFFFFFFFFFFFFFF DUP2 GT ISZERO PUSH2 0x19C8 JUMPI PUSH2 0x19C7 PUSH2 0x18FA JUMP JUMPDEST JUMPDEST PUSH2 0x19D4 DUP9 DUP3 DUP10 ADD PUSH2 0x190A JUMP JUMPDEST SWAP6 POP SWAP6 POP POP PUSH1 0x20 PUSH2 0x19E7 DUP9 DUP3 DUP10 ADD PUSH2 0x197E JUMP JUMPDEST SWAP4 POP POP PUSH1 0x40 PUSH2 0x19F8 DUP9 DUP3 DUP10 ADD PUSH2 0x197E JUMP JUMPDEST SWAP3 POP POP PUSH1 0x60 PUSH2 0x1A09 DUP9 DUP3 DUP10 ADD PUSH2 0x197E JUMP JUMPDEST SWAP2 POP POP SWAP3 SWAP6 POP SWAP3 SWAP6 SWAP1 SWAP4 POP JUMP JUMPDEST PUSH0 PUSH20 0xFFFFFFFFFFFFFFFFFFFFFFFFFFFFFFFFFFFFFFFF DUP3 AND SWAP1 POP SWAP2 SWAP1 POP JUMP JUMPDEST PUSH0 PUSH2 0x1A3F DUP3 PUSH2 0x1A16 JUMP JUMPDEST SWAP1 POP SWAP2 SWAP1 POP JUMP JUMPDEST PUSH2 0x1A4F DUP2 PUSH2 0x1A35 JUMP JUMPDEST DUP2 EQ PUSH2 0x1A59 JUMPI PUSH0 PUSH0 REVERT JUMPDEST POP JUMP JUMPDEST PUSH0 DUP2 CALLDATALOAD SWAP1 POP PUSH2 0x1A6A DUP2 PUSH2 0x1A46 JUMP JUMPDEST SWAP3 SWAP2 POP POP JUMP JUMPDEST PUSH0 PUSH1 0x20 DUP3 DUP5 SUB SLT ISZERO PUSH2 0x1A85 JUMPI PUSH2 0x1A84 PUSH2 0x18F6 JUMP JUMPDEST JUMPDEST PUSH0 PUSH2 0x1A92 DUP5 DUP3 DUP6 ADD PUSH2 0x1A5C JUMP JUMPDEST SWAP2 POP POP SWAP3 SWAP2 POP POP JUMP JUMPDEST PUSH2 0x1AA4 DUP2 PUSH2 0x1A35 JUMP JUMPDEST DUP3 MSTORE POP POP JUMP JUMPDEST PUSH2 0x1AB3 DUP2 PUSH2 0x195F JUMP JUMPDEST DUP3 MSTORE POP POP JUMP JUMPDEST PUSH1 0x60 DUP3 ADD PUSH0 DUP3 ADD MLOAD PUSH2 0x1ACD PUSH0 DUP6 ADD DUP3 PUSH2 0x1A9B JUMP JUMPDEST POP PUSH1 0x20 DUP3 ADD MLOAD PUSH2 0x1AE0 PUSH1 0x20 DUP6 ADD DUP3 PUSH2 0x1AAA JUMP JUMPDEST POP PUSH1 0x40 DUP3 ADD MLOAD PUSH2 0x1AF3 PUSH1 0x40 DUP6 ADD DUP3 PUSH2 0x1AAA JUMP JUMPDEST POP POP POP POP JUMP JUMPDEST PUSH0 PUSH1 0x60 DUP3 ADD SWAP1 POP PUSH2 0x1B0C PUSH0 DUP4 ADD DUP5 PUSH2 0x1AB9 JUMP JUMPDEST SWAP3 SWAP2 POP POP JUMP JUMPDEST PUSH0 PUSH1 0x20 DUP3 DUP5 SUB SLT ISZERO PUSH2 0x1B27 JUMPI PUSH2 0x1B26 PUSH2 0x18F6 JUMP JUMPDEST JUMPDEST PUSH0 PUSH2 0x1B34 DUP5 DUP3 DUP6 ADD PUSH2 0x197E JUMP JUMPDEST SWAP2 POP POP SWAP3 SWAP2 POP POP JUMP JUMPDEST PUSH2 0x1B46 DUP2 PUSH2 0x195F JUMP JUMPDEST DUP3 MSTORE POP POP JUMP JUMPDEST PUSH0 PUSH1 0x20 DUP3 ADD SWAP1 POP PUSH2 0x1B5F PUSH0 DUP4 ADD DUP5 PUSH2 0x1B3D JUMP JUMPDEST SWAP3 SWAP2 POP POP JUMP JUMPDEST PUSH2 0x1B6E DUP2 PUSH2 0x1A35 JUMP JUMPDEST DUP3 MSTORE POP POP JUMP JUMPDEST PUSH0 PUSH1 0x60 DUP3 ADD SWAP1 POP PUSH2 0x1B87 PUSH0 DUP4 ADD DUP7 PUSH2 0x1B65 JUMP JUMPDEST PUSH2 0x1B94 PUSH1 0x20 DUP4 ADD DUP6 PUSH2 0x1B3D JUMP JUMPDEST PUSH2 0x1BA1 PUSH1 0x40 DUP4 ADD DUP5 PUSH2 0x1B3D JUMP JUMPDEST SWAP5 SWAP4 POP POP POP POP JUMP JUMPDEST PUSH0 PUSH0 PUSH1 0x40 DUP4 DUP6 SUB SLT ISZERO PUSH2 0x1BBF JUMPI PUSH2 0x1BBE PUSH2 0x18F6 JUMP JUMPDEST JUMPDEST PUSH0 PUSH2 0x1BCC DUP6 DUP3 DUP7 ADD PUSH2 0x1A5C JUMP JUMPDEST SWAP3 POP POP PUSH1 0x20 PUSH2 0x1BDD DUP6 DUP3 DUP7 ADD PUSH2 0x197E JUMP JUMPDEST SWAP2 POP POP SWAP3 POP SWAP3 SWAP1 POP JUMP JUMPDEST PUSH0 PUSH0 DUP4 PUSH1 0x1F DUP5 ADD SLT PUSH2 0x1BFC JUMPI PUSH2 0x1BFB PUSH2 0x18FE JUMP JUMPDEST JUMPDEST DUP3 CALLDATALOAD SWAP1 POP PUSH8 0xFFFFFFFFFFFFFFFF DUP2 GT ISZERO PUSH2 0x1C19 JUMPI PUSH2 0x1C18 PUSH2 0x1902 JUMP JUMPDEST JUMPDEST PUSH1 0x20 DUP4 ADD SWAP2 POP DUP4 PUSH1 0x20 DUP3 MUL DUP4 ADD GT ISZERO PUSH2 0x1C35 JUMPI PUSH2 0x1C34 PUSH2 0x1906 JUMP JUMPDEST JUMPDEST SWAP3 POP SWAP3 SWAP1 POP JUMP JUMPDEST PUSH0 PUSH0 PUSH0 PUSH0 PUSH1 0x40 DUP6 DUP8 SUB SLT ISZERO PUSH2 0x1C54 JUMPI PUSH2 0x1C53 PUSH2 0x18F6 JUMP JUMPDEST JUMPDEST PUSH0 DUP6 ADD CALLDATALOAD PUSH8 0xFFFFFFFFFFFFFFFF DUP2 GT ISZERO PUSH2 0x1C71 JUMPI PUSH2 0x1C70 PUSH2 0x18FA JUMP JUMPDEST JUMPDEST PUSH2 0x1C7D DUP8 DUP3 DUP9 ADD PUSH2 0x1BE7 JUMP JUMPDEST SWAP5 POP SWAP5 POP POP PUSH1 0x20 DUP6 ADD CALLDATALOAD PUSH8 0xFFFFFFFFFFFFFFFF DUP2 GT ISZERO PUSH2 0x1CA0 JUMPI PUSH2 0x1C9F PUSH2 0x18FA JUMP JUMPDEST JUMPDEST PUSH2 0x1CAC DUP8 DUP3 DUP9 ADD PUSH2 0x1BE7 JUMP JUMPDEST SWAP3 POP SWAP3 POP POP SWAP3 SWAP6 SWAP2 SWAP5 POP SWAP3 POP JUMP JUMPDEST PUSH0 PUSH0 PUSH1 0x40 DUP4 DUP6 SUB SLT ISZERO PUSH2 0x1CD0 JUMPI PUSH2 0x1CCF PUSH2 0x18F6 JUMP JUMPDEST JUMPDEST PUSH0 PUSH2 0x1CDD DUP6 DUP3 DUP7 ADD PUSH2 0x197E JUMP JUMPDEST SWAP3 POP POP PUSH1 0x20 PUSH2 0x1CEE DUP6 DUP3 DUP7 ADD PUSH2 0x197E JUMP JUMPDEST SWAP2 POP POP SWAP3 POP SWAP3 SWAP1 POP JUMP JUMPDEST PUSH0 PUSH1 0x20 DUP3 ADD SWAP1 POP PUSH2 0x1D0B PUSH0 DUP4 ADD DUP5 PUSH2 0x1B65 JUMP JUMPDEST SWAP3 SWAP2 POP POP JUMP JUMPDEST PUSH0 DUP2 MLOAD SWAP1 POP SWAP2 SWAP1 POP JUMP JUMPDEST PUSH0 DUP3 DUP3 MSTORE PUSH1 0x20 DUP3 ADD SWAP1 POP SWAP3 SWAP2 POP POP JUMP JUMPDEST PUSH0 DUP2 SWAP1 POP PUSH1 0x20 DUP3 ADD SWAP1 POP SWAP2 SWAP1 POP JUMP JUMPDEST PUSH0 DUP2 MLOAD SWAP1 POP SWAP2 SWAP1 POP JUMP JUMPDEST PUSH0 DUP3 DUP3 MSTORE PUSH1 0x20 DUP3 ADD SWAP1 POP SWAP3 SWAP2 POP POP JUMP JUMPDEST DUP3 DUP2 DUP4 MCOPY PUSH0 DUP4 DUP4 ADD MSTORE POP POP POP JUMP JUMPDEST PUSH0 PUSH1 0x1F NOT PUSH1 0x1F DUP4 ADD AND SWAP1 POP SWAP2 SWAP1 POP JUMP JUMPDEST PUSH0 PUSH2 0x1D7C DUP3 PUSH2 0x1D3A JUMP JUMPDEST PUSH2 0x1D86 DUP2 DUP6 PUSH2 0x1D44 JUMP JUMPDEST SWAP4 POP PUSH2 0x1D96 DUP2 DUP6 PUSH1 0x20 DUP7 ADD PUSH2 0x1D54 JUMP JUMPDEST PUSH2 0x1D9F DUP2 PUSH2 0x1D62 JUMP JUMPDEST DUP5 ADD SWAP2 POP POP SWAP3 SWAP2 POP POP JUMP JUMPDEST PUSH0 PUSH1 0x80 DUP4 ADD PUSH0 DUP4 ADD MLOAD DUP5 DUP3 SUB PUSH0 DUP7 ADD MSTORE PUSH2 0x1DC4 DUP3 DUP3 PUSH2 0x1D72 JUMP JUMPDEST SWAP2 POP POP PUSH1 0x20 DUP4 ADD MLOAD PUSH2 0x1DD9 PUSH1 0x20 DUP7 ADD DUP3 PUSH2 0x1AAA JUMP JUMPDEST POP PUSH1 0x40 DUP4 ADD MLOAD PUSH2 0x1DEC PUSH1 0x40 DUP7 ADD DUP3 PUSH2 0x1AAA JUMP JUMPDEST POP PUSH1 0x60 DUP4 ADD MLOAD PUSH2 0x1DFF PUSH1 0x60 DUP7 ADD DUP3 PUSH2 0x1AAA JUMP JUMPDEST POP DUP1 SWAP2 POP POP SWAP3 SWAP2 POP POP JUMP JUMPDEST PUSH0 PUSH2 0x1E15 DUP4 DUP4 PUSH2 0x1DAA JUMP JUMPDEST SWAP1 POP SWAP3 SWAP2 POP POP JUMP JUMPDEST PUSH0 PUSH1 0x20 DUP3 ADD SWAP1 POP SWAP2 SWAP1 POP JUMP JUMPDEST PUSH0 PUSH2 0x1E33 DUP3 PUSH2 0x1D11 JUMP JUMPDEST PUSH2 0x1E3D DUP2 DUP6 PUSH2 0x1D1B JUMP JUMPDEST SWAP4 POP DUP4 PUSH1 0x20 DUP3 MUL DUP6 ADD PUSH2 0x1E4F DUP6 PUSH2 0x1D2B JUMP JUMPDEST DUP1 PUSH0 JUMPDEST DUP6 DUP2 LT ISZERO PUSH2 0x1E8A JUMPI DUP5 DUP5 SUB DUP10 MSTORE DUP2 MLOAD PUSH2 0x1E6B DUP6 DUP3 PUSH2 0x1E0A JUMP JUMPDEST SWAP5 POP PUSH2 0x1E76 DUP4 PUSH2 0x1E1D JUMP JUMPDEST SWAP3 POP PUSH1 0x20 DUP11 ADD SWAP10 POP POP PUSH1 0x1 DUP2 ADD SWAP1 POP PUSH2 0x1E52 JUMP JUMPDEST POP DUP3 SWAP8 POP DUP8 SWAP6 POP POP POP POP POP POP SWAP3 SWAP2 POP POP JUMP JUMPDEST PUSH0 PUSH1 0x20 DUP3 ADD SWAP1 POP DUP2 DUP2 SUB PUSH0 DUP4 ADD MSTORE PUSH2 0x1EB4 DUP2 DUP5 PUSH2 0x1E29 JUMP JUMPDEST SWAP1 POP SWAP3 SWAP2 POP POP JUMP JUMPDEST PUSH32 0x4E487B7100000000000000000000000000000000000000000000000000000000 PUSH0 MSTORE PUSH1 0x41 PUSH1 0x4 MSTORE PUSH1 0x24 PUSH0 REVERT JUMPDEST PUSH32 0x4E487B7100000000000000000000000000000000000000000000000000000000 PUSH0 MSTORE PUSH1 0x22 PUSH1 0x4 MSTORE PUSH1 0x24 PUSH0 REVERT JUMPDEST PUSH0 PUSH1 0x2 DUP3 DIV SWAP1 POP PUSH1 0x1 DUP3 AND DUP1 PUSH2 0x1F2D JUMPI PUSH1 0x7F DUP3 AND SWAP2 POP JUMPDEST PUSH1 0x20 DUP3 LT DUP2 SUB PUSH2 0x1F40 JUMPI PUSH2 0x1F3F PUSH2 0x1EE9 JUMP JUMPDEST JUMPDEST POP SWAP2 SWAP1 POP JUMP JUMPDEST PUSH0 DUP2 SWAP1 POP DUP2 PUSH0 MSTORE PUSH1 0x20 PUSH0 KECCAK256 SWAP1 POP SWAP2 SWAP1 POP JUMP JUMPDEST PUSH0 PUSH1 0x20 PUSH1 0x1F DUP4 ADD DIV SWAP1 POP SWAP2 SWAP1 POP JUMP JUMPDEST PUSH0 DUP3 DUP3 SHL SWAP1 POP SWAP3 SWAP2 POP POP JUMP JUMPDEST PUSH0 PUSH1 0x8 DUP4 MUL PUSH2 0x1FA2 PUSH32 0xFFFFFFFFFFFFFFFFFFFFFFFFFFFFFFFFFFFFFFFFFFFFFFFFFFFFFFFFFFFFFFFF DUP3 PUSH2 0x1F67 JUMP JUMPDEST PUSH2 0x1FAC DUP7 DUP4 PUSH2 0x1F67 JUMP JUMPDEST SWAP6 POP DUP1 NOT DUP5 AND SWAP4 POP DUP1 DUP7 AND DUP5 OR SWAP3 POP POP POP SWAP4 SWAP3 POP POP POP JUMP JUMPDEST PUSH0 DUP2 SWAP1 POP SWAP2 SWAP1 POP JUMP JUMPDEST PUSH0 PUSH2 0x1FE7 PUSH2 0x1FE2 PUSH2 0x1FDD DUP5 PUSH2 0x195F JUMP JUMPDEST PUSH2 0x1FC4 JUMP JUMPDEST PUSH2 0x195F JUMP JUMPDEST SWAP1 POP SWAP2 SWAP1 POP JUMP JUMPDEST PUSH0 DUP2 SWAP1 POP SWAP2 SWAP1 POP JUMP JUMPDEST PUSH2 0x2000 DUP4 PUSH2 0x1FCD JUMP JUMPDEST PUSH2 0x2014 PUSH2 0x200C DUP3 PUSH2 0x1FEE JUMP JUMPDEST DUP5 DUP5 SLOAD PUSH2 0x1F73 JUMP JUMPDEST DUP3 SSTORE POP POP POP POP JUMP JUMPDEST PUSH0 PUSH0 SWAP1 POP SWAP1 JUMP JUMPDEST PUSH2 0x202B PUSH2 0x201C JUMP JUMPDEST PUSH2 0x2036 DUP2 DUP5 DUP5 PUSH2 0x1FF7 JUMP JUMPDEST POP POP POP JUMP JUMPDEST JUMPDEST DUP2 DUP2 LT ISZERO PUSH2 0x2059 JUMPI PUSH2 0x204E PUSH0 DUP3 PUSH2 0x2023 JUMP JUMPDEST PUSH1 0x1 DUP2 ADD SWAP1 POP PUSH2 0x203C JUMP JUMPDEST POP POP JUMP JUMPDEST PUSH1 0x1F DUP3 GT ISZERO PUSH2 0x209E JUMPI PUSH2 0x206F DUP2 PUSH2 0x1F46 JUMP JUMPDEST PUSH2 0x2078 DUP5 PUSH2 0x1F58 JUMP JUMPDEST DUP2 ADD PUSH1 0x20 DUP6 LT ISZERO PUSH2 0x2087 JUMPI DUP2 SWAP1 POP JUMPDEST PUSH2 0x209B PUSH2 0x2093 DUP6 PUSH2 0x1F58 JUMP JUMPDEST DUP4 ADD DUP3 PUSH2 0x203B JUMP JUMPDEST POP POP JUMPDEST POP POP POP JUMP JUMPDEST PUSH0 DUP3 DUP3 SHR SWAP1 POP SWAP3 SWAP2 POP POP JUMP JUMPDEST PUSH0 PUSH2 0x20BE PUSH0 NOT DUP5 PUSH1 0x8 MUL PUSH2 0x20A3 JUMP JUMPDEST NOT DUP1 DUP4 AND SWAP2 POP POP SWAP3 SWAP2 POP POP JUMP JUMPDEST PUSH0 PUSH2 0x20D6 DUP4 DUP4 PUSH2 0x20AF JUMP JUMPDEST SWAP2 POP DUP3 PUSH1 0x2 MUL DUP3 OR SWAP1 POP SWAP3 SWAP2 POP POP JUMP JUMPDEST PUSH2 0x20EF DUP3 PUSH2 0x1D3A JUMP JUMPDEST PUSH8 0xFFFFFFFFFFFFFFFF DUP2 GT ISZERO PUSH2 0x2108 JUMPI PUSH2 0x2107 PUSH2 0x1EBC JUMP JUMPDEST JUMPDEST PUSH2 0x2112 DUP3 SLOAD PUSH2 0x1F16 JUMP JUMPDEST PUSH2 0x211D DUP3 DUP3 DUP6 PUSH2 0x205D JUMP JUMPDEST PUSH0 PUSH1 0x20 SWAP1 POP PUSH1 0x1F DUP4 GT PUSH1 0x1 DUP2 EQ PUSH2 0x214E JUMPI PUSH0 DUP5 ISZERO PUSH2 0x213C JUMPI DUP3 DUP8 ADD MLOAD SWAP1 POP JUMPDEST PUSH2 0x2146 DUP6 DUP3 PUSH2 0x20CB JUMP JUMPDEST DUP7 SSTORE POP PUSH2 0x21AD JUMP JUMPDEST PUSH1 0x1F NOT DUP5 AND PUSH2 0x215C DUP7 PUSH2 0x1F46 JUMP JUMPDEST PUSH0 JUMPDEST DUP3 DUP2 LT ISZERO PUSH2 0x2183 JUMPI DUP5 DUP10 ADD MLOAD DUP3 SSTORE PUSH1 0x1 DUP3 ADD SWAP2 POP PUSH1 0x20 DUP6 ADD SWAP5 POP PUSH1 0x20 DUP2 ADD SWAP1 POP PUSH2 0x215E JUMP JUMPDEST DUP7 DUP4 LT ISZERO PUSH2 0x21A0 JUMPI DUP5 DUP10 ADD MLOAD PUSH2 0x219C PUSH1 0x1F DUP10 AND DUP3 PUSH2 0x20AF JUMP JUMPDEST DUP4 SSTORE POP JUMPDEST PUSH1 0x1 PUSH1 0x2 DUP9 MUL ADD DUP9 SSTORE POP POP POP JUMPDEST POP POP POP POP POP POP JUMP JUMPDEST PUSH32 0x4E487B7100000000000000000000000000000000000000000000000000000000 PUSH0 MSTORE PUSH1 0x32 PUSH1 0x4 MSTORE PUSH1 0x24 PUSH0 REVERT JUMPDEST PUSH32 0x4E487B7100000000000000000000000000000000000000000000000000000000 PUSH0 MSTORE PUSH1 0x11 PUSH1 0x4 MSTORE PUSH1 0x24 PUSH0 REVERT JUMPDEST PUSH0 PUSH2 0x2219 DUP3 PUSH2 0x195F JUMP JUMPDEST SWAP2 POP PUSH2 0x2224 DUP4 PUSH2 0x195F JUMP JUMPDEST SWAP3 POP DUP3 DUP3 SUB SWAP1 POP DUP2 DUP2 GT ISZERO PUSH2 0x223C JUMPI PUSH2 0x223B PUSH2 0x21E2 JUMP JUMPDEST JUMPDEST SWAP3 SWAP2 POP POP JUMP JUMPDEST PUSH0 DUP3 DUP3 MSTORE PUSH1 0x20 DUP3 ADD SWAP1 POP SWAP3 SWAP2 POP POP JUMP JUMPDEST PUSH32 0x4E6F7420656E6F75676874206D6F6E6579000000000000000000000000000000 PUSH0 DUP3 ADD MSTORE POP JUMP JUMPDEST PUSH0 PUSH2 0x2286 PUSH1 0x11 DUP4 PUSH2 0x2242 JUMP JUMPDEST SWAP2 POP PUSH2 0x2291 DUP3 PUSH2 0x2252 JUMP JUMPDEST PUSH1 0x20 DUP3 ADD SWAP1 POP SWAP2 SWAP1 POP JUMP JUMPDEST PUSH0 PUSH1 0x20 DUP3 ADD SWAP1 POP DUP2 DUP2 SUB PUSH0 DUP4 ADD MSTORE PUSH2 0x22B3 DUP2 PUSH2 0x227A JUMP JUMPDEST SWAP1 POP SWAP2 SWAP1 POP JUMP JUMPDEST PUSH32 0x617272617973206C656E67687473206D69736D61746368000000000000000000 PUSH0 DUP3 ADD MSTORE POP JUMP JUMPDEST PUSH0 PUSH2 0x22EE PUSH1 0x17 DUP4 PUSH2 0x2242 JUMP JUMPDEST SWAP2 POP PUSH2 0x22F9 DUP3 PUSH2 0x22BA JUMP JUMPDEST PUSH1 0x20 DUP3 ADD SWAP1 POP SWAP2 SWAP1 POP JUMP JUMPDEST PUSH0 PUSH1 0x20 DUP3 ADD SWAP1 POP DUP2 DUP2 SUB PUSH0 DUP4 ADD MSTORE PUSH2 0x231B DUP2 PUSH2 0x22E2 JUMP JUMPDEST SWAP1 POP SWAP2 SWAP1 POP JUMP JUMPDEST PUSH0 PUSH2 0x232C DUP3 PUSH2 0x195F JUMP JUMPDEST SWAP2 POP PUSH2 0x2337 DUP4 PUSH2 0x195F JUMP JUMPDEST SWAP3 POP DUP3 DUP3 MUL PUSH2 0x2345 DUP2 PUSH2 0x195F JUMP JUMPDEST SWAP2 POP DUP3 DUP3 DIV DUP5 EQ DUP4 ISZERO OR PUSH2 0x235C JUMPI PUSH2 0x235B PUSH2 0x21E2 JUMP JUMPDEST JUMPDEST POP SWAP3 SWAP2 POP POP JUMP JUMPDEST PUSH0 PUSH2 0x236D DUP3 PUSH2 0x195F JUMP JUMPDEST SWAP2 POP PUSH2 0x2378 DUP4 PUSH2 0x195F JUMP JUMPDEST SWAP3 POP DUP3 DUP3 ADD SWAP1 POP DUP1 DUP3 GT ISZERO PUSH2 0x2390 JUMPI PUSH2 0x238F PUSH2 0x21E2 JUMP JUMPDEST JUMPDEST SWAP3 SWAP2 POP POP JUMP JUMPDEST PUSH0 DUP2 SLOAD SWAP1 POP PUSH2 0x23A4 DUP2 PUSH2 0x1F16 JUMP JUMPDEST SWAP1 POP SWAP2 SWAP1 POP JUMP JUMPDEST DUP2 DUP2 SUB PUSH2 0x23B9 JUMPI POP POP PUSH2 0x248E JUMP JUMPDEST PUSH2 0x23C2 DUP3 PUSH2 0x2396 JUMP JUMPDEST PUSH8 0xFFFFFFFFFFFFFFFF DUP2 GT ISZERO PUSH2 0x23DB JUMPI PUSH2 0x23DA PUSH2 0x1EBC JUMP JUMPDEST JUMPDEST PUSH2 0x23E5 DUP3 SLOAD PUSH2 0x1F16 JUMP JUMPDEST PUSH2 0x23F0 DUP3 DUP3 DUP6 PUSH2 0x205D JUMP JUMPDEST PUSH0 PUSH1 0x1F DUP4 GT PUSH1 0x1 DUP2 EQ PUSH2 0x241D JUMPI PUSH0 DUP5 ISZERO PUSH2 0x240B JUMPI DUP3 DUP8 ADD SLOAD SWAP1 POP JUMPDEST PUSH2 0x2415 DUP6 DUP3 PUSH2 0x20CB JUMP JUMPDEST DUP7 SSTORE POP PUSH2 0x2487 JUMP JUMPDEST PUSH1 0x1F NOT DUP5 AND PUSH2 0x242B DUP8 PUSH2 0x1F46 JUMP JUMPDEST SWAP7 POP PUSH2 0x2436 DUP7 PUSH2 0x1F46 JUMP JUMPDEST PUSH0 JUMPDEST DUP3 DUP2 LT ISZERO PUSH2 0x245D JUMPI DUP5 DUP10 ADD SLOAD DUP3 SSTORE PUSH1 0x1 DUP3 ADD SWAP2 POP PUSH1 0x1 DUP6 ADD SWAP5 POP PUSH1 0x20 DUP2 ADD SWAP1 POP PUSH2 0x2438 JUMP JUMPDEST DUP7 DUP4 LT ISZERO PUSH2 0x247A JUMPI DUP5 DUP10 ADD SLOAD PUSH2 0x2476 PUSH1 0x1F DUP10 AND DUP3 PUSH2 0x20AF JUMP JUMPDEST DUP4 SSTORE POP JUMPDEST PUSH1 0x1 PUSH1 0x2 DUP9 MUL ADD DUP9 SSTORE POP POP POP JUMPDEST POP POP POP POP POP POP JUMPDEST JUMP JUMPDEST PUSH32 0x4E487B7100000000000000000000000000000000000000000000000000000000 PUSH0 MSTORE PUSH1 0x31 PUSH1 0x4 MSTORE PUSH1 0x24 PUSH0 REVERT JUMPDEST PUSH0 PUSH2 0x24C7 DUP3 PUSH2 0x195F JUMP JUMPDEST SWAP2 POP PUSH32 0xFFFFFFFFFFFFFFFFFFFFFFFFFFFFFFFFFFFFFFFFFFFFFFFFFFFFFFFFFFFFFFFF DUP3 SUB PUSH2 0x24F9 JUMPI PUSH2 0x24F8 PUSH2 0x21E2 JUMP JUMPDEST JUMPDEST PUSH1 0x1 DUP3 ADD SWAP1 POP SWAP2 SWAP1 POP JUMP INVALID LOG2 PUSH5 0x6970667358 0x22 SLT KECCAK256 EQ CALLVALUE 0xB6 0xE9 PUSH3 0xA54196 PUSH14 0xB5BFECB9B0C504C1D87AC0D36563 EXTCODESIZE GAS NUMBER 0xB4 SWAP14 PUSH19 0x92DC0F64736F6C634300081E00330000000000 "
				},
				"gasEstimates": {
					"creation": {
						"codeDepositCost": "1906000",
						"executionCost": "infinite",
						"totalCost": "infinite"
					},
					"external": {
						"addProduct(string,uint256,uint256,uint256)": "infinite",
						"batchBuy(uint256[],uint256[])": "infinite",
						"buy(uint256,uint256)": "infinite",
						"deleteProduct(uint256)": "infinite",
						"getLastPurchase(address)": "infinite",
						"getPrice(uint256)": "infinite",
						"getProducts()": "infinite",
						"getStock(uint256)": "infinite",
						"getTotalRevenue()": "infinite",
						"getUserPurchase(address)": "infinite",
						"owner()": "2537",
						"productsPurchase(uint256)": "infinite",
						"purchases(uint256)": "infinite",
						"purchasesForCurrentBuyer(uint256)": "infinite",
						"refund(address)": "infinite",
						"renounceOwnership()": "infinite",
						"transferOwnership(address)": "infinite",
						"updatePrice(uint256,uint256)": "infinite",
						"updateStock(uint256,uint256)": "infinite",
						"userPurchase(address,uint256)": "infinite",
						"withdraw()": "infinite"
					},
					"internal": {
						"_buyProcess(address,uint256,uint256)": "infinite",
						"findIndexById(uint256)": "infinite",
						"findProduct(uint256)": "infinite",
						"isIdExist(uint256)": "infinite",
						"setPurchaseHistory(address,uint256)": "infinite"
					}
				},
				"methodIdentifiers": {
					"addProduct(string,uint256,uint256,uint256)": "094455c4",
					"batchBuy(uint256[],uint256[])": "723cdb1d",
					"buy(uint256,uint256)": "d6febde8",
					"deleteProduct(uint256)": "ed90c7b7",
					"getLastPurchase(address)": "1328ed34",
					"getPrice(uint256)": "e7572230",
					"getProducts()": "c29b2f20",
					"getStock(uint256)": "3ab7d09a",
					"getTotalRevenue()": "957fae96",
					"getUserPurchase(address)": "bda235da",
					"owner()": "8da5cb5b",
					"productsPurchase(uint256)": "ce4df381",
					"purchases(uint256)": "8392fe31",
					"purchasesForCurrentBuyer(uint256)": "58025212",
					"refund(address)": "fa89401a",
					"renounceOwnership()": "715018a6",
					"transferOwnership(address)": "f2fde38b",
					"updatePrice(uint256,uint256)": "82367b2d",
					"updateStock(uint256,uint256)": "9dfc3dd1",
					"userPurchase(address,uint256)": "6038d0cf",
					"withdraw()": "3ccfd60b"
				}
			},
			"storageLayout": {
				"storage": [
					{
						"astId": 8,
						"contract": "contracts/Shope.sol:Store",
						"label": "_owner",
						"offset": 0,
						"slot": "0",
						"type": "t_address"
					},
					{
						"astId": 190,
						"contract": "contracts/Shope.sol:Store",
						"label": "userPurchase",
						"offset": 0,
						"slot": "1",
						"type": "t_mapping(t_address,t_array(t_struct(PurchaseHistory)213_storage)dyn_storage)"
					},
					{
						"astId": 195,
						"contract": "contracts/Shope.sol:Store",
						"label": "productsPurchase",
						"offset": 0,
						"slot": "2",
						"type": "t_mapping(t_uint256,t_uint256)"
					},
					{
						"astId": 217,
						"contract": "contracts/Shope.sol:Store",
						"label": "purchasesForCurrentBuyer",
						"offset": 0,
						"slot": "3",
						"type": "t_array(t_struct(PurchaseHistory)213_storage)dyn_storage"
					},
					{
						"astId": 221,
						"contract": "contracts/Shope.sol:Store",
						"label": "products",
						"offset": 0,
						"slot": "4",
						"type": "t_array(t_struct(Product)205_storage)dyn_storage"
					},
					{
						"astId": 225,
						"contract": "contracts/Shope.sol:Store",
						"label": "purchases",
						"offset": 0,
						"slot": "5",
						"type": "t_array(t_struct(PurchaseHistory)213_storage)dyn_storage"
					},
					{
						"astId": 227,
						"contract": "contracts/Shope.sol:Store",
						"label": "purchaseId",
						"offset": 0,
						"slot": "6",
						"type": "t_uint256"
					}
				],
				"types": {
					"t_address": {
						"encoding": "inplace",
						"label": "address",
						"numberOfBytes": "20"
					},
					"t_array(t_struct(Product)205_storage)dyn_storage": {
						"base": "t_struct(Product)205_storage",
						"encoding": "dynamic_array",
						"label": "struct Store.Product[]",
						"numberOfBytes": "32"
					},
					"t_array(t_struct(PurchaseHistory)213_storage)dyn_storage": {
						"base": "t_struct(PurchaseHistory)213_storage",
						"encoding": "dynamic_array",
						"label": "struct Store.PurchaseHistory[]",
						"numberOfBytes": "32"
					},
					"t_mapping(t_address,t_array(t_struct(PurchaseHistory)213_storage)dyn_storage)": {
						"encoding": "mapping",
						"key": "t_address",
						"label": "mapping(address => struct Store.PurchaseHistory[])",
						"numberOfBytes": "32",
						"value": "t_array(t_struct(PurchaseHistory)213_storage)dyn_storage"
					},
					"t_mapping(t_uint256,t_uint256)": {
						"encoding": "mapping",
						"key": "t_uint256",
						"label": "mapping(uint256 => uint256)",
						"numberOfBytes": "32",
						"value": "t_uint256"
					},
					"t_string_storage": {
						"encoding": "bytes",
						"label": "string",
						"numberOfBytes": "32"
					},
					"t_struct(Product)205_storage": {
						"encoding": "inplace",
						"label": "struct Store.Product",
						"members": [
							{
								"astId": 198,
								"contract": "contracts/Shope.sol:Store",
								"label": "name",
								"offset": 0,
								"slot": "0",
								"type": "t_string_storage"
							},
							{
								"astId": 200,
								"contract": "contracts/Shope.sol:Store",
								"label": "id",
								"offset": 0,
								"slot": "1",
								"type": "t_uint256"
							},
							{
								"astId": 202,
								"contract": "contracts/Shope.sol:Store",
								"label": "stock",
								"offset": 0,
								"slot": "2",
								"type": "t_uint256"
							},
							{
								"astId": 204,
								"contract": "contracts/Shope.sol:Store",
								"label": "price",
								"offset": 0,
								"slot": "3",
								"type": "t_uint256"
							}
						],
						"numberOfBytes": "128"
					},
					"t_struct(PurchaseHistory)213_storage": {
						"encoding": "inplace",
						"label": "struct Store.PurchaseHistory",
						"members": [
							{
								"astId": 208,
								"contract": "contracts/Shope.sol:Store",
								"label": "buyer",
								"offset": 0,
								"slot": "0",
								"type": "t_address"
							},
							{
								"astId": 210,
								"contract": "contracts/Shope.sol:Store",
								"label": "purchaseId",
								"offset": 0,
								"slot": "1",
								"type": "t_uint256"
							},
							{
								"astId": 212,
								"contract": "contracts/Shope.sol:Store",
								"label": "totalAmount",
								"offset": 0,
								"slot": "2",
								"type": "t_uint256"
							}
						],
						"numberOfBytes": "96"
					},
					"t_uint256": {
						"encoding": "inplace",
						"label": "uint256",
						"numberOfBytes": "32"
					}
				}
			},
			"userdoc": {
				"kind": "user",
				"methods": {
					"getLastPurchase(address)": {
						"notice": "Get last purchase of buyer address buyer Buyer"
					},
					"getTotalRevenue()": {
						"notice": "get amount of money, which a shop get"
					},
					"getUserPurchase(address)": {
						"notice": "get history of purchases for current buyer"
					},
					"productsPurchase(uint256)": {
						"notice": "product_id => quantity"
					},
					"refund(address)": {
						"notice": "Возможно надо еще обновить количество товара после возврата денегRefund money for last purchase for buyer"
					},
					"userPurchase(address,uint256)": {
						"notice": "buyer => product_id => quantity"
					}
				},
				"version": 1
			}
		}
	}
}