{
	"data": {
		"bytecode": {
			"linkReferences": {},
			"object": "608060405234801561000f575f5ffd5b5060405161144d38038061144d83398181016040528101906100319190610403565b825f90805190602001906100469291906100cf565b50816001819055503360045f6101000a81548173ffffffffffffffffffffffffffffffffffffffff021916908373ffffffffffffffffffffffffffffffffffffffff1602179055506001600460146101000a81548160ff02191690831515021790555042603c826100b7919061049c565b6100c191906104dd565b6003819055505050506107e6565b828054828255905f5260205f20908101928215610115579160200282015b828111156101145782518290816101049190610717565b50916020019190600101906100ed565b5b5090506101229190610126565b5090565b5b80821115610145575f818161013c9190610149565b50600101610127565b5090565b50805461015590610547565b5f825580601f106101665750610183565b601f0160209004905f5260205f20908101906101829190610186565b5b50565b5b8082111561019d575f815f905550600101610187565b5090565b5f604051905090565b5f5ffd5b5f5ffd5b5f5ffd5b5f601f19601f8301169050919050565b7f4e487b71000000000000000000000000000000000000000000000000000000005f52604160045260245ffd5b6101fc826101b6565b810181811067ffffffffffffffff8211171561021b5761021a6101c6565b5b80604052505050565b5f61022d6101a1565b905061023982826101f3565b919050565b5f67ffffffffffffffff821115610258576102576101c6565b5b602082029050602081019050919050565b5f5ffd5b5f5ffd5b5f67ffffffffffffffff82111561028b5761028a6101c6565b5b610294826101b6565b9050602081019050919050565b8281835e5f83830152505050565b5f6102c16102bc84610271565b610224565b9050828152602081018484840111156102dd576102dc61026d565b5b6102e88482856102a1565b509392505050565b5f82601f830112610304576103036101b2565b5b81516103148482602086016102af565b91505092915050565b5f61032f61032a8461023e565b610224565b9050808382526020820190506020840283018581111561035257610351610269565b5b835b8181101561039957805167ffffffffffffffff811115610377576103766101b2565b5b80860161038489826102f0565b85526020850194505050602081019050610354565b5050509392505050565b5f82601f8301126103b7576103b66101b2565b5b81516103c784826020860161031d565b91505092915050565b5f819050919050565b6103e2816103d0565b81146103ec575f5ffd5b50565b5f815190506103fd816103d9565b92915050565b5f5f5f6060848603121561041a576104196101aa565b5b5f84015167ffffffffffffffff811115610437576104366101ae565b5b610443868287016103a3565b9350506020610454868287016103ef565b9250506040610465868287016103ef565b9150509250925092565b7f4e487b71000000000000000000000000000000000000000000000000000000005f52601160045260245ffd5b5f6104a6826103d0565b91506104b1836103d0565b92508282026104bf816103d0565b915082820484148315176104d6576104d561046f565b5b5092915050565b5f6104e7826103d0565b91506104f2836103d0565b925082820190508082111561050a5761050961046f565b5b92915050565b5f81519050919050565b7f4e487b71000000000000000000000000000000000000000000000000000000005f52602260045260245ffd5b5f600282049050600182168061055e57607f821691505b6020821081036105715761057061051a565b5b50919050565b5f819050815f5260205f209050919050565b5f6020601f8301049050919050565b5f82821b905092915050565b5f600883026105d37fffffffffffffffffffffffffffffffffffffffffffffffffffffffffffffffff82610598565b6105dd8683610598565b95508019841693508086168417925050509392505050565b5f819050919050565b5f61061861061361060e846103d0565b6105f5565b6103d0565b9050919050565b5f819050919050565b610631836105fe565b61064561063d8261061f565b8484546105a4565b825550505050565b5f5f905090565b61065c61064d565b610667818484610628565b505050565b5b8181101561068a5761067f5f82610654565b60018101905061066d565b5050565b601f8211156106cf576106a081610577565b6106a984610589565b810160208510156106b8578190505b6106cc6106c485610589565b83018261066c565b50505b505050565b5f82821c905092915050565b5f6106ef5f19846008026106d4565b1980831691505092915050565b5f61070783836106e0565b9150826002028217905092915050565b61072082610510565b67ffffffffffffffff811115610739576107386101c6565b5b6107438254610547565b61074e82828561068e565b5f60209050601f83116001811461077f575f841561076d578287015190505b61077785826106fc565b8655506107de565b601f19841661078d86610577565b5f5b828110156107b45784890151825560018201915060208501945060208101905061078f565b868310156107d157848901516107cd601f8916826106e0565b8355505b6001600288020188555050505b505050505050565b610c5a806107f35f395ff3fe608060405234801561000f575f5ffd5b506004361061009c575f3560e01c8063777c3acf11610064578063777c3acf14610144578063804a542e146101625780638da5cb5b14610180578063ac9b92301461019e578063c8442239146101ce5761009c565b80630121b93f146100a05780631fcc81be146100bc5780632495c0ce146100ec57806347f1feda146100f65780636219015014610114575b5f5ffd5b6100ba60048036038101906100b591906106cc565b6101ec565b005b6100d660048036038101906100d191906106cc565b6104c9565b6040516100e39190610706565b60405180910390f35b6100f46104de565b005b6100fe610589565b60405161010b9190610706565b60405180910390f35b61012e60048036038101906101299190610779565b61058f565b60405161013b91906107be565b60405180910390f35b61014c6105ac565b6040516101599190610706565b60405180910390f35b61016a6105b2565b6040516101779190610706565b60405180910390f35b6101886105b8565b60405161019591906107e6565b60405180910390f35b6101b860048036038101906101b391906106cc565b6105dd565b6040516101c5919061086f565b60405180910390f35b6101d6610682565b6040516101e391906107be565b60405180910390f35b5f151560055f3373ffffffffffffffffffffffffffffffffffffffff1673ffffffffffffffffffffffffffffffffffffffff1681526020019081526020015f205f9054906101000a900460ff1615151461027b576040517f08c379a0000000000000000000000000000000000000000000000000000000008152600401610272906108d9565b60405180910390fd5b5f8054905081106102c1576040517f08c379a00000000000000000000000000000000000000000000000000000000081526004016102b890610941565b60405180910390fd5b60025460015411610307576040517f08c379a00000000000000000000000000000000000000000000000000000000081526004016102fe906109a9565b60405180910390fd5b3373ffffffffffffffffffffffffffffffffffffffff1660045f9054906101000a900473ffffffffffffffffffffffffffffffffffffffff1673ffffffffffffffffffffffffffffffffffffffff1603610396576040517f08c379a000000000000000000000000000000000000000000000000000000000815260040161038d90610a11565b60405180910390fd5b60011515600460149054906101000a900460ff161515146103ec576040517f08c379a00000000000000000000000000000000000000000000000000000000081526004016103e390610a79565b60405180910390fd5b6003544210610430576040517f08c379a000000000000000000000000000000000000000000000000000000000815260040161042790610ae1565b60405180910390fd5b600160055f3373ffffffffffffffffffffffffffffffffffffffff1673ffffffffffffffffffffffffffffffffffffffff1681526020019081526020015f205f6101000a81548160ff021916908315150217905550600160065f8381526020019081526020015f205f8282546104a69190610b2c565b92505081905550600160025f8282546104bf9190610b2c565b9250508190555050565b6006602052805f5260405f205f915090505481565b3373ffffffffffffffffffffffffffffffffffffffff1660045f9054906101000a900473ffffffffffffffffffffffffffffffffffffffff1673ffffffffffffffffffffffffffffffffffffffff161461056d576040517f08c379a000000000000000000000000000000000000000000000000000000000815260040161056490610ba9565b60405180910390fd5b5f600460146101000a81548160ff021916908315150217905550565b60035481565b6005602052805f5260405f205f915054906101000a900460ff1681565b60015481565b60025481565b60045f9054906101000a900473ffffffffffffffffffffffffffffffffffffffff1681565b5f81815481106105eb575f80fd5b905f5260205f20015f91509050805461060390610bf4565b80601f016020809104026020016040519081016040528092919081815260200182805461062f90610bf4565b801561067a5780601f106106515761010080835404028352916020019161067a565b820191905f5260205f20905b81548152906001019060200180831161065d57829003601f168201915b505050505081565b600460149054906101000a900460ff1681565b5f5ffd5b5f819050919050565b6106ab81610699565b81146106b5575f5ffd5b50565b5f813590506106c6816106a2565b92915050565b5f602082840312156106e1576106e0610695565b5b5f6106ee848285016106b8565b91505092915050565b61070081610699565b82525050565b5f6020820190506107195f8301846106f7565b92915050565b5f73ffffffffffffffffffffffffffffffffffffffff82169050919050565b5f6107488261071f565b9050919050565b6107588161073e565b8114610762575f5ffd5b50565b5f813590506107738161074f565b92915050565b5f6020828403121561078e5761078d610695565b5b5f61079b84828501610765565b91505092915050565b5f8115159050919050565b6107b8816107a4565b82525050565b5f6020820190506107d15f8301846107af565b92915050565b6107e08161073e565b82525050565b5f6020820190506107f95f8301846107d7565b92915050565b5f81519050919050565b5f82825260208201905092915050565b8281835e5f83830152505050565b5f601f19601f8301169050919050565b5f610841826107ff565b61084b8185610809565b935061085b818560208601610819565b61086481610827565b840191505092915050565b5f6020820190508181035f8301526108878184610837565b905092915050565b7f596f757220616464726573732063616e277420766f74650000000000000000005f82015250565b5f6108c3601783610809565b91506108ce8261088f565b602082019050919050565b5f6020820190508181035f8301526108f0816108b7565b9050919050565b7f456c6563746f7220646f6573206e6f74206578697374000000000000000000005f82015250565b5f61092b601683610809565b9150610936826108f7565b602082019050919050565b5f6020820190508181035f8301526109588161091f565b9050919050565b7f4d6178696d756d206e756d626572206f6620766f7465732065786365656465645f82015250565b5f610993602083610809565b915061099e8261095f565b602082019050919050565b5f6020820190508181035f8301526109c081610987565b9050919050565b7f4f776e657220646f65736e607420766f746500000000000000000000000000005f82015250565b5f6109fb601283610809565b9150610a06826109c7565b602082019050919050565b5f6020820190508181035f830152610a28816109ef565b9050919050565b7f456c656374696f6e732061726520636c6f7365640000000000000000000000005f82015250565b5f610a63601483610809565b9150610a6e82610a2f565b602082019050919050565b5f6020820190508181035f830152610a9081610a57565b9050919050565b7f54696d65206f6620656c656374696f6e7320697320656e6465640000000000005f82015250565b5f610acb601a83610809565b9150610ad682610a97565b602082019050919050565b5f6020820190508181035f830152610af881610abf565b9050919050565b7f4e487b71000000000000000000000000000000000000000000000000000000005f52601160045260245ffd5b5f610b3682610699565b9150610b4183610699565b9250828201905080821115610b5957610b58610aff565b5b92915050565b7f4e6f742074686520636f6e7472616374206f776e6572000000000000000000005f82015250565b5f610b93601683610809565b9150610b9e82610b5f565b602082019050919050565b5f6020820190508181035f830152610bc081610b87565b9050919050565b7f4e487b71000000000000000000000000000000000000000000000000000000005f52602260045260245ffd5b5f6002820490506001821680610c0b57607f821691505b602082108103610c1e57610c1d610bc7565b5b5091905056fea264697066735822122075188b79351dbfa42f9e19587388193aef257627a47d21df813a9a74f85b2dc664736f6c634300081e0033",
			"opcodes": "PUSH1 0x80 PUSH1 0x40 MSTORE CALLVALUE DUP1 ISZERO PUSH2 0xF JUMPI PUSH0 PUSH0 REVERT JUMPDEST POP PUSH1 0x40 MLOAD PUSH2 0x144D CODESIZE SUB DUP1 PUSH2 0x144D DUP4 CODECOPY DUP2 DUP2 ADD PUSH1 0x40 MSTORE DUP2 ADD SWAP1 PUSH2 0x31 SWAP2 SWAP1 PUSH2 0x403 JUMP JUMPDEST DUP3 PUSH0 SWAP1 DUP1 MLOAD SWAP1 PUSH1 0x20 ADD SWAP1 PUSH2 0x46 SWAP3 SWAP2 SWAP1 PUSH2 0xCF JUMP JUMPDEST POP DUP2 PUSH1 0x1 DUP2 SWAP1 SSTORE POP CALLER PUSH1 0x4 PUSH0 PUSH2 0x100 EXP DUP2 SLOAD DUP2 PUSH20 0xFFFFFFFFFFFFFFFFFFFFFFFFFFFFFFFFFFFFFFFF MUL NOT AND SWAP1 DUP4 PUSH20 0xFFFFFFFFFFFFFFFFFFFFFFFFFFFFFFFFFFFFFFFF AND MUL OR SWAP1 SSTORE POP PUSH1 0x1 PUSH1 0x4 PUSH1 0x14 PUSH2 0x100 EXP DUP2 SLOAD DUP2 PUSH1 0xFF MUL NOT AND SWAP1 DUP4 ISZERO ISZERO MUL OR SWAP1 SSTORE POP TIMESTAMP PUSH1 0x3C DUP3 PUSH2 0xB7 SWAP2 SWAP1 PUSH2 0x49C JUMP JUMPDEST PUSH2 0xC1 SWAP2 SWAP1 PUSH2 0x4DD JUMP JUMPDEST PUSH1 0x3 DUP2 SWAP1 SSTORE POP POP POP POP PUSH2 0x7E6 JUMP JUMPDEST DUP3 DUP1 SLOAD DUP3 DUP3 SSTORE SWAP1 PUSH0 MSTORE PUSH1 0x20 PUSH0 KECCAK256 SWAP1 DUP2 ADD SWAP3 DUP3 ISZERO PUSH2 0x115 JUMPI SWAP2 PUSH1 0x20 MUL DUP3 ADD JUMPDEST DUP3 DUP2 GT ISZERO PUSH2 0x114 JUMPI DUP3 MLOAD DUP3 SWAP1 DUP2 PUSH2 0x104 SWAP2 SWAP1 PUSH2 0x717 JUMP JUMPDEST POP SWAP2 PUSH1 0x20 ADD SWAP2 SWAP1 PUSH1 0x1 ADD SWAP1 PUSH2 0xED JUMP JUMPDEST JUMPDEST POP SWAP1 POP PUSH2 0x122 SWAP2 SWAP1 PUSH2 0x126 JUMP JUMPDEST POP SWAP1 JUMP JUMPDEST JUMPDEST DUP1 DUP3 GT ISZERO PUSH2 0x145 JUMPI PUSH0 DUP2 DUP2 PUSH2 0x13C SWAP2 SWAP1 PUSH2 0x149 JUMP JUMPDEST POP PUSH1 0x1 ADD PUSH2 0x127 JUMP JUMPDEST POP SWAP1 JUMP JUMPDEST POP DUP1 SLOAD PUSH2 0x155 SWAP1 PUSH2 0x547 JUMP JUMPDEST PUSH0 DUP3 SSTORE DUP1 PUSH1 0x1F LT PUSH2 0x166 JUMPI POP PUSH2 0x183 JUMP JUMPDEST PUSH1 0x1F ADD PUSH1 0x20 SWAP1 DIV SWAP1 PUSH0 MSTORE PUSH1 0x20 PUSH0 KECCAK256 SWAP1 DUP2 ADD SWAP1 PUSH2 0x182 SWAP2 SWAP1 PUSH2 0x186 JUMP JUMPDEST JUMPDEST POP JUMP JUMPDEST JUMPDEST DUP1 DUP3 GT ISZERO PUSH2 0x19D JUMPI PUSH0 DUP2 PUSH0 SWAP1 SSTORE POP PUSH1 0x1 ADD PUSH2 0x187 JUMP JUMPDEST POP SWAP1 JUMP JUMPDEST PUSH0 PUSH1 0x40 MLOAD SWAP1 POP SWAP1 JUMP JUMPDEST PUSH0 PUSH0 REVERT JUMPDEST PUSH0 PUSH0 REVERT JUMPDEST PUSH0 PUSH0 REVERT JUMPDEST PUSH0 PUSH1 0x1F NOT PUSH1 0x1F DUP4 ADD AND SWAP1 POP SWAP2 SWAP1 POP JUMP JUMPDEST PUSH32 0x4E487B7100000000000000000000000000000000000000000000000000000000 PUSH0 MSTORE PUSH1 0x41 PUSH1 0x4 MSTORE PUSH1 0x24 PUSH0 REVERT JUMPDEST PUSH2 0x1FC DUP3 PUSH2 0x1B6 JUMP JUMPDEST DUP2 ADD DUP2 DUP2 LT PUSH8 0xFFFFFFFFFFFFFFFF DUP3 GT OR ISZERO PUSH2 0x21B JUMPI PUSH2 0x21A PUSH2 0x1C6 JUMP JUMPDEST JUMPDEST DUP1 PUSH1 0x40 MSTORE POP POP POP JUMP JUMPDEST PUSH0 PUSH2 0x22D PUSH2 0x1A1 JUMP JUMPDEST SWAP1 POP PUSH2 0x239 DUP3 DUP3 PUSH2 0x1F3 JUMP JUMPDEST SWAP2 SWAP1 POP JUMP JUMPDEST PUSH0 PUSH8 0xFFFFFFFFFFFFFFFF DUP3 GT ISZERO PUSH2 0x258 JUMPI PUSH2 0x257 PUSH2 0x1C6 JUMP JUMPDEST JUMPDEST PUSH1 0x20 DUP3 MUL SWAP1 POP PUSH1 0x20 DUP2 ADD SWAP1 POP SWAP2 SWAP1 POP JUMP JUMPDEST PUSH0 PUSH0 REVERT JUMPDEST PUSH0 PUSH0 REVERT JUMPDEST PUSH0 PUSH8 0xFFFFFFFFFFFFFFFF DUP3 GT ISZERO PUSH2 0x28B JUMPI PUSH2 0x28A PUSH2 0x1C6 JUMP JUMPDEST JUMPDEST PUSH2 0x294 DUP3 PUSH2 0x1B6 JUMP JUMPDEST SWAP1 POP PUSH1 0x20 DUP2 ADD SWAP1 POP SWAP2 SWAP1 POP JUMP JUMPDEST DUP3 DUP2 DUP4 MCOPY PUSH0 DUP4 DUP4 ADD MSTORE POP POP POP JUMP JUMPDEST PUSH0 PUSH2 0x2C1 PUSH2 0x2BC DUP5 PUSH2 0x271 JUMP JUMPDEST PUSH2 0x224 JUMP JUMPDEST SWAP1 POP DUP3 DUP2 MSTORE PUSH1 0x20 DUP2 ADD DUP5 DUP5 DUP5 ADD GT ISZERO PUSH2 0x2DD JUMPI PUSH2 0x2DC PUSH2 0x26D JUMP JUMPDEST JUMPDEST PUSH2 0x2E8 DUP5 DUP3 DUP6 PUSH2 0x2A1 JUMP JUMPDEST POP SWAP4 SWAP3 POP POP POP JUMP JUMPDEST PUSH0 DUP3 PUSH1 0x1F DUP4 ADD SLT PUSH2 0x304 JUMPI PUSH2 0x303 PUSH2 0x1B2 JUMP JUMPDEST JUMPDEST DUP2 MLOAD PUSH2 0x314 DUP5 DUP3 PUSH1 0x20 DUP7 ADD PUSH2 0x2AF JUMP JUMPDEST SWAP2 POP POP SWAP3 SWAP2 POP POP JUMP JUMPDEST PUSH0 PUSH2 0x32F PUSH2 0x32A DUP5 PUSH2 0x23E JUMP JUMPDEST PUSH2 0x224 JUMP JUMPDEST SWAP1 POP DUP1 DUP4 DUP3 MSTORE PUSH1 0x20 DUP3 ADD SWAP1 POP PUSH1 0x20 DUP5 MUL DUP4 ADD DUP6 DUP2 GT ISZERO PUSH2 0x352 JUMPI PUSH2 0x351 PUSH2 0x269 JUMP JUMPDEST JUMPDEST DUP4 JUMPDEST DUP2 DUP2 LT ISZERO PUSH2 0x399 JUMPI DUP1 MLOAD PUSH8 0xFFFFFFFFFFFFFFFF DUP2 GT ISZERO PUSH2 0x377 JUMPI PUSH2 0x376 PUSH2 0x1B2 JUMP JUMPDEST JUMPDEST DUP1 DUP7 ADD PUSH2 0x384 DUP10 DUP3 PUSH2 0x2F0 JUMP JUMPDEST DUP6 MSTORE PUSH1 0x20 DUP6 ADD SWAP5 POP POP POP PUSH1 0x20 DUP2 ADD SWAP1 POP PUSH2 0x354 JUMP JUMPDEST POP POP POP SWAP4 SWAP3 POP POP POP JUMP JUMPDEST PUSH0 DUP3 PUSH1 0x1F DUP4 ADD SLT PUSH2 0x3B7 JUMPI PUSH2 0x3B6 PUSH2 0x1B2 JUMP JUMPDEST JUMPDEST DUP2 MLOAD PUSH2 0x3C7 DUP5 DUP3 PUSH1 0x20 DUP7 ADD PUSH2 0x31D JUMP JUMPDEST SWAP2 POP POP SWAP3 SWAP2 POP POP JUMP JUMPDEST PUSH0 DUP2 SWAP1 POP SWAP2 SWAP1 POP JUMP JUMPDEST PUSH2 0x3E2 DUP2 PUSH2 0x3D0 JUMP JUMPDEST DUP2 EQ PUSH2 0x3EC JUMPI PUSH0 PUSH0 REVERT JUMPDEST POP JUMP JUMPDEST PUSH0 DUP2 MLOAD SWAP1 POP PUSH2 0x3FD DUP2 PUSH2 0x3D9 JUMP JUMPDEST SWAP3 SWAP2 POP POP JUMP JUMPDEST PUSH0 PUSH0 PUSH0 PUSH1 0x60 DUP5 DUP7 SUB SLT ISZERO PUSH2 0x41A JUMPI PUSH2 0x419 PUSH2 0x1AA JUMP JUMPDEST JUMPDEST PUSH0 DUP5 ADD MLOAD PUSH8 0xFFFFFFFFFFFFFFFF DUP2 GT ISZERO PUSH2 0x437 JUMPI PUSH2 0x436 PUSH2 0x1AE JUMP JUMPDEST JUMPDEST PUSH2 0x443 DUP7 DUP3 DUP8 ADD PUSH2 0x3A3 JUMP JUMPDEST SWAP4 POP POP PUSH1 0x20 PUSH2 0x454 DUP7 DUP3 DUP8 ADD PUSH2 0x3EF JUMP JUMPDEST SWAP3 POP POP PUSH1 0x40 PUSH2 0x465 DUP7 DUP3 DUP8 ADD PUSH2 0x3EF JUMP JUMPDEST SWAP2 POP POP SWAP3 POP SWAP3 POP SWAP3 JUMP JUMPDEST PUSH32 0x4E487B7100000000000000000000000000000000000000000000000000000000 PUSH0 MSTORE PUSH1 0x11 PUSH1 0x4 MSTORE PUSH1 0x24 PUSH0 REVERT JUMPDEST PUSH0 PUSH2 0x4A6 DUP3 PUSH2 0x3D0 JUMP JUMPDEST SWAP2 POP PUSH2 0x4B1 DUP4 PUSH2 0x3D0 JUMP JUMPDEST SWAP3 POP DUP3 DUP3 MUL PUSH2 0x4BF DUP2 PUSH2 0x3D0 JUMP JUMPDEST SWAP2 POP DUP3 DUP3 DIV DUP5 EQ DUP4 ISZERO OR PUSH2 0x4D6 JUMPI PUSH2 0x4D5 PUSH2 0x46F JUMP JUMPDEST JUMPDEST POP SWAP3 SWAP2 POP POP JUMP JUMPDEST PUSH0 PUSH2 0x4E7 DUP3 PUSH2 0x3D0 JUMP JUMPDEST SWAP2 POP PUSH2 0x4F2 DUP4 PUSH2 0x3D0 JUMP JUMPDEST SWAP3 POP DUP3 DUP3 ADD SWAP1 POP DUP1 DUP3 GT ISZERO PUSH2 0x50A JUMPI PUSH2 0x509 PUSH2 0x46F JUMP JUMPDEST JUMPDEST SWAP3 SWAP2 POP POP JUMP JUMPDEST PUSH0 DUP2 MLOAD SWAP1 POP SWAP2 SWAP1 POP JUMP JUMPDEST PUSH32 0x4E487B7100000000000000000000000000000000000000000000000000000000 PUSH0 MSTORE PUSH1 0x22 PUSH1 0x4 MSTORE PUSH1 0x24 PUSH0 REVERT JUMPDEST PUSH0 PUSH1 0x2 DUP3 DIV SWAP1 POP PUSH1 0x1 DUP3 AND DUP1 PUSH2 0x55E JUMPI PUSH1 0x7F DUP3 AND SWAP2 POP JUMPDEST PUSH1 0x20 DUP3 LT DUP2 SUB PUSH2 0x571 JUMPI PUSH2 0x570 PUSH2 0x51A JUMP JUMPDEST JUMPDEST POP SWAP2 SWAP1 POP JUMP JUMPDEST PUSH0 DUP2 SWAP1 POP DUP2 PUSH0 MSTORE PUSH1 0x20 PUSH0 KECCAK256 SWAP1 POP SWAP2 SWAP1 POP JUMP JUMPDEST PUSH0 PUSH1 0x20 PUSH1 0x1F DUP4 ADD DIV SWAP1 POP SWAP2 SWAP1 POP JUMP JUMPDEST PUSH0 DUP3 DUP3 SHL SWAP1 POP SWAP3 SWAP2 POP POP JUMP JUMPDEST PUSH0 PUSH1 0x8 DUP4 MUL PUSH2 0x5D3 PUSH32 0xFFFFFFFFFFFFFFFFFFFFFFFFFFFFFFFFFFFFFFFFFFFFFFFFFFFFFFFFFFFFFFFF DUP3 PUSH2 0x598 JUMP JUMPDEST PUSH2 0x5DD DUP7 DUP4 PUSH2 0x598 JUMP JUMPDEST SWAP6 POP DUP1 NOT DUP5 AND SWAP4 POP DUP1 DUP7 AND DUP5 OR SWAP3 POP POP POP SWAP4 SWAP3 POP POP POP JUMP JUMPDEST PUSH0 DUP2 SWAP1 POP SWAP2 SWAP1 POP JUMP JUMPDEST PUSH0 PUSH2 0x618 PUSH2 0x613 PUSH2 0x60E DUP5 PUSH2 0x3D0 JUMP JUMPDEST PUSH2 0x5F5 JUMP JUMPDEST PUSH2 0x3D0 JUMP JUMPDEST SWAP1 POP SWAP2 SWAP1 POP JUMP JUMPDEST PUSH0 DUP2 SWAP1 POP SWAP2 SWAP1 POP JUMP JUMPDEST PUSH2 0x631 DUP4 PUSH2 0x5FE JUMP JUMPDEST PUSH2 0x645 PUSH2 0x63D DUP3 PUSH2 0x61F JUMP JUMPDEST DUP5 DUP5 SLOAD PUSH2 0x5A4 JUMP JUMPDEST DUP3 SSTORE POP POP POP POP JUMP JUMPDEST PUSH0 PUSH0 SWAP1 POP SWAP1 JUMP JUMPDEST PUSH2 0x65C PUSH2 0x64D JUMP JUMPDEST PUSH2 0x667 DUP2 DUP5 DUP5 PUSH2 0x628 JUMP JUMPDEST POP POP POP JUMP JUMPDEST JUMPDEST DUP2 DUP2 LT ISZERO PUSH2 0x68A JUMPI PUSH2 0x67F PUSH0 DUP3 PUSH2 0x654 JUMP JUMPDEST PUSH1 0x1 DUP2 ADD SWAP1 POP PUSH2 0x66D JUMP JUMPDEST POP POP JUMP JUMPDEST PUSH1 0x1F DUP3 GT ISZERO PUSH2 0x6CF JUMPI PUSH2 0x6A0 DUP2 PUSH2 0x577 JUMP JUMPDEST PUSH2 0x6A9 DUP5 PUSH2 0x589 JUMP JUMPDEST DUP2 ADD PUSH1 0x20 DUP6 LT ISZERO PUSH2 0x6B8 JUMPI DUP2 SWAP1 POP JUMPDEST PUSH2 0x6CC PUSH2 0x6C4 DUP6 PUSH2 0x589 JUMP JUMPDEST DUP4 ADD DUP3 PUSH2 0x66C JUMP JUMPDEST POP POP JUMPDEST POP POP POP JUMP JUMPDEST PUSH0 DUP3 DUP3 SHR SWAP1 POP SWAP3 SWAP2 POP POP JUMP JUMPDEST PUSH0 PUSH2 0x6EF PUSH0 NOT DUP5 PUSH1 0x8 MUL PUSH2 0x6D4 JUMP JUMPDEST NOT DUP1 DUP4 AND SWAP2 POP POP SWAP3 SWAP2 POP POP JUMP JUMPDEST PUSH0 PUSH2 0x707 DUP4 DUP4 PUSH2 0x6E0 JUMP JUMPDEST SWAP2 POP DUP3 PUSH1 0x2 MUL DUP3 OR SWAP1 POP SWAP3 SWAP2 POP POP JUMP JUMPDEST PUSH2 0x720 DUP3 PUSH2 0x510 JUMP JUMPDEST PUSH8 0xFFFFFFFFFFFFFFFF DUP2 GT ISZERO PUSH2 0x739 JUMPI PUSH2 0x738 PUSH2 0x1C6 JUMP JUMPDEST JUMPDEST PUSH2 0x743 DUP3 SLOAD PUSH2 0x547 JUMP JUMPDEST PUSH2 0x74E DUP3 DUP3 DUP6 PUSH2 0x68E JUMP JUMPDEST PUSH0 PUSH1 0x20 SWAP1 POP PUSH1 0x1F DUP4 GT PUSH1 0x1 DUP2 EQ PUSH2 0x77F JUMPI PUSH0 DUP5 ISZERO PUSH2 0x76D JUMPI DUP3 DUP8 ADD MLOAD SWAP1 POP JUMPDEST PUSH2 0x777 DUP6 DUP3 PUSH2 0x6FC JUMP JUMPDEST DUP7 SSTORE POP PUSH2 0x7DE JUMP JUMPDEST PUSH1 0x1F NOT DUP5 AND PUSH2 0x78D DUP7 PUSH2 0x577 JUMP JUMPDEST PUSH0 JUMPDEST DUP3 DUP2 LT ISZERO PUSH2 0x7B4 JUMPI DUP5 DUP10 ADD MLOAD DUP3 SSTORE PUSH1 0x1 DUP3 ADD SWAP2 POP PUSH1 0x20 DUP6 ADD SWAP5 POP PUSH1 0x20 DUP2 ADD SWAP1 POP PUSH2 0x78F JUMP JUMPDEST DUP7 DUP4 LT ISZERO PUSH2 0x7D1 JUMPI DUP5 DUP10 ADD MLOAD PUSH2 0x7CD PUSH1 0x1F DUP10 AND DUP3 PUSH2 0x6E0 JUMP JUMPDEST DUP4 SSTORE POP JUMPDEST PUSH1 0x1 PUSH1 0x2 DUP9 MUL ADD DUP9 SSTORE POP POP POP JUMPDEST POP POP POP POP POP POP JUMP JUMPDEST PUSH2 0xC5A DUP1 PUSH2 0x7F3 PUSH0 CODECOPY PUSH0 RETURN INVALID PUSH1 0x80 PUSH1 0x40 MSTORE CALLVALUE DUP1 ISZERO PUSH2 0xF JUMPI PUSH0 PUSH0 REVERT JUMPDEST POP PUSH1 0x4 CALLDATASIZE LT PUSH2 0x9C JUMPI PUSH0 CALLDATALOAD PUSH1 0xE0 SHR DUP1 PUSH4 0x777C3ACF GT PUSH2 0x64 JUMPI DUP1 PUSH4 0x777C3ACF EQ PUSH2 0x144 JUMPI DUP1 PUSH4 0x804A542E EQ PUSH2 0x162 JUMPI DUP1 PUSH4 0x8DA5CB5B EQ PUSH2 0x180 JUMPI DUP1 PUSH4 0xAC9B9230 EQ PUSH2 0x19E JUMPI DUP1 PUSH4 0xC8442239 EQ PUSH2 0x1CE JUMPI PUSH2 0x9C JUMP JUMPDEST DUP1 PUSH4 0x121B93F EQ PUSH2 0xA0 JUMPI DUP1 PUSH4 0x1FCC81BE EQ PUSH2 0xBC JUMPI DUP1 PUSH4 0x2495C0CE EQ PUSH2 0xEC JUMPI DUP1 PUSH4 0x47F1FEDA EQ PUSH2 0xF6 JUMPI DUP1 PUSH4 0x62190150 EQ PUSH2 0x114 JUMPI JUMPDEST PUSH0 PUSH0 REVERT JUMPDEST PUSH2 0xBA PUSH1 0x4 DUP1 CALLDATASIZE SUB DUP2 ADD SWAP1 PUSH2 0xB5 SWAP2 SWAP1 PUSH2 0x6CC JUMP JUMPDEST PUSH2 0x1EC JUMP JUMPDEST STOP JUMPDEST PUSH2 0xD6 PUSH1 0x4 DUP1 CALLDATASIZE SUB DUP2 ADD SWAP1 PUSH2 0xD1 SWAP2 SWAP1 PUSH2 0x6CC JUMP JUMPDEST PUSH2 0x4C9 JUMP JUMPDEST PUSH1 0x40 MLOAD PUSH2 0xE3 SWAP2 SWAP1 PUSH2 0x706 JUMP JUMPDEST PUSH1 0x40 MLOAD DUP1 SWAP2 SUB SWAP1 RETURN JUMPDEST PUSH2 0xF4 PUSH2 0x4DE JUMP JUMPDEST STOP JUMPDEST PUSH2 0xFE PUSH2 0x589 JUMP JUMPDEST PUSH1 0x40 MLOAD PUSH2 0x10B SWAP2 SWAP1 PUSH2 0x706 JUMP JUMPDEST PUSH1 0x40 MLOAD DUP1 SWAP2 SUB SWAP1 RETURN JUMPDEST PUSH2 0x12E PUSH1 0x4 DUP1 CALLDATASIZE SUB DUP2 ADD SWAP1 PUSH2 0x129 SWAP2 SWAP1 PUSH2 0x779 JUMP JUMPDEST PUSH2 0x58F JUMP JUMPDEST PUSH1 0x40 MLOAD PUSH2 0x13B SWAP2 SWAP1 PUSH2 0x7BE JUMP JUMPDEST PUSH1 0x40 MLOAD DUP1 SWAP2 SUB SWAP1 RETURN JUMPDEST PUSH2 0x14C PUSH2 0x5AC JUMP JUMPDEST PUSH1 0x40 MLOAD PUSH2 0x159 SWAP2 SWAP1 PUSH2 0x706 JUMP JUMPDEST PUSH1 0x40 MLOAD DUP1 SWAP2 SUB SWAP1 RETURN JUMPDEST PUSH2 0x16A PUSH2 0x5B2 JUMP JUMPDEST PUSH1 0x40 MLOAD PUSH2 0x177 SWAP2 SWAP1 PUSH2 0x706 JUMP JUMPDEST PUSH1 0x40 MLOAD DUP1 SWAP2 SUB SWAP1 RETURN JUMPDEST PUSH2 0x188 PUSH2 0x5B8 JUMP JUMPDEST PUSH1 0x40 MLOAD PUSH2 0x195 SWAP2 SWAP1 PUSH2 0x7E6 JUMP JUMPDEST PUSH1 0x40 MLOAD DUP1 SWAP2 SUB SWAP1 RETURN JUMPDEST PUSH2 0x1B8 PUSH1 0x4 DUP1 CALLDATASIZE SUB DUP2 ADD SWAP1 PUSH2 0x1B3 SWAP2 SWAP1 PUSH2 0x6CC JUMP JUMPDEST PUSH2 0x5DD JUMP JUMPDEST PUSH1 0x40 MLOAD PUSH2 0x1C5 SWAP2 SWAP1 PUSH2 0x86F JUMP JUMPDEST PUSH1 0x40 MLOAD DUP1 SWAP2 SUB SWAP1 RETURN JUMPDEST PUSH2 0x1D6 PUSH2 0x682 JUMP JUMPDEST PUSH1 0x40 MLOAD PUSH2 0x1E3 SWAP2 SWAP1 PUSH2 0x7BE JUMP JUMPDEST PUSH1 0x40 MLOAD DUP1 SWAP2 SUB SWAP1 RETURN JUMPDEST PUSH0 ISZERO ISZERO PUSH1 0x5 PUSH0 CALLER PUSH20 0xFFFFFFFFFFFFFFFFFFFFFFFFFFFFFFFFFFFFFFFF AND PUSH20 0xFFFFFFFFFFFFFFFFFFFFFFFFFFFFFFFFFFFFFFFF AND DUP2 MSTORE PUSH1 0x20 ADD SWAP1 DUP2 MSTORE PUSH1 0x20 ADD PUSH0 KECCAK256 PUSH0 SWAP1 SLOAD SWAP1 PUSH2 0x100 EXP SWAP1 DIV PUSH1 0xFF AND ISZERO ISZERO EQ PUSH2 0x27B JUMPI PUSH1 0x40 MLOAD PUSH32 0x8C379A000000000000000000000000000000000000000000000000000000000 DUP2 MSTORE PUSH1 0x4 ADD PUSH2 0x272 SWAP1 PUSH2 0x8D9 JUMP JUMPDEST PUSH1 0x40 MLOAD DUP1 SWAP2 SUB SWAP1 REVERT JUMPDEST PUSH0 DUP1 SLOAD SWAP1 POP DUP2 LT PUSH2 0x2C1 JUMPI PUSH1 0x40 MLOAD PUSH32 0x8C379A000000000000000000000000000000000000000000000000000000000 DUP2 MSTORE PUSH1 0x4 ADD PUSH2 0x2B8 SWAP1 PUSH2 0x941 JUMP JUMPDEST PUSH1 0x40 MLOAD DUP1 SWAP2 SUB SWAP1 REVERT JUMPDEST PUSH1 0x2 SLOAD PUSH1 0x1 SLOAD GT PUSH2 0x307 JUMPI PUSH1 0x40 MLOAD PUSH32 0x8C379A000000000000000000000000000000000000000000000000000000000 DUP2 MSTORE PUSH1 0x4 ADD PUSH2 0x2FE SWAP1 PUSH2 0x9A9 JUMP JUMPDEST PUSH1 0x40 MLOAD DUP1 SWAP2 SUB SWAP1 REVERT JUMPDEST CALLER PUSH20 0xFFFFFFFFFFFFFFFFFFFFFFFFFFFFFFFFFFFFFFFF AND PUSH1 0x4 PUSH0 SWAP1 SLOAD SWAP1 PUSH2 0x100 EXP SWAP1 DIV PUSH20 0xFFFFFFFFFFFFFFFFFFFFFFFFFFFFFFFFFFFFFFFF AND PUSH20 0xFFFFFFFFFFFFFFFFFFFFFFFFFFFFFFFFFFFFFFFF AND SUB PUSH2 0x396 JUMPI PUSH1 0x40 MLOAD PUSH32 0x8C379A000000000000000000000000000000000000000000000000000000000 DUP2 MSTORE PUSH1 0x4 ADD PUSH2 0x38D SWAP1 PUSH2 0xA11 JUMP JUMPDEST PUSH1 0x40 MLOAD DUP1 SWAP2 SUB SWAP1 REVERT JUMPDEST PUSH1 0x1 ISZERO ISZERO PUSH1 0x4 PUSH1 0x14 SWAP1 SLOAD SWAP1 PUSH2 0x100 EXP SWAP1 DIV PUSH1 0xFF AND ISZERO ISZERO EQ PUSH2 0x3EC JUMPI PUSH1 0x40 MLOAD PUSH32 0x8C379A000000000000000000000000000000000000000000000000000000000 DUP2 MSTORE PUSH1 0x4 ADD PUSH2 0x3E3 SWAP1 PUSH2 0xA79 JUMP JUMPDEST PUSH1 0x40 MLOAD DUP1 SWAP2 SUB SWAP1 REVERT JUMPDEST PUSH1 0x3 SLOAD TIMESTAMP LT PUSH2 0x430 JUMPI PUSH1 0x40 MLOAD PUSH32 0x8C379A000000000000000000000000000000000000000000000000000000000 DUP2 MSTORE PUSH1 0x4 ADD PUSH2 0x427 SWAP1 PUSH2 0xAE1 JUMP JUMPDEST PUSH1 0x40 MLOAD DUP1 SWAP2 SUB SWAP1 REVERT JUMPDEST PUSH1 0x1 PUSH1 0x5 PUSH0 CALLER PUSH20 0xFFFFFFFFFFFFFFFFFFFFFFFFFFFFFFFFFFFFFFFF AND PUSH20 0xFFFFFFFFFFFFFFFFFFFFFFFFFFFFFFFFFFFFFFFF AND DUP2 MSTORE PUSH1 0x20 ADD SWAP1 DUP2 MSTORE PUSH1 0x20 ADD PUSH0 KECCAK256 PUSH0 PUSH2 0x100 EXP DUP2 SLOAD DUP2 PUSH1 0xFF MUL NOT AND SWAP1 DUP4 ISZERO ISZERO MUL OR SWAP1 SSTORE POP PUSH1 0x1 PUSH1 0x6 PUSH0 DUP4 DUP2 MSTORE PUSH1 0x20 ADD SWAP1 DUP2 MSTORE PUSH1 0x20 ADD PUSH0 KECCAK256 PUSH0 DUP3 DUP3 SLOAD PUSH2 0x4A6 SWAP2 SWAP1 PUSH2 0xB2C JUMP JUMPDEST SWAP3 POP POP DUP2 SWAP1 SSTORE POP PUSH1 0x1 PUSH1 0x2 PUSH0 DUP3 DUP3 SLOAD PUSH2 0x4BF SWAP2 SWAP1 PUSH2 0xB2C JUMP JUMPDEST SWAP3 POP POP DUP2 SWAP1 SSTORE POP POP JUMP JUMPDEST PUSH1 0x6 PUSH1 0x20 MSTORE DUP1 PUSH0 MSTORE PUSH1 0x40 PUSH0 KECCAK256 PUSH0 SWAP2 POP SWAP1 POP SLOAD DUP2 JUMP JUMPDEST CALLER PUSH20 0xFFFFFFFFFFFFFFFFFFFFFFFFFFFFFFFFFFFFFFFF AND PUSH1 0x4 PUSH0 SWAP1 SLOAD SWAP1 PUSH2 0x100 EXP SWAP1 DIV PUSH20 0xFFFFFFFFFFFFFFFFFFFFFFFFFFFFFFFFFFFFFFFF AND PUSH20 0xFFFFFFFFFFFFFFFFFFFFFFFFFFFFFFFFFFFFFFFF AND EQ PUSH2 0x56D JUMPI PUSH1 0x40 MLOAD PUSH32 0x8C379A000000000000000000000000000000000000000000000000000000000 DUP2 MSTORE PUSH1 0x4 ADD PUSH2 0x564 SWAP1 PUSH2 0xBA9 JUMP JUMPDEST PUSH1 0x40 MLOAD DUP1 SWAP2 SUB SWAP1 REVERT JUMPDEST PUSH0 PUSH1 0x4 PUSH1 0x14 PUSH2 0x100 EXP DUP2 SLOAD DUP2 PUSH1 0xFF MUL NOT AND SWAP1 DUP4 ISZERO ISZERO MUL OR SWAP1 SSTORE POP JUMP JUMPDEST PUSH1 0x3 SLOAD DUP2 JUMP JUMPDEST PUSH1 0x5 PUSH1 0x20 MSTORE DUP1 PUSH0 MSTORE PUSH1 0x40 PUSH0 KECCAK256 PUSH0 SWAP2 POP SLOAD SWAP1 PUSH2 0x100 EXP SWAP1 DIV PUSH1 0xFF AND DUP2 JUMP JUMPDEST PUSH1 0x1 SLOAD DUP2 JUMP JUMPDEST PUSH1 0x2 SLOAD DUP2 JUMP JUMPDEST PUSH1 0x4 PUSH0 SWAP1 SLOAD SWAP1 PUSH2 0x100 EXP SWAP1 DIV PUSH20 0xFFFFFFFFFFFFFFFFFFFFFFFFFFFFFFFFFFFFFFFF AND DUP2 JUMP JUMPDEST PUSH0 DUP2 DUP2 SLOAD DUP2 LT PUSH2 0x5EB JUMPI PUSH0 DUP1 REVERT JUMPDEST SWAP1 PUSH0 MSTORE PUSH1 0x20 PUSH0 KECCAK256 ADD PUSH0 SWAP2 POP SWAP1 POP DUP1 SLOAD PUSH2 0x603 SWAP1 PUSH2 0xBF4 JUMP JUMPDEST DUP1 PUSH1 0x1F ADD PUSH1 0x20 DUP1 SWAP2 DIV MUL PUSH1 0x20 ADD PUSH1 0x40 MLOAD SWAP1 DUP2 ADD PUSH1 0x40 MSTORE DUP1 SWAP3 SWAP2 SWAP1 DUP2 DUP2 MSTORE PUSH1 0x20 ADD DUP3 DUP1 SLOAD PUSH2 0x62F SWAP1 PUSH2 0xBF4 JUMP JUMPDEST DUP1 ISZERO PUSH2 0x67A JUMPI DUP1 PUSH1 0x1F LT PUSH2 0x651 JUMPI PUSH2 0x100 DUP1 DUP4 SLOAD DIV MUL DUP4 MSTORE SWAP2 PUSH1 0x20 ADD SWAP2 PUSH2 0x67A JUMP JUMPDEST DUP3 ADD SWAP2 SWAP1 PUSH0 MSTORE PUSH1 0x20 PUSH0 KECCAK256 SWAP1 JUMPDEST DUP2 SLOAD DUP2 MSTORE SWAP1 PUSH1 0x1 ADD SWAP1 PUSH1 0x20 ADD DUP1 DUP4 GT PUSH2 0x65D JUMPI DUP3 SWAP1 SUB PUSH1 0x1F AND DUP3 ADD SWAP2 JUMPDEST POP POP POP POP POP DUP2 JUMP JUMPDEST PUSH1 0x4 PUSH1 0x14 SWAP1 SLOAD SWAP1 PUSH2 0x100 EXP SWAP1 DIV PUSH1 0xFF AND DUP2 JUMP JUMPDEST PUSH0 PUSH0 REVERT JUMPDEST PUSH0 DUP2 SWAP1 POP SWAP2 SWAP1 POP JUMP JUMPDEST PUSH2 0x6AB DUP2 PUSH2 0x699 JUMP JUMPDEST DUP2 EQ PUSH2 0x6B5 JUMPI PUSH0 PUSH0 REVERT JUMPDEST POP JUMP JUMPDEST PUSH0 DUP2 CALLDATALOAD SWAP1 POP PUSH2 0x6C6 DUP2 PUSH2 0x6A2 JUMP JUMPDEST SWAP3 SWAP2 POP POP JUMP JUMPDEST PUSH0 PUSH1 0x20 DUP3 DUP5 SUB SLT ISZERO PUSH2 0x6E1 JUMPI PUSH2 0x6E0 PUSH2 0x695 JUMP JUMPDEST JUMPDEST PUSH0 PUSH2 0x6EE DUP5 DUP3 DUP6 ADD PUSH2 0x6B8 JUMP JUMPDEST SWAP2 POP POP SWAP3 SWAP2 POP POP JUMP JUMPDEST PUSH2 0x700 DUP2 PUSH2 0x699 JUMP JUMPDEST DUP3 MSTORE POP POP JUMP JUMPDEST PUSH0 PUSH1 0x20 DUP3 ADD SWAP1 POP PUSH2 0x719 PUSH0 DUP4 ADD DUP5 PUSH2 0x6F7 JUMP JUMPDEST SWAP3 SWAP2 POP POP JUMP JUMPDEST PUSH0 PUSH20 0xFFFFFFFFFFFFFFFFFFFFFFFFFFFFFFFFFFFFFFFF DUP3 AND SWAP1 POP SWAP2 SWAP1 POP JUMP JUMPDEST PUSH0 PUSH2 0x748 DUP3 PUSH2 0x71F JUMP JUMPDEST SWAP1 POP SWAP2 SWAP1 POP JUMP JUMPDEST PUSH2 0x758 DUP2 PUSH2 0x73E JUMP JUMPDEST DUP2 EQ PUSH2 0x762 JUMPI PUSH0 PUSH0 REVERT JUMPDEST POP JUMP JUMPDEST PUSH0 DUP2 CALLDATALOAD SWAP1 POP PUSH2 0x773 DUP2 PUSH2 0x74F JUMP JUMPDEST SWAP3 SWAP2 POP POP JUMP JUMPDEST PUSH0 PUSH1 0x20 DUP3 DUP5 SUB SLT ISZERO PUSH2 0x78E JUMPI PUSH2 0x78D PUSH2 0x695 JUMP JUMPDEST JUMPDEST PUSH0 PUSH2 0x79B DUP5 DUP3 DUP6 ADD PUSH2 0x765 JUMP JUMPDEST SWAP2 POP POP SWAP3 SWAP2 POP POP JUMP JUMPDEST PUSH0 DUP2 ISZERO ISZERO SWAP1 POP SWAP2 SWAP1 POP JUMP JUMPDEST PUSH2 0x7B8 DUP2 PUSH2 0x7A4 JUMP JUMPDEST DUP3 MSTORE POP POP JUMP JUMPDEST PUSH0 PUSH1 0x20 DUP3 ADD SWAP1 POP PUSH2 0x7D1 PUSH0 DUP4 ADD DUP5 PUSH2 0x7AF JUMP JUMPDEST SWAP3 SWAP2 POP POP JUMP JUMPDEST PUSH2 0x7E0 DUP2 PUSH2 0x73E JUMP JUMPDEST DUP3 MSTORE POP POP JUMP JUMPDEST PUSH0 PUSH1 0x20 DUP3 ADD SWAP1 POP PUSH2 0x7F9 PUSH0 DUP4 ADD DUP5 PUSH2 0x7D7 JUMP JUMPDEST SWAP3 SWAP2 POP POP JUMP JUMPDEST PUSH0 DUP2 MLOAD SWAP1 POP SWAP2 SWAP1 POP JUMP JUMPDEST PUSH0 DUP3 DUP3 MSTORE PUSH1 0x20 DUP3 ADD SWAP1 POP SWAP3 SWAP2 POP POP JUMP JUMPDEST DUP3 DUP2 DUP4 MCOPY PUSH0 DUP4 DUP4 ADD MSTORE POP POP POP JUMP JUMPDEST PUSH0 PUSH1 0x1F NOT PUSH1 0x1F DUP4 ADD AND SWAP1 POP SWAP2 SWAP1 POP JUMP JUMPDEST PUSH0 PUSH2 0x841 DUP3 PUSH2 0x7FF JUMP JUMPDEST PUSH2 0x84B DUP2 DUP6 PUSH2 0x809 JUMP JUMPDEST SWAP4 POP PUSH2 0x85B DUP2 DUP6 PUSH1 0x20 DUP7 ADD PUSH2 0x819 JUMP JUMPDEST PUSH2 0x864 DUP2 PUSH2 0x827 JUMP JUMPDEST DUP5 ADD SWAP2 POP POP SWAP3 SWAP2 POP POP JUMP JUMPDEST PUSH0 PUSH1 0x20 DUP3 ADD SWAP1 POP DUP2 DUP2 SUB PUSH0 DUP4 ADD MSTORE PUSH2 0x887 DUP2 DUP5 PUSH2 0x837 JUMP JUMPDEST SWAP1 POP SWAP3 SWAP2 POP POP JUMP JUMPDEST PUSH32 0x596F757220616464726573732063616E277420766F7465000000000000000000 PUSH0 DUP3 ADD MSTORE POP JUMP JUMPDEST PUSH0 PUSH2 0x8C3 PUSH1 0x17 DUP4 PUSH2 0x809 JUMP JUMPDEST SWAP2 POP PUSH2 0x8CE DUP3 PUSH2 0x88F JUMP JUMPDEST PUSH1 0x20 DUP3 ADD SWAP1 POP SWAP2 SWAP1 POP JUMP JUMPDEST PUSH0 PUSH1 0x20 DUP3 ADD SWAP1 POP DUP2 DUP2 SUB PUSH0 DUP4 ADD MSTORE PUSH2 0x8F0 DUP2 PUSH2 0x8B7 JUMP JUMPDEST SWAP1 POP SWAP2 SWAP1 POP JUMP JUMPDEST PUSH32 0x456C6563746F7220646F6573206E6F7420657869737400000000000000000000 PUSH0 DUP3 ADD MSTORE POP JUMP JUMPDEST PUSH0 PUSH2 0x92B PUSH1 0x16 DUP4 PUSH2 0x809 JUMP JUMPDEST SWAP2 POP PUSH2 0x936 DUP3 PUSH2 0x8F7 JUMP JUMPDEST PUSH1 0x20 DUP3 ADD SWAP1 POP SWAP2 SWAP1 POP JUMP JUMPDEST PUSH0 PUSH1 0x20 DUP3 ADD SWAP1 POP DUP2 DUP2 SUB PUSH0 DUP4 ADD MSTORE PUSH2 0x958 DUP2 PUSH2 0x91F JUMP JUMPDEST SWAP1 POP SWAP2 SWAP1 POP JUMP JUMPDEST PUSH32 0x4D6178696D756D206E756D626572206F6620766F746573206578636565646564 PUSH0 DUP3 ADD MSTORE POP JUMP JUMPDEST PUSH0 PUSH2 0x993 PUSH1 0x20 DUP4 PUSH2 0x809 JUMP JUMPDEST SWAP2 POP PUSH2 0x99E DUP3 PUSH2 0x95F JUMP JUMPDEST PUSH1 0x20 DUP3 ADD SWAP1 POP SWAP2 SWAP1 POP JUMP JUMPDEST PUSH0 PUSH1 0x20 DUP3 ADD SWAP1 POP DUP2 DUP2 SUB PUSH0 DUP4 ADD MSTORE PUSH2 0x9C0 DUP2 PUSH2 0x987 JUMP JUMPDEST SWAP1 POP SWAP2 SWAP1 POP JUMP JUMPDEST PUSH32 0x4F776E657220646F65736E607420766F74650000000000000000000000000000 PUSH0 DUP3 ADD MSTORE POP JUMP JUMPDEST PUSH0 PUSH2 0x9FB PUSH1 0x12 DUP4 PUSH2 0x809 JUMP JUMPDEST SWAP2 POP PUSH2 0xA06 DUP3 PUSH2 0x9C7 JUMP JUMPDEST PUSH1 0x20 DUP3 ADD SWAP1 POP SWAP2 SWAP1 POP JUMP JUMPDEST PUSH0 PUSH1 0x20 DUP3 ADD SWAP1 POP DUP2 DUP2 SUB PUSH0 DUP4 ADD MSTORE PUSH2 0xA28 DUP2 PUSH2 0x9EF JUMP JUMPDEST SWAP1 POP SWAP2 SWAP1 POP JUMP JUMPDEST PUSH32 0x456C656374696F6E732061726520636C6F736564000000000000000000000000 PUSH0 DUP3 ADD MSTORE POP JUMP JUMPDEST PUSH0 PUSH2 0xA63 PUSH1 0x14 DUP4 PUSH2 0x809 JUMP JUMPDEST SWAP2 POP PUSH2 0xA6E DUP3 PUSH2 0xA2F JUMP JUMPDEST PUSH1 0x20 DUP3 ADD SWAP1 POP SWAP2 SWAP1 POP JUMP JUMPDEST PUSH0 PUSH1 0x20 DUP3 ADD SWAP1 POP DUP2 DUP2 SUB PUSH0 DUP4 ADD MSTORE PUSH2 0xA90 DUP2 PUSH2 0xA57 JUMP JUMPDEST SWAP1 POP SWAP2 SWAP1 POP JUMP JUMPDEST PUSH32 0x54696D65206F6620656C656374696F6E7320697320656E646564000000000000 PUSH0 DUP3 ADD MSTORE POP JUMP JUMPDEST PUSH0 PUSH2 0xACB PUSH1 0x1A DUP4 PUSH2 0x809 JUMP JUMPDEST SWAP2 POP PUSH2 0xAD6 DUP3 PUSH2 0xA97 JUMP JUMPDEST PUSH1 0x20 DUP3 ADD SWAP1 POP SWAP2 SWAP1 POP JUMP JUMPDEST PUSH0 PUSH1 0x20 DUP3 ADD SWAP1 POP DUP2 DUP2 SUB PUSH0 DUP4 ADD MSTORE PUSH2 0xAF8 DUP2 PUSH2 0xABF JUMP JUMPDEST SWAP1 POP SWAP2 SWAP1 POP JUMP JUMPDEST PUSH32 0x4E487B7100000000000000000000000000000000000000000000000000000000 PUSH0 MSTORE PUSH1 0x11 PUSH1 0x4 MSTORE PUSH1 0x24 PUSH0 REVERT JUMPDEST PUSH0 PUSH2 0xB36 DUP3 PUSH2 0x699 JUMP JUMPDEST SWAP2 POP PUSH2 0xB41 DUP4 PUSH2 0x699 JUMP JUMPDEST SWAP3 POP DUP3 DUP3 ADD SWAP1 POP DUP1 DUP3 GT ISZERO PUSH2 0xB59 JUMPI PUSH2 0xB58 PUSH2 0xAFF JUMP JUMPDEST JUMPDEST SWAP3 SWAP2 POP POP JUMP JUMPDEST PUSH32 0x4E6F742074686520636F6E7472616374206F776E657200000000000000000000 PUSH0 DUP3 ADD MSTORE POP JUMP JUMPDEST PUSH0 PUSH2 0xB93 PUSH1 0x16 DUP4 PUSH2 0x809 JUMP JUMPDEST SWAP2 POP PUSH2 0xB9E DUP3 PUSH2 0xB5F JUMP JUMPDEST PUSH1 0x20 DUP3 ADD SWAP1 POP SWAP2 SWAP1 POP JUMP JUMPDEST PUSH0 PUSH1 0x20 DUP3 ADD SWAP1 POP DUP2 DUP2 SUB PUSH0 DUP4 ADD MSTORE PUSH2 0xBC0 DUP2 PUSH2 0xB87 JUMP JUMPDEST SWAP1 POP SWAP2 SWAP1 POP JUMP JUMPDEST PUSH32 0x4E487B7100000000000000000000000000000000000000000000000000000000 PUSH0 MSTORE PUSH1 0x22 PUSH1 0x4 MSTORE PUSH1 0x24 PUSH0 REVERT JUMPDEST PUSH0 PUSH1 0x2 DUP3 DIV SWAP1 POP PUSH1 0x1 DUP3 AND DUP1 PUSH2 0xC0B JUMPI PUSH1 0x7F DUP3 AND SWAP2 POP JUMPDEST PUSH1 0x20 DUP3 LT DUP2 SUB PUSH2 0xC1E JUMPI PUSH2 0xC1D PUSH2 0xBC7 JUMP JUMPDEST JUMPDEST POP SWAP2 SWAP1 POP JUMP INVALID LOG2 PUSH5 0x6970667358 0x22 SLT KECCAK256 PUSH22 0x188B79351DBFA42F9E19587388193AEF257627A47D21 0xDF DUP2 GASPRICE SWAP11 PUSH21 0xF85B2DC664736F6C634300081E0033000000000000 "
		},
		"gasEstimates": {
			"creation": {
				"codeDepositCost": "632400",
				"executionCost": "infinite",
				"totalCost": "infinite"
			},
			"external": {
				"allVotes()": "2447",
				"electionEndTimeInMinutes()": "2492",
				"electors(uint256)": "infinite",
				"isElectionActive()": "2605",
				"maxVotes()": "2425",
				"numberOfVotes(uint256)": "infinite",
				"owner()": "2552",
				"stopVote()": "26673",
				"userVotes(address)": "2922",
				"vote(uint256)": "infinite"
			}
		},
		"methodIdentifiers": {
			"allVotes()": "804a542e",
			"electionEndTimeInMinutes()": "47f1feda",
			"electors(uint256)": "ac9b9230",
			"isElectionActive()": "c8442239",
			"maxVotes()": "777c3acf",
			"numberOfVotes(uint256)": "1fcc81be",
			"owner()": "8da5cb5b",
			"stopVote()": "2495c0ce",
			"userVotes(address)": "62190150",
			"vote(uint256)": "0121b93f"
		}
	},
	"abi": [
		{
			"inputs": [
				{
					"internalType": "string[]",
					"name": "_electors",
					"type": "string[]"
				},
				{
					"internalType": "uint256",
					"name": "_maxVotes",
					"type": "uint256"
				},
				{
					"internalType": "uint256",
					"name": "_electionEndTimeInMinutes",
					"type": "uint256"
				}
			],
			"stateMutability": "nonpayable",
			"type": "constructor"
		},
		{
			"inputs": [],
			"name": "allVotes",
			"outputs": [
				{
					"internalType": "uint256",
					"name": "",
					"type": "uint256"
				}
			],
			"stateMutability": "view",
			"type": "function"
		},
		{
			"inputs": [],
			"name": "electionEndTimeInMinutes",
			"outputs": [
				{
					"internalType": "uint256",
					"name": "",
					"type": "uint256"
				}
			],
			"stateMutability": "view",
			"type": "function"
		},
		{
			"inputs": [
				{
					"internalType": "uint256",
					"name": "",
					"type": "uint256"
				}
			],
			"name": "electors",
			"outputs": [
				{
					"internalType": "string",
					"name": "",
					"type": "string"
				}
			],
			"stateMutability": "view",
			"type": "function"
		},
		{
			"inputs": [],
			"name": "isElectionActive",
			"outputs": [
				{
					"internalType": "bool",
					"name": "",
					"type": "bool"
				}
			],
			"stateMutability": "view",
			"type": "function"
		},
		{
			"inputs": [],
			"name": "maxVotes",
			"outputs": [
				{
					"internalType": "uint256",
					"name": "",
					"type": "uint256"
				}
			],
			"stateMutability": "view",
			"type": "function"
		},
		{
			"inputs": [
				{
					"internalType": "uint256",
					"name": "",
					"type": "uint256"
				}
			],
			"name": "numberOfVotes",
			"outputs": [
				{
					"internalType": "uint256",
					"name": "",
					"type": "uint256"
				}
			],
			"stateMutability": "view",
			"type": "function"
		},
		{
			"inputs": [],
			"name": "owner",
			"outputs": [
				{
					"internalType": "address",
					"name": "",
					"type": "address"
				}
			],
			"stateMutability": "view",
			"type": "function"
		},
		{
			"inputs": [],
			"name": "stopVote",
			"outputs": [],
			"stateMutability": "nonpayable",
			"type": "function"
		},
		{
			"inputs": [
				{
					"internalType": "address",
					"name": "",
					"type": "address"
				}
			],
			"name": "userVotes",
			"outputs": [
				{
					"internalType": "bool",
					"name": "",
					"type": "bool"
				}
			],
			"stateMutability": "view",
			"type": "function"
		},
		{
			"inputs": [
				{
					"internalType": "uint256",
					"name": "_number",
					"type": "uint256"
				}
			],
			"name": "vote",
			"outputs": [],
			"stateMutability": "nonpayable",
			"type": "function"
		}
	]
}